{
	"payment tracking.sol": {
		"PaymentTracker": {
			"abi": [
				{
					"anonymous": false,
					"inputs": [
						{
							"indexed": false,
							"internalType": "uint256",
							"name": "paymentId",
							"type": "uint256"
						},
						{
							"indexed": false,
							"internalType": "address",
							"name": "payer",
							"type": "address"
						},
						{
							"indexed": false,
							"internalType": "address",
							"name": "payee",
							"type": "address"
						},
						{
							"indexed": false,
							"internalType": "uint256",
							"name": "amount",
							"type": "uint256"
						}
					],
					"name": "PaymentMade",
					"type": "event"
				},
				{
					"inputs": [
						{
							"internalType": "uint256",
							"name": "_paymentId",
							"type": "uint256"
						}
					],
					"name": "getPayment",
					"outputs": [
						{
							"components": [
								{
									"internalType": "address",
									"name": "payer",
									"type": "address"
								},
								{
									"internalType": "address",
									"name": "payee",
									"type": "address"
								},
								{
									"internalType": "uint256",
									"name": "amount",
									"type": "uint256"
								},
								{
									"internalType": "uint256",
									"name": "timestamp",
									"type": "uint256"
								}
							],
							"internalType": "struct PaymentTracker.Payment",
							"name": "",
							"type": "tuple"
						}
					],
					"stateMutability": "view",
					"type": "function"
				},
				{
					"inputs": [
						{
							"internalType": "address",
							"name": "_payee",
							"type": "address"
						},
						{
							"internalType": "uint256",
							"name": "_amount",
							"type": "uint256"
						}
					],
					"name": "makePayment",
					"outputs": [],
					"stateMutability": "nonpayable",
					"type": "function"
				},
				{
					"inputs": [
						{
							"internalType": "uint256",
							"name": "",
							"type": "uint256"
						}
					],
					"name": "payments",
					"outputs": [
						{
							"internalType": "address",
							"name": "payer",
							"type": "address"
						},
						{
							"internalType": "address",
							"name": "payee",
							"type": "address"
						},
						{
							"internalType": "uint256",
							"name": "amount",
							"type": "uint256"
						},
						{
							"internalType": "uint256",
							"name": "timestamp",
							"type": "uint256"
						}
					],
					"stateMutability": "view",
					"type": "function"
				}
			],
			"devdoc": {
				"kind": "dev",
				"methods": {},
				"version": 1
			},
			"evm": {
				"assembly": "    /* \"payment tracking.sol\":60:887  contract PaymentTracker {... */\n  mstore(0x40, 0x80)\n  callvalue\n  dup1\n  iszero\n  tag_1\n  jumpi\n  0x00\n  dup1\n  revert\ntag_1:\n  pop\n  dataSize(sub_0)\n  dup1\n  dataOffset(sub_0)\n  0x00\n  codecopy\n  0x00\n  return\nstop\n\nsub_0: assembly {\n        /* \"payment tracking.sol\":60:887  contract PaymentTracker {... */\n      mstore(0x40, 0x80)\n      callvalue\n      dup1\n      iszero\n      tag_1\n      jumpi\n      0x00\n      dup1\n      revert\n    tag_1:\n      pop\n      jumpi(tag_2, lt(calldatasize, 0x04))\n      shr(0xe0, calldataload(0x00))\n      dup1\n      0x3280a836\n      eq\n      tag_3\n      jumpi\n      dup1\n      0x87d81789\n      eq\n      tag_4\n      jumpi\n      dup1\n      0xf98cf07c\n      eq\n      tag_5\n      jumpi\n    tag_2:\n      0x00\n      dup1\n      revert\n        /* \"payment tracking.sol\":761:884  function getPayment(uint256 _paymentId) public view returns (Payment memory) {... */\n    tag_3:\n      tag_6\n      0x04\n      dup1\n      calldatasize\n      sub\n      dup2\n      add\n      swap1\n      tag_7\n      swap2\n      swap1\n      tag_8\n      jump\t// in\n    tag_7:\n      tag_9\n      jump\t// in\n    tag_6:\n      mload(0x40)\n      tag_10\n      swap2\n      swap1\n      tag_11\n      jump\t// in\n    tag_10:\n      mload(0x40)\n      dup1\n      swap2\n      sub\n      swap1\n      return\n        /* \"payment tracking.sol\":95:139  mapping (uint256 => Payment) public payments */\n    tag_4:\n      tag_12\n      0x04\n      dup1\n      calldatasize\n      sub\n      dup2\n      add\n      swap1\n      tag_13\n      swap2\n      swap1\n      tag_8\n      jump\t// in\n    tag_13:\n      tag_14\n      jump\t// in\n    tag_12:\n      mload(0x40)\n      tag_15\n      swap5\n      swap4\n      swap3\n      swap2\n      swap1\n      tag_16\n      jump\t// in\n    tag_15:\n      mload(0x40)\n      dup1\n      swap2\n      sub\n      swap1\n      return\n        /* \"payment tracking.sol\":375:753  function makePayment(address _payee, uint256 _amount) public {... */\n    tag_5:\n      tag_17\n      0x04\n      dup1\n      calldatasize\n      sub\n      dup2\n      add\n      swap1\n      tag_18\n      swap2\n      swap1\n      tag_19\n      jump\t// in\n    tag_18:\n      tag_20\n      jump\t// in\n    tag_17:\n      stop\n        /* \"payment tracking.sol\":761:884  function getPayment(uint256 _paymentId) public view returns (Payment memory) {... */\n    tag_9:\n        /* \"payment tracking.sol\":822:836  Payment memory */\n      tag_21\n      tag_22\n      jump\t// in\n    tag_21:\n        /* \"payment tracking.sol\":856:864  payments */\n      0x00\n        /* \"payment tracking.sol\":856:876  payments[_paymentId] */\n      dup1\n        /* \"payment tracking.sol\":865:875  _paymentId */\n      dup4\n        /* \"payment tracking.sol\":856:876  payments[_paymentId] */\n      dup2\n      mstore\n      0x20\n      add\n      swap1\n      dup2\n      mstore\n      0x20\n      add\n      0x00\n      keccak256\n        /* \"payment tracking.sol\":849:876  return payments[_paymentId] */\n      mload(0x40)\n      dup1\n      0x80\n      add\n      0x40\n      mstore\n      swap1\n      dup2\n      0x00\n      dup3\n      add\n      0x00\n      swap1\n      sload\n      swap1\n      0x0100\n      exp\n      swap1\n      div\n      0xffffffffffffffffffffffffffffffffffffffff\n      and\n      0xffffffffffffffffffffffffffffffffffffffff\n      and\n      0xffffffffffffffffffffffffffffffffffffffff\n      and\n      dup2\n      mstore\n      0x20\n      add\n      0x01\n      dup3\n      add\n      0x00\n      swap1\n      sload\n      swap1\n      0x0100\n      exp\n      swap1\n      div\n      0xffffffffffffffffffffffffffffffffffffffff\n      and\n      0xffffffffffffffffffffffffffffffffffffffff\n      and\n      0xffffffffffffffffffffffffffffffffffffffff\n      and\n      dup2\n      mstore\n      0x20\n      add\n      0x02\n      dup3\n      add\n      sload\n      dup2\n      mstore\n      0x20\n      add\n      0x03\n      dup3\n      add\n      sload\n      dup2\n      mstore\n      pop\n      pop\n      swap1\n      pop\n        /* \"payment tracking.sol\":761:884  function getPayment(uint256 _paymentId) public view returns (Payment memory) {... */\n      swap2\n      swap1\n      pop\n      jump\t// out\n        /* \"payment tracking.sol\":95:139  mapping (uint256 => Payment) public payments */\n    tag_14:\n      mstore(0x20, 0x00)\n      dup1\n      0x00\n      mstore\n      keccak256(0x00, 0x40)\n      0x00\n      swap2\n      pop\n      swap1\n      pop\n      dup1\n      0x00\n      add\n      0x00\n      swap1\n      sload\n      swap1\n      0x0100\n      exp\n      swap1\n      div\n      0xffffffffffffffffffffffffffffffffffffffff\n      and\n      swap1\n      dup1\n      0x01\n      add\n      0x00\n      swap1\n      sload\n      swap1\n      0x0100\n      exp\n      swap1\n      div\n      0xffffffffffffffffffffffffffffffffffffffff\n      and\n      swap1\n      dup1\n      0x02\n      add\n      sload\n      swap1\n      dup1\n      0x03\n      add\n      sload\n      swap1\n      pop\n      dup5\n      jump\t// out\n        /* \"payment tracking.sol\":375:753  function makePayment(address _payee, uint256 _amount) public {... */\n    tag_20:\n        /* \"payment tracking.sol\":447:464  uint256 paymentId */\n      0x00\n        /* \"payment tracking.sol\":502:517  block.timestamp */\n      timestamp\n        /* \"payment tracking.sol\":519:529  msg.sender */\n      caller\n        /* \"payment tracking.sol\":531:537  _payee */\n      dup5\n        /* \"payment tracking.sol\":485:538  abi.encodePacked(block.timestamp, msg.sender, _payee) */\n      add(0x20, mload(0x40))\n      tag_25\n      swap4\n      swap3\n      swap2\n      swap1\n      tag_26\n      jump\t// in\n    tag_25:\n      mload(0x40)\n      0x20\n      dup2\n      dup4\n      sub\n      sub\n      dup2\n      mstore\n      swap1\n      0x40\n      mstore\n        /* \"payment tracking.sol\":475:539  keccak256(abi.encodePacked(block.timestamp, msg.sender, _payee)) */\n      dup1\n      mload\n      swap1\n      0x20\n      add\n      keccak256\n        /* \"payment tracking.sol\":467:540  uint256(keccak256(abi.encodePacked(block.timestamp, msg.sender, _payee))) */\n      0x00\n      shr\n        /* \"payment tracking.sol\":447:540  uint256 paymentId = uint256(keccak256(abi.encodePacked(block.timestamp, msg.sender, _payee))) */\n      swap1\n      pop\n        /* \"payment tracking.sol\":556:578  Payment memory payment */\n      0x00\n        /* \"payment tracking.sol\":581:634  Payment(msg.sender, _payee, _amount, block.timestamp) */\n      mload(0x40)\n      dup1\n      0x80\n      add\n      0x40\n      mstore\n      dup1\n        /* \"payment tracking.sol\":589:599  msg.sender */\n      caller\n        /* \"payment tracking.sol\":581:634  Payment(msg.sender, _payee, _amount, block.timestamp) */\n      0xffffffffffffffffffffffffffffffffffffffff\n      and\n      dup2\n      mstore\n      0x20\n      add\n        /* \"payment tracking.sol\":601:607  _payee */\n      dup6\n        /* \"payment tracking.sol\":581:634  Payment(msg.sender, _payee, _amount, block.timestamp) */\n      0xffffffffffffffffffffffffffffffffffffffff\n      and\n      dup2\n      mstore\n      0x20\n      add\n        /* \"payment tracking.sol\":609:616  _amount */\n      dup5\n        /* \"payment tracking.sol\":581:634  Payment(msg.sender, _payee, _amount, block.timestamp) */\n      dup2\n      mstore\n      0x20\n      add\n        /* \"payment tracking.sol\":618:633  block.timestamp */\n      timestamp\n        /* \"payment tracking.sol\":581:634  Payment(msg.sender, _payee, _amount, block.timestamp) */\n      dup2\n      mstore\n      pop\n        /* \"payment tracking.sol\":556:634  Payment memory payment = Payment(msg.sender, _payee, _amount, block.timestamp) */\n      swap1\n      pop\n        /* \"payment tracking.sol\":669:676  payment */\n      dup1\n        /* \"payment tracking.sol\":647:655  payments */\n      0x00\n        /* \"payment tracking.sol\":647:666  payments[paymentId] */\n      dup1\n        /* \"payment tracking.sol\":656:665  paymentId */\n      dup5\n        /* \"payment tracking.sol\":647:666  payments[paymentId] */\n      dup2\n      mstore\n      0x20\n      add\n      swap1\n      dup2\n      mstore\n      0x20\n      add\n      0x00\n      keccak256\n        /* \"payment tracking.sol\":647:676  payments[paymentId] = payment */\n      0x00\n      dup3\n      add\n      mload\n      dup2\n      0x00\n      add\n      exp(0x0100, 0x00)\n      dup2\n      sload\n      dup2\n      0xffffffffffffffffffffffffffffffffffffffff\n      mul\n      not\n      and\n      swap1\n      dup4\n      0xffffffffffffffffffffffffffffffffffffffff\n      and\n      mul\n      or\n      swap1\n      sstore\n      pop\n      0x20\n      dup3\n      add\n      mload\n      dup2\n      0x01\n      add\n      exp(0x0100, 0x00)\n      dup2\n      sload\n      dup2\n      0xffffffffffffffffffffffffffffffffffffffff\n      mul\n      not\n      and\n      swap1\n      dup4\n      0xffffffffffffffffffffffffffffffffffffffff\n      and\n      mul\n      or\n      swap1\n      sstore\n      pop\n      0x40\n      dup3\n      add\n      mload\n      dup2\n      0x02\n      add\n      sstore\n      0x60\n      dup3\n      add\n      mload\n      dup2\n      0x03\n      add\n      sstore\n      swap1\n      pop\n      pop\n        /* \"payment tracking.sol\":694:745  PaymentMade(paymentId, msg.sender, _payee, _amount) */\n      0xd51bb0381ff8d9476c9493a30eafdb1966dca4b0c0db1a2d4e244a3a8b16ffb8\n        /* \"payment tracking.sol\":706:715  paymentId */\n      dup3\n        /* \"payment tracking.sol\":717:727  msg.sender */\n      caller\n        /* \"payment tracking.sol\":729:735  _payee */\n      dup7\n        /* \"payment tracking.sol\":737:744  _amount */\n      dup7\n        /* \"payment tracking.sol\":694:745  PaymentMade(paymentId, msg.sender, _payee, _amount) */\n      mload(0x40)\n      tag_27\n      swap5\n      swap4\n      swap3\n      swap2\n      swap1\n      tag_28\n      jump\t// in\n    tag_27:\n      mload(0x40)\n      dup1\n      swap2\n      sub\n      swap1\n      log1\n        /* \"payment tracking.sol\":436:753  {... */\n      pop\n      pop\n        /* \"payment tracking.sol\":375:753  function makePayment(address _payee, uint256 _amount) public {... */\n      pop\n      pop\n      jump\t// out\n    tag_22:\n      mload(0x40)\n      dup1\n      0x80\n      add\n      0x40\n      mstore\n      dup1\n      and(0xffffffffffffffffffffffffffffffffffffffff, 0x00)\n      dup2\n      mstore\n      0x20\n      add\n      and(0xffffffffffffffffffffffffffffffffffffffff, 0x00)\n      dup2\n      mstore\n      0x20\n      add\n      0x00\n      dup2\n      mstore\n      0x20\n      add\n      0x00\n      dup2\n      mstore\n      pop\n      swap1\n      jump\t// out\n        /* \"#utility.yul\":88:205   */\n    tag_30:\n        /* \"#utility.yul\":197:198   */\n      0x00\n        /* \"#utility.yul\":194:195   */\n      dup1\n        /* \"#utility.yul\":187:199   */\n      revert\n        /* \"#utility.yul\":334:411   */\n    tag_32:\n        /* \"#utility.yul\":371:378   */\n      0x00\n        /* \"#utility.yul\":400:405   */\n      dup2\n        /* \"#utility.yul\":389:405   */\n      swap1\n      pop\n        /* \"#utility.yul\":334:411   */\n      swap2\n      swap1\n      pop\n      jump\t// out\n        /* \"#utility.yul\":417:539   */\n    tag_33:\n        /* \"#utility.yul\":490:514   */\n      tag_56\n        /* \"#utility.yul\":508:513   */\n      dup2\n        /* \"#utility.yul\":490:514   */\n      tag_32\n      jump\t// in\n    tag_56:\n        /* \"#utility.yul\":483:488   */\n      dup2\n        /* \"#utility.yul\":480:515   */\n      eq\n        /* \"#utility.yul\":470:533   */\n      tag_57\n      jumpi\n        /* \"#utility.yul\":529:530   */\n      0x00\n        /* \"#utility.yul\":526:527   */\n      dup1\n        /* \"#utility.yul\":519:531   */\n      revert\n        /* \"#utility.yul\":470:533   */\n    tag_57:\n        /* \"#utility.yul\":417:539   */\n      pop\n      jump\t// out\n        /* \"#utility.yul\":545:684   */\n    tag_34:\n        /* \"#utility.yul\":591:596   */\n      0x00\n        /* \"#utility.yul\":629:635   */\n      dup2\n        /* \"#utility.yul\":616:636   */\n      calldataload\n        /* \"#utility.yul\":607:636   */\n      swap1\n      pop\n        /* \"#utility.yul\":645:678   */\n      tag_59\n        /* \"#utility.yul\":672:677   */\n      dup2\n        /* \"#utility.yul\":645:678   */\n      tag_33\n      jump\t// in\n    tag_59:\n        /* \"#utility.yul\":545:684   */\n      swap3\n      swap2\n      pop\n      pop\n      jump\t// out\n        /* \"#utility.yul\":690:1019   */\n    tag_8:\n        /* \"#utility.yul\":749:755   */\n      0x00\n        /* \"#utility.yul\":798:800   */\n      0x20\n        /* \"#utility.yul\":786:795   */\n      dup3\n        /* \"#utility.yul\":777:784   */\n      dup5\n        /* \"#utility.yul\":773:796   */\n      sub\n        /* \"#utility.yul\":769:801   */\n      slt\n        /* \"#utility.yul\":766:885   */\n      iszero\n      tag_61\n      jumpi\n        /* \"#utility.yul\":804:883   */\n      tag_62\n      tag_30\n      jump\t// in\n    tag_62:\n        /* \"#utility.yul\":766:885   */\n    tag_61:\n        /* \"#utility.yul\":924:925   */\n      0x00\n        /* \"#utility.yul\":949:1002   */\n      tag_63\n        /* \"#utility.yul\":994:1001   */\n      dup5\n        /* \"#utility.yul\":985:991   */\n      dup3\n        /* \"#utility.yul\":974:983   */\n      dup6\n        /* \"#utility.yul\":970:992   */\n      add\n        /* \"#utility.yul\":949:1002   */\n      tag_34\n      jump\t// in\n    tag_63:\n        /* \"#utility.yul\":939:1002   */\n      swap2\n      pop\n        /* \"#utility.yul\":895:1012   */\n      pop\n        /* \"#utility.yul\":690:1019   */\n      swap3\n      swap2\n      pop\n      pop\n      jump\t// out\n        /* \"#utility.yul\":1025:1151   */\n    tag_35:\n        /* \"#utility.yul\":1062:1069   */\n      0x00\n        /* \"#utility.yul\":1102:1144   */\n      0xffffffffffffffffffffffffffffffffffffffff\n        /* \"#utility.yul\":1095:1100   */\n      dup3\n        /* \"#utility.yul\":1091:1145   */\n      and\n        /* \"#utility.yul\":1080:1145   */\n      swap1\n      pop\n        /* \"#utility.yul\":1025:1151   */\n      swap2\n      swap1\n      pop\n      jump\t// out\n        /* \"#utility.yul\":1157:1253   */\n    tag_36:\n        /* \"#utility.yul\":1194:1201   */\n      0x00\n        /* \"#utility.yul\":1223:1247   */\n      tag_66\n        /* \"#utility.yul\":1241:1246   */\n      dup3\n        /* \"#utility.yul\":1223:1247   */\n      tag_35\n      jump\t// in\n    tag_66:\n        /* \"#utility.yul\":1212:1247   */\n      swap1\n      pop\n        /* \"#utility.yul\":1157:1253   */\n      swap2\n      swap1\n      pop\n      jump\t// out\n        /* \"#utility.yul\":1259:1367   */\n    tag_37:\n        /* \"#utility.yul\":1336:1360   */\n      tag_68\n        /* \"#utility.yul\":1354:1359   */\n      dup2\n        /* \"#utility.yul\":1336:1360   */\n      tag_36\n      jump\t// in\n    tag_68:\n        /* \"#utility.yul\":1331:1334   */\n      dup3\n        /* \"#utility.yul\":1324:1361   */\n      mstore\n        /* \"#utility.yul\":1259:1367   */\n      pop\n      pop\n      jump\t// out\n        /* \"#utility.yul\":1373:1481   */\n    tag_38:\n        /* \"#utility.yul\":1450:1474   */\n      tag_70\n        /* \"#utility.yul\":1468:1473   */\n      dup2\n        /* \"#utility.yul\":1450:1474   */\n      tag_32\n      jump\t// in\n    tag_70:\n        /* \"#utility.yul\":1445:1448   */\n      dup3\n        /* \"#utility.yul\":1438:1475   */\n      mstore\n        /* \"#utility.yul\":1373:1481   */\n      pop\n      pop\n      jump\t// out\n        /* \"#utility.yul\":1557:2417   */\n    tag_39:\n        /* \"#utility.yul\":1700:1704   */\n      0x80\n        /* \"#utility.yul\":1695:1698   */\n      dup3\n        /* \"#utility.yul\":1691:1705   */\n      add\n        /* \"#utility.yul\":1788:1792   */\n      0x00\n        /* \"#utility.yul\":1781:1786   */\n      dup3\n        /* \"#utility.yul\":1777:1793   */\n      add\n        /* \"#utility.yul\":1771:1794   */\n      mload\n        /* \"#utility.yul\":1807:1870   */\n      tag_72\n        /* \"#utility.yul\":1864:1868   */\n      0x00\n        /* \"#utility.yul\":1859:1862   */\n      dup6\n        /* \"#utility.yul\":1855:1869   */\n      add\n        /* \"#utility.yul\":1841:1853   */\n      dup3\n        /* \"#utility.yul\":1807:1870   */\n      tag_37\n      jump\t// in\n    tag_72:\n        /* \"#utility.yul\":1715:1880   */\n      pop\n        /* \"#utility.yul\":1963:1967   */\n      0x20\n        /* \"#utility.yul\":1956:1961   */\n      dup3\n        /* \"#utility.yul\":1952:1968   */\n      add\n        /* \"#utility.yul\":1946:1969   */\n      mload\n        /* \"#utility.yul\":1982:2045   */\n      tag_73\n        /* \"#utility.yul\":2039:2043   */\n      0x20\n        /* \"#utility.yul\":2034:2037   */\n      dup6\n        /* \"#utility.yul\":2030:2044   */\n      add\n        /* \"#utility.yul\":2016:2028   */\n      dup3\n        /* \"#utility.yul\":1982:2045   */\n      tag_37\n      jump\t// in\n    tag_73:\n        /* \"#utility.yul\":1890:2055   */\n      pop\n        /* \"#utility.yul\":2139:2143   */\n      0x40\n        /* \"#utility.yul\":2132:2137   */\n      dup3\n        /* \"#utility.yul\":2128:2144   */\n      add\n        /* \"#utility.yul\":2122:2145   */\n      mload\n        /* \"#utility.yul\":2158:2221   */\n      tag_74\n        /* \"#utility.yul\":2215:2219   */\n      0x40\n        /* \"#utility.yul\":2210:2213   */\n      dup6\n        /* \"#utility.yul\":2206:2220   */\n      add\n        /* \"#utility.yul\":2192:2204   */\n      dup3\n        /* \"#utility.yul\":2158:2221   */\n      tag_38\n      jump\t// in\n    tag_74:\n        /* \"#utility.yul\":2065:2231   */\n      pop\n        /* \"#utility.yul\":2318:2322   */\n      0x60\n        /* \"#utility.yul\":2311:2316   */\n      dup3\n        /* \"#utility.yul\":2307:2323   */\n      add\n        /* \"#utility.yul\":2301:2324   */\n      mload\n        /* \"#utility.yul\":2337:2400   */\n      tag_75\n        /* \"#utility.yul\":2394:2398   */\n      0x60\n        /* \"#utility.yul\":2389:2392   */\n      dup6\n        /* \"#utility.yul\":2385:2399   */\n      add\n        /* \"#utility.yul\":2371:2383   */\n      dup3\n        /* \"#utility.yul\":2337:2400   */\n      tag_38\n      jump\t// in\n    tag_75:\n        /* \"#utility.yul\":2241:2410   */\n      pop\n        /* \"#utility.yul\":1669:2417   */\n      pop\n        /* \"#utility.yul\":1557:2417   */\n      pop\n      pop\n      jump\t// out\n        /* \"#utility.yul\":2423:2738   */\n    tag_11:\n        /* \"#utility.yul\":2562:2566   */\n      0x00\n        /* \"#utility.yul\":2600:2603   */\n      0x80\n        /* \"#utility.yul\":2589:2598   */\n      dup3\n        /* \"#utility.yul\":2585:2604   */\n      add\n        /* \"#utility.yul\":2577:2604   */\n      swap1\n      pop\n        /* \"#utility.yul\":2614:2731   */\n      tag_77\n        /* \"#utility.yul\":2728:2729   */\n      0x00\n        /* \"#utility.yul\":2717:2726   */\n      dup4\n        /* \"#utility.yul\":2713:2730   */\n      add\n        /* \"#utility.yul\":2704:2710   */\n      dup5\n        /* \"#utility.yul\":2614:2731   */\n      tag_39\n      jump\t// in\n    tag_77:\n        /* \"#utility.yul\":2423:2738   */\n      swap3\n      swap2\n      pop\n      pop\n      jump\t// out\n        /* \"#utility.yul\":2744:2862   */\n    tag_40:\n        /* \"#utility.yul\":2831:2855   */\n      tag_79\n        /* \"#utility.yul\":2849:2854   */\n      dup2\n        /* \"#utility.yul\":2831:2855   */\n      tag_36\n      jump\t// in\n    tag_79:\n        /* \"#utility.yul\":2826:2829   */\n      dup3\n        /* \"#utility.yul\":2819:2856   */\n      mstore\n        /* \"#utility.yul\":2744:2862   */\n      pop\n      pop\n      jump\t// out\n        /* \"#utility.yul\":2868:2986   */\n    tag_41:\n        /* \"#utility.yul\":2955:2979   */\n      tag_81\n        /* \"#utility.yul\":2973:2978   */\n      dup2\n        /* \"#utility.yul\":2955:2979   */\n      tag_32\n      jump\t// in\n    tag_81:\n        /* \"#utility.yul\":2950:2953   */\n      dup3\n        /* \"#utility.yul\":2943:2980   */\n      mstore\n        /* \"#utility.yul\":2868:2986   */\n      pop\n      pop\n      jump\t// out\n        /* \"#utility.yul\":2992:3545   */\n    tag_16:\n        /* \"#utility.yul\":3169:3173   */\n      0x00\n        /* \"#utility.yul\":3207:3210   */\n      0x80\n        /* \"#utility.yul\":3196:3205   */\n      dup3\n        /* \"#utility.yul\":3192:3211   */\n      add\n        /* \"#utility.yul\":3184:3211   */\n      swap1\n      pop\n        /* \"#utility.yul\":3221:3292   */\n      tag_83\n        /* \"#utility.yul\":3289:3290   */\n      0x00\n        /* \"#utility.yul\":3278:3287   */\n      dup4\n        /* \"#utility.yul\":3274:3291   */\n      add\n        /* \"#utility.yul\":3265:3271   */\n      dup8\n        /* \"#utility.yul\":3221:3292   */\n      tag_40\n      jump\t// in\n    tag_83:\n        /* \"#utility.yul\":3302:3374   */\n      tag_84\n        /* \"#utility.yul\":3370:3372   */\n      0x20\n        /* \"#utility.yul\":3359:3368   */\n      dup4\n        /* \"#utility.yul\":3355:3373   */\n      add\n        /* \"#utility.yul\":3346:3352   */\n      dup7\n        /* \"#utility.yul\":3302:3374   */\n      tag_40\n      jump\t// in\n    tag_84:\n        /* \"#utility.yul\":3384:3456   */\n      tag_85\n        /* \"#utility.yul\":3452:3454   */\n      0x40\n        /* \"#utility.yul\":3441:3450   */\n      dup4\n        /* \"#utility.yul\":3437:3455   */\n      add\n        /* \"#utility.yul\":3428:3434   */\n      dup6\n        /* \"#utility.yul\":3384:3456   */\n      tag_41\n      jump\t// in\n    tag_85:\n        /* \"#utility.yul\":3466:3538   */\n      tag_86\n        /* \"#utility.yul\":3534:3536   */\n      0x60\n        /* \"#utility.yul\":3523:3532   */\n      dup4\n        /* \"#utility.yul\":3519:3537   */\n      add\n        /* \"#utility.yul\":3510:3516   */\n      dup5\n        /* \"#utility.yul\":3466:3538   */\n      tag_41\n      jump\t// in\n    tag_86:\n        /* \"#utility.yul\":2992:3545   */\n      swap6\n      swap5\n      pop\n      pop\n      pop\n      pop\n      pop\n      jump\t// out\n        /* \"#utility.yul\":3551:3673   */\n    tag_42:\n        /* \"#utility.yul\":3624:3648   */\n      tag_88\n        /* \"#utility.yul\":3642:3647   */\n      dup2\n        /* \"#utility.yul\":3624:3648   */\n      tag_36\n      jump\t// in\n    tag_88:\n        /* \"#utility.yul\":3617:3622   */\n      dup2\n        /* \"#utility.yul\":3614:3649   */\n      eq\n        /* \"#utility.yul\":3604:3667   */\n      tag_89\n      jumpi\n        /* \"#utility.yul\":3663:3664   */\n      0x00\n        /* \"#utility.yul\":3660:3661   */\n      dup1\n        /* \"#utility.yul\":3653:3665   */\n      revert\n        /* \"#utility.yul\":3604:3667   */\n    tag_89:\n        /* \"#utility.yul\":3551:3673   */\n      pop\n      jump\t// out\n        /* \"#utility.yul\":3679:3818   */\n    tag_43:\n        /* \"#utility.yul\":3725:3730   */\n      0x00\n        /* \"#utility.yul\":3763:3769   */\n      dup2\n        /* \"#utility.yul\":3750:3770   */\n      calldataload\n        /* \"#utility.yul\":3741:3770   */\n      swap1\n      pop\n        /* \"#utility.yul\":3779:3812   */\n      tag_91\n        /* \"#utility.yul\":3806:3811   */\n      dup2\n        /* \"#utility.yul\":3779:3812   */\n      tag_42\n      jump\t// in\n    tag_91:\n        /* \"#utility.yul\":3679:3818   */\n      swap3\n      swap2\n      pop\n      pop\n      jump\t// out\n        /* \"#utility.yul\":3824:4298   */\n    tag_19:\n        /* \"#utility.yul\":3892:3898   */\n      0x00\n        /* \"#utility.yul\":3900:3906   */\n      dup1\n        /* \"#utility.yul\":3949:3951   */\n      0x40\n        /* \"#utility.yul\":3937:3946   */\n      dup4\n        /* \"#utility.yul\":3928:3935   */\n      dup6\n        /* \"#utility.yul\":3924:3947   */\n      sub\n        /* \"#utility.yul\":3920:3952   */\n      slt\n        /* \"#utility.yul\":3917:4036   */\n      iszero\n      tag_93\n      jumpi\n        /* \"#utility.yul\":3955:4034   */\n      tag_94\n      tag_30\n      jump\t// in\n    tag_94:\n        /* \"#utility.yul\":3917:4036   */\n    tag_93:\n        /* \"#utility.yul\":4075:4076   */\n      0x00\n        /* \"#utility.yul\":4100:4153   */\n      tag_95\n        /* \"#utility.yul\":4145:4152   */\n      dup6\n        /* \"#utility.yul\":4136:4142   */\n      dup3\n        /* \"#utility.yul\":4125:4134   */\n      dup7\n        /* \"#utility.yul\":4121:4143   */\n      add\n        /* \"#utility.yul\":4100:4153   */\n      tag_43\n      jump\t// in\n    tag_95:\n        /* \"#utility.yul\":4090:4153   */\n      swap3\n      pop\n        /* \"#utility.yul\":4046:4163   */\n      pop\n        /* \"#utility.yul\":4202:4204   */\n      0x20\n        /* \"#utility.yul\":4228:4281   */\n      tag_96\n        /* \"#utility.yul\":4273:4280   */\n      dup6\n        /* \"#utility.yul\":4264:4270   */\n      dup3\n        /* \"#utility.yul\":4253:4262   */\n      dup7\n        /* \"#utility.yul\":4249:4271   */\n      add\n        /* \"#utility.yul\":4228:4281   */\n      tag_34\n      jump\t// in\n    tag_96:\n        /* \"#utility.yul\":4218:4281   */\n      swap2\n      pop\n        /* \"#utility.yul\":4173:4291   */\n      pop\n        /* \"#utility.yul\":3824:4298   */\n      swap3\n      pop\n      swap3\n      swap1\n      pop\n      jump\t// out\n        /* \"#utility.yul\":4304:4383   */\n    tag_44:\n        /* \"#utility.yul\":4343:4350   */\n      0x00\n        /* \"#utility.yul\":4372:4377   */\n      dup2\n        /* \"#utility.yul\":4361:4377   */\n      swap1\n      pop\n        /* \"#utility.yul\":4304:4383   */\n      swap2\n      swap1\n      pop\n      jump\t// out\n        /* \"#utility.yul\":4389:4546   */\n    tag_45:\n        /* \"#utility.yul\":4494:4539   */\n      tag_99\n        /* \"#utility.yul\":4514:4538   */\n      tag_100\n        /* \"#utility.yul\":4532:4537   */\n      dup3\n        /* \"#utility.yul\":4514:4538   */\n      tag_32\n      jump\t// in\n    tag_100:\n        /* \"#utility.yul\":4494:4539   */\n      tag_44\n      jump\t// in\n    tag_99:\n        /* \"#utility.yul\":4489:4492   */\n      dup3\n        /* \"#utility.yul\":4482:4540   */\n      mstore\n        /* \"#utility.yul\":4389:4546   */\n      pop\n      pop\n      jump\t// out\n        /* \"#utility.yul\":4552:4646   */\n    tag_46:\n        /* \"#utility.yul\":4585:4593   */\n      0x00\n        /* \"#utility.yul\":4633:4638   */\n      dup2\n        /* \"#utility.yul\":4629:4631   */\n      0x60\n        /* \"#utility.yul\":4625:4639   */\n      shl\n        /* \"#utility.yul\":4604:4639   */\n      swap1\n      pop\n        /* \"#utility.yul\":4552:4646   */\n      swap2\n      swap1\n      pop\n      jump\t// out\n        /* \"#utility.yul\":4652:4746   */\n    tag_47:\n        /* \"#utility.yul\":4691:4698   */\n      0x00\n        /* \"#utility.yul\":4720:4740   */\n      tag_103\n        /* \"#utility.yul\":4734:4739   */\n      dup3\n        /* \"#utility.yul\":4720:4740   */\n      tag_46\n      jump\t// in\n    tag_103:\n        /* \"#utility.yul\":4709:4740   */\n      swap1\n      pop\n        /* \"#utility.yul\":4652:4746   */\n      swap2\n      swap1\n      pop\n      jump\t// out\n        /* \"#utility.yul\":4752:4852   */\n    tag_48:\n        /* \"#utility.yul\":4791:4798   */\n      0x00\n        /* \"#utility.yul\":4820:4846   */\n      tag_105\n        /* \"#utility.yul\":4840:4845   */\n      dup3\n        /* \"#utility.yul\":4820:4846   */\n      tag_47\n      jump\t// in\n    tag_105:\n        /* \"#utility.yul\":4809:4846   */\n      swap1\n      pop\n        /* \"#utility.yul\":4752:4852   */\n      swap2\n      swap1\n      pop\n      jump\t// out\n        /* \"#utility.yul\":4858:5015   */\n    tag_49:\n        /* \"#utility.yul\":4963:5008   */\n      tag_107\n        /* \"#utility.yul\":4983:5007   */\n      tag_108\n        /* \"#utility.yul\":5001:5006   */\n      dup3\n        /* \"#utility.yul\":4983:5007   */\n      tag_36\n      jump\t// in\n    tag_108:\n        /* \"#utility.yul\":4963:5008   */\n      tag_48\n      jump\t// in\n    tag_107:\n        /* \"#utility.yul\":4958:4961   */\n      dup3\n        /* \"#utility.yul\":4951:5009   */\n      mstore\n        /* \"#utility.yul\":4858:5015   */\n      pop\n      pop\n      jump\t// out\n        /* \"#utility.yul\":5021:5559   */\n    tag_26:\n        /* \"#utility.yul\":5189:5192   */\n      0x00\n        /* \"#utility.yul\":5204:5279   */\n      tag_110\n        /* \"#utility.yul\":5275:5278   */\n      dup3\n        /* \"#utility.yul\":5266:5272   */\n      dup7\n        /* \"#utility.yul\":5204:5279   */\n      tag_45\n      jump\t// in\n    tag_110:\n        /* \"#utility.yul\":5304:5306   */\n      0x20\n        /* \"#utility.yul\":5299:5302   */\n      dup3\n        /* \"#utility.yul\":5295:5307   */\n      add\n        /* \"#utility.yul\":5288:5307   */\n      swap2\n      pop\n        /* \"#utility.yul\":5317:5392   */\n      tag_111\n        /* \"#utility.yul\":5388:5391   */\n      dup3\n        /* \"#utility.yul\":5379:5385   */\n      dup6\n        /* \"#utility.yul\":5317:5392   */\n      tag_49\n      jump\t// in\n    tag_111:\n        /* \"#utility.yul\":5417:5419   */\n      0x14\n        /* \"#utility.yul\":5412:5415   */\n      dup3\n        /* \"#utility.yul\":5408:5420   */\n      add\n        /* \"#utility.yul\":5401:5420   */\n      swap2\n      pop\n        /* \"#utility.yul\":5430:5505   */\n      tag_112\n        /* \"#utility.yul\":5501:5504   */\n      dup3\n        /* \"#utility.yul\":5492:5498   */\n      dup5\n        /* \"#utility.yul\":5430:5505   */\n      tag_49\n      jump\t// in\n    tag_112:\n        /* \"#utility.yul\":5530:5532   */\n      0x14\n        /* \"#utility.yul\":5525:5528   */\n      dup3\n        /* \"#utility.yul\":5521:5533   */\n      add\n        /* \"#utility.yul\":5514:5533   */\n      swap2\n      pop\n        /* \"#utility.yul\":5550:5553   */\n      dup2\n        /* \"#utility.yul\":5543:5553   */\n      swap1\n      pop\n        /* \"#utility.yul\":5021:5559   */\n      swap5\n      swap4\n      pop\n      pop\n      pop\n      pop\n      jump\t// out\n        /* \"#utility.yul\":5565:6118   */\n    tag_28:\n        /* \"#utility.yul\":5742:5746   */\n      0x00\n        /* \"#utility.yul\":5780:5783   */\n      0x80\n        /* \"#utility.yul\":5769:5778   */\n      dup3\n        /* \"#utility.yul\":5765:5784   */\n      add\n        /* \"#utility.yul\":5757:5784   */\n      swap1\n      pop\n        /* \"#utility.yul\":5794:5865   */\n      tag_114\n        /* \"#utility.yul\":5862:5863   */\n      0x00\n        /* \"#utility.yul\":5851:5860   */\n      dup4\n        /* \"#utility.yul\":5847:5864   */\n      add\n        /* \"#utility.yul\":5838:5844   */\n      dup8\n        /* \"#utility.yul\":5794:5865   */\n      tag_41\n      jump\t// in\n    tag_114:\n        /* \"#utility.yul\":5875:5947   */\n      tag_115\n        /* \"#utility.yul\":5943:5945   */\n      0x20\n        /* \"#utility.yul\":5932:5941   */\n      dup4\n        /* \"#utility.yul\":5928:5946   */\n      add\n        /* \"#utility.yul\":5919:5925   */\n      dup7\n        /* \"#utility.yul\":5875:5947   */\n      tag_40\n      jump\t// in\n    tag_115:\n        /* \"#utility.yul\":5957:6029   */\n      tag_116\n        /* \"#utility.yul\":6025:6027   */\n      0x40\n        /* \"#utility.yul\":6014:6023   */\n      dup4\n        /* \"#utility.yul\":6010:6028   */\n      add\n        /* \"#utility.yul\":6001:6007   */\n      dup6\n        /* \"#utility.yul\":5957:6029   */\n      tag_40\n      jump\t// in\n    tag_116:\n        /* \"#utility.yul\":6039:6111   */\n      tag_117\n        /* \"#utility.yul\":6107:6109   */\n      0x60\n        /* \"#utility.yul\":6096:6105   */\n      dup4\n        /* \"#utility.yul\":6092:6110   */\n      add\n        /* \"#utility.yul\":6083:6089   */\n      dup5\n        /* \"#utility.yul\":6039:6111   */\n      tag_41\n      jump\t// in\n    tag_117:\n        /* \"#utility.yul\":5565:6118   */\n      swap6\n      swap5\n      pop\n      pop\n      pop\n      pop\n      pop\n      jump\t// out\n\n    auxdata: 0xa2646970667358221220340c0faa7356ad61d37a3fec4f70954deb13da3eddae0a79d94198fb7d05169864736f6c634300081a0033\n}\n",
				"bytecode": {
					"linkReferences": {},
					"object": "6080604052348015600e575f80fd5b506106d68061001c5f395ff3fe608060405234801561000f575f80fd5b506004361061003f575f3560e01c80633280a8361461004357806387d8178914610073578063f98cf07c146100a6575b5f80fd5b61005d6004803603810190610058919061040e565b6100c2565b60405161006a91906104da565b60405180910390f35b61008d6004803603810190610088919061040e565b6101a9565b60405161009d9493929190610511565b60405180910390f35b6100c060048036038101906100bb919061057e565b610212565b005b6100ca610387565b5f808381526020019081526020015f206040518060800160405290815f82015f9054906101000a900473ffffffffffffffffffffffffffffffffffffffff1673ffffffffffffffffffffffffffffffffffffffff1673ffffffffffffffffffffffffffffffffffffffff168152602001600182015f9054906101000a900473ffffffffffffffffffffffffffffffffffffffff1673ffffffffffffffffffffffffffffffffffffffff1673ffffffffffffffffffffffffffffffffffffffff168152602001600282015481526020016003820154815250509050919050565b5f602052805f5260405f205f91509050805f015f9054906101000a900473ffffffffffffffffffffffffffffffffffffffff1690806001015f9054906101000a900473ffffffffffffffffffffffffffffffffffffffff16908060020154908060030154905084565b5f42338460405160200161022893929190610621565b604051602081830303815290604052805190602001205f1c90505f60405180608001604052803373ffffffffffffffffffffffffffffffffffffffff1681526020018573ffffffffffffffffffffffffffffffffffffffff168152602001848152602001428152509050805f808481526020019081526020015f205f820151815f015f6101000a81548173ffffffffffffffffffffffffffffffffffffffff021916908373ffffffffffffffffffffffffffffffffffffffff1602179055506020820151816001015f6101000a81548173ffffffffffffffffffffffffffffffffffffffff021916908373ffffffffffffffffffffffffffffffffffffffff16021790555060408201518160020155606082015181600301559050507fd51bb0381ff8d9476c9493a30eafdb1966dca4b0c0db1a2d4e244a3a8b16ffb882338686604051610379949392919061065d565b60405180910390a150505050565b60405180608001604052805f73ffffffffffffffffffffffffffffffffffffffff1681526020015f73ffffffffffffffffffffffffffffffffffffffff1681526020015f81526020015f81525090565b5f80fd5b5f819050919050565b6103ed816103db565b81146103f7575f80fd5b50565b5f81359050610408816103e4565b92915050565b5f60208284031215610423576104226103d7565b5b5f610430848285016103fa565b91505092915050565b5f73ffffffffffffffffffffffffffffffffffffffff82169050919050565b5f61046282610439565b9050919050565b61047281610458565b82525050565b610481816103db565b82525050565b608082015f82015161049b5f850182610469565b5060208201516104ae6020850182610469565b5060408201516104c16040850182610478565b5060608201516104d46060850182610478565b50505050565b5f6080820190506104ed5f830184610487565b92915050565b6104fc81610458565b82525050565b61050b816103db565b82525050565b5f6080820190506105245f8301876104f3565b61053160208301866104f3565b61053e6040830185610502565b61054b6060830184610502565b95945050505050565b61055d81610458565b8114610567575f80fd5b50565b5f8135905061057881610554565b92915050565b5f8060408385031215610594576105936103d7565b5b5f6105a18582860161056a565b92505060206105b2858286016103fa565b9150509250929050565b5f819050919050565b6105d66105d1826103db565b6105bc565b82525050565b5f8160601b9050919050565b5f6105f2826105dc565b9050919050565b5f610603826105e8565b9050919050565b61061b61061682610458565b6105f9565b82525050565b5f61062c82866105c5565b60208201915061063c828561060a565b60148201915061064c828461060a565b601482019150819050949350505050565b5f6080820190506106705f830187610502565b61067d60208301866104f3565b61068a60408301856104f3565b6106976060830184610502565b9594505050505056fea2646970667358221220340c0faa7356ad61d37a3fec4f70954deb13da3eddae0a79d94198fb7d05169864736f6c634300081a0033",
					"opcodes": "PUSH1 0x80 PUSH1 0x40 MSTORE CALLVALUE DUP1 ISZERO PUSH1 0xE JUMPI PUSH0 DUP1 REVERT JUMPDEST POP PUSH2 0x6D6 DUP1 PUSH2 0x1C PUSH0 CODECOPY PUSH0 RETURN INVALID PUSH1 0x80 PUSH1 0x40 MSTORE CALLVALUE DUP1 ISZERO PUSH2 0xF JUMPI PUSH0 DUP1 REVERT JUMPDEST POP PUSH1 0x4 CALLDATASIZE LT PUSH2 0x3F JUMPI PUSH0 CALLDATALOAD PUSH1 0xE0 SHR DUP1 PUSH4 0x3280A836 EQ PUSH2 0x43 JUMPI DUP1 PUSH4 0x87D81789 EQ PUSH2 0x73 JUMPI DUP1 PUSH4 0xF98CF07C EQ PUSH2 0xA6 JUMPI JUMPDEST PUSH0 DUP1 REVERT JUMPDEST PUSH2 0x5D PUSH1 0x4 DUP1 CALLDATASIZE SUB DUP2 ADD SWAP1 PUSH2 0x58 SWAP2 SWAP1 PUSH2 0x40E JUMP JUMPDEST PUSH2 0xC2 JUMP JUMPDEST PUSH1 0x40 MLOAD PUSH2 0x6A SWAP2 SWAP1 PUSH2 0x4DA JUMP JUMPDEST PUSH1 0x40 MLOAD DUP1 SWAP2 SUB SWAP1 RETURN JUMPDEST PUSH2 0x8D PUSH1 0x4 DUP1 CALLDATASIZE SUB DUP2 ADD SWAP1 PUSH2 0x88 SWAP2 SWAP1 PUSH2 0x40E JUMP JUMPDEST PUSH2 0x1A9 JUMP JUMPDEST PUSH1 0x40 MLOAD PUSH2 0x9D SWAP5 SWAP4 SWAP3 SWAP2 SWAP1 PUSH2 0x511 JUMP JUMPDEST PUSH1 0x40 MLOAD DUP1 SWAP2 SUB SWAP1 RETURN JUMPDEST PUSH2 0xC0 PUSH1 0x4 DUP1 CALLDATASIZE SUB DUP2 ADD SWAP1 PUSH2 0xBB SWAP2 SWAP1 PUSH2 0x57E JUMP JUMPDEST PUSH2 0x212 JUMP JUMPDEST STOP JUMPDEST PUSH2 0xCA PUSH2 0x387 JUMP JUMPDEST PUSH0 DUP1 DUP4 DUP2 MSTORE PUSH1 0x20 ADD SWAP1 DUP2 MSTORE PUSH1 0x20 ADD PUSH0 KECCAK256 PUSH1 0x40 MLOAD DUP1 PUSH1 0x80 ADD PUSH1 0x40 MSTORE SWAP1 DUP2 PUSH0 DUP3 ADD PUSH0 SWAP1 SLOAD SWAP1 PUSH2 0x100 EXP SWAP1 DIV PUSH20 0xFFFFFFFFFFFFFFFFFFFFFFFFFFFFFFFFFFFFFFFF AND PUSH20 0xFFFFFFFFFFFFFFFFFFFFFFFFFFFFFFFFFFFFFFFF AND PUSH20 0xFFFFFFFFFFFFFFFFFFFFFFFFFFFFFFFFFFFFFFFF AND DUP2 MSTORE PUSH1 0x20 ADD PUSH1 0x1 DUP3 ADD PUSH0 SWAP1 SLOAD SWAP1 PUSH2 0x100 EXP SWAP1 DIV PUSH20 0xFFFFFFFFFFFFFFFFFFFFFFFFFFFFFFFFFFFFFFFF AND PUSH20 0xFFFFFFFFFFFFFFFFFFFFFFFFFFFFFFFFFFFFFFFF AND PUSH20 0xFFFFFFFFFFFFFFFFFFFFFFFFFFFFFFFFFFFFFFFF AND DUP2 MSTORE PUSH1 0x20 ADD PUSH1 0x2 DUP3 ADD SLOAD DUP2 MSTORE PUSH1 0x20 ADD PUSH1 0x3 DUP3 ADD SLOAD DUP2 MSTORE POP POP SWAP1 POP SWAP2 SWAP1 POP JUMP JUMPDEST PUSH0 PUSH1 0x20 MSTORE DUP1 PUSH0 MSTORE PUSH1 0x40 PUSH0 KECCAK256 PUSH0 SWAP2 POP SWAP1 POP DUP1 PUSH0 ADD PUSH0 SWAP1 SLOAD SWAP1 PUSH2 0x100 EXP SWAP1 DIV PUSH20 0xFFFFFFFFFFFFFFFFFFFFFFFFFFFFFFFFFFFFFFFF AND SWAP1 DUP1 PUSH1 0x1 ADD PUSH0 SWAP1 SLOAD SWAP1 PUSH2 0x100 EXP SWAP1 DIV PUSH20 0xFFFFFFFFFFFFFFFFFFFFFFFFFFFFFFFFFFFFFFFF AND SWAP1 DUP1 PUSH1 0x2 ADD SLOAD SWAP1 DUP1 PUSH1 0x3 ADD SLOAD SWAP1 POP DUP5 JUMP JUMPDEST PUSH0 TIMESTAMP CALLER DUP5 PUSH1 0x40 MLOAD PUSH1 0x20 ADD PUSH2 0x228 SWAP4 SWAP3 SWAP2 SWAP1 PUSH2 0x621 JUMP JUMPDEST PUSH1 0x40 MLOAD PUSH1 0x20 DUP2 DUP4 SUB SUB DUP2 MSTORE SWAP1 PUSH1 0x40 MSTORE DUP1 MLOAD SWAP1 PUSH1 0x20 ADD KECCAK256 PUSH0 SHR SWAP1 POP PUSH0 PUSH1 0x40 MLOAD DUP1 PUSH1 0x80 ADD PUSH1 0x40 MSTORE DUP1 CALLER PUSH20 0xFFFFFFFFFFFFFFFFFFFFFFFFFFFFFFFFFFFFFFFF AND DUP2 MSTORE PUSH1 0x20 ADD DUP6 PUSH20 0xFFFFFFFFFFFFFFFFFFFFFFFFFFFFFFFFFFFFFFFF AND DUP2 MSTORE PUSH1 0x20 ADD DUP5 DUP2 MSTORE PUSH1 0x20 ADD TIMESTAMP DUP2 MSTORE POP SWAP1 POP DUP1 PUSH0 DUP1 DUP5 DUP2 MSTORE PUSH1 0x20 ADD SWAP1 DUP2 MSTORE PUSH1 0x20 ADD PUSH0 KECCAK256 PUSH0 DUP3 ADD MLOAD DUP2 PUSH0 ADD PUSH0 PUSH2 0x100 EXP DUP2 SLOAD DUP2 PUSH20 0xFFFFFFFFFFFFFFFFFFFFFFFFFFFFFFFFFFFFFFFF MUL NOT AND SWAP1 DUP4 PUSH20 0xFFFFFFFFFFFFFFFFFFFFFFFFFFFFFFFFFFFFFFFF AND MUL OR SWAP1 SSTORE POP PUSH1 0x20 DUP3 ADD MLOAD DUP2 PUSH1 0x1 ADD PUSH0 PUSH2 0x100 EXP DUP2 SLOAD DUP2 PUSH20 0xFFFFFFFFFFFFFFFFFFFFFFFFFFFFFFFFFFFFFFFF MUL NOT AND SWAP1 DUP4 PUSH20 0xFFFFFFFFFFFFFFFFFFFFFFFFFFFFFFFFFFFFFFFF AND MUL OR SWAP1 SSTORE POP PUSH1 0x40 DUP3 ADD MLOAD DUP2 PUSH1 0x2 ADD SSTORE PUSH1 0x60 DUP3 ADD MLOAD DUP2 PUSH1 0x3 ADD SSTORE SWAP1 POP POP PUSH32 0xD51BB0381FF8D9476C9493A30EAFDB1966DCA4B0C0DB1A2D4E244A3A8B16FFB8 DUP3 CALLER DUP7 DUP7 PUSH1 0x40 MLOAD PUSH2 0x379 SWAP5 SWAP4 SWAP3 SWAP2 SWAP1 PUSH2 0x65D JUMP JUMPDEST PUSH1 0x40 MLOAD DUP1 SWAP2 SUB SWAP1 LOG1 POP POP POP POP JUMP JUMPDEST PUSH1 0x40 MLOAD DUP1 PUSH1 0x80 ADD PUSH1 0x40 MSTORE DUP1 PUSH0 PUSH20 0xFFFFFFFFFFFFFFFFFFFFFFFFFFFFFFFFFFFFFFFF AND DUP2 MSTORE PUSH1 0x20 ADD PUSH0 PUSH20 0xFFFFFFFFFFFFFFFFFFFFFFFFFFFFFFFFFFFFFFFF AND DUP2 MSTORE PUSH1 0x20 ADD PUSH0 DUP2 MSTORE PUSH1 0x20 ADD PUSH0 DUP2 MSTORE POP SWAP1 JUMP JUMPDEST PUSH0 DUP1 REVERT JUMPDEST PUSH0 DUP2 SWAP1 POP SWAP2 SWAP1 POP JUMP JUMPDEST PUSH2 0x3ED DUP2 PUSH2 0x3DB JUMP JUMPDEST DUP2 EQ PUSH2 0x3F7 JUMPI PUSH0 DUP1 REVERT JUMPDEST POP JUMP JUMPDEST PUSH0 DUP2 CALLDATALOAD SWAP1 POP PUSH2 0x408 DUP2 PUSH2 0x3E4 JUMP JUMPDEST SWAP3 SWAP2 POP POP JUMP JUMPDEST PUSH0 PUSH1 0x20 DUP3 DUP5 SUB SLT ISZERO PUSH2 0x423 JUMPI PUSH2 0x422 PUSH2 0x3D7 JUMP JUMPDEST JUMPDEST PUSH0 PUSH2 0x430 DUP5 DUP3 DUP6 ADD PUSH2 0x3FA JUMP JUMPDEST SWAP2 POP POP SWAP3 SWAP2 POP POP JUMP JUMPDEST PUSH0 PUSH20 0xFFFFFFFFFFFFFFFFFFFFFFFFFFFFFFFFFFFFFFFF DUP3 AND SWAP1 POP SWAP2 SWAP1 POP JUMP JUMPDEST PUSH0 PUSH2 0x462 DUP3 PUSH2 0x439 JUMP JUMPDEST SWAP1 POP SWAP2 SWAP1 POP JUMP JUMPDEST PUSH2 0x472 DUP2 PUSH2 0x458 JUMP JUMPDEST DUP3 MSTORE POP POP JUMP JUMPDEST PUSH2 0x481 DUP2 PUSH2 0x3DB JUMP JUMPDEST DUP3 MSTORE POP POP JUMP JUMPDEST PUSH1 0x80 DUP3 ADD PUSH0 DUP3 ADD MLOAD PUSH2 0x49B PUSH0 DUP6 ADD DUP3 PUSH2 0x469 JUMP JUMPDEST POP PUSH1 0x20 DUP3 ADD MLOAD PUSH2 0x4AE PUSH1 0x20 DUP6 ADD DUP3 PUSH2 0x469 JUMP JUMPDEST POP PUSH1 0x40 DUP3 ADD MLOAD PUSH2 0x4C1 PUSH1 0x40 DUP6 ADD DUP3 PUSH2 0x478 JUMP JUMPDEST POP PUSH1 0x60 DUP3 ADD MLOAD PUSH2 0x4D4 PUSH1 0x60 DUP6 ADD DUP3 PUSH2 0x478 JUMP JUMPDEST POP POP POP POP JUMP JUMPDEST PUSH0 PUSH1 0x80 DUP3 ADD SWAP1 POP PUSH2 0x4ED PUSH0 DUP4 ADD DUP5 PUSH2 0x487 JUMP JUMPDEST SWAP3 SWAP2 POP POP JUMP JUMPDEST PUSH2 0x4FC DUP2 PUSH2 0x458 JUMP JUMPDEST DUP3 MSTORE POP POP JUMP JUMPDEST PUSH2 0x50B DUP2 PUSH2 0x3DB JUMP JUMPDEST DUP3 MSTORE POP POP JUMP JUMPDEST PUSH0 PUSH1 0x80 DUP3 ADD SWAP1 POP PUSH2 0x524 PUSH0 DUP4 ADD DUP8 PUSH2 0x4F3 JUMP JUMPDEST PUSH2 0x531 PUSH1 0x20 DUP4 ADD DUP7 PUSH2 0x4F3 JUMP JUMPDEST PUSH2 0x53E PUSH1 0x40 DUP4 ADD DUP6 PUSH2 0x502 JUMP JUMPDEST PUSH2 0x54B PUSH1 0x60 DUP4 ADD DUP5 PUSH2 0x502 JUMP JUMPDEST SWAP6 SWAP5 POP POP POP POP POP JUMP JUMPDEST PUSH2 0x55D DUP2 PUSH2 0x458 JUMP JUMPDEST DUP2 EQ PUSH2 0x567 JUMPI PUSH0 DUP1 REVERT JUMPDEST POP JUMP JUMPDEST PUSH0 DUP2 CALLDATALOAD SWAP1 POP PUSH2 0x578 DUP2 PUSH2 0x554 JUMP JUMPDEST SWAP3 SWAP2 POP POP JUMP JUMPDEST PUSH0 DUP1 PUSH1 0x40 DUP4 DUP6 SUB SLT ISZERO PUSH2 0x594 JUMPI PUSH2 0x593 PUSH2 0x3D7 JUMP JUMPDEST JUMPDEST PUSH0 PUSH2 0x5A1 DUP6 DUP3 DUP7 ADD PUSH2 0x56A JUMP JUMPDEST SWAP3 POP POP PUSH1 0x20 PUSH2 0x5B2 DUP6 DUP3 DUP7 ADD PUSH2 0x3FA JUMP JUMPDEST SWAP2 POP POP SWAP3 POP SWAP3 SWAP1 POP JUMP JUMPDEST PUSH0 DUP2 SWAP1 POP SWAP2 SWAP1 POP JUMP JUMPDEST PUSH2 0x5D6 PUSH2 0x5D1 DUP3 PUSH2 0x3DB JUMP JUMPDEST PUSH2 0x5BC JUMP JUMPDEST DUP3 MSTORE POP POP JUMP JUMPDEST PUSH0 DUP2 PUSH1 0x60 SHL SWAP1 POP SWAP2 SWAP1 POP JUMP JUMPDEST PUSH0 PUSH2 0x5F2 DUP3 PUSH2 0x5DC JUMP JUMPDEST SWAP1 POP SWAP2 SWAP1 POP JUMP JUMPDEST PUSH0 PUSH2 0x603 DUP3 PUSH2 0x5E8 JUMP JUMPDEST SWAP1 POP SWAP2 SWAP1 POP JUMP JUMPDEST PUSH2 0x61B PUSH2 0x616 DUP3 PUSH2 0x458 JUMP JUMPDEST PUSH2 0x5F9 JUMP JUMPDEST DUP3 MSTORE POP POP JUMP JUMPDEST PUSH0 PUSH2 0x62C DUP3 DUP7 PUSH2 0x5C5 JUMP JUMPDEST PUSH1 0x20 DUP3 ADD SWAP2 POP PUSH2 0x63C DUP3 DUP6 PUSH2 0x60A JUMP JUMPDEST PUSH1 0x14 DUP3 ADD SWAP2 POP PUSH2 0x64C DUP3 DUP5 PUSH2 0x60A JUMP JUMPDEST PUSH1 0x14 DUP3 ADD SWAP2 POP DUP2 SWAP1 POP SWAP5 SWAP4 POP POP POP POP JUMP JUMPDEST PUSH0 PUSH1 0x80 DUP3 ADD SWAP1 POP PUSH2 0x670 PUSH0 DUP4 ADD DUP8 PUSH2 0x502 JUMP JUMPDEST PUSH2 0x67D PUSH1 0x20 DUP4 ADD DUP7 PUSH2 0x4F3 JUMP JUMPDEST PUSH2 0x68A PUSH1 0x40 DUP4 ADD DUP6 PUSH2 0x4F3 JUMP JUMPDEST PUSH2 0x697 PUSH1 0x60 DUP4 ADD DUP5 PUSH2 0x502 JUMP JUMPDEST SWAP6 SWAP5 POP POP POP POP POP JUMP INVALID LOG2 PUSH5 0x6970667358 0x22 SLT KECCAK256 CALLVALUE 0xC 0xF 0xAA PUSH20 0x56AD61D37A3FEC4F70954DEB13DA3EDDAE0A79D9 COINBASE SWAP9 0xFB PUSH30 0x5169864736F6C634300081A003300000000000000000000000000000000 "
				},
				"gasEstimates": {
					"creation": {
						"codeDepositCost": "350000",
						"executionCost": "384",
						"totalCost": "350384"
					},
					"external": {
						"getPayment(uint256)": "infinite",
						"makePayment(address,uint256)": "infinite",
						"payments(uint256)": "infinite"
					}
				},
				"methodIdentifiers": {
					"getPayment(uint256)": "3280a836",
					"makePayment(address,uint256)": "f98cf07c",
					"payments(uint256)": "87d81789"
				}
			},
			"storageLayout": {
				"storage": [
					{
						"astId": 6,
						"contract": "payment tracking.sol:PaymentTracker",
						"label": "payments",
						"offset": 0,
						"slot": "0",
						"type": "t_mapping(t_uint256,t_struct(Payment)15_storage)"
					}
				],
				"types": {
					"t_address": {
						"encoding": "inplace",
						"label": "address",
						"numberOfBytes": "20"
					},
					"t_mapping(t_uint256,t_struct(Payment)15_storage)": {
						"encoding": "mapping",
						"key": "t_uint256",
						"label": "mapping(uint256 => struct PaymentTracker.Payment)",
						"numberOfBytes": "32",
						"value": "t_struct(Payment)15_storage"
					},
					"t_struct(Payment)15_storage": {
						"encoding": "inplace",
						"label": "struct PaymentTracker.Payment",
						"members": [
							{
								"astId": 8,
								"contract": "payment tracking.sol:PaymentTracker",
								"label": "payer",
								"offset": 0,
								"slot": "0",
								"type": "t_address"
							},
							{
								"astId": 10,
								"contract": "payment tracking.sol:PaymentTracker",
								"label": "payee",
								"offset": 0,
								"slot": "1",
								"type": "t_address"
							},
							{
								"astId": 12,
								"contract": "payment tracking.sol:PaymentTracker",
								"label": "amount",
								"offset": 0,
								"slot": "2",
								"type": "t_uint256"
							},
							{
								"astId": 14,
								"contract": "payment tracking.sol:PaymentTracker",
								"label": "timestamp",
								"offset": 0,
								"slot": "3",
								"type": "t_uint256"
							}
						],
						"numberOfBytes": "128"
					},
					"t_uint256": {
						"encoding": "inplace",
						"label": "uint256",
						"numberOfBytes": "32"
					}
				}
			},
			"userdoc": {
				"kind": "user",
				"methods": {},
				"version": 1
			}
		}
	}
}