{
	"digital gifts.sol": {
		"HolidaySwap": {
			"abi": [
				{
					"inputs": [
						{
							"internalType": "uint256",
							"name": "_eventId",
							"type": "uint256"
						}
					],
					"name": "completeEvent",
					"outputs": [],
					"stateMutability": "nonpayable",
					"type": "function"
				},
				{
					"inputs": [
						{
							"internalType": "string",
							"name": "_name",
							"type": "string"
						}
					],
					"name": "createEvent",
					"outputs": [],
					"stateMutability": "nonpayable",
					"type": "function"
				},
				{
					"inputs": [],
					"name": "eventCount",
					"outputs": [
						{
							"internalType": "uint256",
							"name": "",
							"type": "uint256"
						}
					],
					"stateMutability": "view",
					"type": "function"
				},
				{
					"inputs": [
						{
							"internalType": "uint256",
							"name": "",
							"type": "uint256"
						}
					],
					"name": "events",
					"outputs": [
						{
							"internalType": "string",
							"name": "name",
							"type": "string"
						},
						{
							"internalType": "bool",
							"name": "isCompleted",
							"type": "bool"
						}
					],
					"stateMutability": "view",
					"type": "function"
				},
				{
					"inputs": [
						{
							"internalType": "uint256",
							"name": "_eventId",
							"type": "uint256"
						}
					],
					"name": "getEvent",
					"outputs": [
						{
							"internalType": "string",
							"name": "",
							"type": "string"
						},
						{
							"internalType": "address[]",
							"name": "",
							"type": "address[]"
						}
					],
					"stateMutability": "view",
					"type": "function"
				},
				{
					"inputs": [
						{
							"internalType": "uint256",
							"name": "_eventId",
							"type": "uint256"
						}
					],
					"name": "joinEvent",
					"outputs": [],
					"stateMutability": "payable",
					"type": "function"
				},
				{
					"inputs": [
						{
							"internalType": "uint256",
							"name": "_eventId",
							"type": "uint256"
						},
						{
							"internalType": "string",
							"name": "_gift",
							"type": "string"
						}
					],
					"name": "submitGift",
					"outputs": [],
					"stateMutability": "nonpayable",
					"type": "function"
				}
			],
			"devdoc": {
				"kind": "dev",
				"methods": {},
				"version": 1
			},
			"evm": {
				"assembly": "    /* \"digital gifts.sol\":60:2117  contract HolidaySwap {... */\n  mstore(0x40, 0x80)\n  callvalue\n  dup1\n  iszero\n  tag_1\n  jumpi\n  0x00\n  dup1\n  revert\ntag_1:\n  pop\n  dataSize(sub_0)\n  dup1\n  dataOffset(sub_0)\n  0x00\n  codecopy\n  0x00\n  return\nstop\n\nsub_0: assembly {\n        /* \"digital gifts.sol\":60:2117  contract HolidaySwap {... */\n      mstore(0x40, 0x80)\n      jumpi(tag_1, lt(calldatasize, 0x04))\n      shr(0xe0, calldataload(0x00))\n      dup1\n      0x6d1884e0\n      gt\n      tag_9\n      jumpi\n      dup1\n      0x6d1884e0\n      eq\n      tag_5\n      jumpi\n      dup1\n      0x71be2e4a\n      eq\n      tag_6\n      jumpi\n      dup1\n      0x9b7aea75\n      eq\n      tag_7\n      jumpi\n      dup1\n      0x9bc2bc71\n      eq\n      tag_8\n      jumpi\n      jump(tag_1)\n    tag_9:\n      dup1\n      0x0b791430\n      eq\n      tag_2\n      jumpi\n      dup1\n      0x38d361e2\n      eq\n      tag_3\n      jumpi\n      dup1\n      0x6447cae6\n      eq\n      tag_4\n      jumpi\n    tag_1:\n      0x00\n      dup1\n      revert\n        /* \"digital gifts.sol\":242:278  mapping(uint => Event) public events */\n    tag_2:\n      callvalue\n      dup1\n      iszero\n      tag_10\n      jumpi\n      0x00\n      dup1\n      revert\n    tag_10:\n      pop\n      tag_11\n      0x04\n      dup1\n      calldatasize\n      sub\n      dup2\n      add\n      swap1\n      tag_12\n      swap2\n      swap1\n      tag_13\n      jump\t// in\n    tag_12:\n      tag_14\n      jump\t// in\n    tag_11:\n      mload(0x40)\n      tag_15\n      swap3\n      swap2\n      swap1\n      tag_16\n      jump\t// in\n    tag_15:\n      mload(0x40)\n      dup1\n      swap2\n      sub\n      swap1\n      return\n        /* \"digital gifts.sol\":592:886  function joinEvent(uint _eventId) public payable {... */\n    tag_3:\n      tag_17\n      0x04\n      dup1\n      calldatasize\n      sub\n      dup2\n      add\n      swap1\n      tag_18\n      swap2\n      swap1\n      tag_13\n      jump\t// in\n    tag_18:\n      tag_19\n      jump\t// in\n    tag_17:\n      stop\n        /* \"digital gifts.sol\":930:1531  function submitGift(uint _eventId, string memory _gift) public {... */\n    tag_4:\n      callvalue\n      dup1\n      iszero\n      tag_20\n      jumpi\n      0x00\n      dup1\n      revert\n    tag_20:\n      pop\n      tag_21\n      0x04\n      dup1\n      calldatasize\n      sub\n      dup2\n      add\n      swap1\n      tag_22\n      swap2\n      swap1\n      tag_23\n      jump\t// in\n    tag_22:\n      tag_24\n      jump\t// in\n    tag_21:\n      stop\n        /* \"digital gifts.sol\":1926:2114  function getEvent(uint _eventId) public view returns (string memory, address[] memory) {... */\n    tag_5:\n      callvalue\n      dup1\n      iszero\n      tag_25\n      jumpi\n      0x00\n      dup1\n      revert\n    tag_25:\n      pop\n      tag_26\n      0x04\n      dup1\n      calldatasize\n      sub\n      dup2\n      add\n      swap1\n      tag_27\n      swap2\n      swap1\n      tag_13\n      jump\t// in\n    tag_27:\n      tag_28\n      jump\t// in\n    tag_26:\n      mload(0x40)\n      tag_29\n      swap3\n      swap2\n      swap1\n      tag_30\n      jump\t// in\n    tag_29:\n      mload(0x40)\n      dup1\n      swap2\n      sub\n      swap1\n      return\n        /* \"digital gifts.sol\":285:307  uint public eventCount */\n    tag_6:\n      callvalue\n      dup1\n      iszero\n      tag_31\n      jumpi\n      0x00\n      dup1\n      revert\n    tag_31:\n      pop\n      tag_32\n      tag_33\n      jump\t// in\n    tag_32:\n      mload(0x40)\n      tag_34\n      swap2\n      swap1\n      tag_35\n      jump\t// in\n    tag_34:\n      mload(0x40)\n      dup1\n      swap2\n      sub\n      swap1\n      return\n        /* \"digital gifts.sol\":1587:1892  function completeEvent(uint _eventId) public {... */\n    tag_7:\n      callvalue\n      dup1\n      iszero\n      tag_36\n      jumpi\n      0x00\n      dup1\n      revert\n    tag_36:\n      pop\n      tag_37\n      0x04\n      dup1\n      calldatasize\n      sub\n      dup2\n      add\n      swap1\n      tag_38\n      swap2\n      swap1\n      tag_13\n      jump\t// in\n    tag_38:\n      tag_39\n      jump\t// in\n    tag_37:\n      stop\n        /* \"digital gifts.sol\":357:562  function createEvent(string memory _name) public {... */\n    tag_8:\n      callvalue\n      dup1\n      iszero\n      tag_40\n      jumpi\n      0x00\n      dup1\n      revert\n    tag_40:\n      pop\n      tag_41\n      0x04\n      dup1\n      calldatasize\n      sub\n      dup2\n      add\n      swap1\n      tag_42\n      swap2\n      swap1\n      tag_43\n      jump\t// in\n    tag_42:\n      tag_44\n      jump\t// in\n    tag_41:\n      stop\n        /* \"digital gifts.sol\":242:278  mapping(uint => Event) public events */\n    tag_14:\n      mstore(0x20, 0x00)\n      dup1\n      0x00\n      mstore\n      keccak256(0x00, 0x40)\n      0x00\n      swap2\n      pop\n      swap1\n      pop\n      dup1\n      0x00\n      add\n      dup1\n      sload\n      tag_45\n      swap1\n      tag_46\n      jump\t// in\n    tag_45:\n      dup1\n      0x1f\n      add\n      0x20\n      dup1\n      swap2\n      div\n      mul\n      0x20\n      add\n      mload(0x40)\n      swap1\n      dup2\n      add\n      0x40\n      mstore\n      dup1\n      swap3\n      swap2\n      swap1\n      dup2\n      dup2\n      mstore\n      0x20\n      add\n      dup3\n      dup1\n      sload\n      tag_47\n      swap1\n      tag_46\n      jump\t// in\n    tag_47:\n      dup1\n      iszero\n      tag_48\n      jumpi\n      dup1\n      0x1f\n      lt\n      tag_49\n      jumpi\n      0x0100\n      dup1\n      dup4\n      sload\n      div\n      mul\n      dup4\n      mstore\n      swap2\n      0x20\n      add\n      swap2\n      jump(tag_48)\n    tag_49:\n      dup3\n      add\n      swap2\n      swap1\n      0x00\n      mstore\n      keccak256(0x00, 0x20)\n      swap1\n    tag_50:\n      dup2\n      sload\n      dup2\n      mstore\n      swap1\n      0x01\n      add\n      swap1\n      0x20\n      add\n      dup1\n      dup4\n      gt\n      tag_50\n      jumpi\n      dup3\n      swap1\n      sub\n      0x1f\n      and\n      dup3\n      add\n      swap2\n    tag_48:\n      pop\n      pop\n      pop\n      pop\n      pop\n      swap1\n      dup1\n      0x03\n      add\n      0x00\n      swap1\n      sload\n      swap1\n      0x0100\n      exp\n      swap1\n      div\n      0xff\n      and\n      swap1\n      pop\n      dup3\n      jump\t// out\n        /* \"digital gifts.sol\":592:886  function joinEvent(uint _eventId) public payable {... */\n    tag_19:\n        /* \"digital gifts.sol\":673:683  0.01 ether */\n      0x2386f26fc10000\n        /* \"digital gifts.sol\":660:669  msg.value */\n      callvalue\n        /* \"digital gifts.sol\":660:683  msg.value == 0.01 ether */\n      eq\n        /* \"digital gifts.sol\":652:719  require(msg.value == 0.01 ether, \"Participation fee is 0.01 Ether\") */\n      tag_52\n      jumpi\n      mload(0x40)\n      0x08c379a000000000000000000000000000000000000000000000000000000000\n      dup2\n      mstore\n      0x04\n      add\n      tag_53\n      swap1\n      tag_54\n      jump\t// in\n    tag_53:\n      mload(0x40)\n      dup1\n      swap2\n      sub\n      swap1\n      revert\n    tag_52:\n        /* \"digital gifts.sol\":730:747  Event storage evt */\n      0x00\n        /* \"digital gifts.sol\":750:756  events */\n      dup1\n        /* \"digital gifts.sol\":750:766  events[_eventId] */\n      0x00\n        /* \"digital gifts.sol\":757:765  _eventId */\n      dup4\n        /* \"digital gifts.sol\":750:766  events[_eventId] */\n      dup2\n      mstore\n      0x20\n      add\n      swap1\n      dup2\n      mstore\n      0x20\n      add\n      0x00\n      keccak256\n        /* \"digital gifts.sol\":730:766  Event storage evt = events[_eventId] */\n      swap1\n      pop\n        /* \"digital gifts.sol\":786:789  evt */\n      dup1\n        /* \"digital gifts.sol\":786:801  evt.isCompleted */\n      0x03\n      add\n      0x00\n      swap1\n      sload\n      swap1\n      0x0100\n      exp\n      swap1\n      div\n      0xff\n      and\n        /* \"digital gifts.sol\":785:801  !evt.isCompleted */\n      iszero\n        /* \"digital gifts.sol\":777:832  require(!evt.isCompleted, \"Event is already completed\") */\n      tag_55\n      jumpi\n      mload(0x40)\n      0x08c379a000000000000000000000000000000000000000000000000000000000\n      dup2\n      mstore\n      0x04\n      add\n      tag_56\n      swap1\n      tag_57\n      jump\t// in\n    tag_56:\n      mload(0x40)\n      dup1\n      swap2\n      sub\n      swap1\n      revert\n    tag_55:\n        /* \"digital gifts.sol\":845:848  evt */\n      dup1\n        /* \"digital gifts.sol\":845:861  evt.participants */\n      0x01\n      add\n        /* \"digital gifts.sol\":867:877  msg.sender */\n      caller\n        /* \"digital gifts.sol\":845:878  evt.participants.push(msg.sender) */\n      swap1\n      dup1\n      0x01\n      dup2\n      sload\n      add\n      dup1\n      dup3\n      sstore\n      dup1\n      swap2\n      pop\n      pop\n      0x01\n      swap1\n      sub\n      swap1\n      0x00\n      mstore\n      keccak256(0x00, 0x20)\n      add\n      0x00\n      swap1\n      swap2\n      swap1\n      swap2\n      swap1\n      swap2\n      0x0100\n      exp\n      dup2\n      sload\n      dup2\n      0xffffffffffffffffffffffffffffffffffffffff\n      mul\n      not\n      and\n      swap1\n      dup4\n      0xffffffffffffffffffffffffffffffffffffffff\n      and\n      mul\n      or\n      swap1\n      sstore\n      pop\n        /* \"digital gifts.sol\":641:886  {... */\n      pop\n        /* \"digital gifts.sol\":592:886  function joinEvent(uint _eventId) public payable {... */\n      pop\n      jump\t// out\n        /* \"digital gifts.sol\":930:1531  function submitGift(uint _eventId, string memory _gift) public {... */\n    tag_24:\n        /* \"digital gifts.sol\":1004:1021  Event storage evt */\n      0x00\n        /* \"digital gifts.sol\":1024:1030  events */\n      dup1\n        /* \"digital gifts.sol\":1024:1040  events[_eventId] */\n      0x00\n        /* \"digital gifts.sol\":1031:1039  _eventId */\n      dup5\n        /* \"digital gifts.sol\":1024:1040  events[_eventId] */\n      dup2\n      mstore\n      0x20\n      add\n      swap1\n      dup2\n      mstore\n      0x20\n      add\n      0x00\n      keccak256\n        /* \"digital gifts.sol\":1004:1040  Event storage evt = events[_eventId] */\n      swap1\n      pop\n        /* \"digital gifts.sol\":1060:1063  evt */\n      dup1\n        /* \"digital gifts.sol\":1060:1075  evt.isCompleted */\n      0x03\n      add\n      0x00\n      swap1\n      sload\n      swap1\n      0x0100\n      exp\n      swap1\n      div\n      0xff\n      and\n        /* \"digital gifts.sol\":1059:1075  !evt.isCompleted */\n      iszero\n        /* \"digital gifts.sol\":1051:1106  require(!evt.isCompleted, \"Event is already completed\") */\n      tag_60\n      jumpi\n      mload(0x40)\n      0x08c379a000000000000000000000000000000000000000000000000000000000\n      dup2\n      mstore\n      0x04\n      add\n      tag_61\n      swap1\n      tag_57\n      jump\t// in\n    tag_61:\n      mload(0x40)\n      dup1\n      swap2\n      sub\n      swap1\n      revert\n    tag_60:\n        /* \"digital gifts.sol\":1173:1191  bool isParticipant */\n      0x00\n        /* \"digital gifts.sol\":1215:1221  uint i */\n      dup1\n        /* \"digital gifts.sol\":1210:1405  for (uint i = 0; i < evt.participants.length; i++) {... */\n    tag_62:\n        /* \"digital gifts.sol\":1231:1234  evt */\n      dup3\n        /* \"digital gifts.sol\":1231:1247  evt.participants */\n      0x01\n      add\n        /* \"digital gifts.sol\":1231:1254  evt.participants.length */\n      dup1\n      sload\n      swap1\n      pop\n        /* \"digital gifts.sol\":1227:1228  i */\n      dup2\n        /* \"digital gifts.sol\":1227:1254  i < evt.participants.length */\n      lt\n        /* \"digital gifts.sol\":1210:1405  for (uint i = 0; i < evt.participants.length; i++) {... */\n      iszero\n      tag_63\n      jumpi\n        /* \"digital gifts.sol\":1303:1313  msg.sender */\n      caller\n        /* \"digital gifts.sol\":1280:1313  evt.participants[i] == msg.sender */\n      0xffffffffffffffffffffffffffffffffffffffff\n      and\n        /* \"digital gifts.sol\":1280:1283  evt */\n      dup4\n        /* \"digital gifts.sol\":1280:1296  evt.participants */\n      0x01\n      add\n        /* \"digital gifts.sol\":1297:1298  i */\n      dup3\n        /* \"digital gifts.sol\":1280:1299  evt.participants[i] */\n      dup2\n      sload\n      dup2\n      lt\n      tag_65\n      jumpi\n      tag_66\n      tag_67\n      jump\t// in\n    tag_66:\n    tag_65:\n      swap1\n      0x00\n      mstore\n      keccak256(0x00, 0x20)\n      add\n      0x00\n      swap1\n      sload\n      swap1\n      0x0100\n      exp\n      swap1\n      div\n      0xffffffffffffffffffffffffffffffffffffffff\n      and\n        /* \"digital gifts.sol\":1280:1313  evt.participants[i] == msg.sender */\n      0xffffffffffffffffffffffffffffffffffffffff\n      and\n      sub\n        /* \"digital gifts.sol\":1276:1394  if (evt.participants[i] == msg.sender) {... */\n      tag_69\n      jumpi\n        /* \"digital gifts.sol\":1350:1354  true */\n      0x01\n        /* \"digital gifts.sol\":1334:1354  isParticipant = true */\n      swap2\n      pop\n        /* \"digital gifts.sol\":1373:1378  break */\n      jump(tag_63)\n        /* \"digital gifts.sol\":1276:1394  if (evt.participants[i] == msg.sender) {... */\n    tag_69:\n        /* \"digital gifts.sol\":1256:1259  i++ */\n      dup1\n      dup1\n      0x01\n      add\n      swap2\n      pop\n      pop\n        /* \"digital gifts.sol\":1210:1405  for (uint i = 0; i < evt.participants.length; i++) {... */\n      jump(tag_62)\n    tag_63:\n      pop\n        /* \"digital gifts.sol\":1423:1436  isParticipant */\n      dup1\n        /* \"digital gifts.sol\":1415:1481  require(isParticipant, \"You must join the event to submit a gift\") */\n      tag_70\n      jumpi\n      mload(0x40)\n      0x08c379a000000000000000000000000000000000000000000000000000000000\n      dup2\n      mstore\n      0x04\n      add\n      tag_71\n      swap1\n      tag_72\n      jump\t// in\n    tag_71:\n      mload(0x40)\n      dup1\n      swap2\n      sub\n      swap1\n      revert\n    tag_70:\n        /* \"digital gifts.sol\":1518:1523  _gift */\n      dup3\n        /* \"digital gifts.sol\":1494:1497  evt */\n      dup3\n        /* \"digital gifts.sol\":1494:1503  evt.gifts */\n      0x02\n      add\n        /* \"digital gifts.sol\":1494:1515  evt.gifts[msg.sender] */\n      0x00\n        /* \"digital gifts.sol\":1504:1514  msg.sender */\n      caller\n        /* \"digital gifts.sol\":1494:1515  evt.gifts[msg.sender] */\n      0xffffffffffffffffffffffffffffffffffffffff\n      and\n      0xffffffffffffffffffffffffffffffffffffffff\n      and\n      dup2\n      mstore\n      0x20\n      add\n      swap1\n      dup2\n      mstore\n      0x20\n      add\n      0x00\n      keccak256\n        /* \"digital gifts.sol\":1494:1523  evt.gifts[msg.sender] = _gift */\n      swap1\n      dup2\n      tag_73\n      swap2\n      swap1\n      tag_74\n      jump\t// in\n    tag_73:\n      pop\n        /* \"digital gifts.sol\":993:1531  {... */\n      pop\n      pop\n        /* \"digital gifts.sol\":930:1531  function submitGift(uint _eventId, string memory _gift) public {... */\n      pop\n      pop\n      jump\t// out\n        /* \"digital gifts.sol\":1926:2114  function getEvent(uint _eventId) public view returns (string memory, address[] memory) {... */\n    tag_28:\n        /* \"digital gifts.sol\":1980:1993  string memory */\n      0x60\n        /* \"digital gifts.sol\":1995:2011  address[] memory */\n      dup1\n        /* \"digital gifts.sol\":2024:2041  Event storage evt */\n      0x00\n        /* \"digital gifts.sol\":2044:2050  events */\n      dup1\n        /* \"digital gifts.sol\":2044:2060  events[_eventId] */\n      0x00\n        /* \"digital gifts.sol\":2051:2059  _eventId */\n      dup6\n        /* \"digital gifts.sol\":2044:2060  events[_eventId] */\n      dup2\n      mstore\n      0x20\n      add\n      swap1\n      dup2\n      mstore\n      0x20\n      add\n      0x00\n      keccak256\n        /* \"digital gifts.sol\":2024:2060  Event storage evt = events[_eventId] */\n      swap1\n      pop\n        /* \"digital gifts.sol\":2079:2082  evt */\n      dup1\n        /* \"digital gifts.sol\":2079:2087  evt.name */\n      0x00\n      add\n        /* \"digital gifts.sol\":2089:2092  evt */\n      dup2\n        /* \"digital gifts.sol\":2089:2105  evt.participants */\n      0x01\n      add\n        /* \"digital gifts.sol\":2071:2106  return (evt.name, evt.participants) */\n      dup2\n      dup1\n      sload\n      tag_76\n      swap1\n      tag_46\n      jump\t// in\n    tag_76:\n      dup1\n      0x1f\n      add\n      0x20\n      dup1\n      swap2\n      div\n      mul\n      0x20\n      add\n      mload(0x40)\n      swap1\n      dup2\n      add\n      0x40\n      mstore\n      dup1\n      swap3\n      swap2\n      swap1\n      dup2\n      dup2\n      mstore\n      0x20\n      add\n      dup3\n      dup1\n      sload\n      tag_77\n      swap1\n      tag_46\n      jump\t// in\n    tag_77:\n      dup1\n      iszero\n      tag_78\n      jumpi\n      dup1\n      0x1f\n      lt\n      tag_79\n      jumpi\n      0x0100\n      dup1\n      dup4\n      sload\n      div\n      mul\n      dup4\n      mstore\n      swap2\n      0x20\n      add\n      swap2\n      jump(tag_78)\n    tag_79:\n      dup3\n      add\n      swap2\n      swap1\n      0x00\n      mstore\n      keccak256(0x00, 0x20)\n      swap1\n    tag_80:\n      dup2\n      sload\n      dup2\n      mstore\n      swap1\n      0x01\n      add\n      swap1\n      0x20\n      add\n      dup1\n      dup4\n      gt\n      tag_80\n      jumpi\n      dup3\n      swap1\n      sub\n      0x1f\n      and\n      dup3\n      add\n      swap2\n    tag_78:\n      pop\n      pop\n      pop\n      pop\n      pop\n      swap2\n      pop\n      dup1\n      dup1\n      sload\n      dup1\n      0x20\n      mul\n      0x20\n      add\n      mload(0x40)\n      swap1\n      dup2\n      add\n      0x40\n      mstore\n      dup1\n      swap3\n      swap2\n      swap1\n      dup2\n      dup2\n      mstore\n      0x20\n      add\n      dup3\n      dup1\n      sload\n      dup1\n      iszero\n      tag_81\n      jumpi\n      0x20\n      mul\n      dup3\n      add\n      swap2\n      swap1\n      0x00\n      mstore\n      keccak256(0x00, 0x20)\n      swap1\n    tag_82:\n      dup2\n      0x00\n      swap1\n      sload\n      swap1\n      0x0100\n      exp\n      swap1\n      div\n      0xffffffffffffffffffffffffffffffffffffffff\n      and\n      0xffffffffffffffffffffffffffffffffffffffff\n      and\n      dup2\n      mstore\n      0x20\n      add\n      swap1\n      0x01\n      add\n      swap1\n      dup1\n      dup4\n      gt\n      tag_82\n      jumpi\n    tag_81:\n      pop\n      pop\n      pop\n      pop\n      pop\n      swap1\n      pop\n      swap3\n      pop\n      swap3\n      pop\n      pop\n        /* \"digital gifts.sol\":1926:2114  function getEvent(uint _eventId) public view returns (string memory, address[] memory) {... */\n      swap2\n      pop\n      swap2\n      jump\t// out\n        /* \"digital gifts.sol\":285:307  uint public eventCount */\n    tag_33:\n      sload(0x01)\n      dup2\n      jump\t// out\n        /* \"digital gifts.sol\":1587:1892  function completeEvent(uint _eventId) public {... */\n    tag_39:\n        /* \"digital gifts.sol\":1643:1660  Event storage evt */\n      0x00\n        /* \"digital gifts.sol\":1663:1669  events */\n      dup1\n        /* \"digital gifts.sol\":1663:1679  events[_eventId] */\n      0x00\n        /* \"digital gifts.sol\":1670:1678  _eventId */\n      dup4\n        /* \"digital gifts.sol\":1663:1679  events[_eventId] */\n      dup2\n      mstore\n      0x20\n      add\n      swap1\n      dup2\n      mstore\n      0x20\n      add\n      0x00\n      keccak256\n        /* \"digital gifts.sol\":1643:1679  Event storage evt = events[_eventId] */\n      swap1\n      pop\n        /* \"digital gifts.sol\":1699:1702  evt */\n      dup1\n        /* \"digital gifts.sol\":1699:1714  evt.isCompleted */\n      0x03\n      add\n      0x00\n      swap1\n      sload\n      swap1\n      0x0100\n      exp\n      swap1\n      div\n      0xff\n      and\n        /* \"digital gifts.sol\":1698:1714  !evt.isCompleted */\n      iszero\n        /* \"digital gifts.sol\":1690:1745  require(!evt.isCompleted, \"Event is already completed\") */\n      tag_84\n      jumpi\n      mload(0x40)\n      0x08c379a000000000000000000000000000000000000000000000000000000000\n      dup2\n      mstore\n      0x04\n      add\n      tag_85\n      swap1\n      tag_57\n      jump\t// in\n    tag_85:\n      mload(0x40)\n      dup1\n      swap2\n      sub\n      swap1\n      revert\n    tag_84:\n        /* \"digital gifts.sol\":1776:1780  true */\n      0x01\n        /* \"digital gifts.sol\":1758:1761  evt */\n      dup2\n        /* \"digital gifts.sol\":1758:1773  evt.isCompleted */\n      0x03\n      add\n      0x00\n        /* \"digital gifts.sol\":1758:1780  evt.isCompleted = true */\n      0x0100\n      exp\n      dup2\n      sload\n      dup2\n      0xff\n      mul\n      not\n      and\n      swap1\n      dup4\n      iszero\n      iszero\n      mul\n      or\n      swap1\n      sstore\n      pop\n        /* \"digital gifts.sol\":1632:1892  {... */\n      pop\n        /* \"digital gifts.sol\":1587:1892  function completeEvent(uint _eventId) public {... */\n      pop\n      jump\t// out\n        /* \"digital gifts.sol\":357:562  function createEvent(string memory _name) public {... */\n    tag_44:\n        /* \"digital gifts.sol\":417:427  eventCount */\n      0x01\n      0x00\n        /* \"digital gifts.sol\":417:429  eventCount++ */\n      dup2\n      sload\n      dup1\n      swap3\n      swap2\n      swap1\n      tag_87\n      swap1\n      tag_88\n      jump\t// in\n    tag_87:\n      swap2\n      swap1\n      pop\n      sstore\n      pop\n        /* \"digital gifts.sol\":440:462  Event storage newEvent */\n      0x00\n        /* \"digital gifts.sol\":465:471  events */\n      dup1\n        /* \"digital gifts.sol\":465:483  events[eventCount] */\n      0x00\n        /* \"digital gifts.sol\":472:482  eventCount */\n      sload(0x01)\n        /* \"digital gifts.sol\":465:483  events[eventCount] */\n      dup2\n      mstore\n      0x20\n      add\n      swap1\n      dup2\n      mstore\n      0x20\n      add\n      0x00\n      keccak256\n        /* \"digital gifts.sol\":440:483  Event storage newEvent = events[eventCount] */\n      swap1\n      pop\n        /* \"digital gifts.sol\":510:515  _name */\n      dup2\n        /* \"digital gifts.sol\":494:502  newEvent */\n      dup2\n        /* \"digital gifts.sol\":494:507  newEvent.name */\n      0x00\n      add\n        /* \"digital gifts.sol\":494:515  newEvent.name = _name */\n      swap1\n      dup2\n      tag_89\n      swap2\n      swap1\n      tag_74\n      jump\t// in\n    tag_89:\n      pop\n        /* \"digital gifts.sol\":549:554  false */\n      0x00\n        /* \"digital gifts.sol\":526:534  newEvent */\n      dup2\n        /* \"digital gifts.sol\":526:546  newEvent.isCompleted */\n      0x03\n      add\n      0x00\n        /* \"digital gifts.sol\":526:554  newEvent.isCompleted = false */\n      0x0100\n      exp\n      dup2\n      sload\n      dup2\n      0xff\n      mul\n      not\n      and\n      swap1\n      dup4\n      iszero\n      iszero\n      mul\n      or\n      swap1\n      sstore\n      pop\n        /* \"digital gifts.sol\":406:562  {... */\n      pop\n        /* \"digital gifts.sol\":357:562  function createEvent(string memory _name) public {... */\n      pop\n      jump\t// out\n        /* \"#utility.yul\":7:82   */\n    tag_90:\n        /* \"#utility.yul\":40:46   */\n      0x00\n        /* \"#utility.yul\":73:75   */\n      0x40\n        /* \"#utility.yul\":67:76   */\n      mload\n        /* \"#utility.yul\":57:76   */\n      swap1\n      pop\n        /* \"#utility.yul\":7:82   */\n      swap1\n      jump\t// out\n        /* \"#utility.yul\":88:205   */\n    tag_91:\n        /* \"#utility.yul\":197:198   */\n      0x00\n        /* \"#utility.yul\":194:195   */\n      dup1\n        /* \"#utility.yul\":187:199   */\n      revert\n        /* \"#utility.yul\":211:328   */\n    tag_92:\n        /* \"#utility.yul\":320:321   */\n      0x00\n        /* \"#utility.yul\":317:318   */\n      dup1\n        /* \"#utility.yul\":310:322   */\n      revert\n        /* \"#utility.yul\":334:411   */\n    tag_93:\n        /* \"#utility.yul\":371:378   */\n      0x00\n        /* \"#utility.yul\":400:405   */\n      dup2\n        /* \"#utility.yul\":389:405   */\n      swap1\n      pop\n        /* \"#utility.yul\":334:411   */\n      swap2\n      swap1\n      pop\n      jump\t// out\n        /* \"#utility.yul\":417:539   */\n    tag_94:\n        /* \"#utility.yul\":490:514   */\n      tag_151\n        /* \"#utility.yul\":508:513   */\n      dup2\n        /* \"#utility.yul\":490:514   */\n      tag_93\n      jump\t// in\n    tag_151:\n        /* \"#utility.yul\":483:488   */\n      dup2\n        /* \"#utility.yul\":480:515   */\n      eq\n        /* \"#utility.yul\":470:533   */\n      tag_152\n      jumpi\n        /* \"#utility.yul\":529:530   */\n      0x00\n        /* \"#utility.yul\":526:527   */\n      dup1\n        /* \"#utility.yul\":519:531   */\n      revert\n        /* \"#utility.yul\":470:533   */\n    tag_152:\n        /* \"#utility.yul\":417:539   */\n      pop\n      jump\t// out\n        /* \"#utility.yul\":545:684   */\n    tag_95:\n        /* \"#utility.yul\":591:596   */\n      0x00\n        /* \"#utility.yul\":629:635   */\n      dup2\n        /* \"#utility.yul\":616:636   */\n      calldataload\n        /* \"#utility.yul\":607:636   */\n      swap1\n      pop\n        /* \"#utility.yul\":645:678   */\n      tag_154\n        /* \"#utility.yul\":672:677   */\n      dup2\n        /* \"#utility.yul\":645:678   */\n      tag_94\n      jump\t// in\n    tag_154:\n        /* \"#utility.yul\":545:684   */\n      swap3\n      swap2\n      pop\n      pop\n      jump\t// out\n        /* \"#utility.yul\":690:1019   */\n    tag_13:\n        /* \"#utility.yul\":749:755   */\n      0x00\n        /* \"#utility.yul\":798:800   */\n      0x20\n        /* \"#utility.yul\":786:795   */\n      dup3\n        /* \"#utility.yul\":777:784   */\n      dup5\n        /* \"#utility.yul\":773:796   */\n      sub\n        /* \"#utility.yul\":769:801   */\n      slt\n        /* \"#utility.yul\":766:885   */\n      iszero\n      tag_156\n      jumpi\n        /* \"#utility.yul\":804:883   */\n      tag_157\n      tag_91\n      jump\t// in\n    tag_157:\n        /* \"#utility.yul\":766:885   */\n    tag_156:\n        /* \"#utility.yul\":924:925   */\n      0x00\n        /* \"#utility.yul\":949:1002   */\n      tag_158\n        /* \"#utility.yul\":994:1001   */\n      dup5\n        /* \"#utility.yul\":985:991   */\n      dup3\n        /* \"#utility.yul\":974:983   */\n      dup6\n        /* \"#utility.yul\":970:992   */\n      add\n        /* \"#utility.yul\":949:1002   */\n      tag_95\n      jump\t// in\n    tag_158:\n        /* \"#utility.yul\":939:1002   */\n      swap2\n      pop\n        /* \"#utility.yul\":895:1012   */\n      pop\n        /* \"#utility.yul\":690:1019   */\n      swap3\n      swap2\n      pop\n      pop\n      jump\t// out\n        /* \"#utility.yul\":1025:1124   */\n    tag_96:\n        /* \"#utility.yul\":1077:1083   */\n      0x00\n        /* \"#utility.yul\":1111:1116   */\n      dup2\n        /* \"#utility.yul\":1105:1117   */\n      mload\n        /* \"#utility.yul\":1095:1117   */\n      swap1\n      pop\n        /* \"#utility.yul\":1025:1124   */\n      swap2\n      swap1\n      pop\n      jump\t// out\n        /* \"#utility.yul\":1130:1299   */\n    tag_97:\n        /* \"#utility.yul\":1214:1225   */\n      0x00\n        /* \"#utility.yul\":1248:1254   */\n      dup3\n        /* \"#utility.yul\":1243:1246   */\n      dup3\n        /* \"#utility.yul\":1236:1255   */\n      mstore\n        /* \"#utility.yul\":1288:1292   */\n      0x20\n        /* \"#utility.yul\":1283:1286   */\n      dup3\n        /* \"#utility.yul\":1279:1293   */\n      add\n        /* \"#utility.yul\":1264:1293   */\n      swap1\n      pop\n        /* \"#utility.yul\":1130:1299   */\n      swap3\n      swap2\n      pop\n      pop\n      jump\t// out\n        /* \"#utility.yul\":1305:1444   */\n    tag_98:\n        /* \"#utility.yul\":1394:1400   */\n      dup3\n        /* \"#utility.yul\":1389:1392   */\n      dup2\n        /* \"#utility.yul\":1384:1387   */\n      dup4\n        /* \"#utility.yul\":1378:1401   */\n      mcopy\n        /* \"#utility.yul\":1435:1436   */\n      0x00\n        /* \"#utility.yul\":1426:1432   */\n      dup4\n        /* \"#utility.yul\":1421:1424   */\n      dup4\n        /* \"#utility.yul\":1417:1433   */\n      add\n        /* \"#utility.yul\":1410:1437   */\n      mstore\n        /* \"#utility.yul\":1305:1444   */\n      pop\n      pop\n      pop\n      jump\t// out\n        /* \"#utility.yul\":1450:1552   */\n    tag_99:\n        /* \"#utility.yul\":1491:1497   */\n      0x00\n        /* \"#utility.yul\":1542:1544   */\n      0x1f\n        /* \"#utility.yul\":1538:1545   */\n      not\n        /* \"#utility.yul\":1533:1535   */\n      0x1f\n        /* \"#utility.yul\":1526:1531   */\n      dup4\n        /* \"#utility.yul\":1522:1536   */\n      add\n        /* \"#utility.yul\":1518:1546   */\n      and\n        /* \"#utility.yul\":1508:1546   */\n      swap1\n      pop\n        /* \"#utility.yul\":1450:1552   */\n      swap2\n      swap1\n      pop\n      jump\t// out\n        /* \"#utility.yul\":1558:1935   */\n    tag_100:\n        /* \"#utility.yul\":1646:1649   */\n      0x00\n        /* \"#utility.yul\":1674:1713   */\n      tag_164\n        /* \"#utility.yul\":1707:1712   */\n      dup3\n        /* \"#utility.yul\":1674:1713   */\n      tag_96\n      jump\t// in\n    tag_164:\n        /* \"#utility.yul\":1729:1800   */\n      tag_165\n        /* \"#utility.yul\":1793:1799   */\n      dup2\n        /* \"#utility.yul\":1788:1791   */\n      dup6\n        /* \"#utility.yul\":1729:1800   */\n      tag_97\n      jump\t// in\n    tag_165:\n        /* \"#utility.yul\":1722:1800   */\n      swap4\n      pop\n        /* \"#utility.yul\":1809:1874   */\n      tag_166\n        /* \"#utility.yul\":1867:1873   */\n      dup2\n        /* \"#utility.yul\":1862:1865   */\n      dup6\n        /* \"#utility.yul\":1855:1859   */\n      0x20\n        /* \"#utility.yul\":1848:1853   */\n      dup7\n        /* \"#utility.yul\":1844:1860   */\n      add\n        /* \"#utility.yul\":1809:1874   */\n      tag_98\n      jump\t// in\n    tag_166:\n        /* \"#utility.yul\":1899:1928   */\n      tag_167\n        /* \"#utility.yul\":1921:1927   */\n      dup2\n        /* \"#utility.yul\":1899:1928   */\n      tag_99\n      jump\t// in\n    tag_167:\n        /* \"#utility.yul\":1894:1897   */\n      dup5\n        /* \"#utility.yul\":1890:1929   */\n      add\n        /* \"#utility.yul\":1883:1929   */\n      swap2\n      pop\n        /* \"#utility.yul\":1650:1935   */\n      pop\n        /* \"#utility.yul\":1558:1935   */\n      swap3\n      swap2\n      pop\n      pop\n      jump\t// out\n        /* \"#utility.yul\":1941:2031   */\n    tag_101:\n        /* \"#utility.yul\":1975:1982   */\n      0x00\n        /* \"#utility.yul\":2018:2023   */\n      dup2\n        /* \"#utility.yul\":2011:2024   */\n      iszero\n        /* \"#utility.yul\":2004:2025   */\n      iszero\n        /* \"#utility.yul\":1993:2025   */\n      swap1\n      pop\n        /* \"#utility.yul\":1941:2031   */\n      swap2\n      swap1\n      pop\n      jump\t// out\n        /* \"#utility.yul\":2037:2146   */\n    tag_102:\n        /* \"#utility.yul\":2118:2139   */\n      tag_170\n        /* \"#utility.yul\":2133:2138   */\n      dup2\n        /* \"#utility.yul\":2118:2139   */\n      tag_101\n      jump\t// in\n    tag_170:\n        /* \"#utility.yul\":2113:2116   */\n      dup3\n        /* \"#utility.yul\":2106:2140   */\n      mstore\n        /* \"#utility.yul\":2037:2146   */\n      pop\n      pop\n      jump\t// out\n        /* \"#utility.yul\":2152:2563   */\n    tag_16:\n        /* \"#utility.yul\":2287:2291   */\n      0x00\n        /* \"#utility.yul\":2325:2327   */\n      0x40\n        /* \"#utility.yul\":2314:2323   */\n      dup3\n        /* \"#utility.yul\":2310:2328   */\n      add\n        /* \"#utility.yul\":2302:2328   */\n      swap1\n      pop\n        /* \"#utility.yul\":2374:2383   */\n      dup2\n        /* \"#utility.yul\":2368:2372   */\n      dup2\n        /* \"#utility.yul\":2364:2384   */\n      sub\n        /* \"#utility.yul\":2360:2361   */\n      0x00\n        /* \"#utility.yul\":2349:2358   */\n      dup4\n        /* \"#utility.yul\":2345:2362   */\n      add\n        /* \"#utility.yul\":2338:2385   */\n      mstore\n        /* \"#utility.yul\":2402:2480   */\n      tag_172\n        /* \"#utility.yul\":2475:2479   */\n      dup2\n        /* \"#utility.yul\":2466:2472   */\n      dup6\n        /* \"#utility.yul\":2402:2480   */\n      tag_100\n      jump\t// in\n    tag_172:\n        /* \"#utility.yul\":2394:2480   */\n      swap1\n      pop\n        /* \"#utility.yul\":2490:2556   */\n      tag_173\n        /* \"#utility.yul\":2552:2554   */\n      0x20\n        /* \"#utility.yul\":2541:2550   */\n      dup4\n        /* \"#utility.yul\":2537:2555   */\n      add\n        /* \"#utility.yul\":2528:2534   */\n      dup5\n        /* \"#utility.yul\":2490:2556   */\n      tag_102\n      jump\t// in\n    tag_173:\n        /* \"#utility.yul\":2152:2563   */\n      swap4\n      swap3\n      pop\n      pop\n      pop\n      jump\t// out\n        /* \"#utility.yul\":2569:2686   */\n    tag_103:\n        /* \"#utility.yul\":2678:2679   */\n      0x00\n        /* \"#utility.yul\":2675:2676   */\n      dup1\n        /* \"#utility.yul\":2668:2680   */\n      revert\n        /* \"#utility.yul\":2692:2809   */\n    tag_104:\n        /* \"#utility.yul\":2801:2802   */\n      0x00\n        /* \"#utility.yul\":2798:2799   */\n      dup1\n        /* \"#utility.yul\":2791:2803   */\n      revert\n        /* \"#utility.yul\":2815:2995   */\n    tag_105:\n        /* \"#utility.yul\":2863:2940   */\n      0x4e487b7100000000000000000000000000000000000000000000000000000000\n        /* \"#utility.yul\":2860:2861   */\n      0x00\n        /* \"#utility.yul\":2853:2941   */\n      mstore\n        /* \"#utility.yul\":2960:2964   */\n      0x41\n        /* \"#utility.yul\":2957:2958   */\n      0x04\n        /* \"#utility.yul\":2950:2965   */\n      mstore\n        /* \"#utility.yul\":2984:2988   */\n      0x24\n        /* \"#utility.yul\":2981:2982   */\n      0x00\n        /* \"#utility.yul\":2974:2989   */\n      revert\n        /* \"#utility.yul\":3001:3282   */\n    tag_106:\n        /* \"#utility.yul\":3084:3111   */\n      tag_178\n        /* \"#utility.yul\":3106:3110   */\n      dup3\n        /* \"#utility.yul\":3084:3111   */\n      tag_99\n      jump\t// in\n    tag_178:\n        /* \"#utility.yul\":3076:3082   */\n      dup2\n        /* \"#utility.yul\":3072:3112   */\n      add\n        /* \"#utility.yul\":3214:3220   */\n      dup2\n        /* \"#utility.yul\":3202:3212   */\n      dup2\n        /* \"#utility.yul\":3199:3221   */\n      lt\n        /* \"#utility.yul\":3178:3196   */\n      0xffffffffffffffff\n        /* \"#utility.yul\":3166:3176   */\n      dup3\n        /* \"#utility.yul\":3163:3197   */\n      gt\n        /* \"#utility.yul\":3160:3222   */\n      or\n        /* \"#utility.yul\":3157:3245   */\n      iszero\n      tag_179\n      jumpi\n        /* \"#utility.yul\":3225:3243   */\n      tag_180\n      tag_105\n      jump\t// in\n    tag_180:\n        /* \"#utility.yul\":3157:3245   */\n    tag_179:\n        /* \"#utility.yul\":3265:3275   */\n      dup1\n        /* \"#utility.yul\":3261:3263   */\n      0x40\n        /* \"#utility.yul\":3254:3276   */\n      mstore\n        /* \"#utility.yul\":3044:3282   */\n      pop\n        /* \"#utility.yul\":3001:3282   */\n      pop\n      pop\n      jump\t// out\n        /* \"#utility.yul\":3288:3417   */\n    tag_107:\n        /* \"#utility.yul\":3322:3328   */\n      0x00\n        /* \"#utility.yul\":3349:3369   */\n      tag_182\n      tag_90\n      jump\t// in\n    tag_182:\n        /* \"#utility.yul\":3339:3369   */\n      swap1\n      pop\n        /* \"#utility.yul\":3378:3411   */\n      tag_183\n        /* \"#utility.yul\":3406:3410   */\n      dup3\n        /* \"#utility.yul\":3398:3404   */\n      dup3\n        /* \"#utility.yul\":3378:3411   */\n      tag_106\n      jump\t// in\n    tag_183:\n        /* \"#utility.yul\":3288:3417   */\n      swap2\n      swap1\n      pop\n      jump\t// out\n        /* \"#utility.yul\":3423:3731   */\n    tag_108:\n        /* \"#utility.yul\":3485:3489   */\n      0x00\n        /* \"#utility.yul\":3575:3593   */\n      0xffffffffffffffff\n        /* \"#utility.yul\":3567:3573   */\n      dup3\n        /* \"#utility.yul\":3564:3594   */\n      gt\n        /* \"#utility.yul\":3561:3617   */\n      iszero\n      tag_185\n      jumpi\n        /* \"#utility.yul\":3597:3615   */\n      tag_186\n      tag_105\n      jump\t// in\n    tag_186:\n        /* \"#utility.yul\":3561:3617   */\n    tag_185:\n        /* \"#utility.yul\":3635:3664   */\n      tag_187\n        /* \"#utility.yul\":3657:3663   */\n      dup3\n        /* \"#utility.yul\":3635:3664   */\n      tag_99\n      jump\t// in\n    tag_187:\n        /* \"#utility.yul\":3627:3664   */\n      swap1\n      pop\n        /* \"#utility.yul\":3719:3723   */\n      0x20\n        /* \"#utility.yul\":3713:3717   */\n      dup2\n        /* \"#utility.yul\":3709:3724   */\n      add\n        /* \"#utility.yul\":3701:3724   */\n      swap1\n      pop\n        /* \"#utility.yul\":3423:3731   */\n      swap2\n      swap1\n      pop\n      jump\t// out\n        /* \"#utility.yul\":3737:3885   */\n    tag_109:\n        /* \"#utility.yul\":3835:3841   */\n      dup3\n        /* \"#utility.yul\":3830:3833   */\n      dup2\n        /* \"#utility.yul\":3825:3828   */\n      dup4\n        /* \"#utility.yul\":3812:3842   */\n      calldatacopy\n        /* \"#utility.yul\":3876:3877   */\n      0x00\n        /* \"#utility.yul\":3867:3873   */\n      dup4\n        /* \"#utility.yul\":3862:3865   */\n      dup4\n        /* \"#utility.yul\":3858:3874   */\n      add\n        /* \"#utility.yul\":3851:3878   */\n      mstore\n        /* \"#utility.yul\":3737:3885   */\n      pop\n      pop\n      pop\n      jump\t// out\n        /* \"#utility.yul\":3891:4316   */\n    tag_110:\n        /* \"#utility.yul\":3969:3974   */\n      0x00\n        /* \"#utility.yul\":3994:4060   */\n      tag_190\n        /* \"#utility.yul\":4010:4059   */\n      tag_191\n        /* \"#utility.yul\":4052:4058   */\n      dup5\n        /* \"#utility.yul\":4010:4059   */\n      tag_108\n      jump\t// in\n    tag_191:\n        /* \"#utility.yul\":3994:4060   */\n      tag_107\n      jump\t// in\n    tag_190:\n        /* \"#utility.yul\":3985:4060   */\n      swap1\n      pop\n        /* \"#utility.yul\":4083:4089   */\n      dup3\n        /* \"#utility.yul\":4076:4081   */\n      dup2\n        /* \"#utility.yul\":4069:4090   */\n      mstore\n        /* \"#utility.yul\":4121:4125   */\n      0x20\n        /* \"#utility.yul\":4114:4119   */\n      dup2\n        /* \"#utility.yul\":4110:4126   */\n      add\n        /* \"#utility.yul\":4159:4162   */\n      dup5\n        /* \"#utility.yul\":4150:4156   */\n      dup5\n        /* \"#utility.yul\":4145:4148   */\n      dup5\n        /* \"#utility.yul\":4141:4157   */\n      add\n        /* \"#utility.yul\":4138:4163   */\n      gt\n        /* \"#utility.yul\":4135:4247   */\n      iszero\n      tag_192\n      jumpi\n        /* \"#utility.yul\":4166:4245   */\n      tag_193\n      tag_104\n      jump\t// in\n    tag_193:\n        /* \"#utility.yul\":4135:4247   */\n    tag_192:\n        /* \"#utility.yul\":4256:4310   */\n      tag_194\n        /* \"#utility.yul\":4303:4309   */\n      dup5\n        /* \"#utility.yul\":4298:4301   */\n      dup3\n        /* \"#utility.yul\":4293:4296   */\n      dup6\n        /* \"#utility.yul\":4256:4310   */\n      tag_109\n      jump\t// in\n    tag_194:\n        /* \"#utility.yul\":3975:4316   */\n      pop\n        /* \"#utility.yul\":3891:4316   */\n      swap4\n      swap3\n      pop\n      pop\n      pop\n      jump\t// out\n        /* \"#utility.yul\":4336:4676   */\n    tag_111:\n        /* \"#utility.yul\":4392:4397   */\n      0x00\n        /* \"#utility.yul\":4441:4444   */\n      dup3\n        /* \"#utility.yul\":4434:4438   */\n      0x1f\n        /* \"#utility.yul\":4426:4432   */\n      dup4\n        /* \"#utility.yul\":4422:4439   */\n      add\n        /* \"#utility.yul\":4418:4445   */\n      slt\n        /* \"#utility.yul\":4408:4530   */\n      tag_196\n      jumpi\n        /* \"#utility.yul\":4449:4528   */\n      tag_197\n      tag_103\n      jump\t// in\n    tag_197:\n        /* \"#utility.yul\":4408:4530   */\n    tag_196:\n        /* \"#utility.yul\":4566:4572   */\n      dup2\n        /* \"#utility.yul\":4553:4573   */\n      calldataload\n        /* \"#utility.yul\":4591:4670   */\n      tag_198\n        /* \"#utility.yul\":4666:4669   */\n      dup5\n        /* \"#utility.yul\":4658:4664   */\n      dup3\n        /* \"#utility.yul\":4651:4655   */\n      0x20\n        /* \"#utility.yul\":4643:4649   */\n      dup7\n        /* \"#utility.yul\":4639:4656   */\n      add\n        /* \"#utility.yul\":4591:4670   */\n      tag_110\n      jump\t// in\n    tag_198:\n        /* \"#utility.yul\":4582:4670   */\n      swap2\n      pop\n        /* \"#utility.yul\":4398:4676   */\n      pop\n        /* \"#utility.yul\":4336:4676   */\n      swap3\n      swap2\n      pop\n      pop\n      jump\t// out\n        /* \"#utility.yul\":4682:5336   */\n    tag_23:\n        /* \"#utility.yul\":4760:4766   */\n      0x00\n        /* \"#utility.yul\":4768:4774   */\n      dup1\n        /* \"#utility.yul\":4817:4819   */\n      0x40\n        /* \"#utility.yul\":4805:4814   */\n      dup4\n        /* \"#utility.yul\":4796:4803   */\n      dup6\n        /* \"#utility.yul\":4792:4815   */\n      sub\n        /* \"#utility.yul\":4788:4820   */\n      slt\n        /* \"#utility.yul\":4785:4904   */\n      iszero\n      tag_200\n      jumpi\n        /* \"#utility.yul\":4823:4902   */\n      tag_201\n      tag_91\n      jump\t// in\n    tag_201:\n        /* \"#utility.yul\":4785:4904   */\n    tag_200:\n        /* \"#utility.yul\":4943:4944   */\n      0x00\n        /* \"#utility.yul\":4968:5021   */\n      tag_202\n        /* \"#utility.yul\":5013:5020   */\n      dup6\n        /* \"#utility.yul\":5004:5010   */\n      dup3\n        /* \"#utility.yul\":4993:5002   */\n      dup7\n        /* \"#utility.yul\":4989:5011   */\n      add\n        /* \"#utility.yul\":4968:5021   */\n      tag_95\n      jump\t// in\n    tag_202:\n        /* \"#utility.yul\":4958:5021   */\n      swap3\n      pop\n        /* \"#utility.yul\":4914:5031   */\n      pop\n        /* \"#utility.yul\":5098:5100   */\n      0x20\n        /* \"#utility.yul\":5087:5096   */\n      dup4\n        /* \"#utility.yul\":5083:5101   */\n      add\n        /* \"#utility.yul\":5070:5102   */\n      calldataload\n        /* \"#utility.yul\":5129:5147   */\n      0xffffffffffffffff\n        /* \"#utility.yul\":5121:5127   */\n      dup2\n        /* \"#utility.yul\":5118:5148   */\n      gt\n        /* \"#utility.yul\":5115:5232   */\n      iszero\n      tag_203\n      jumpi\n        /* \"#utility.yul\":5151:5230   */\n      tag_204\n      tag_92\n      jump\t// in\n    tag_204:\n        /* \"#utility.yul\":5115:5232   */\n    tag_203:\n        /* \"#utility.yul\":5256:5319   */\n      tag_205\n        /* \"#utility.yul\":5311:5318   */\n      dup6\n        /* \"#utility.yul\":5302:5308   */\n      dup3\n        /* \"#utility.yul\":5291:5300   */\n      dup7\n        /* \"#utility.yul\":5287:5309   */\n      add\n        /* \"#utility.yul\":5256:5319   */\n      tag_111\n      jump\t// in\n    tag_205:\n        /* \"#utility.yul\":5246:5319   */\n      swap2\n      pop\n        /* \"#utility.yul\":5041:5329   */\n      pop\n        /* \"#utility.yul\":4682:5336   */\n      swap3\n      pop\n      swap3\n      swap1\n      pop\n      jump\t// out\n        /* \"#utility.yul\":5342:5456   */\n    tag_112:\n        /* \"#utility.yul\":5409:5415   */\n      0x00\n        /* \"#utility.yul\":5443:5448   */\n      dup2\n        /* \"#utility.yul\":5437:5449   */\n      mload\n        /* \"#utility.yul\":5427:5449   */\n      swap1\n      pop\n        /* \"#utility.yul\":5342:5456   */\n      swap2\n      swap1\n      pop\n      jump\t// out\n        /* \"#utility.yul\":5462:5646   */\n    tag_113:\n        /* \"#utility.yul\":5561:5572   */\n      0x00\n        /* \"#utility.yul\":5595:5601   */\n      dup3\n        /* \"#utility.yul\":5590:5593   */\n      dup3\n        /* \"#utility.yul\":5583:5602   */\n      mstore\n        /* \"#utility.yul\":5635:5639   */\n      0x20\n        /* \"#utility.yul\":5630:5633   */\n      dup3\n        /* \"#utility.yul\":5626:5640   */\n      add\n        /* \"#utility.yul\":5611:5640   */\n      swap1\n      pop\n        /* \"#utility.yul\":5462:5646   */\n      swap3\n      swap2\n      pop\n      pop\n      jump\t// out\n        /* \"#utility.yul\":5652:5784   */\n    tag_114:\n        /* \"#utility.yul\":5719:5723   */\n      0x00\n        /* \"#utility.yul\":5742:5745   */\n      dup2\n        /* \"#utility.yul\":5734:5745   */\n      swap1\n      pop\n        /* \"#utility.yul\":5772:5776   */\n      0x20\n        /* \"#utility.yul\":5767:5770   */\n      dup3\n        /* \"#utility.yul\":5763:5777   */\n      add\n        /* \"#utility.yul\":5755:5777   */\n      swap1\n      pop\n        /* \"#utility.yul\":5652:5784   */\n      swap2\n      swap1\n      pop\n      jump\t// out\n        /* \"#utility.yul\":5790:5916   */\n    tag_115:\n        /* \"#utility.yul\":5827:5834   */\n      0x00\n        /* \"#utility.yul\":5867:5909   */\n      0xffffffffffffffffffffffffffffffffffffffff\n        /* \"#utility.yul\":5860:5865   */\n      dup3\n        /* \"#utility.yul\":5856:5910   */\n      and\n        /* \"#utility.yul\":5845:5910   */\n      swap1\n      pop\n        /* \"#utility.yul\":5790:5916   */\n      swap2\n      swap1\n      pop\n      jump\t// out\n        /* \"#utility.yul\":5922:6018   */\n    tag_116:\n        /* \"#utility.yul\":5959:5966   */\n      0x00\n        /* \"#utility.yul\":5988:6012   */\n      tag_211\n        /* \"#utility.yul\":6006:6011   */\n      dup3\n        /* \"#utility.yul\":5988:6012   */\n      tag_115\n      jump\t// in\n    tag_211:\n        /* \"#utility.yul\":5977:6012   */\n      swap1\n      pop\n        /* \"#utility.yul\":5922:6018   */\n      swap2\n      swap1\n      pop\n      jump\t// out\n        /* \"#utility.yul\":6024:6132   */\n    tag_117:\n        /* \"#utility.yul\":6101:6125   */\n      tag_213\n        /* \"#utility.yul\":6119:6124   */\n      dup2\n        /* \"#utility.yul\":6101:6125   */\n      tag_116\n      jump\t// in\n    tag_213:\n        /* \"#utility.yul\":6096:6099   */\n      dup3\n        /* \"#utility.yul\":6089:6126   */\n      mstore\n        /* \"#utility.yul\":6024:6132   */\n      pop\n      pop\n      jump\t// out\n        /* \"#utility.yul\":6138:6317   */\n    tag_118:\n        /* \"#utility.yul\":6207:6217   */\n      0x00\n        /* \"#utility.yul\":6228:6274   */\n      tag_215\n        /* \"#utility.yul\":6270:6273   */\n      dup4\n        /* \"#utility.yul\":6262:6268   */\n      dup4\n        /* \"#utility.yul\":6228:6274   */\n      tag_117\n      jump\t// in\n    tag_215:\n        /* \"#utility.yul\":6306:6310   */\n      0x20\n        /* \"#utility.yul\":6301:6304   */\n      dup4\n        /* \"#utility.yul\":6297:6311   */\n      add\n        /* \"#utility.yul\":6283:6311   */\n      swap1\n      pop\n        /* \"#utility.yul\":6138:6317   */\n      swap3\n      swap2\n      pop\n      pop\n      jump\t// out\n        /* \"#utility.yul\":6323:6436   */\n    tag_119:\n        /* \"#utility.yul\":6393:6397   */\n      0x00\n        /* \"#utility.yul\":6425:6429   */\n      0x20\n        /* \"#utility.yul\":6420:6423   */\n      dup3\n        /* \"#utility.yul\":6416:6430   */\n      add\n        /* \"#utility.yul\":6408:6430   */\n      swap1\n      pop\n        /* \"#utility.yul\":6323:6436   */\n      swap2\n      swap1\n      pop\n      jump\t// out\n        /* \"#utility.yul\":6472:7204   */\n    tag_120:\n        /* \"#utility.yul\":6591:6594   */\n      0x00\n        /* \"#utility.yul\":6620:6674   */\n      tag_218\n        /* \"#utility.yul\":6668:6673   */\n      dup3\n        /* \"#utility.yul\":6620:6674   */\n      tag_112\n      jump\t// in\n    tag_218:\n        /* \"#utility.yul\":6690:6776   */\n      tag_219\n        /* \"#utility.yul\":6769:6775   */\n      dup2\n        /* \"#utility.yul\":6764:6767   */\n      dup6\n        /* \"#utility.yul\":6690:6776   */\n      tag_113\n      jump\t// in\n    tag_219:\n        /* \"#utility.yul\":6683:6776   */\n      swap4\n      pop\n        /* \"#utility.yul\":6800:6856   */\n      tag_220\n        /* \"#utility.yul\":6850:6855   */\n      dup4\n        /* \"#utility.yul\":6800:6856   */\n      tag_114\n      jump\t// in\n    tag_220:\n        /* \"#utility.yul\":6879:6886   */\n      dup1\n        /* \"#utility.yul\":6910:6911   */\n      0x00\n        /* \"#utility.yul\":6895:7179   */\n    tag_221:\n        /* \"#utility.yul\":6920:6926   */\n      dup4\n        /* \"#utility.yul\":6917:6918   */\n      dup2\n        /* \"#utility.yul\":6914:6927   */\n      lt\n        /* \"#utility.yul\":6895:7179   */\n      iszero\n      tag_223\n      jumpi\n        /* \"#utility.yul\":6996:7002   */\n      dup2\n        /* \"#utility.yul\":6990:7003   */\n      mload\n        /* \"#utility.yul\":7023:7086   */\n      tag_224\n        /* \"#utility.yul\":7082:7085   */\n      dup9\n        /* \"#utility.yul\":7067:7080   */\n      dup3\n        /* \"#utility.yul\":7023:7086   */\n      tag_118\n      jump\t// in\n    tag_224:\n        /* \"#utility.yul\":7016:7086   */\n      swap8\n      pop\n        /* \"#utility.yul\":7109:7169   */\n      tag_225\n        /* \"#utility.yul\":7162:7168   */\n      dup4\n        /* \"#utility.yul\":7109:7169   */\n      tag_119\n      jump\t// in\n    tag_225:\n        /* \"#utility.yul\":7099:7169   */\n      swap3\n      pop\n        /* \"#utility.yul\":6955:7179   */\n      pop\n        /* \"#utility.yul\":6942:6943   */\n      0x01\n        /* \"#utility.yul\":6939:6940   */\n      dup2\n        /* \"#utility.yul\":6935:6944   */\n      add\n        /* \"#utility.yul\":6930:6944   */\n      swap1\n      pop\n        /* \"#utility.yul\":6895:7179   */\n      jump(tag_221)\n    tag_223:\n        /* \"#utility.yul\":6899:6913   */\n      pop\n        /* \"#utility.yul\":7195:7198   */\n      dup6\n        /* \"#utility.yul\":7188:7198   */\n      swap4\n      pop\n        /* \"#utility.yul\":6596:7204   */\n      pop\n      pop\n      pop\n        /* \"#utility.yul\":6472:7204   */\n      swap3\n      swap2\n      pop\n      pop\n      jump\t// out\n        /* \"#utility.yul\":7210:7784   */\n    tag_30:\n        /* \"#utility.yul\":7401:7405   */\n      0x00\n        /* \"#utility.yul\":7439:7441   */\n      0x40\n        /* \"#utility.yul\":7428:7437   */\n      dup3\n        /* \"#utility.yul\":7424:7442   */\n      add\n        /* \"#utility.yul\":7416:7442   */\n      swap1\n      pop\n        /* \"#utility.yul\":7488:7497   */\n      dup2\n        /* \"#utility.yul\":7482:7486   */\n      dup2\n        /* \"#utility.yul\":7478:7498   */\n      sub\n        /* \"#utility.yul\":7474:7475   */\n      0x00\n        /* \"#utility.yul\":7463:7472   */\n      dup4\n        /* \"#utility.yul\":7459:7476   */\n      add\n        /* \"#utility.yul\":7452:7499   */\n      mstore\n        /* \"#utility.yul\":7516:7594   */\n      tag_227\n        /* \"#utility.yul\":7589:7593   */\n      dup2\n        /* \"#utility.yul\":7580:7586   */\n      dup6\n        /* \"#utility.yul\":7516:7594   */\n      tag_100\n      jump\t// in\n    tag_227:\n        /* \"#utility.yul\":7508:7594   */\n      swap1\n      pop\n        /* \"#utility.yul\":7641:7650   */\n      dup2\n        /* \"#utility.yul\":7635:7639   */\n      dup2\n        /* \"#utility.yul\":7631:7651   */\n      sub\n        /* \"#utility.yul\":7626:7628   */\n      0x20\n        /* \"#utility.yul\":7615:7624   */\n      dup4\n        /* \"#utility.yul\":7611:7629   */\n      add\n        /* \"#utility.yul\":7604:7652   */\n      mstore\n        /* \"#utility.yul\":7669:7777   */\n      tag_228\n        /* \"#utility.yul\":7772:7776   */\n      dup2\n        /* \"#utility.yul\":7763:7769   */\n      dup5\n        /* \"#utility.yul\":7669:7777   */\n      tag_120\n      jump\t// in\n    tag_228:\n        /* \"#utility.yul\":7661:7777   */\n      swap1\n      pop\n        /* \"#utility.yul\":7210:7784   */\n      swap4\n      swap3\n      pop\n      pop\n      pop\n      jump\t// out\n        /* \"#utility.yul\":7790:7908   */\n    tag_121:\n        /* \"#utility.yul\":7877:7901   */\n      tag_230\n        /* \"#utility.yul\":7895:7900   */\n      dup2\n        /* \"#utility.yul\":7877:7901   */\n      tag_93\n      jump\t// in\n    tag_230:\n        /* \"#utility.yul\":7872:7875   */\n      dup3\n        /* \"#utility.yul\":7865:7902   */\n      mstore\n        /* \"#utility.yul\":7790:7908   */\n      pop\n      pop\n      jump\t// out\n        /* \"#utility.yul\":7914:8136   */\n    tag_35:\n        /* \"#utility.yul\":8007:8011   */\n      0x00\n        /* \"#utility.yul\":8045:8047   */\n      0x20\n        /* \"#utility.yul\":8034:8043   */\n      dup3\n        /* \"#utility.yul\":8030:8048   */\n      add\n        /* \"#utility.yul\":8022:8048   */\n      swap1\n      pop\n        /* \"#utility.yul\":8058:8129   */\n      tag_232\n        /* \"#utility.yul\":8126:8127   */\n      0x00\n        /* \"#utility.yul\":8115:8124   */\n      dup4\n        /* \"#utility.yul\":8111:8128   */\n      add\n        /* \"#utility.yul\":8102:8108   */\n      dup5\n        /* \"#utility.yul\":8058:8129   */\n      tag_121\n      jump\t// in\n    tag_232:\n        /* \"#utility.yul\":7914:8136   */\n      swap3\n      swap2\n      pop\n      pop\n      jump\t// out\n        /* \"#utility.yul\":8142:8651   */\n    tag_43:\n        /* \"#utility.yul\":8211:8217   */\n      0x00\n        /* \"#utility.yul\":8260:8262   */\n      0x20\n        /* \"#utility.yul\":8248:8257   */\n      dup3\n        /* \"#utility.yul\":8239:8246   */\n      dup5\n        /* \"#utility.yul\":8235:8258   */\n      sub\n        /* \"#utility.yul\":8231:8263   */\n      slt\n        /* \"#utility.yul\":8228:8347   */\n      iszero\n      tag_234\n      jumpi\n        /* \"#utility.yul\":8266:8345   */\n      tag_235\n      tag_91\n      jump\t// in\n    tag_235:\n        /* \"#utility.yul\":8228:8347   */\n    tag_234:\n        /* \"#utility.yul\":8414:8415   */\n      0x00\n        /* \"#utility.yul\":8403:8412   */\n      dup3\n        /* \"#utility.yul\":8399:8416   */\n      add\n        /* \"#utility.yul\":8386:8417   */\n      calldataload\n        /* \"#utility.yul\":8444:8462   */\n      0xffffffffffffffff\n        /* \"#utility.yul\":8436:8442   */\n      dup2\n        /* \"#utility.yul\":8433:8463   */\n      gt\n        /* \"#utility.yul\":8430:8547   */\n      iszero\n      tag_236\n      jumpi\n        /* \"#utility.yul\":8466:8545   */\n      tag_237\n      tag_92\n      jump\t// in\n    tag_237:\n        /* \"#utility.yul\":8430:8547   */\n    tag_236:\n        /* \"#utility.yul\":8571:8634   */\n      tag_238\n        /* \"#utility.yul\":8626:8633   */\n      dup5\n        /* \"#utility.yul\":8617:8623   */\n      dup3\n        /* \"#utility.yul\":8606:8615   */\n      dup6\n        /* \"#utility.yul\":8602:8624   */\n      add\n        /* \"#utility.yul\":8571:8634   */\n      tag_111\n      jump\t// in\n    tag_238:\n        /* \"#utility.yul\":8561:8634   */\n      swap2\n      pop\n        /* \"#utility.yul\":8357:8644   */\n      pop\n        /* \"#utility.yul\":8142:8651   */\n      swap3\n      swap2\n      pop\n      pop\n      jump\t// out\n        /* \"#utility.yul\":8657:8837   */\n    tag_122:\n        /* \"#utility.yul\":8705:8782   */\n      0x4e487b7100000000000000000000000000000000000000000000000000000000\n        /* \"#utility.yul\":8702:8703   */\n      0x00\n        /* \"#utility.yul\":8695:8783   */\n      mstore\n        /* \"#utility.yul\":8802:8806   */\n      0x22\n        /* \"#utility.yul\":8799:8800   */\n      0x04\n        /* \"#utility.yul\":8792:8807   */\n      mstore\n        /* \"#utility.yul\":8826:8830   */\n      0x24\n        /* \"#utility.yul\":8823:8824   */\n      0x00\n        /* \"#utility.yul\":8816:8831   */\n      revert\n        /* \"#utility.yul\":8843:9163   */\n    tag_46:\n        /* \"#utility.yul\":8887:8893   */\n      0x00\n        /* \"#utility.yul\":8924:8925   */\n      0x02\n        /* \"#utility.yul\":8918:8922   */\n      dup3\n        /* \"#utility.yul\":8914:8926   */\n      div\n        /* \"#utility.yul\":8904:8926   */\n      swap1\n      pop\n        /* \"#utility.yul\":8971:8972   */\n      0x01\n        /* \"#utility.yul\":8965:8969   */\n      dup3\n        /* \"#utility.yul\":8961:8973   */\n      and\n        /* \"#utility.yul\":8992:9010   */\n      dup1\n        /* \"#utility.yul\":8982:9063   */\n      tag_241\n      jumpi\n        /* \"#utility.yul\":9048:9052   */\n      0x7f\n        /* \"#utility.yul\":9040:9046   */\n      dup3\n        /* \"#utility.yul\":9036:9053   */\n      and\n        /* \"#utility.yul\":9026:9053   */\n      swap2\n      pop\n        /* \"#utility.yul\":8982:9063   */\n    tag_241:\n        /* \"#utility.yul\":9110:9112   */\n      0x20\n        /* \"#utility.yul\":9102:9108   */\n      dup3\n        /* \"#utility.yul\":9099:9113   */\n      lt\n        /* \"#utility.yul\":9079:9097   */\n      dup2\n        /* \"#utility.yul\":9076:9114   */\n      sub\n        /* \"#utility.yul\":9073:9157   */\n      tag_242\n      jumpi\n        /* \"#utility.yul\":9129:9147   */\n      tag_243\n      tag_122\n      jump\t// in\n    tag_243:\n        /* \"#utility.yul\":9073:9157   */\n    tag_242:\n        /* \"#utility.yul\":8894:9163   */\n      pop\n        /* \"#utility.yul\":8843:9163   */\n      swap2\n      swap1\n      pop\n      jump\t// out\n        /* \"#utility.yul\":9169:9350   */\n    tag_123:\n        /* \"#utility.yul\":9309:9342   */\n      0x50617274696369706174696f6e2066656520697320302e303120457468657200\n        /* \"#utility.yul\":9305:9306   */\n      0x00\n        /* \"#utility.yul\":9297:9303   */\n      dup3\n        /* \"#utility.yul\":9293:9307   */\n      add\n        /* \"#utility.yul\":9286:9343   */\n      mstore\n        /* \"#utility.yul\":9169:9350   */\n      pop\n      jump\t// out\n        /* \"#utility.yul\":9356:9722   */\n    tag_124:\n        /* \"#utility.yul\":9498:9501   */\n      0x00\n        /* \"#utility.yul\":9519:9586   */\n      tag_246\n        /* \"#utility.yul\":9583:9585   */\n      0x1f\n        /* \"#utility.yul\":9578:9581   */\n      dup4\n        /* \"#utility.yul\":9519:9586   */\n      tag_97\n      jump\t// in\n    tag_246:\n        /* \"#utility.yul\":9512:9586   */\n      swap2\n      pop\n        /* \"#utility.yul\":9595:9688   */\n      tag_247\n        /* \"#utility.yul\":9684:9687   */\n      dup3\n        /* \"#utility.yul\":9595:9688   */\n      tag_123\n      jump\t// in\n    tag_247:\n        /* \"#utility.yul\":9713:9715   */\n      0x20\n        /* \"#utility.yul\":9708:9711   */\n      dup3\n        /* \"#utility.yul\":9704:9716   */\n      add\n        /* \"#utility.yul\":9697:9716   */\n      swap1\n      pop\n        /* \"#utility.yul\":9356:9722   */\n      swap2\n      swap1\n      pop\n      jump\t// out\n        /* \"#utility.yul\":9728:10147   */\n    tag_54:\n        /* \"#utility.yul\":9894:9898   */\n      0x00\n        /* \"#utility.yul\":9932:9934   */\n      0x20\n        /* \"#utility.yul\":9921:9930   */\n      dup3\n        /* \"#utility.yul\":9917:9935   */\n      add\n        /* \"#utility.yul\":9909:9935   */\n      swap1\n      pop\n        /* \"#utility.yul\":9981:9990   */\n      dup2\n        /* \"#utility.yul\":9975:9979   */\n      dup2\n        /* \"#utility.yul\":9971:9991   */\n      sub\n        /* \"#utility.yul\":9967:9968   */\n      0x00\n        /* \"#utility.yul\":9956:9965   */\n      dup4\n        /* \"#utility.yul\":9952:9969   */\n      add\n        /* \"#utility.yul\":9945:9992   */\n      mstore\n        /* \"#utility.yul\":10009:10140   */\n      tag_249\n        /* \"#utility.yul\":10135:10139   */\n      dup2\n        /* \"#utility.yul\":10009:10140   */\n      tag_124\n      jump\t// in\n    tag_249:\n        /* \"#utility.yul\":10001:10140   */\n      swap1\n      pop\n        /* \"#utility.yul\":9728:10147   */\n      swap2\n      swap1\n      pop\n      jump\t// out\n        /* \"#utility.yul\":10153:10329   */\n    tag_125:\n        /* \"#utility.yul\":10293:10321   */\n      0x4576656e7420697320616c726561647920636f6d706c65746564000000000000\n        /* \"#utility.yul\":10289:10290   */\n      0x00\n        /* \"#utility.yul\":10281:10287   */\n      dup3\n        /* \"#utility.yul\":10277:10291   */\n      add\n        /* \"#utility.yul\":10270:10322   */\n      mstore\n        /* \"#utility.yul\":10153:10329   */\n      pop\n      jump\t// out\n        /* \"#utility.yul\":10335:10701   */\n    tag_126:\n        /* \"#utility.yul\":10477:10480   */\n      0x00\n        /* \"#utility.yul\":10498:10565   */\n      tag_252\n        /* \"#utility.yul\":10562:10564   */\n      0x1a\n        /* \"#utility.yul\":10557:10560   */\n      dup4\n        /* \"#utility.yul\":10498:10565   */\n      tag_97\n      jump\t// in\n    tag_252:\n        /* \"#utility.yul\":10491:10565   */\n      swap2\n      pop\n        /* \"#utility.yul\":10574:10667   */\n      tag_253\n        /* \"#utility.yul\":10663:10666   */\n      dup3\n        /* \"#utility.yul\":10574:10667   */\n      tag_125\n      jump\t// in\n    tag_253:\n        /* \"#utility.yul\":10692:10694   */\n      0x20\n        /* \"#utility.yul\":10687:10690   */\n      dup3\n        /* \"#utility.yul\":10683:10695   */\n      add\n        /* \"#utility.yul\":10676:10695   */\n      swap1\n      pop\n        /* \"#utility.yul\":10335:10701   */\n      swap2\n      swap1\n      pop\n      jump\t// out\n        /* \"#utility.yul\":10707:11126   */\n    tag_57:\n        /* \"#utility.yul\":10873:10877   */\n      0x00\n        /* \"#utility.yul\":10911:10913   */\n      0x20\n        /* \"#utility.yul\":10900:10909   */\n      dup3\n        /* \"#utility.yul\":10896:10914   */\n      add\n        /* \"#utility.yul\":10888:10914   */\n      swap1\n      pop\n        /* \"#utility.yul\":10960:10969   */\n      dup2\n        /* \"#utility.yul\":10954:10958   */\n      dup2\n        /* \"#utility.yul\":10950:10970   */\n      sub\n        /* \"#utility.yul\":10946:10947   */\n      0x00\n        /* \"#utility.yul\":10935:10944   */\n      dup4\n        /* \"#utility.yul\":10931:10948   */\n      add\n        /* \"#utility.yul\":10924:10971   */\n      mstore\n        /* \"#utility.yul\":10988:11119   */\n      tag_255\n        /* \"#utility.yul\":11114:11118   */\n      dup2\n        /* \"#utility.yul\":10988:11119   */\n      tag_126\n      jump\t// in\n    tag_255:\n        /* \"#utility.yul\":10980:11119   */\n      swap1\n      pop\n        /* \"#utility.yul\":10707:11126   */\n      swap2\n      swap1\n      pop\n      jump\t// out\n        /* \"#utility.yul\":11132:11312   */\n    tag_67:\n        /* \"#utility.yul\":11180:11257   */\n      0x4e487b7100000000000000000000000000000000000000000000000000000000\n        /* \"#utility.yul\":11177:11178   */\n      0x00\n        /* \"#utility.yul\":11170:11258   */\n      mstore\n        /* \"#utility.yul\":11277:11281   */\n      0x32\n        /* \"#utility.yul\":11274:11275   */\n      0x04\n        /* \"#utility.yul\":11267:11282   */\n      mstore\n        /* \"#utility.yul\":11301:11305   */\n      0x24\n        /* \"#utility.yul\":11298:11299   */\n      0x00\n        /* \"#utility.yul\":11291:11306   */\n      revert\n        /* \"#utility.yul\":11318:11545   */\n    tag_127:\n        /* \"#utility.yul\":11458:11492   */\n      0x596f75206d757374206a6f696e20746865206576656e7420746f207375626d69\n        /* \"#utility.yul\":11454:11455   */\n      0x00\n        /* \"#utility.yul\":11446:11452   */\n      dup3\n        /* \"#utility.yul\":11442:11456   */\n      add\n        /* \"#utility.yul\":11435:11493   */\n      mstore\n        /* \"#utility.yul\":11527:11537   */\n      0x7420612067696674000000000000000000000000000000000000000000000000\n        /* \"#utility.yul\":11522:11524   */\n      0x20\n        /* \"#utility.yul\":11514:11520   */\n      dup3\n        /* \"#utility.yul\":11510:11525   */\n      add\n        /* \"#utility.yul\":11503:11538   */\n      mstore\n        /* \"#utility.yul\":11318:11545   */\n      pop\n      jump\t// out\n        /* \"#utility.yul\":11551:11917   */\n    tag_128:\n        /* \"#utility.yul\":11693:11696   */\n      0x00\n        /* \"#utility.yul\":11714:11781   */\n      tag_259\n        /* \"#utility.yul\":11778:11780   */\n      0x28\n        /* \"#utility.yul\":11773:11776   */\n      dup4\n        /* \"#utility.yul\":11714:11781   */\n      tag_97\n      jump\t// in\n    tag_259:\n        /* \"#utility.yul\":11707:11781   */\n      swap2\n      pop\n        /* \"#utility.yul\":11790:11883   */\n      tag_260\n        /* \"#utility.yul\":11879:11882   */\n      dup3\n        /* \"#utility.yul\":11790:11883   */\n      tag_127\n      jump\t// in\n    tag_260:\n        /* \"#utility.yul\":11908:11910   */\n      0x40\n        /* \"#utility.yul\":11903:11906   */\n      dup3\n        /* \"#utility.yul\":11899:11911   */\n      add\n        /* \"#utility.yul\":11892:11911   */\n      swap1\n      pop\n        /* \"#utility.yul\":11551:11917   */\n      swap2\n      swap1\n      pop\n      jump\t// out\n        /* \"#utility.yul\":11923:12342   */\n    tag_72:\n        /* \"#utility.yul\":12089:12093   */\n      0x00\n        /* \"#utility.yul\":12127:12129   */\n      0x20\n        /* \"#utility.yul\":12116:12125   */\n      dup3\n        /* \"#utility.yul\":12112:12130   */\n      add\n        /* \"#utility.yul\":12104:12130   */\n      swap1\n      pop\n        /* \"#utility.yul\":12176:12185   */\n      dup2\n        /* \"#utility.yul\":12170:12174   */\n      dup2\n        /* \"#utility.yul\":12166:12186   */\n      sub\n        /* \"#utility.yul\":12162:12163   */\n      0x00\n        /* \"#utility.yul\":12151:12160   */\n      dup4\n        /* \"#utility.yul\":12147:12164   */\n      add\n        /* \"#utility.yul\":12140:12187   */\n      mstore\n        /* \"#utility.yul\":12204:12335   */\n      tag_262\n        /* \"#utility.yul\":12330:12334   */\n      dup2\n        /* \"#utility.yul\":12204:12335   */\n      tag_128\n      jump\t// in\n    tag_262:\n        /* \"#utility.yul\":12196:12335   */\n      swap1\n      pop\n        /* \"#utility.yul\":11923:12342   */\n      swap2\n      swap1\n      pop\n      jump\t// out\n        /* \"#utility.yul\":12348:12489   */\n    tag_129:\n        /* \"#utility.yul\":12397:12401   */\n      0x00\n        /* \"#utility.yul\":12420:12423   */\n      dup2\n        /* \"#utility.yul\":12412:12423   */\n      swap1\n      pop\n        /* \"#utility.yul\":12443:12446   */\n      dup2\n        /* \"#utility.yul\":12440:12441   */\n      0x00\n        /* \"#utility.yul\":12433:12447   */\n      mstore\n        /* \"#utility.yul\":12477:12481   */\n      0x20\n        /* \"#utility.yul\":12474:12475   */\n      0x00\n        /* \"#utility.yul\":12464:12482   */\n      keccak256\n        /* \"#utility.yul\":12456:12482   */\n      swap1\n      pop\n        /* \"#utility.yul\":12348:12489   */\n      swap2\n      swap1\n      pop\n      jump\t// out\n        /* \"#utility.yul\":12495:12588   */\n    tag_130:\n        /* \"#utility.yul\":12532:12538   */\n      0x00\n        /* \"#utility.yul\":12579:12581   */\n      0x20\n        /* \"#utility.yul\":12574:12576   */\n      0x1f\n        /* \"#utility.yul\":12567:12572   */\n      dup4\n        /* \"#utility.yul\":12563:12577   */\n      add\n        /* \"#utility.yul\":12559:12582   */\n      div\n        /* \"#utility.yul\":12549:12582   */\n      swap1\n      pop\n        /* \"#utility.yul\":12495:12588   */\n      swap2\n      swap1\n      pop\n      jump\t// out\n        /* \"#utility.yul\":12594:12701   */\n    tag_131:\n        /* \"#utility.yul\":12638:12646   */\n      0x00\n        /* \"#utility.yul\":12688:12693   */\n      dup3\n        /* \"#utility.yul\":12682:12686   */\n      dup3\n        /* \"#utility.yul\":12678:12694   */\n      shl\n        /* \"#utility.yul\":12657:12694   */\n      swap1\n      pop\n        /* \"#utility.yul\":12594:12701   */\n      swap3\n      swap2\n      pop\n      pop\n      jump\t// out\n        /* \"#utility.yul\":12707:13100   */\n    tag_132:\n        /* \"#utility.yul\":12776:12782   */\n      0x00\n        /* \"#utility.yul\":12826:12827   */\n      0x08\n        /* \"#utility.yul\":12814:12824   */\n      dup4\n        /* \"#utility.yul\":12810:12828   */\n      mul\n        /* \"#utility.yul\":12849:12946   */\n      tag_267\n        /* \"#utility.yul\":12879:12945   */\n      0xffffffffffffffffffffffffffffffffffffffffffffffffffffffffffffffff\n        /* \"#utility.yul\":12868:12877   */\n      dup3\n        /* \"#utility.yul\":12849:12946   */\n      tag_131\n      jump\t// in\n    tag_267:\n        /* \"#utility.yul\":12967:13006   */\n      tag_268\n        /* \"#utility.yul\":12997:13005   */\n      dup7\n        /* \"#utility.yul\":12986:12995   */\n      dup4\n        /* \"#utility.yul\":12967:13006   */\n      tag_131\n      jump\t// in\n    tag_268:\n        /* \"#utility.yul\":12955:13006   */\n      swap6\n      pop\n        /* \"#utility.yul\":13039:13043   */\n      dup1\n        /* \"#utility.yul\":13035:13044   */\n      not\n        /* \"#utility.yul\":13028:13033   */\n      dup5\n        /* \"#utility.yul\":13024:13045   */\n      and\n        /* \"#utility.yul\":13015:13045   */\n      swap4\n      pop\n        /* \"#utility.yul\":13088:13092   */\n      dup1\n        /* \"#utility.yul\":13078:13086   */\n      dup7\n        /* \"#utility.yul\":13074:13093   */\n      and\n        /* \"#utility.yul\":13067:13072   */\n      dup5\n        /* \"#utility.yul\":13064:13094   */\n      or\n        /* \"#utility.yul\":13054:13094   */\n      swap3\n      pop\n        /* \"#utility.yul\":12783:13100   */\n      pop\n      pop\n        /* \"#utility.yul\":12707:13100   */\n      swap4\n      swap3\n      pop\n      pop\n      pop\n      jump\t// out\n        /* \"#utility.yul\":13106:13166   */\n    tag_133:\n        /* \"#utility.yul\":13134:13137   */\n      0x00\n        /* \"#utility.yul\":13155:13160   */\n      dup2\n        /* \"#utility.yul\":13148:13160   */\n      swap1\n      pop\n        /* \"#utility.yul\":13106:13166   */\n      swap2\n      swap1\n      pop\n      jump\t// out\n        /* \"#utility.yul\":13172:13314   */\n    tag_134:\n        /* \"#utility.yul\":13222:13231   */\n      0x00\n        /* \"#utility.yul\":13255:13308   */\n      tag_271\n        /* \"#utility.yul\":13273:13307   */\n      tag_272\n        /* \"#utility.yul\":13282:13306   */\n      tag_273\n        /* \"#utility.yul\":13300:13305   */\n      dup5\n        /* \"#utility.yul\":13282:13306   */\n      tag_93\n      jump\t// in\n    tag_273:\n        /* \"#utility.yul\":13273:13307   */\n      tag_133\n      jump\t// in\n    tag_272:\n        /* \"#utility.yul\":13255:13308   */\n      tag_93\n      jump\t// in\n    tag_271:\n        /* \"#utility.yul\":13242:13308   */\n      swap1\n      pop\n        /* \"#utility.yul\":13172:13314   */\n      swap2\n      swap1\n      pop\n      jump\t// out\n        /* \"#utility.yul\":13320:13395   */\n    tag_135:\n        /* \"#utility.yul\":13363:13366   */\n      0x00\n        /* \"#utility.yul\":13384:13389   */\n      dup2\n        /* \"#utility.yul\":13377:13389   */\n      swap1\n      pop\n        /* \"#utility.yul\":13320:13395   */\n      swap2\n      swap1\n      pop\n      jump\t// out\n        /* \"#utility.yul\":13401:13670   */\n    tag_136:\n        /* \"#utility.yul\":13511:13550   */\n      tag_276\n        /* \"#utility.yul\":13542:13549   */\n      dup4\n        /* \"#utility.yul\":13511:13550   */\n      tag_134\n      jump\t// in\n    tag_276:\n        /* \"#utility.yul\":13572:13663   */\n      tag_277\n        /* \"#utility.yul\":13621:13662   */\n      tag_278\n        /* \"#utility.yul\":13645:13661   */\n      dup3\n        /* \"#utility.yul\":13621:13662   */\n      tag_135\n      jump\t// in\n    tag_278:\n        /* \"#utility.yul\":13613:13619   */\n      dup5\n        /* \"#utility.yul\":13606:13610   */\n      dup5\n        /* \"#utility.yul\":13600:13611   */\n      sload\n        /* \"#utility.yul\":13572:13663   */\n      tag_132\n      jump\t// in\n    tag_277:\n        /* \"#utility.yul\":13566:13570   */\n      dup3\n        /* \"#utility.yul\":13559:13664   */\n      sstore\n        /* \"#utility.yul\":13477:13670   */\n      pop\n        /* \"#utility.yul\":13401:13670   */\n      pop\n      pop\n      pop\n      jump\t// out\n        /* \"#utility.yul\":13676:13749   */\n    tag_137:\n        /* \"#utility.yul\":13721:13724   */\n      0x00\n        /* \"#utility.yul\":13676:13749   */\n      swap1\n      jump\t// out\n        /* \"#utility.yul\":13755:13944   */\n    tag_138:\n        /* \"#utility.yul\":13832:13864   */\n      tag_281\n      tag_137\n      jump\t// in\n    tag_281:\n        /* \"#utility.yul\":13873:13938   */\n      tag_282\n        /* \"#utility.yul\":13931:13937   */\n      dup2\n        /* \"#utility.yul\":13923:13929   */\n      dup5\n        /* \"#utility.yul\":13917:13921   */\n      dup5\n        /* \"#utility.yul\":13873:13938   */\n      tag_136\n      jump\t// in\n    tag_282:\n        /* \"#utility.yul\":13808:13944   */\n      pop\n        /* \"#utility.yul\":13755:13944   */\n      pop\n      pop\n      jump\t// out\n        /* \"#utility.yul\":13950:14136   */\n    tag_139:\n        /* \"#utility.yul\":14010:14130   */\n    tag_284:\n        /* \"#utility.yul\":14027:14030   */\n      dup2\n        /* \"#utility.yul\":14020:14025   */\n      dup2\n        /* \"#utility.yul\":14017:14031   */\n      lt\n        /* \"#utility.yul\":14010:14130   */\n      iszero\n      tag_286\n      jumpi\n        /* \"#utility.yul\":14081:14120   */\n      tag_287\n        /* \"#utility.yul\":14118:14119   */\n      0x00\n        /* \"#utility.yul\":14111:14116   */\n      dup3\n        /* \"#utility.yul\":14081:14120   */\n      tag_138\n      jump\t// in\n    tag_287:\n        /* \"#utility.yul\":14054:14055   */\n      0x01\n        /* \"#utility.yul\":14047:14052   */\n      dup2\n        /* \"#utility.yul\":14043:14056   */\n      add\n        /* \"#utility.yul\":14034:14056   */\n      swap1\n      pop\n        /* \"#utility.yul\":14010:14130   */\n      jump(tag_284)\n    tag_286:\n        /* \"#utility.yul\":13950:14136   */\n      pop\n      pop\n      jump\t// out\n        /* \"#utility.yul\":14142:14685   */\n    tag_140:\n        /* \"#utility.yul\":14243:14245   */\n      0x1f\n        /* \"#utility.yul\":14238:14241   */\n      dup3\n        /* \"#utility.yul\":14235:14246   */\n      gt\n        /* \"#utility.yul\":14232:14678   */\n      iszero\n      tag_289\n      jumpi\n        /* \"#utility.yul\":14277:14315   */\n      tag_290\n        /* \"#utility.yul\":14309:14314   */\n      dup2\n        /* \"#utility.yul\":14277:14315   */\n      tag_129\n      jump\t// in\n    tag_290:\n        /* \"#utility.yul\":14361:14390   */\n      tag_291\n        /* \"#utility.yul\":14379:14389   */\n      dup5\n        /* \"#utility.yul\":14361:14390   */\n      tag_130\n      jump\t// in\n    tag_291:\n        /* \"#utility.yul\":14351:14359   */\n      dup2\n        /* \"#utility.yul\":14347:14391   */\n      add\n        /* \"#utility.yul\":14544:14546   */\n      0x20\n        /* \"#utility.yul\":14532:14542   */\n      dup6\n        /* \"#utility.yul\":14529:14547   */\n      lt\n        /* \"#utility.yul\":14526:14575   */\n      iszero\n      tag_292\n      jumpi\n        /* \"#utility.yul\":14565:14573   */\n      dup2\n        /* \"#utility.yul\":14550:14573   */\n      swap1\n      pop\n        /* \"#utility.yul\":14526:14575   */\n    tag_292:\n        /* \"#utility.yul\":14588:14668   */\n      tag_293\n        /* \"#utility.yul\":14644:14666   */\n      tag_294\n        /* \"#utility.yul\":14662:14665   */\n      dup6\n        /* \"#utility.yul\":14644:14666   */\n      tag_130\n      jump\t// in\n    tag_294:\n        /* \"#utility.yul\":14634:14642   */\n      dup4\n        /* \"#utility.yul\":14630:14667   */\n      add\n        /* \"#utility.yul\":14617:14628   */\n      dup3\n        /* \"#utility.yul\":14588:14668   */\n      tag_139\n      jump\t// in\n    tag_293:\n        /* \"#utility.yul\":14247:14678   */\n      pop\n      pop\n        /* \"#utility.yul\":14232:14678   */\n    tag_289:\n        /* \"#utility.yul\":14142:14685   */\n      pop\n      pop\n      pop\n      jump\t// out\n        /* \"#utility.yul\":14691:14808   */\n    tag_141:\n        /* \"#utility.yul\":14745:14753   */\n      0x00\n        /* \"#utility.yul\":14795:14800   */\n      dup3\n        /* \"#utility.yul\":14789:14793   */\n      dup3\n        /* \"#utility.yul\":14785:14801   */\n      shr\n        /* \"#utility.yul\":14764:14801   */\n      swap1\n      pop\n        /* \"#utility.yul\":14691:14808   */\n      swap3\n      swap2\n      pop\n      pop\n      jump\t// out\n        /* \"#utility.yul\":14814:14983   */\n    tag_142:\n        /* \"#utility.yul\":14858:14864   */\n      0x00\n        /* \"#utility.yul\":14891:14942   */\n      tag_297\n        /* \"#utility.yul\":14939:14940   */\n      0x00\n        /* \"#utility.yul\":14935:14941   */\n      not\n        /* \"#utility.yul\":14927:14932   */\n      dup5\n        /* \"#utility.yul\":14924:14925   */\n      0x08\n        /* \"#utility.yul\":14920:14933   */\n      mul\n        /* \"#utility.yul\":14891:14942   */\n      tag_141\n      jump\t// in\n    tag_297:\n        /* \"#utility.yul\":14887:14943   */\n      not\n        /* \"#utility.yul\":14972:14976   */\n      dup1\n        /* \"#utility.yul\":14966:14970   */\n      dup4\n        /* \"#utility.yul\":14962:14977   */\n      and\n        /* \"#utility.yul\":14952:14977   */\n      swap2\n      pop\n        /* \"#utility.yul\":14865:14983   */\n      pop\n        /* \"#utility.yul\":14814:14983   */\n      swap3\n      swap2\n      pop\n      pop\n      jump\t// out\n        /* \"#utility.yul\":14988:15283   */\n    tag_143:\n        /* \"#utility.yul\":15064:15068   */\n      0x00\n        /* \"#utility.yul\":15210:15239   */\n      tag_299\n        /* \"#utility.yul\":15235:15238   */\n      dup4\n        /* \"#utility.yul\":15229:15233   */\n      dup4\n        /* \"#utility.yul\":15210:15239   */\n      tag_142\n      jump\t// in\n    tag_299:\n        /* \"#utility.yul\":15202:15239   */\n      swap2\n      pop\n        /* \"#utility.yul\":15272:15275   */\n      dup3\n        /* \"#utility.yul\":15269:15270   */\n      0x02\n        /* \"#utility.yul\":15265:15276   */\n      mul\n        /* \"#utility.yul\":15259:15263   */\n      dup3\n        /* \"#utility.yul\":15256:15277   */\n      or\n        /* \"#utility.yul\":15248:15277   */\n      swap1\n      pop\n        /* \"#utility.yul\":14988:15283   */\n      swap3\n      swap2\n      pop\n      pop\n      jump\t// out\n        /* \"#utility.yul\":15288:16683   */\n    tag_74:\n        /* \"#utility.yul\":15405:15442   */\n      tag_301\n        /* \"#utility.yul\":15438:15441   */\n      dup3\n        /* \"#utility.yul\":15405:15442   */\n      tag_96\n      jump\t// in\n    tag_301:\n        /* \"#utility.yul\":15507:15525   */\n      0xffffffffffffffff\n        /* \"#utility.yul\":15499:15505   */\n      dup2\n        /* \"#utility.yul\":15496:15526   */\n      gt\n        /* \"#utility.yul\":15493:15549   */\n      iszero\n      tag_302\n      jumpi\n        /* \"#utility.yul\":15529:15547   */\n      tag_303\n      tag_105\n      jump\t// in\n    tag_303:\n        /* \"#utility.yul\":15493:15549   */\n    tag_302:\n        /* \"#utility.yul\":15573:15611   */\n      tag_304\n        /* \"#utility.yul\":15605:15609   */\n      dup3\n        /* \"#utility.yul\":15599:15610   */\n      sload\n        /* \"#utility.yul\":15573:15611   */\n      tag_46\n      jump\t// in\n    tag_304:\n        /* \"#utility.yul\":15658:15725   */\n      tag_305\n        /* \"#utility.yul\":15718:15724   */\n      dup3\n        /* \"#utility.yul\":15710:15716   */\n      dup3\n        /* \"#utility.yul\":15704:15708   */\n      dup6\n        /* \"#utility.yul\":15658:15725   */\n      tag_140\n      jump\t// in\n    tag_305:\n        /* \"#utility.yul\":15752:15753   */\n      0x00\n        /* \"#utility.yul\":15776:15780   */\n      0x20\n        /* \"#utility.yul\":15763:15780   */\n      swap1\n      pop\n        /* \"#utility.yul\":15808:15810   */\n      0x1f\n        /* \"#utility.yul\":15800:15806   */\n      dup4\n        /* \"#utility.yul\":15797:15811   */\n      gt\n        /* \"#utility.yul\":15825:15826   */\n      0x01\n        /* \"#utility.yul\":15820:16438   */\n      dup2\n      eq\n      tag_307\n      jumpi\n        /* \"#utility.yul\":16482:16483   */\n      0x00\n        /* \"#utility.yul\":16499:16505   */\n      dup5\n        /* \"#utility.yul\":16496:16573   */\n      iszero\n      tag_308\n      jumpi\n        /* \"#utility.yul\":16548:16557   */\n      dup3\n        /* \"#utility.yul\":16543:16546   */\n      dup8\n        /* \"#utility.yul\":16539:16558   */\n      add\n        /* \"#utility.yul\":16533:16559   */\n      mload\n        /* \"#utility.yul\":16524:16559   */\n      swap1\n      pop\n        /* \"#utility.yul\":16496:16573   */\n    tag_308:\n        /* \"#utility.yul\":16599:16666   */\n      tag_309\n        /* \"#utility.yul\":16659:16665   */\n      dup6\n        /* \"#utility.yul\":16652:16657   */\n      dup3\n        /* \"#utility.yul\":16599:16666   */\n      tag_143\n      jump\t// in\n    tag_309:\n        /* \"#utility.yul\":16593:16597   */\n      dup7\n        /* \"#utility.yul\":16586:16667   */\n      sstore\n        /* \"#utility.yul\":16455:16677   */\n      pop\n        /* \"#utility.yul\":15790:16677   */\n      jump(tag_306)\n        /* \"#utility.yul\":15820:16438   */\n    tag_307:\n        /* \"#utility.yul\":15872:15876   */\n      0x1f\n        /* \"#utility.yul\":15868:15877   */\n      not\n        /* \"#utility.yul\":15860:15866   */\n      dup5\n        /* \"#utility.yul\":15856:15878   */\n      and\n        /* \"#utility.yul\":15906:15943   */\n      tag_310\n        /* \"#utility.yul\":15938:15942   */\n      dup7\n        /* \"#utility.yul\":15906:15943   */\n      tag_129\n      jump\t// in\n    tag_310:\n        /* \"#utility.yul\":15965:15966   */\n      0x00\n        /* \"#utility.yul\":15979:16187   */\n    tag_311:\n        /* \"#utility.yul\":15993:16000   */\n      dup3\n        /* \"#utility.yul\":15990:15991   */\n      dup2\n        /* \"#utility.yul\":15987:16001   */\n      lt\n        /* \"#utility.yul\":15979:16187   */\n      iszero\n      tag_313\n      jumpi\n        /* \"#utility.yul\":16072:16081   */\n      dup5\n        /* \"#utility.yul\":16067:16070   */\n      dup10\n        /* \"#utility.yul\":16063:16082   */\n      add\n        /* \"#utility.yul\":16057:16083   */\n      mload\n        /* \"#utility.yul\":16049:16055   */\n      dup3\n        /* \"#utility.yul\":16042:16084   */\n      sstore\n        /* \"#utility.yul\":16123:16124   */\n      0x01\n        /* \"#utility.yul\":16115:16121   */\n      dup3\n        /* \"#utility.yul\":16111:16125   */\n      add\n        /* \"#utility.yul\":16101:16125   */\n      swap2\n      pop\n        /* \"#utility.yul\":16170:16172   */\n      0x20\n        /* \"#utility.yul\":16159:16168   */\n      dup6\n        /* \"#utility.yul\":16155:16173   */\n      add\n        /* \"#utility.yul\":16142:16173   */\n      swap5\n      pop\n        /* \"#utility.yul\":16016:16020   */\n      0x20\n        /* \"#utility.yul\":16013:16014   */\n      dup2\n        /* \"#utility.yul\":16009:16021   */\n      add\n        /* \"#utility.yul\":16004:16021   */\n      swap1\n      pop\n        /* \"#utility.yul\":15979:16187   */\n      jump(tag_311)\n    tag_313:\n        /* \"#utility.yul\":16215:16221   */\n      dup7\n        /* \"#utility.yul\":16206:16213   */\n      dup4\n        /* \"#utility.yul\":16203:16222   */\n      lt\n        /* \"#utility.yul\":16200:16379   */\n      iszero\n      tag_314\n      jumpi\n        /* \"#utility.yul\":16273:16282   */\n      dup5\n        /* \"#utility.yul\":16268:16271   */\n      dup10\n        /* \"#utility.yul\":16264:16283   */\n      add\n        /* \"#utility.yul\":16258:16284   */\n      mload\n        /* \"#utility.yul\":16316:16364   */\n      tag_315\n        /* \"#utility.yul\":16358:16362   */\n      0x1f\n        /* \"#utility.yul\":16350:16356   */\n      dup10\n        /* \"#utility.yul\":16346:16363   */\n      and\n        /* \"#utility.yul\":16335:16344   */\n      dup3\n        /* \"#utility.yul\":16316:16364   */\n      tag_142\n      jump\t// in\n    tag_315:\n        /* \"#utility.yul\":16308:16314   */\n      dup4\n        /* \"#utility.yul\":16301:16365   */\n      sstore\n        /* \"#utility.yul\":16223:16379   */\n      pop\n        /* \"#utility.yul\":16200:16379   */\n    tag_314:\n        /* \"#utility.yul\":16425:16426   */\n      0x01\n        /* \"#utility.yul\":16421:16422   */\n      0x02\n        /* \"#utility.yul\":16413:16419   */\n      dup9\n        /* \"#utility.yul\":16409:16423   */\n      mul\n        /* \"#utility.yul\":16405:16427   */\n      add\n        /* \"#utility.yul\":16399:16403   */\n      dup9\n        /* \"#utility.yul\":16392:16428   */\n      sstore\n        /* \"#utility.yul\":15827:16438   */\n      pop\n      pop\n      pop\n        /* \"#utility.yul\":15790:16677   */\n    tag_306:\n      pop\n        /* \"#utility.yul\":15380:16683   */\n      pop\n      pop\n      pop\n        /* \"#utility.yul\":15288:16683   */\n      pop\n      pop\n      jump\t// out\n        /* \"#utility.yul\":16689:16869   */\n    tag_144:\n        /* \"#utility.yul\":16737:16814   */\n      0x4e487b7100000000000000000000000000000000000000000000000000000000\n        /* \"#utility.yul\":16734:16735   */\n      0x00\n        /* \"#utility.yul\":16727:16815   */\n      mstore\n        /* \"#utility.yul\":16834:16838   */\n      0x11\n        /* \"#utility.yul\":16831:16832   */\n      0x04\n        /* \"#utility.yul\":16824:16839   */\n      mstore\n        /* \"#utility.yul\":16858:16862   */\n      0x24\n        /* \"#utility.yul\":16855:16856   */\n      0x00\n        /* \"#utility.yul\":16848:16863   */\n      revert\n        /* \"#utility.yul\":16875:17108   */\n    tag_88:\n        /* \"#utility.yul\":16914:16917   */\n      0x00\n        /* \"#utility.yul\":16937:16961   */\n      tag_318\n        /* \"#utility.yul\":16955:16960   */\n      dup3\n        /* \"#utility.yul\":16937:16961   */\n      tag_93\n      jump\t// in\n    tag_318:\n        /* \"#utility.yul\":16928:16961   */\n      swap2\n      pop\n        /* \"#utility.yul\":16983:17049   */\n      0xffffffffffffffffffffffffffffffffffffffffffffffffffffffffffffffff\n        /* \"#utility.yul\":16976:16981   */\n      dup3\n        /* \"#utility.yul\":16973:17050   */\n      sub\n        /* \"#utility.yul\":16970:17073   */\n      tag_319\n      jumpi\n        /* \"#utility.yul\":17053:17071   */\n      tag_320\n      tag_144\n      jump\t// in\n    tag_320:\n        /* \"#utility.yul\":16970:17073   */\n    tag_319:\n        /* \"#utility.yul\":17100:17101   */\n      0x01\n        /* \"#utility.yul\":17093:17098   */\n      dup3\n        /* \"#utility.yul\":17089:17102   */\n      add\n        /* \"#utility.yul\":17082:17102   */\n      swap1\n      pop\n        /* \"#utility.yul\":16875:17108   */\n      swap2\n      swap1\n      pop\n      jump\t// out\n\n    auxdata: 0xa26469706673582212203c9a023ae5c64accc1f09ff0f486ee043cc2f31bca006a473ded4ea615b8d5c764736f6c634300081a0033\n}\n",
				"bytecode": {
					"linkReferences": {},
					"object": "6080604052348015600e575f80fd5b506110518061001c5f395ff3fe60806040526004361061006f575f3560e01c80636d1884e01161004d5780636d1884e0146100f457806371be2e4a146101315780639b7aea751461015b5780639bc2bc71146101835761006f565b80630b7914301461007357806338d361e2146100b05780636447cae6146100cc575b5f80fd5b34801561007e575f80fd5b506100996004803603810190610094919061075f565b6101ab565b6040516100a7929190610814565b60405180910390f35b6100ca60048036038101906100c5919061075f565b61025c565b005b3480156100d7575f80fd5b506100f260048036038101906100ed919061096e565b61036f565b005b3480156100ff575f80fd5b5061011a6004803603810190610115919061075f565b6104ff565b604051610128929190610aaf565b60405180910390f35b34801561013c575f80fd5b50610145610635565b6040516101529190610af3565b60405180910390f35b348015610166575f80fd5b50610181600480360381019061017c919061075f565b61063b565b005b34801561018e575f80fd5b506101a960048036038101906101a49190610b0c565b6106bf565b005b5f602052805f5260405f205f91509050805f0180546101c990610b80565b80601f01602080910402602001604051908101604052809291908181526020018280546101f590610b80565b80156102405780601f1061021757610100808354040283529160200191610240565b820191905f5260205f20905b81548152906001019060200180831161022357829003601f168201915b505050505090806003015f9054906101000a900460ff16905082565b662386f26fc1000034146102a5576040517f08c379a000000000000000000000000000000000000000000000000000000000815260040161029c90610bfa565b60405180910390fd5b5f805f8381526020019081526020015f209050806003015f9054906101000a900460ff1615610309576040517f08c379a000000000000000000000000000000000000000000000000000000000815260040161030090610c62565b60405180910390fd5b8060010133908060018154018082558091505060019003905f5260205f20015f9091909190916101000a81548173ffffffffffffffffffffffffffffffffffffffff021916908373ffffffffffffffffffffffffffffffffffffffff1602179055505050565b5f805f8481526020019081526020015f209050806003015f9054906101000a900460ff16156103d3576040517f08c379a00000000000000000000000000000000000000000000000000000000081526004016103ca90610c62565b60405180910390fd5b5f805b826001018054905081101561046b573373ffffffffffffffffffffffffffffffffffffffff1683600101828154811061041257610411610c80565b5b905f5260205f20015f9054906101000a900473ffffffffffffffffffffffffffffffffffffffff1673ffffffffffffffffffffffffffffffffffffffff160361045e576001915061046b565b80806001019150506103d6565b50806104ac576040517f08c379a00000000000000000000000000000000000000000000000000000000081526004016104a390610d1d565b60405180910390fd5b82826002015f3373ffffffffffffffffffffffffffffffffffffffff1673ffffffffffffffffffffffffffffffffffffffff1681526020019081526020015f2090816104f89190610ed8565b5050505050565b6060805f805f8581526020019081526020015f209050805f018160010181805461052890610b80565b80601f016020809104026020016040519081016040528092919081815260200182805461055490610b80565b801561059f5780601f106105765761010080835404028352916020019161059f565b820191905f5260205f20905b81548152906001019060200180831161058257829003601f168201915b505050505091508080548060200260200160405190810160405280929190818152602001828054801561062457602002820191905f5260205f20905b815f9054906101000a900473ffffffffffffffffffffffffffffffffffffffff1673ffffffffffffffffffffffffffffffffffffffff16815260200190600101908083116105db575b505050505090509250925050915091565b60015481565b5f805f8381526020019081526020015f209050806003015f9054906101000a900460ff161561069f576040517f08c379a000000000000000000000000000000000000000000000000000000000815260040161069690610c62565b60405180910390fd5b6001816003015f6101000a81548160ff0219169083151502179055505050565b60015f8154809291906106d190610fd4565b91905055505f805f60015481526020019081526020015f20905081815f0190816106fb9190610ed8565b505f816003015f6101000a81548160ff0219169083151502179055505050565b5f604051905090565b5f80fd5b5f80fd5b5f819050919050565b61073e8161072c565b8114610748575f80fd5b50565b5f8135905061075981610735565b92915050565b5f6020828403121561077457610773610724565b5b5f6107818482850161074b565b91505092915050565b5f81519050919050565b5f82825260208201905092915050565b8281835e5f83830152505050565b5f601f19601f8301169050919050565b5f6107cc8261078a565b6107d68185610794565b93506107e68185602086016107a4565b6107ef816107b2565b840191505092915050565b5f8115159050919050565b61080e816107fa565b82525050565b5f6040820190508181035f83015261082c81856107c2565b905061083b6020830184610805565b9392505050565b5f80fd5b5f80fd5b7f4e487b71000000000000000000000000000000000000000000000000000000005f52604160045260245ffd5b610880826107b2565b810181811067ffffffffffffffff8211171561089f5761089e61084a565b5b80604052505050565b5f6108b161071b565b90506108bd8282610877565b919050565b5f67ffffffffffffffff8211156108dc576108db61084a565b5b6108e5826107b2565b9050602081019050919050565b828183375f83830152505050565b5f61091261090d846108c2565b6108a8565b90508281526020810184848401111561092e5761092d610846565b5b6109398482856108f2565b509392505050565b5f82601f83011261095557610954610842565b5b8135610965848260208601610900565b91505092915050565b5f806040838503121561098457610983610724565b5b5f6109918582860161074b565b925050602083013567ffffffffffffffff8111156109b2576109b1610728565b5b6109be85828601610941565b9150509250929050565b5f81519050919050565b5f82825260208201905092915050565b5f819050602082019050919050565b5f73ffffffffffffffffffffffffffffffffffffffff82169050919050565b5f610a1a826109f1565b9050919050565b610a2a81610a10565b82525050565b5f610a3b8383610a21565b60208301905092915050565b5f602082019050919050565b5f610a5d826109c8565b610a6781856109d2565b9350610a72836109e2565b805f5b83811015610aa2578151610a898882610a30565b9750610a9483610a47565b925050600181019050610a75565b5085935050505092915050565b5f6040820190508181035f830152610ac781856107c2565b90508181036020830152610adb8184610a53565b90509392505050565b610aed8161072c565b82525050565b5f602082019050610b065f830184610ae4565b92915050565b5f60208284031215610b2157610b20610724565b5b5f82013567ffffffffffffffff811115610b3e57610b3d610728565b5b610b4a84828501610941565b91505092915050565b7f4e487b71000000000000000000000000000000000000000000000000000000005f52602260045260245ffd5b5f6002820490506001821680610b9757607f821691505b602082108103610baa57610ba9610b53565b5b50919050565b7f50617274696369706174696f6e2066656520697320302e3031204574686572005f82015250565b5f610be4601f83610794565b9150610bef82610bb0565b602082019050919050565b5f6020820190508181035f830152610c1181610bd8565b9050919050565b7f4576656e7420697320616c726561647920636f6d706c657465640000000000005f82015250565b5f610c4c601a83610794565b9150610c5782610c18565b602082019050919050565b5f6020820190508181035f830152610c7981610c40565b9050919050565b7f4e487b71000000000000000000000000000000000000000000000000000000005f52603260045260245ffd5b7f596f75206d757374206a6f696e20746865206576656e7420746f207375626d695f8201527f7420612067696674000000000000000000000000000000000000000000000000602082015250565b5f610d07602883610794565b9150610d1282610cad565b604082019050919050565b5f6020820190508181035f830152610d3481610cfb565b9050919050565b5f819050815f5260205f209050919050565b5f6020601f8301049050919050565b5f82821b905092915050565b5f60088302610d977fffffffffffffffffffffffffffffffffffffffffffffffffffffffffffffffff82610d5c565b610da18683610d5c565b95508019841693508086168417925050509392505050565b5f819050919050565b5f610ddc610dd7610dd28461072c565b610db9565b61072c565b9050919050565b5f819050919050565b610df583610dc2565b610e09610e0182610de3565b848454610d68565b825550505050565b5f90565b610e1d610e11565b610e28818484610dec565b505050565b5b81811015610e4b57610e405f82610e15565b600181019050610e2e565b5050565b601f821115610e9057610e6181610d3b565b610e6a84610d4d565b81016020851015610e79578190505b610e8d610e8585610d4d565b830182610e2d565b50505b505050565b5f82821c905092915050565b5f610eb05f1984600802610e95565b1980831691505092915050565b5f610ec88383610ea1565b9150826002028217905092915050565b610ee18261078a565b67ffffffffffffffff811115610efa57610ef961084a565b5b610f048254610b80565b610f0f828285610e4f565b5f60209050601f831160018114610f40575f8415610f2e578287015190505b610f388582610ebd565b865550610f9f565b601f198416610f4e86610d3b565b5f5b82811015610f7557848901518255600182019150602085019450602081019050610f50565b86831015610f925784890151610f8e601f891682610ea1565b8355505b6001600288020188555050505b505050505050565b7f4e487b71000000000000000000000000000000000000000000000000000000005f52601160045260245ffd5b5f610fde8261072c565b91507fffffffffffffffffffffffffffffffffffffffffffffffffffffffffffffffff82036110105761100f610fa7565b5b60018201905091905056fea26469706673582212203c9a023ae5c64accc1f09ff0f486ee043cc2f31bca006a473ded4ea615b8d5c764736f6c634300081a0033",
					"opcodes": "PUSH1 0x80 PUSH1 0x40 MSTORE CALLVALUE DUP1 ISZERO PUSH1 0xE JUMPI PUSH0 DUP1 REVERT JUMPDEST POP PUSH2 0x1051 DUP1 PUSH2 0x1C PUSH0 CODECOPY PUSH0 RETURN INVALID PUSH1 0x80 PUSH1 0x40 MSTORE PUSH1 0x4 CALLDATASIZE LT PUSH2 0x6F JUMPI PUSH0 CALLDATALOAD PUSH1 0xE0 SHR DUP1 PUSH4 0x6D1884E0 GT PUSH2 0x4D JUMPI DUP1 PUSH4 0x6D1884E0 EQ PUSH2 0xF4 JUMPI DUP1 PUSH4 0x71BE2E4A EQ PUSH2 0x131 JUMPI DUP1 PUSH4 0x9B7AEA75 EQ PUSH2 0x15B JUMPI DUP1 PUSH4 0x9BC2BC71 EQ PUSH2 0x183 JUMPI PUSH2 0x6F JUMP JUMPDEST DUP1 PUSH4 0xB791430 EQ PUSH2 0x73 JUMPI DUP1 PUSH4 0x38D361E2 EQ PUSH2 0xB0 JUMPI DUP1 PUSH4 0x6447CAE6 EQ PUSH2 0xCC JUMPI JUMPDEST PUSH0 DUP1 REVERT JUMPDEST CALLVALUE DUP1 ISZERO PUSH2 0x7E JUMPI PUSH0 DUP1 REVERT JUMPDEST POP PUSH2 0x99 PUSH1 0x4 DUP1 CALLDATASIZE SUB DUP2 ADD SWAP1 PUSH2 0x94 SWAP2 SWAP1 PUSH2 0x75F JUMP JUMPDEST PUSH2 0x1AB JUMP JUMPDEST PUSH1 0x40 MLOAD PUSH2 0xA7 SWAP3 SWAP2 SWAP1 PUSH2 0x814 JUMP JUMPDEST PUSH1 0x40 MLOAD DUP1 SWAP2 SUB SWAP1 RETURN JUMPDEST PUSH2 0xCA PUSH1 0x4 DUP1 CALLDATASIZE SUB DUP2 ADD SWAP1 PUSH2 0xC5 SWAP2 SWAP1 PUSH2 0x75F JUMP JUMPDEST PUSH2 0x25C JUMP JUMPDEST STOP JUMPDEST CALLVALUE DUP1 ISZERO PUSH2 0xD7 JUMPI PUSH0 DUP1 REVERT JUMPDEST POP PUSH2 0xF2 PUSH1 0x4 DUP1 CALLDATASIZE SUB DUP2 ADD SWAP1 PUSH2 0xED SWAP2 SWAP1 PUSH2 0x96E JUMP JUMPDEST PUSH2 0x36F JUMP JUMPDEST STOP JUMPDEST CALLVALUE DUP1 ISZERO PUSH2 0xFF JUMPI PUSH0 DUP1 REVERT JUMPDEST POP PUSH2 0x11A PUSH1 0x4 DUP1 CALLDATASIZE SUB DUP2 ADD SWAP1 PUSH2 0x115 SWAP2 SWAP1 PUSH2 0x75F JUMP JUMPDEST PUSH2 0x4FF JUMP JUMPDEST PUSH1 0x40 MLOAD PUSH2 0x128 SWAP3 SWAP2 SWAP1 PUSH2 0xAAF JUMP JUMPDEST PUSH1 0x40 MLOAD DUP1 SWAP2 SUB SWAP1 RETURN JUMPDEST CALLVALUE DUP1 ISZERO PUSH2 0x13C JUMPI PUSH0 DUP1 REVERT JUMPDEST POP PUSH2 0x145 PUSH2 0x635 JUMP JUMPDEST PUSH1 0x40 MLOAD PUSH2 0x152 SWAP2 SWAP1 PUSH2 0xAF3 JUMP JUMPDEST PUSH1 0x40 MLOAD DUP1 SWAP2 SUB SWAP1 RETURN JUMPDEST CALLVALUE DUP1 ISZERO PUSH2 0x166 JUMPI PUSH0 DUP1 REVERT JUMPDEST POP PUSH2 0x181 PUSH1 0x4 DUP1 CALLDATASIZE SUB DUP2 ADD SWAP1 PUSH2 0x17C SWAP2 SWAP1 PUSH2 0x75F JUMP JUMPDEST PUSH2 0x63B JUMP JUMPDEST STOP JUMPDEST CALLVALUE DUP1 ISZERO PUSH2 0x18E JUMPI PUSH0 DUP1 REVERT JUMPDEST POP PUSH2 0x1A9 PUSH1 0x4 DUP1 CALLDATASIZE SUB DUP2 ADD SWAP1 PUSH2 0x1A4 SWAP2 SWAP1 PUSH2 0xB0C JUMP JUMPDEST PUSH2 0x6BF JUMP JUMPDEST STOP JUMPDEST PUSH0 PUSH1 0x20 MSTORE DUP1 PUSH0 MSTORE PUSH1 0x40 PUSH0 KECCAK256 PUSH0 SWAP2 POP SWAP1 POP DUP1 PUSH0 ADD DUP1 SLOAD PUSH2 0x1C9 SWAP1 PUSH2 0xB80 JUMP JUMPDEST DUP1 PUSH1 0x1F ADD PUSH1 0x20 DUP1 SWAP2 DIV MUL PUSH1 0x20 ADD PUSH1 0x40 MLOAD SWAP1 DUP2 ADD PUSH1 0x40 MSTORE DUP1 SWAP3 SWAP2 SWAP1 DUP2 DUP2 MSTORE PUSH1 0x20 ADD DUP3 DUP1 SLOAD PUSH2 0x1F5 SWAP1 PUSH2 0xB80 JUMP JUMPDEST DUP1 ISZERO PUSH2 0x240 JUMPI DUP1 PUSH1 0x1F LT PUSH2 0x217 JUMPI PUSH2 0x100 DUP1 DUP4 SLOAD DIV MUL DUP4 MSTORE SWAP2 PUSH1 0x20 ADD SWAP2 PUSH2 0x240 JUMP JUMPDEST DUP3 ADD SWAP2 SWAP1 PUSH0 MSTORE PUSH1 0x20 PUSH0 KECCAK256 SWAP1 JUMPDEST DUP2 SLOAD DUP2 MSTORE SWAP1 PUSH1 0x1 ADD SWAP1 PUSH1 0x20 ADD DUP1 DUP4 GT PUSH2 0x223 JUMPI DUP3 SWAP1 SUB PUSH1 0x1F AND DUP3 ADD SWAP2 JUMPDEST POP POP POP POP POP SWAP1 DUP1 PUSH1 0x3 ADD PUSH0 SWAP1 SLOAD SWAP1 PUSH2 0x100 EXP SWAP1 DIV PUSH1 0xFF AND SWAP1 POP DUP3 JUMP JUMPDEST PUSH7 0x2386F26FC10000 CALLVALUE EQ PUSH2 0x2A5 JUMPI PUSH1 0x40 MLOAD PUSH32 0x8C379A000000000000000000000000000000000000000000000000000000000 DUP2 MSTORE PUSH1 0x4 ADD PUSH2 0x29C SWAP1 PUSH2 0xBFA JUMP JUMPDEST PUSH1 0x40 MLOAD DUP1 SWAP2 SUB SWAP1 REVERT JUMPDEST PUSH0 DUP1 PUSH0 DUP4 DUP2 MSTORE PUSH1 0x20 ADD SWAP1 DUP2 MSTORE PUSH1 0x20 ADD PUSH0 KECCAK256 SWAP1 POP DUP1 PUSH1 0x3 ADD PUSH0 SWAP1 SLOAD SWAP1 PUSH2 0x100 EXP SWAP1 DIV PUSH1 0xFF AND ISZERO PUSH2 0x309 JUMPI PUSH1 0x40 MLOAD PUSH32 0x8C379A000000000000000000000000000000000000000000000000000000000 DUP2 MSTORE PUSH1 0x4 ADD PUSH2 0x300 SWAP1 PUSH2 0xC62 JUMP JUMPDEST PUSH1 0x40 MLOAD DUP1 SWAP2 SUB SWAP1 REVERT JUMPDEST DUP1 PUSH1 0x1 ADD CALLER SWAP1 DUP1 PUSH1 0x1 DUP2 SLOAD ADD DUP1 DUP3 SSTORE DUP1 SWAP2 POP POP PUSH1 0x1 SWAP1 SUB SWAP1 PUSH0 MSTORE PUSH1 0x20 PUSH0 KECCAK256 ADD PUSH0 SWAP1 SWAP2 SWAP1 SWAP2 SWAP1 SWAP2 PUSH2 0x100 EXP DUP2 SLOAD DUP2 PUSH20 0xFFFFFFFFFFFFFFFFFFFFFFFFFFFFFFFFFFFFFFFF MUL NOT AND SWAP1 DUP4 PUSH20 0xFFFFFFFFFFFFFFFFFFFFFFFFFFFFFFFFFFFFFFFF AND MUL OR SWAP1 SSTORE POP POP POP JUMP JUMPDEST PUSH0 DUP1 PUSH0 DUP5 DUP2 MSTORE PUSH1 0x20 ADD SWAP1 DUP2 MSTORE PUSH1 0x20 ADD PUSH0 KECCAK256 SWAP1 POP DUP1 PUSH1 0x3 ADD PUSH0 SWAP1 SLOAD SWAP1 PUSH2 0x100 EXP SWAP1 DIV PUSH1 0xFF AND ISZERO PUSH2 0x3D3 JUMPI PUSH1 0x40 MLOAD PUSH32 0x8C379A000000000000000000000000000000000000000000000000000000000 DUP2 MSTORE PUSH1 0x4 ADD PUSH2 0x3CA SWAP1 PUSH2 0xC62 JUMP JUMPDEST PUSH1 0x40 MLOAD DUP1 SWAP2 SUB SWAP1 REVERT JUMPDEST PUSH0 DUP1 JUMPDEST DUP3 PUSH1 0x1 ADD DUP1 SLOAD SWAP1 POP DUP2 LT ISZERO PUSH2 0x46B JUMPI CALLER PUSH20 0xFFFFFFFFFFFFFFFFFFFFFFFFFFFFFFFFFFFFFFFF AND DUP4 PUSH1 0x1 ADD DUP3 DUP2 SLOAD DUP2 LT PUSH2 0x412 JUMPI PUSH2 0x411 PUSH2 0xC80 JUMP JUMPDEST JUMPDEST SWAP1 PUSH0 MSTORE PUSH1 0x20 PUSH0 KECCAK256 ADD PUSH0 SWAP1 SLOAD SWAP1 PUSH2 0x100 EXP SWAP1 DIV PUSH20 0xFFFFFFFFFFFFFFFFFFFFFFFFFFFFFFFFFFFFFFFF AND PUSH20 0xFFFFFFFFFFFFFFFFFFFFFFFFFFFFFFFFFFFFFFFF AND SUB PUSH2 0x45E JUMPI PUSH1 0x1 SWAP2 POP PUSH2 0x46B JUMP JUMPDEST DUP1 DUP1 PUSH1 0x1 ADD SWAP2 POP POP PUSH2 0x3D6 JUMP JUMPDEST POP DUP1 PUSH2 0x4AC JUMPI PUSH1 0x40 MLOAD PUSH32 0x8C379A000000000000000000000000000000000000000000000000000000000 DUP2 MSTORE PUSH1 0x4 ADD PUSH2 0x4A3 SWAP1 PUSH2 0xD1D JUMP JUMPDEST PUSH1 0x40 MLOAD DUP1 SWAP2 SUB SWAP1 REVERT JUMPDEST DUP3 DUP3 PUSH1 0x2 ADD PUSH0 CALLER PUSH20 0xFFFFFFFFFFFFFFFFFFFFFFFFFFFFFFFFFFFFFFFF AND PUSH20 0xFFFFFFFFFFFFFFFFFFFFFFFFFFFFFFFFFFFFFFFF AND DUP2 MSTORE PUSH1 0x20 ADD SWAP1 DUP2 MSTORE PUSH1 0x20 ADD PUSH0 KECCAK256 SWAP1 DUP2 PUSH2 0x4F8 SWAP2 SWAP1 PUSH2 0xED8 JUMP JUMPDEST POP POP POP POP POP JUMP JUMPDEST PUSH1 0x60 DUP1 PUSH0 DUP1 PUSH0 DUP6 DUP2 MSTORE PUSH1 0x20 ADD SWAP1 DUP2 MSTORE PUSH1 0x20 ADD PUSH0 KECCAK256 SWAP1 POP DUP1 PUSH0 ADD DUP2 PUSH1 0x1 ADD DUP2 DUP1 SLOAD PUSH2 0x528 SWAP1 PUSH2 0xB80 JUMP JUMPDEST DUP1 PUSH1 0x1F ADD PUSH1 0x20 DUP1 SWAP2 DIV MUL PUSH1 0x20 ADD PUSH1 0x40 MLOAD SWAP1 DUP2 ADD PUSH1 0x40 MSTORE DUP1 SWAP3 SWAP2 SWAP1 DUP2 DUP2 MSTORE PUSH1 0x20 ADD DUP3 DUP1 SLOAD PUSH2 0x554 SWAP1 PUSH2 0xB80 JUMP JUMPDEST DUP1 ISZERO PUSH2 0x59F JUMPI DUP1 PUSH1 0x1F LT PUSH2 0x576 JUMPI PUSH2 0x100 DUP1 DUP4 SLOAD DIV MUL DUP4 MSTORE SWAP2 PUSH1 0x20 ADD SWAP2 PUSH2 0x59F JUMP JUMPDEST DUP3 ADD SWAP2 SWAP1 PUSH0 MSTORE PUSH1 0x20 PUSH0 KECCAK256 SWAP1 JUMPDEST DUP2 SLOAD DUP2 MSTORE SWAP1 PUSH1 0x1 ADD SWAP1 PUSH1 0x20 ADD DUP1 DUP4 GT PUSH2 0x582 JUMPI DUP3 SWAP1 SUB PUSH1 0x1F AND DUP3 ADD SWAP2 JUMPDEST POP POP POP POP POP SWAP2 POP DUP1 DUP1 SLOAD DUP1 PUSH1 0x20 MUL PUSH1 0x20 ADD PUSH1 0x40 MLOAD SWAP1 DUP2 ADD PUSH1 0x40 MSTORE DUP1 SWAP3 SWAP2 SWAP1 DUP2 DUP2 MSTORE PUSH1 0x20 ADD DUP3 DUP1 SLOAD DUP1 ISZERO PUSH2 0x624 JUMPI PUSH1 0x20 MUL DUP3 ADD SWAP2 SWAP1 PUSH0 MSTORE PUSH1 0x20 PUSH0 KECCAK256 SWAP1 JUMPDEST DUP2 PUSH0 SWAP1 SLOAD SWAP1 PUSH2 0x100 EXP SWAP1 DIV PUSH20 0xFFFFFFFFFFFFFFFFFFFFFFFFFFFFFFFFFFFFFFFF AND PUSH20 0xFFFFFFFFFFFFFFFFFFFFFFFFFFFFFFFFFFFFFFFF AND DUP2 MSTORE PUSH1 0x20 ADD SWAP1 PUSH1 0x1 ADD SWAP1 DUP1 DUP4 GT PUSH2 0x5DB JUMPI JUMPDEST POP POP POP POP POP SWAP1 POP SWAP3 POP SWAP3 POP POP SWAP2 POP SWAP2 JUMP JUMPDEST PUSH1 0x1 SLOAD DUP2 JUMP JUMPDEST PUSH0 DUP1 PUSH0 DUP4 DUP2 MSTORE PUSH1 0x20 ADD SWAP1 DUP2 MSTORE PUSH1 0x20 ADD PUSH0 KECCAK256 SWAP1 POP DUP1 PUSH1 0x3 ADD PUSH0 SWAP1 SLOAD SWAP1 PUSH2 0x100 EXP SWAP1 DIV PUSH1 0xFF AND ISZERO PUSH2 0x69F JUMPI PUSH1 0x40 MLOAD PUSH32 0x8C379A000000000000000000000000000000000000000000000000000000000 DUP2 MSTORE PUSH1 0x4 ADD PUSH2 0x696 SWAP1 PUSH2 0xC62 JUMP JUMPDEST PUSH1 0x40 MLOAD DUP1 SWAP2 SUB SWAP1 REVERT JUMPDEST PUSH1 0x1 DUP2 PUSH1 0x3 ADD PUSH0 PUSH2 0x100 EXP DUP2 SLOAD DUP2 PUSH1 0xFF MUL NOT AND SWAP1 DUP4 ISZERO ISZERO MUL OR SWAP1 SSTORE POP POP POP JUMP JUMPDEST PUSH1 0x1 PUSH0 DUP2 SLOAD DUP1 SWAP3 SWAP2 SWAP1 PUSH2 0x6D1 SWAP1 PUSH2 0xFD4 JUMP JUMPDEST SWAP2 SWAP1 POP SSTORE POP PUSH0 DUP1 PUSH0 PUSH1 0x1 SLOAD DUP2 MSTORE PUSH1 0x20 ADD SWAP1 DUP2 MSTORE PUSH1 0x20 ADD PUSH0 KECCAK256 SWAP1 POP DUP2 DUP2 PUSH0 ADD SWAP1 DUP2 PUSH2 0x6FB SWAP2 SWAP1 PUSH2 0xED8 JUMP JUMPDEST POP PUSH0 DUP2 PUSH1 0x3 ADD PUSH0 PUSH2 0x100 EXP DUP2 SLOAD DUP2 PUSH1 0xFF MUL NOT AND SWAP1 DUP4 ISZERO ISZERO MUL OR SWAP1 SSTORE POP POP POP JUMP JUMPDEST PUSH0 PUSH1 0x40 MLOAD SWAP1 POP SWAP1 JUMP JUMPDEST PUSH0 DUP1 REVERT JUMPDEST PUSH0 DUP1 REVERT JUMPDEST PUSH0 DUP2 SWAP1 POP SWAP2 SWAP1 POP JUMP JUMPDEST PUSH2 0x73E DUP2 PUSH2 0x72C JUMP JUMPDEST DUP2 EQ PUSH2 0x748 JUMPI PUSH0 DUP1 REVERT JUMPDEST POP JUMP JUMPDEST PUSH0 DUP2 CALLDATALOAD SWAP1 POP PUSH2 0x759 DUP2 PUSH2 0x735 JUMP JUMPDEST SWAP3 SWAP2 POP POP JUMP JUMPDEST PUSH0 PUSH1 0x20 DUP3 DUP5 SUB SLT ISZERO PUSH2 0x774 JUMPI PUSH2 0x773 PUSH2 0x724 JUMP JUMPDEST JUMPDEST PUSH0 PUSH2 0x781 DUP5 DUP3 DUP6 ADD PUSH2 0x74B JUMP JUMPDEST SWAP2 POP POP SWAP3 SWAP2 POP POP JUMP JUMPDEST PUSH0 DUP2 MLOAD SWAP1 POP SWAP2 SWAP1 POP JUMP JUMPDEST PUSH0 DUP3 DUP3 MSTORE PUSH1 0x20 DUP3 ADD SWAP1 POP SWAP3 SWAP2 POP POP JUMP JUMPDEST DUP3 DUP2 DUP4 MCOPY PUSH0 DUP4 DUP4 ADD MSTORE POP POP POP JUMP JUMPDEST PUSH0 PUSH1 0x1F NOT PUSH1 0x1F DUP4 ADD AND SWAP1 POP SWAP2 SWAP1 POP JUMP JUMPDEST PUSH0 PUSH2 0x7CC DUP3 PUSH2 0x78A JUMP JUMPDEST PUSH2 0x7D6 DUP2 DUP6 PUSH2 0x794 JUMP JUMPDEST SWAP4 POP PUSH2 0x7E6 DUP2 DUP6 PUSH1 0x20 DUP7 ADD PUSH2 0x7A4 JUMP JUMPDEST PUSH2 0x7EF DUP2 PUSH2 0x7B2 JUMP JUMPDEST DUP5 ADD SWAP2 POP POP SWAP3 SWAP2 POP POP JUMP JUMPDEST PUSH0 DUP2 ISZERO ISZERO SWAP1 POP SWAP2 SWAP1 POP JUMP JUMPDEST PUSH2 0x80E DUP2 PUSH2 0x7FA JUMP JUMPDEST DUP3 MSTORE POP POP JUMP JUMPDEST PUSH0 PUSH1 0x40 DUP3 ADD SWAP1 POP DUP2 DUP2 SUB PUSH0 DUP4 ADD MSTORE PUSH2 0x82C DUP2 DUP6 PUSH2 0x7C2 JUMP JUMPDEST SWAP1 POP PUSH2 0x83B PUSH1 0x20 DUP4 ADD DUP5 PUSH2 0x805 JUMP JUMPDEST SWAP4 SWAP3 POP POP POP JUMP JUMPDEST PUSH0 DUP1 REVERT JUMPDEST PUSH0 DUP1 REVERT JUMPDEST PUSH32 0x4E487B7100000000000000000000000000000000000000000000000000000000 PUSH0 MSTORE PUSH1 0x41 PUSH1 0x4 MSTORE PUSH1 0x24 PUSH0 REVERT JUMPDEST PUSH2 0x880 DUP3 PUSH2 0x7B2 JUMP JUMPDEST DUP2 ADD DUP2 DUP2 LT PUSH8 0xFFFFFFFFFFFFFFFF DUP3 GT OR ISZERO PUSH2 0x89F JUMPI PUSH2 0x89E PUSH2 0x84A JUMP JUMPDEST JUMPDEST DUP1 PUSH1 0x40 MSTORE POP POP POP JUMP JUMPDEST PUSH0 PUSH2 0x8B1 PUSH2 0x71B JUMP JUMPDEST SWAP1 POP PUSH2 0x8BD DUP3 DUP3 PUSH2 0x877 JUMP JUMPDEST SWAP2 SWAP1 POP JUMP JUMPDEST PUSH0 PUSH8 0xFFFFFFFFFFFFFFFF DUP3 GT ISZERO PUSH2 0x8DC JUMPI PUSH2 0x8DB PUSH2 0x84A JUMP JUMPDEST JUMPDEST PUSH2 0x8E5 DUP3 PUSH2 0x7B2 JUMP JUMPDEST SWAP1 POP PUSH1 0x20 DUP2 ADD SWAP1 POP SWAP2 SWAP1 POP JUMP JUMPDEST DUP3 DUP2 DUP4 CALLDATACOPY PUSH0 DUP4 DUP4 ADD MSTORE POP POP POP JUMP JUMPDEST PUSH0 PUSH2 0x912 PUSH2 0x90D DUP5 PUSH2 0x8C2 JUMP JUMPDEST PUSH2 0x8A8 JUMP JUMPDEST SWAP1 POP DUP3 DUP2 MSTORE PUSH1 0x20 DUP2 ADD DUP5 DUP5 DUP5 ADD GT ISZERO PUSH2 0x92E JUMPI PUSH2 0x92D PUSH2 0x846 JUMP JUMPDEST JUMPDEST PUSH2 0x939 DUP5 DUP3 DUP6 PUSH2 0x8F2 JUMP JUMPDEST POP SWAP4 SWAP3 POP POP POP JUMP JUMPDEST PUSH0 DUP3 PUSH1 0x1F DUP4 ADD SLT PUSH2 0x955 JUMPI PUSH2 0x954 PUSH2 0x842 JUMP JUMPDEST JUMPDEST DUP2 CALLDATALOAD PUSH2 0x965 DUP5 DUP3 PUSH1 0x20 DUP7 ADD PUSH2 0x900 JUMP JUMPDEST SWAP2 POP POP SWAP3 SWAP2 POP POP JUMP JUMPDEST PUSH0 DUP1 PUSH1 0x40 DUP4 DUP6 SUB SLT ISZERO PUSH2 0x984 JUMPI PUSH2 0x983 PUSH2 0x724 JUMP JUMPDEST JUMPDEST PUSH0 PUSH2 0x991 DUP6 DUP3 DUP7 ADD PUSH2 0x74B JUMP JUMPDEST SWAP3 POP POP PUSH1 0x20 DUP4 ADD CALLDATALOAD PUSH8 0xFFFFFFFFFFFFFFFF DUP2 GT ISZERO PUSH2 0x9B2 JUMPI PUSH2 0x9B1 PUSH2 0x728 JUMP JUMPDEST JUMPDEST PUSH2 0x9BE DUP6 DUP3 DUP7 ADD PUSH2 0x941 JUMP JUMPDEST SWAP2 POP POP SWAP3 POP SWAP3 SWAP1 POP JUMP JUMPDEST PUSH0 DUP2 MLOAD SWAP1 POP SWAP2 SWAP1 POP JUMP JUMPDEST PUSH0 DUP3 DUP3 MSTORE PUSH1 0x20 DUP3 ADD SWAP1 POP SWAP3 SWAP2 POP POP JUMP JUMPDEST PUSH0 DUP2 SWAP1 POP PUSH1 0x20 DUP3 ADD SWAP1 POP SWAP2 SWAP1 POP JUMP JUMPDEST PUSH0 PUSH20 0xFFFFFFFFFFFFFFFFFFFFFFFFFFFFFFFFFFFFFFFF DUP3 AND SWAP1 POP SWAP2 SWAP1 POP JUMP JUMPDEST PUSH0 PUSH2 0xA1A DUP3 PUSH2 0x9F1 JUMP JUMPDEST SWAP1 POP SWAP2 SWAP1 POP JUMP JUMPDEST PUSH2 0xA2A DUP2 PUSH2 0xA10 JUMP JUMPDEST DUP3 MSTORE POP POP JUMP JUMPDEST PUSH0 PUSH2 0xA3B DUP4 DUP4 PUSH2 0xA21 JUMP JUMPDEST PUSH1 0x20 DUP4 ADD SWAP1 POP SWAP3 SWAP2 POP POP JUMP JUMPDEST PUSH0 PUSH1 0x20 DUP3 ADD SWAP1 POP SWAP2 SWAP1 POP JUMP JUMPDEST PUSH0 PUSH2 0xA5D DUP3 PUSH2 0x9C8 JUMP JUMPDEST PUSH2 0xA67 DUP2 DUP6 PUSH2 0x9D2 JUMP JUMPDEST SWAP4 POP PUSH2 0xA72 DUP4 PUSH2 0x9E2 JUMP JUMPDEST DUP1 PUSH0 JUMPDEST DUP4 DUP2 LT ISZERO PUSH2 0xAA2 JUMPI DUP2 MLOAD PUSH2 0xA89 DUP9 DUP3 PUSH2 0xA30 JUMP JUMPDEST SWAP8 POP PUSH2 0xA94 DUP4 PUSH2 0xA47 JUMP JUMPDEST SWAP3 POP POP PUSH1 0x1 DUP2 ADD SWAP1 POP PUSH2 0xA75 JUMP JUMPDEST POP DUP6 SWAP4 POP POP POP POP SWAP3 SWAP2 POP POP JUMP JUMPDEST PUSH0 PUSH1 0x40 DUP3 ADD SWAP1 POP DUP2 DUP2 SUB PUSH0 DUP4 ADD MSTORE PUSH2 0xAC7 DUP2 DUP6 PUSH2 0x7C2 JUMP JUMPDEST SWAP1 POP DUP2 DUP2 SUB PUSH1 0x20 DUP4 ADD MSTORE PUSH2 0xADB DUP2 DUP5 PUSH2 0xA53 JUMP JUMPDEST SWAP1 POP SWAP4 SWAP3 POP POP POP JUMP JUMPDEST PUSH2 0xAED DUP2 PUSH2 0x72C JUMP JUMPDEST DUP3 MSTORE POP POP JUMP JUMPDEST PUSH0 PUSH1 0x20 DUP3 ADD SWAP1 POP PUSH2 0xB06 PUSH0 DUP4 ADD DUP5 PUSH2 0xAE4 JUMP JUMPDEST SWAP3 SWAP2 POP POP JUMP JUMPDEST PUSH0 PUSH1 0x20 DUP3 DUP5 SUB SLT ISZERO PUSH2 0xB21 JUMPI PUSH2 0xB20 PUSH2 0x724 JUMP JUMPDEST JUMPDEST PUSH0 DUP3 ADD CALLDATALOAD PUSH8 0xFFFFFFFFFFFFFFFF DUP2 GT ISZERO PUSH2 0xB3E JUMPI PUSH2 0xB3D PUSH2 0x728 JUMP JUMPDEST JUMPDEST PUSH2 0xB4A DUP5 DUP3 DUP6 ADD PUSH2 0x941 JUMP JUMPDEST SWAP2 POP POP SWAP3 SWAP2 POP POP JUMP JUMPDEST PUSH32 0x4E487B7100000000000000000000000000000000000000000000000000000000 PUSH0 MSTORE PUSH1 0x22 PUSH1 0x4 MSTORE PUSH1 0x24 PUSH0 REVERT JUMPDEST PUSH0 PUSH1 0x2 DUP3 DIV SWAP1 POP PUSH1 0x1 DUP3 AND DUP1 PUSH2 0xB97 JUMPI PUSH1 0x7F DUP3 AND SWAP2 POP JUMPDEST PUSH1 0x20 DUP3 LT DUP2 SUB PUSH2 0xBAA JUMPI PUSH2 0xBA9 PUSH2 0xB53 JUMP JUMPDEST JUMPDEST POP SWAP2 SWAP1 POP JUMP JUMPDEST PUSH32 0x50617274696369706174696F6E2066656520697320302E303120457468657200 PUSH0 DUP3 ADD MSTORE POP JUMP JUMPDEST PUSH0 PUSH2 0xBE4 PUSH1 0x1F DUP4 PUSH2 0x794 JUMP JUMPDEST SWAP2 POP PUSH2 0xBEF DUP3 PUSH2 0xBB0 JUMP JUMPDEST PUSH1 0x20 DUP3 ADD SWAP1 POP SWAP2 SWAP1 POP JUMP JUMPDEST PUSH0 PUSH1 0x20 DUP3 ADD SWAP1 POP DUP2 DUP2 SUB PUSH0 DUP4 ADD MSTORE PUSH2 0xC11 DUP2 PUSH2 0xBD8 JUMP JUMPDEST SWAP1 POP SWAP2 SWAP1 POP JUMP JUMPDEST PUSH32 0x4576656E7420697320616C726561647920636F6D706C65746564000000000000 PUSH0 DUP3 ADD MSTORE POP JUMP JUMPDEST PUSH0 PUSH2 0xC4C PUSH1 0x1A DUP4 PUSH2 0x794 JUMP JUMPDEST SWAP2 POP PUSH2 0xC57 DUP3 PUSH2 0xC18 JUMP JUMPDEST PUSH1 0x20 DUP3 ADD SWAP1 POP SWAP2 SWAP1 POP JUMP JUMPDEST PUSH0 PUSH1 0x20 DUP3 ADD SWAP1 POP DUP2 DUP2 SUB PUSH0 DUP4 ADD MSTORE PUSH2 0xC79 DUP2 PUSH2 0xC40 JUMP JUMPDEST SWAP1 POP SWAP2 SWAP1 POP JUMP JUMPDEST PUSH32 0x4E487B7100000000000000000000000000000000000000000000000000000000 PUSH0 MSTORE PUSH1 0x32 PUSH1 0x4 MSTORE PUSH1 0x24 PUSH0 REVERT JUMPDEST PUSH32 0x596F75206D757374206A6F696E20746865206576656E7420746F207375626D69 PUSH0 DUP3 ADD MSTORE PUSH32 0x7420612067696674000000000000000000000000000000000000000000000000 PUSH1 0x20 DUP3 ADD MSTORE POP JUMP JUMPDEST PUSH0 PUSH2 0xD07 PUSH1 0x28 DUP4 PUSH2 0x794 JUMP JUMPDEST SWAP2 POP PUSH2 0xD12 DUP3 PUSH2 0xCAD JUMP JUMPDEST PUSH1 0x40 DUP3 ADD SWAP1 POP SWAP2 SWAP1 POP JUMP JUMPDEST PUSH0 PUSH1 0x20 DUP3 ADD SWAP1 POP DUP2 DUP2 SUB PUSH0 DUP4 ADD MSTORE PUSH2 0xD34 DUP2 PUSH2 0xCFB JUMP JUMPDEST SWAP1 POP SWAP2 SWAP1 POP JUMP JUMPDEST PUSH0 DUP2 SWAP1 POP DUP2 PUSH0 MSTORE PUSH1 0x20 PUSH0 KECCAK256 SWAP1 POP SWAP2 SWAP1 POP JUMP JUMPDEST PUSH0 PUSH1 0x20 PUSH1 0x1F DUP4 ADD DIV SWAP1 POP SWAP2 SWAP1 POP JUMP JUMPDEST PUSH0 DUP3 DUP3 SHL SWAP1 POP SWAP3 SWAP2 POP POP JUMP JUMPDEST PUSH0 PUSH1 0x8 DUP4 MUL PUSH2 0xD97 PUSH32 0xFFFFFFFFFFFFFFFFFFFFFFFFFFFFFFFFFFFFFFFFFFFFFFFFFFFFFFFFFFFFFFFF DUP3 PUSH2 0xD5C JUMP JUMPDEST PUSH2 0xDA1 DUP7 DUP4 PUSH2 0xD5C JUMP JUMPDEST SWAP6 POP DUP1 NOT DUP5 AND SWAP4 POP DUP1 DUP7 AND DUP5 OR SWAP3 POP POP POP SWAP4 SWAP3 POP POP POP JUMP JUMPDEST PUSH0 DUP2 SWAP1 POP SWAP2 SWAP1 POP JUMP JUMPDEST PUSH0 PUSH2 0xDDC PUSH2 0xDD7 PUSH2 0xDD2 DUP5 PUSH2 0x72C JUMP JUMPDEST PUSH2 0xDB9 JUMP JUMPDEST PUSH2 0x72C JUMP JUMPDEST SWAP1 POP SWAP2 SWAP1 POP JUMP JUMPDEST PUSH0 DUP2 SWAP1 POP SWAP2 SWAP1 POP JUMP JUMPDEST PUSH2 0xDF5 DUP4 PUSH2 0xDC2 JUMP JUMPDEST PUSH2 0xE09 PUSH2 0xE01 DUP3 PUSH2 0xDE3 JUMP JUMPDEST DUP5 DUP5 SLOAD PUSH2 0xD68 JUMP JUMPDEST DUP3 SSTORE POP POP POP POP JUMP JUMPDEST PUSH0 SWAP1 JUMP JUMPDEST PUSH2 0xE1D PUSH2 0xE11 JUMP JUMPDEST PUSH2 0xE28 DUP2 DUP5 DUP5 PUSH2 0xDEC JUMP JUMPDEST POP POP POP JUMP JUMPDEST JUMPDEST DUP2 DUP2 LT ISZERO PUSH2 0xE4B JUMPI PUSH2 0xE40 PUSH0 DUP3 PUSH2 0xE15 JUMP JUMPDEST PUSH1 0x1 DUP2 ADD SWAP1 POP PUSH2 0xE2E JUMP JUMPDEST POP POP JUMP JUMPDEST PUSH1 0x1F DUP3 GT ISZERO PUSH2 0xE90 JUMPI PUSH2 0xE61 DUP2 PUSH2 0xD3B JUMP JUMPDEST PUSH2 0xE6A DUP5 PUSH2 0xD4D JUMP JUMPDEST DUP2 ADD PUSH1 0x20 DUP6 LT ISZERO PUSH2 0xE79 JUMPI DUP2 SWAP1 POP JUMPDEST PUSH2 0xE8D PUSH2 0xE85 DUP6 PUSH2 0xD4D JUMP JUMPDEST DUP4 ADD DUP3 PUSH2 0xE2D JUMP JUMPDEST POP POP JUMPDEST POP POP POP JUMP JUMPDEST PUSH0 DUP3 DUP3 SHR SWAP1 POP SWAP3 SWAP2 POP POP JUMP JUMPDEST PUSH0 PUSH2 0xEB0 PUSH0 NOT DUP5 PUSH1 0x8 MUL PUSH2 0xE95 JUMP JUMPDEST NOT DUP1 DUP4 AND SWAP2 POP POP SWAP3 SWAP2 POP POP JUMP JUMPDEST PUSH0 PUSH2 0xEC8 DUP4 DUP4 PUSH2 0xEA1 JUMP JUMPDEST SWAP2 POP DUP3 PUSH1 0x2 MUL DUP3 OR SWAP1 POP SWAP3 SWAP2 POP POP JUMP JUMPDEST PUSH2 0xEE1 DUP3 PUSH2 0x78A JUMP JUMPDEST PUSH8 0xFFFFFFFFFFFFFFFF DUP2 GT ISZERO PUSH2 0xEFA JUMPI PUSH2 0xEF9 PUSH2 0x84A JUMP JUMPDEST JUMPDEST PUSH2 0xF04 DUP3 SLOAD PUSH2 0xB80 JUMP JUMPDEST PUSH2 0xF0F DUP3 DUP3 DUP6 PUSH2 0xE4F JUMP JUMPDEST PUSH0 PUSH1 0x20 SWAP1 POP PUSH1 0x1F DUP4 GT PUSH1 0x1 DUP2 EQ PUSH2 0xF40 JUMPI PUSH0 DUP5 ISZERO PUSH2 0xF2E JUMPI DUP3 DUP8 ADD MLOAD SWAP1 POP JUMPDEST PUSH2 0xF38 DUP6 DUP3 PUSH2 0xEBD JUMP JUMPDEST DUP7 SSTORE POP PUSH2 0xF9F JUMP JUMPDEST PUSH1 0x1F NOT DUP5 AND PUSH2 0xF4E DUP7 PUSH2 0xD3B JUMP JUMPDEST PUSH0 JUMPDEST DUP3 DUP2 LT ISZERO PUSH2 0xF75 JUMPI DUP5 DUP10 ADD MLOAD DUP3 SSTORE PUSH1 0x1 DUP3 ADD SWAP2 POP PUSH1 0x20 DUP6 ADD SWAP5 POP PUSH1 0x20 DUP2 ADD SWAP1 POP PUSH2 0xF50 JUMP JUMPDEST DUP7 DUP4 LT ISZERO PUSH2 0xF92 JUMPI DUP5 DUP10 ADD MLOAD PUSH2 0xF8E PUSH1 0x1F DUP10 AND DUP3 PUSH2 0xEA1 JUMP JUMPDEST DUP4 SSTORE POP JUMPDEST PUSH1 0x1 PUSH1 0x2 DUP9 MUL ADD DUP9 SSTORE POP POP POP JUMPDEST POP POP POP POP POP POP JUMP JUMPDEST PUSH32 0x4E487B7100000000000000000000000000000000000000000000000000000000 PUSH0 MSTORE PUSH1 0x11 PUSH1 0x4 MSTORE PUSH1 0x24 PUSH0 REVERT JUMPDEST PUSH0 PUSH2 0xFDE DUP3 PUSH2 0x72C JUMP JUMPDEST SWAP2 POP PUSH32 0xFFFFFFFFFFFFFFFFFFFFFFFFFFFFFFFFFFFFFFFFFFFFFFFFFFFFFFFFFFFFFFFF DUP3 SUB PUSH2 0x1010 JUMPI PUSH2 0x100F PUSH2 0xFA7 JUMP JUMPDEST JUMPDEST PUSH1 0x1 DUP3 ADD SWAP1 POP SWAP2 SWAP1 POP JUMP INVALID LOG2 PUSH5 0x6970667358 0x22 SLT KECCAK256 EXTCODECOPY SWAP11 MUL GASPRICE 0xE5 0xC6 BLOBBASEFEE 0xCC 0xC1 CREATE SWAP16 CREATE DELEGATECALL DUP7 0xEE DIV EXTCODECOPY 0xC2 RETURN SHL 0xCA STOP PUSH11 0x473DED4EA615B8D5C76473 PUSH16 0x6C634300081A00330000000000000000 "
				},
				"gasEstimates": {
					"creation": {
						"codeDepositCost": "835400",
						"executionCost": "868",
						"totalCost": "836268"
					},
					"external": {
						"completeEvent(uint256)": "26966",
						"createEvent(string)": "infinite",
						"eventCount()": "2447",
						"events(uint256)": "infinite",
						"getEvent(uint256)": "infinite",
						"joinEvent(uint256)": "51252",
						"submitGift(uint256,string)": "infinite"
					}
				},
				"methodIdentifiers": {
					"completeEvent(uint256)": "9b7aea75",
					"createEvent(string)": "9bc2bc71",
					"eventCount()": "71be2e4a",
					"events(uint256)": "0b791430",
					"getEvent(uint256)": "6d1884e0",
					"joinEvent(uint256)": "38d361e2",
					"submitGift(uint256,string)": "6447cae6"
				}
			},
			"storageLayout": {
				"storage": [
					{
						"astId": 18,
						"contract": "digital gifts.sol:HolidaySwap",
						"label": "events",
						"offset": 0,
						"slot": "0",
						"type": "t_mapping(t_uint256,t_struct(Event)13_storage)"
					},
					{
						"astId": 20,
						"contract": "digital gifts.sol:HolidaySwap",
						"label": "eventCount",
						"offset": 0,
						"slot": "1",
						"type": "t_uint256"
					}
				],
				"types": {
					"t_address": {
						"encoding": "inplace",
						"label": "address",
						"numberOfBytes": "20"
					},
					"t_array(t_address)dyn_storage": {
						"base": "t_address",
						"encoding": "dynamic_array",
						"label": "address[]",
						"numberOfBytes": "32"
					},
					"t_bool": {
						"encoding": "inplace",
						"label": "bool",
						"numberOfBytes": "1"
					},
					"t_mapping(t_address,t_string_storage)": {
						"encoding": "mapping",
						"key": "t_address",
						"label": "mapping(address => string)",
						"numberOfBytes": "32",
						"value": "t_string_storage"
					},
					"t_mapping(t_uint256,t_struct(Event)13_storage)": {
						"encoding": "mapping",
						"key": "t_uint256",
						"label": "mapping(uint256 => struct HolidaySwap.Event)",
						"numberOfBytes": "32",
						"value": "t_struct(Event)13_storage"
					},
					"t_string_storage": {
						"encoding": "bytes",
						"label": "string",
						"numberOfBytes": "32"
					},
					"t_struct(Event)13_storage": {
						"encoding": "inplace",
						"label": "struct HolidaySwap.Event",
						"members": [
							{
								"astId": 3,
								"contract": "digital gifts.sol:HolidaySwap",
								"label": "name",
								"offset": 0,
								"slot": "0",
								"type": "t_string_storage"
							},
							{
								"astId": 6,
								"contract": "digital gifts.sol:HolidaySwap",
								"label": "participants",
								"offset": 0,
								"slot": "1",
								"type": "t_array(t_address)dyn_storage"
							},
							{
								"astId": 10,
								"contract": "digital gifts.sol:HolidaySwap",
								"label": "gifts",
								"offset": 0,
								"slot": "2",
								"type": "t_mapping(t_address,t_string_storage)"
							},
							{
								"astId": 12,
								"contract": "digital gifts.sol:HolidaySwap",
								"label": "isCompleted",
								"offset": 0,
								"slot": "3",
								"type": "t_bool"
							}
						],
						"numberOfBytes": "128"
					},
					"t_uint256": {
						"encoding": "inplace",
						"label": "uint256",
						"numberOfBytes": "32"
					}
				}
			},
			"userdoc": {
				"kind": "user",
				"methods": {},
				"version": 1
			}
		}
	}
}