{
	"renting and leasing.sol": {
		"RentalContract": {
			"abi": [
				{
					"inputs": [],
					"stateMutability": "nonpayable",
					"type": "constructor"
				},
				{
					"anonymous": false,
					"inputs": [
						{
							"indexed": true,
							"internalType": "address",
							"name": "owner",
							"type": "address"
						}
					],
					"name": "AssetReturned",
					"type": "event"
				},
				{
					"anonymous": false,
					"inputs": [
						{
							"indexed": true,
							"internalType": "address",
							"name": "renter",
							"type": "address"
						},
						{
							"indexed": false,
							"internalType": "uint256",
							"name": "startTime",
							"type": "uint256"
						},
						{
							"indexed": false,
							"internalType": "uint256",
							"name": "endTime",
							"type": "uint256"
						}
					],
					"name": "RentalStarted",
					"type": "event"
				},
				{
					"inputs": [],
					"name": "endTime",
					"outputs": [
						{
							"internalType": "uint256",
							"name": "",
							"type": "uint256"
						}
					],
					"stateMutability": "view",
					"type": "function"
				},
				{
					"inputs": [],
					"name": "owner",
					"outputs": [
						{
							"internalType": "address",
							"name": "",
							"type": "address"
						}
					],
					"stateMutability": "view",
					"type": "function"
				},
				{
					"inputs": [
						{
							"internalType": "uint256",
							"name": "_rentalFee",
							"type": "uint256"
						},
						{
							"internalType": "uint256",
							"name": "_rentalPeriod",
							"type": "uint256"
						}
					],
					"name": "rent",
					"outputs": [],
					"stateMutability": "payable",
					"type": "function"
				},
				{
					"inputs": [],
					"name": "rentalFee",
					"outputs": [
						{
							"internalType": "uint256",
							"name": "",
							"type": "uint256"
						}
					],
					"stateMutability": "view",
					"type": "function"
				},
				{
					"inputs": [],
					"name": "rentalPeriod",
					"outputs": [
						{
							"internalType": "uint256",
							"name": "",
							"type": "uint256"
						}
					],
					"stateMutability": "view",
					"type": "function"
				},
				{
					"inputs": [],
					"name": "renter",
					"outputs": [
						{
							"internalType": "address",
							"name": "",
							"type": "address"
						}
					],
					"stateMutability": "view",
					"type": "function"
				},
				{
					"inputs": [],
					"name": "returnAsset",
					"outputs": [],
					"stateMutability": "nonpayable",
					"type": "function"
				}
			],
			"devdoc": {
				"kind": "dev",
				"methods": {},
				"version": 1
			},
			"evm": {
				"assembly": "    /* \"renting and leasing.sol\":60:1462  contract RentalContract {... */\n  mstore(0x40, 0x80)\n    /* \"renting and leasing.sol\":404:455  constructor() {... */\n  callvalue\n  dup1\n  iszero\n  tag_1\n  jumpi\n  0x00\n  dup1\n  revert\ntag_1:\n  pop\n    /* \"renting and leasing.sol\":437:447  msg.sender */\n  caller\n    /* \"renting and leasing.sol\":429:434  owner */\n  0x00\n  dup1\n    /* \"renting and leasing.sol\":429:447  owner = msg.sender */\n  0x0100\n  exp\n  dup2\n  sload\n  dup2\n  0xffffffffffffffffffffffffffffffffffffffff\n  mul\n  not\n  and\n  swap1\n  dup4\n  0xffffffffffffffffffffffffffffffffffffffff\n  and\n  mul\n  or\n  swap1\n  sstore\n  pop\n    /* \"renting and leasing.sol\":60:1462  contract RentalContract {... */\n  dataSize(sub_0)\n  dup1\n  dataOffset(sub_0)\n  0x00\n  codecopy\n  0x00\n  return\nstop\n\nsub_0: assembly {\n        /* \"renting and leasing.sol\":60:1462  contract RentalContract {... */\n      mstore(0x40, 0x80)\n      jumpi(tag_1, lt(calldatasize, 0x04))\n      shr(0xe0, calldataload(0x00))\n      dup1\n      0x4876956b\n      gt\n      tag_9\n      jumpi\n      dup1\n      0x4876956b\n      eq\n      tag_5\n      jumpi\n      dup1\n      0x783a112b\n      eq\n      tag_6\n      jumpi\n      dup1\n      0x8c4b8475\n      eq\n      tag_7\n      jumpi\n      dup1\n      0x8da5cb5b\n      eq\n      tag_8\n      jumpi\n      jump(tag_1)\n    tag_9:\n      dup1\n      0x2e88ab0b\n      eq\n      tag_2\n      jumpi\n      dup1\n      0x3197cbb6\n      eq\n      tag_3\n      jumpi\n      dup1\n      0x39deeec1\n      eq\n      tag_4\n      jumpi\n    tag_1:\n      0x00\n      dup1\n      revert\n        /* \"renting and leasing.sol\":118:139  address public renter */\n    tag_2:\n      callvalue\n      dup1\n      iszero\n      tag_10\n      jumpi\n      0x00\n      dup1\n      revert\n    tag_10:\n      pop\n      tag_11\n      tag_12\n      jump\t// in\n    tag_11:\n      mload(0x40)\n      tag_13\n      swap2\n      swap1\n      tag_14\n      jump\t// in\n    tag_13:\n      mload(0x40)\n      dup1\n      swap2\n      sub\n      swap1\n      return\n        /* \"renting and leasing.sol\":219:238  uint public endTime */\n    tag_3:\n      callvalue\n      dup1\n      iszero\n      tag_15\n      jumpi\n      0x00\n      dup1\n      revert\n    tag_15:\n      pop\n      tag_16\n      tag_17\n      jump\t// in\n    tag_16:\n      mload(0x40)\n      tag_18\n      swap2\n      swap1\n      tag_19\n      jump\t// in\n    tag_18:\n      mload(0x40)\n      dup1\n      swap2\n      sub\n      swap1\n      return\n        /* \"renting and leasing.sol\":1106:1459  function returnAsset() public {... */\n    tag_4:\n      callvalue\n      dup1\n      iszero\n      tag_20\n      jumpi\n      0x00\n      dup1\n      revert\n    tag_20:\n      pop\n      tag_21\n      tag_22\n      jump\t// in\n    tag_21:\n      stop\n        /* \"renting and leasing.sol\":146:167  uint public rentalFee */\n    tag_5:\n      callvalue\n      dup1\n      iszero\n      tag_23\n      jumpi\n      0x00\n      dup1\n      revert\n    tag_23:\n      pop\n      tag_24\n      tag_25\n      jump\t// in\n    tag_24:\n      mload(0x40)\n      tag_26\n      swap2\n      swap1\n      tag_19\n      jump\t// in\n    tag_26:\n      mload(0x40)\n      dup1\n      swap2\n      sub\n      swap1\n      return\n        /* \"renting and leasing.sol\":463:1098  function rent(uint _rentalFee, uint _rentalPeriod) public payable {... */\n    tag_6:\n      tag_27\n      0x04\n      dup1\n      calldatasize\n      sub\n      dup2\n      add\n      swap1\n      tag_28\n      swap2\n      swap1\n      tag_29\n      jump\t// in\n    tag_28:\n      tag_30\n      jump\t// in\n    tag_27:\n      stop\n        /* \"renting and leasing.sol\":174:198  uint public rentalPeriod */\n    tag_7:\n      callvalue\n      dup1\n      iszero\n      tag_31\n      jumpi\n      0x00\n      dup1\n      revert\n    tag_31:\n      pop\n      tag_32\n      tag_33\n      jump\t// in\n    tag_32:\n      mload(0x40)\n      tag_34\n      swap2\n      swap1\n      tag_19\n      jump\t// in\n    tag_34:\n      mload(0x40)\n      dup1\n      swap2\n      sub\n      swap1\n      return\n        /* \"renting and leasing.sol\":91:111  address public owner */\n    tag_8:\n      callvalue\n      dup1\n      iszero\n      tag_35\n      jumpi\n      0x00\n      dup1\n      revert\n    tag_35:\n      pop\n      tag_36\n      tag_37\n      jump\t// in\n    tag_36:\n      mload(0x40)\n      tag_38\n      swap2\n      swap1\n      tag_14\n      jump\t// in\n    tag_38:\n      mload(0x40)\n      dup1\n      swap2\n      sub\n      swap1\n      return\n        /* \"renting and leasing.sol\":118:139  address public renter */\n    tag_12:\n      0x01\n      0x00\n      swap1\n      sload\n      swap1\n      0x0100\n      exp\n      swap1\n      div\n      0xffffffffffffffffffffffffffffffffffffffff\n      and\n      dup2\n      jump\t// out\n        /* \"renting and leasing.sol\":219:238  uint public endTime */\n    tag_17:\n      sload(0x04)\n      dup2\n      jump\t// out\n        /* \"renting and leasing.sol\":1106:1459  function returnAsset() public {... */\n    tag_22:\n        /* \"renting and leasing.sol\":1169:1175  renter */\n      0x01\n      0x00\n      swap1\n      sload\n      swap1\n      0x0100\n      exp\n      swap1\n      div\n      0xffffffffffffffffffffffffffffffffffffffff\n      and\n        /* \"renting and leasing.sol\":1155:1175  msg.sender == renter */\n      0xffffffffffffffffffffffffffffffffffffffff\n      and\n        /* \"renting and leasing.sol\":1155:1165  msg.sender */\n      caller\n        /* \"renting and leasing.sol\":1155:1175  msg.sender == renter */\n      0xffffffffffffffffffffffffffffffffffffffff\n      and\n      eq\n        /* \"renting and leasing.sol\":1147:1216  require(msg.sender == renter, \"Only the renter can return the asset\") */\n      tag_40\n      jumpi\n      mload(0x40)\n      0x08c379a000000000000000000000000000000000000000000000000000000000\n      dup2\n      mstore\n      0x04\n      add\n      tag_41\n      swap1\n      tag_42\n      jump\t// in\n    tag_41:\n      mload(0x40)\n      dup1\n      swap2\n      sub\n      swap1\n      revert\n    tag_40:\n        /* \"renting and leasing.sol\":1254:1261  endTime */\n      sload(0x04)\n        /* \"renting and leasing.sol\":1235:1250  block.timestamp */\n      timestamp\n        /* \"renting and leasing.sol\":1235:1261  block.timestamp >= endTime */\n      lt\n      iszero\n        /* \"renting and leasing.sol\":1227:1293  require(block.timestamp >= endTime, \"Rental period has not ended\") */\n      tag_43\n      jumpi\n      mload(0x40)\n      0x08c379a000000000000000000000000000000000000000000000000000000000\n      dup2\n      mstore\n      0x04\n      add\n      tag_44\n      swap1\n      tag_45\n      jump\t// in\n    tag_44:\n      mload(0x40)\n      dup1\n      swap2\n      sub\n      swap1\n      revert\n    tag_43:\n        /* \"renting and leasing.sol\":1365:1366  0 */\n      0x00\n        /* \"renting and leasing.sol\":1348:1354  renter */\n      0x01\n      0x00\n        /* \"renting and leasing.sol\":1348:1367  renter = address(0) */\n      0x0100\n      exp\n      dup2\n      sload\n      dup2\n      0xffffffffffffffffffffffffffffffffffffffff\n      mul\n      not\n      and\n      swap1\n      dup4\n      0xffffffffffffffffffffffffffffffffffffffff\n      and\n      mul\n      or\n      swap1\n      sstore\n      pop\n        /* \"renting and leasing.sol\":1445:1450  owner */\n      0x00\n      dup1\n      sload\n      swap1\n      0x0100\n      exp\n      swap1\n      div\n      0xffffffffffffffffffffffffffffffffffffffff\n      and\n        /* \"renting and leasing.sol\":1431:1451  AssetReturned(owner) */\n      0xffffffffffffffffffffffffffffffffffffffff\n      and\n      0xc2f36f3206d42f5f29120bcd65a6938678126af4084b284175b304ec7efad5c2\n      mload(0x40)\n      mload(0x40)\n      dup1\n      swap2\n      sub\n      swap1\n      log2\n        /* \"renting and leasing.sol\":1106:1459  function returnAsset() public {... */\n      jump\t// out\n        /* \"renting and leasing.sol\":146:167  uint public rentalFee */\n    tag_25:\n      sload(0x02)\n      dup2\n      jump\t// out\n        /* \"renting and leasing.sol\":463:1098  function rent(uint _rentalFee, uint _rentalPeriod) public payable {... */\n    tag_30:\n        /* \"renting and leasing.sol\":562:567  owner */\n      0x00\n      dup1\n      sload\n      swap1\n      0x0100\n      exp\n      swap1\n      div\n      0xffffffffffffffffffffffffffffffffffffffff\n      and\n        /* \"renting and leasing.sol\":548:567  msg.sender != owner */\n      0xffffffffffffffffffffffffffffffffffffffff\n      and\n        /* \"renting and leasing.sol\":548:558  msg.sender */\n      caller\n        /* \"renting and leasing.sol\":548:567  msg.sender != owner */\n      0xffffffffffffffffffffffffffffffffffffffff\n      and\n      sub\n        /* \"renting and leasing.sol\":540:605  require(msg.sender != owner, \"Owner cannot rent their own asset\") */\n      tag_47\n      jumpi\n      mload(0x40)\n      0x08c379a000000000000000000000000000000000000000000000000000000000\n      dup2\n      mstore\n      0x04\n      add\n      tag_48\n      swap1\n      tag_49\n      jump\t// in\n    tag_48:\n      mload(0x40)\n      dup1\n      swap2\n      sub\n      swap1\n      revert\n    tag_47:\n        /* \"renting and leasing.sol\":637:647  _rentalFee */\n      dup2\n        /* \"renting and leasing.sol\":624:633  msg.value */\n      callvalue\n        /* \"renting and leasing.sol\":624:647  msg.value == _rentalFee */\n      eq\n        /* \"renting and leasing.sol\":616:672  require(msg.value == _rentalFee, \"Incorrect rental fee\") */\n      tag_50\n      jumpi\n      mload(0x40)\n      0x08c379a000000000000000000000000000000000000000000000000000000000\n      dup2\n      mstore\n      0x04\n      add\n      tag_51\n      swap1\n      tag_52\n      jump\t// in\n    tag_51:\n      mload(0x40)\n      dup1\n      swap2\n      sub\n      swap1\n      revert\n    tag_50:\n        /* \"renting and leasing.sol\":709:710  0 */\n      0x00\n        /* \"renting and leasing.sol\":691:711  renter == address(0) */\n      0xffffffffffffffffffffffffffffffffffffffff\n      and\n        /* \"renting and leasing.sol\":691:697  renter */\n      0x01\n      0x00\n      swap1\n      sload\n      swap1\n      0x0100\n      exp\n      swap1\n      div\n      0xffffffffffffffffffffffffffffffffffffffff\n      and\n        /* \"renting and leasing.sol\":691:711  renter == address(0) */\n      0xffffffffffffffffffffffffffffffffffffffff\n      and\n      eq\n        /* \"renting and leasing.sol\":683:739  require(renter == address(0), \"Asset is already rented\") */\n      tag_53\n      jumpi\n      mload(0x40)\n      0x08c379a000000000000000000000000000000000000000000000000000000000\n      dup2\n      mstore\n      0x04\n      add\n      tag_54\n      swap1\n      tag_55\n      jump\t// in\n    tag_54:\n      mload(0x40)\n      dup1\n      swap2\n      sub\n      swap1\n      revert\n    tag_53:\n        /* \"renting and leasing.sol\":764:774  _rentalFee */\n      dup2\n        /* \"renting and leasing.sol\":752:761  rentalFee */\n      0x02\n        /* \"renting and leasing.sol\":752:774  rentalFee = _rentalFee */\n      dup2\n      swap1\n      sstore\n      pop\n        /* \"renting and leasing.sol\":800:813  _rentalPeriod */\n      dup1\n        /* \"renting and leasing.sol\":785:797  rentalPeriod */\n      0x03\n        /* \"renting and leasing.sol\":785:813  rentalPeriod = _rentalPeriod */\n      dup2\n      swap1\n      sstore\n      pop\n        /* \"renting and leasing.sol\":833:843  msg.sender */\n      caller\n        /* \"renting and leasing.sol\":824:830  renter */\n      0x01\n      0x00\n        /* \"renting and leasing.sol\":824:843  renter = msg.sender */\n      0x0100\n      exp\n      dup2\n      sload\n      dup2\n      0xffffffffffffffffffffffffffffffffffffffff\n      mul\n      not\n      and\n      swap1\n      dup4\n      0xffffffffffffffffffffffffffffffffffffffff\n      and\n      mul\n      or\n      swap1\n      sstore\n      pop\n        /* \"renting and leasing.sol\":907:921  uint startTime */\n      0x00\n        /* \"renting and leasing.sol\":924:939  block.timestamp */\n      timestamp\n        /* \"renting and leasing.sol\":907:939  uint startTime = block.timestamp */\n      swap1\n      pop\n        /* \"renting and leasing.sol\":972:984  rentalPeriod */\n      sload(0x03)\n        /* \"renting and leasing.sol\":960:969  startTime */\n      dup2\n        /* \"renting and leasing.sol\":960:984  startTime + rentalPeriod */\n      tag_56\n      swap2\n      swap1\n      tag_57\n      jump\t// in\n    tag_56:\n        /* \"renting and leasing.sol\":950:957  endTime */\n      0x04\n        /* \"renting and leasing.sol\":950:984  endTime = startTime + rentalPeriod */\n      dup2\n      swap1\n      sstore\n      pop\n        /* \"renting and leasing.sol\":1063:1069  renter */\n      0x01\n      0x00\n      swap1\n      sload\n      swap1\n      0x0100\n      exp\n      swap1\n      div\n      0xffffffffffffffffffffffffffffffffffffffff\n      and\n        /* \"renting and leasing.sol\":1049:1090  RentalStarted(renter, startTime, endTime) */\n      0xffffffffffffffffffffffffffffffffffffffff\n      and\n      0xfbab064a5021e4e5fe3ea95c55580f8e9d2d5c6bed361e8c2437d8555b7c3f75\n        /* \"renting and leasing.sol\":1071:1080  startTime */\n      dup3\n        /* \"renting and leasing.sol\":1082:1089  endTime */\n      sload(0x04)\n        /* \"renting and leasing.sol\":1049:1090  RentalStarted(renter, startTime, endTime) */\n      mload(0x40)\n      tag_58\n      swap3\n      swap2\n      swap1\n      tag_59\n      jump\t// in\n    tag_58:\n      mload(0x40)\n      dup1\n      swap2\n      sub\n      swap1\n      log2\n        /* \"renting and leasing.sol\":529:1098  {... */\n      pop\n        /* \"renting and leasing.sol\":463:1098  function rent(uint _rentalFee, uint _rentalPeriod) public payable {... */\n      pop\n      pop\n      jump\t// out\n        /* \"renting and leasing.sol\":174:198  uint public rentalPeriod */\n    tag_33:\n      sload(0x03)\n      dup2\n      jump\t// out\n        /* \"renting and leasing.sol\":91:111  address public owner */\n    tag_37:\n      0x00\n      dup1\n      sload\n      swap1\n      0x0100\n      exp\n      swap1\n      div\n      0xffffffffffffffffffffffffffffffffffffffff\n      and\n      dup2\n      jump\t// out\n        /* \"#utility.yul\":7:133   */\n    tag_60:\n        /* \"#utility.yul\":44:51   */\n      0x00\n        /* \"#utility.yul\":84:126   */\n      0xffffffffffffffffffffffffffffffffffffffff\n        /* \"#utility.yul\":77:82   */\n      dup3\n        /* \"#utility.yul\":73:127   */\n      and\n        /* \"#utility.yul\":62:127   */\n      swap1\n      pop\n        /* \"#utility.yul\":7:133   */\n      swap2\n      swap1\n      pop\n      jump\t// out\n        /* \"#utility.yul\":139:235   */\n    tag_61:\n        /* \"#utility.yul\":176:183   */\n      0x00\n        /* \"#utility.yul\":205:229   */\n      tag_85\n        /* \"#utility.yul\":223:228   */\n      dup3\n        /* \"#utility.yul\":205:229   */\n      tag_60\n      jump\t// in\n    tag_85:\n        /* \"#utility.yul\":194:229   */\n      swap1\n      pop\n        /* \"#utility.yul\":139:235   */\n      swap2\n      swap1\n      pop\n      jump\t// out\n        /* \"#utility.yul\":241:359   */\n    tag_62:\n        /* \"#utility.yul\":328:352   */\n      tag_87\n        /* \"#utility.yul\":346:351   */\n      dup2\n        /* \"#utility.yul\":328:352   */\n      tag_61\n      jump\t// in\n    tag_87:\n        /* \"#utility.yul\":323:326   */\n      dup3\n        /* \"#utility.yul\":316:353   */\n      mstore\n        /* \"#utility.yul\":241:359   */\n      pop\n      pop\n      jump\t// out\n        /* \"#utility.yul\":365:587   */\n    tag_14:\n        /* \"#utility.yul\":458:462   */\n      0x00\n        /* \"#utility.yul\":496:498   */\n      0x20\n        /* \"#utility.yul\":485:494   */\n      dup3\n        /* \"#utility.yul\":481:499   */\n      add\n        /* \"#utility.yul\":473:499   */\n      swap1\n      pop\n        /* \"#utility.yul\":509:580   */\n      tag_89\n        /* \"#utility.yul\":577:578   */\n      0x00\n        /* \"#utility.yul\":566:575   */\n      dup4\n        /* \"#utility.yul\":562:579   */\n      add\n        /* \"#utility.yul\":553:559   */\n      dup5\n        /* \"#utility.yul\":509:580   */\n      tag_62\n      jump\t// in\n    tag_89:\n        /* \"#utility.yul\":365:587   */\n      swap3\n      swap2\n      pop\n      pop\n      jump\t// out\n        /* \"#utility.yul\":593:670   */\n    tag_63:\n        /* \"#utility.yul\":630:637   */\n      0x00\n        /* \"#utility.yul\":659:664   */\n      dup2\n        /* \"#utility.yul\":648:664   */\n      swap1\n      pop\n        /* \"#utility.yul\":593:670   */\n      swap2\n      swap1\n      pop\n      jump\t// out\n        /* \"#utility.yul\":676:794   */\n    tag_64:\n        /* \"#utility.yul\":763:787   */\n      tag_92\n        /* \"#utility.yul\":781:786   */\n      dup2\n        /* \"#utility.yul\":763:787   */\n      tag_63\n      jump\t// in\n    tag_92:\n        /* \"#utility.yul\":758:761   */\n      dup3\n        /* \"#utility.yul\":751:788   */\n      mstore\n        /* \"#utility.yul\":676:794   */\n      pop\n      pop\n      jump\t// out\n        /* \"#utility.yul\":800:1022   */\n    tag_19:\n        /* \"#utility.yul\":893:897   */\n      0x00\n        /* \"#utility.yul\":931:933   */\n      0x20\n        /* \"#utility.yul\":920:929   */\n      dup3\n        /* \"#utility.yul\":916:934   */\n      add\n        /* \"#utility.yul\":908:934   */\n      swap1\n      pop\n        /* \"#utility.yul\":944:1015   */\n      tag_94\n        /* \"#utility.yul\":1012:1013   */\n      0x00\n        /* \"#utility.yul\":1001:1010   */\n      dup4\n        /* \"#utility.yul\":997:1014   */\n      add\n        /* \"#utility.yul\":988:994   */\n      dup5\n        /* \"#utility.yul\":944:1015   */\n      tag_64\n      jump\t// in\n    tag_94:\n        /* \"#utility.yul\":800:1022   */\n      swap3\n      swap2\n      pop\n      pop\n      jump\t// out\n        /* \"#utility.yul\":1109:1226   */\n    tag_66:\n        /* \"#utility.yul\":1218:1219   */\n      0x00\n        /* \"#utility.yul\":1215:1216   */\n      dup1\n        /* \"#utility.yul\":1208:1220   */\n      revert\n        /* \"#utility.yul\":1355:1477   */\n    tag_68:\n        /* \"#utility.yul\":1428:1452   */\n      tag_99\n        /* \"#utility.yul\":1446:1451   */\n      dup2\n        /* \"#utility.yul\":1428:1452   */\n      tag_63\n      jump\t// in\n    tag_99:\n        /* \"#utility.yul\":1421:1426   */\n      dup2\n        /* \"#utility.yul\":1418:1453   */\n      eq\n        /* \"#utility.yul\":1408:1471   */\n      tag_100\n      jumpi\n        /* \"#utility.yul\":1467:1468   */\n      0x00\n        /* \"#utility.yul\":1464:1465   */\n      dup1\n        /* \"#utility.yul\":1457:1469   */\n      revert\n        /* \"#utility.yul\":1408:1471   */\n    tag_100:\n        /* \"#utility.yul\":1355:1477   */\n      pop\n      jump\t// out\n        /* \"#utility.yul\":1483:1622   */\n    tag_69:\n        /* \"#utility.yul\":1529:1534   */\n      0x00\n        /* \"#utility.yul\":1567:1573   */\n      dup2\n        /* \"#utility.yul\":1554:1574   */\n      calldataload\n        /* \"#utility.yul\":1545:1574   */\n      swap1\n      pop\n        /* \"#utility.yul\":1583:1616   */\n      tag_102\n        /* \"#utility.yul\":1610:1615   */\n      dup2\n        /* \"#utility.yul\":1583:1616   */\n      tag_68\n      jump\t// in\n    tag_102:\n        /* \"#utility.yul\":1483:1622   */\n      swap3\n      swap2\n      pop\n      pop\n      jump\t// out\n        /* \"#utility.yul\":1628:2102   */\n    tag_29:\n        /* \"#utility.yul\":1696:1702   */\n      0x00\n        /* \"#utility.yul\":1704:1710   */\n      dup1\n        /* \"#utility.yul\":1753:1755   */\n      0x40\n        /* \"#utility.yul\":1741:1750   */\n      dup4\n        /* \"#utility.yul\":1732:1739   */\n      dup6\n        /* \"#utility.yul\":1728:1751   */\n      sub\n        /* \"#utility.yul\":1724:1756   */\n      slt\n        /* \"#utility.yul\":1721:1840   */\n      iszero\n      tag_104\n      jumpi\n        /* \"#utility.yul\":1759:1838   */\n      tag_105\n      tag_66\n      jump\t// in\n    tag_105:\n        /* \"#utility.yul\":1721:1840   */\n    tag_104:\n        /* \"#utility.yul\":1879:1880   */\n      0x00\n        /* \"#utility.yul\":1904:1957   */\n      tag_106\n        /* \"#utility.yul\":1949:1956   */\n      dup6\n        /* \"#utility.yul\":1940:1946   */\n      dup3\n        /* \"#utility.yul\":1929:1938   */\n      dup7\n        /* \"#utility.yul\":1925:1947   */\n      add\n        /* \"#utility.yul\":1904:1957   */\n      tag_69\n      jump\t// in\n    tag_106:\n        /* \"#utility.yul\":1894:1957   */\n      swap3\n      pop\n        /* \"#utility.yul\":1850:1967   */\n      pop\n        /* \"#utility.yul\":2006:2008   */\n      0x20\n        /* \"#utility.yul\":2032:2085   */\n      tag_107\n        /* \"#utility.yul\":2077:2084   */\n      dup6\n        /* \"#utility.yul\":2068:2074   */\n      dup3\n        /* \"#utility.yul\":2057:2066   */\n      dup7\n        /* \"#utility.yul\":2053:2075   */\n      add\n        /* \"#utility.yul\":2032:2085   */\n      tag_69\n      jump\t// in\n    tag_107:\n        /* \"#utility.yul\":2022:2085   */\n      swap2\n      pop\n        /* \"#utility.yul\":1977:2095   */\n      pop\n        /* \"#utility.yul\":1628:2102   */\n      swap3\n      pop\n      swap3\n      swap1\n      pop\n      jump\t// out\n        /* \"#utility.yul\":2108:2277   */\n    tag_70:\n        /* \"#utility.yul\":2192:2203   */\n      0x00\n        /* \"#utility.yul\":2226:2232   */\n      dup3\n        /* \"#utility.yul\":2221:2224   */\n      dup3\n        /* \"#utility.yul\":2214:2233   */\n      mstore\n        /* \"#utility.yul\":2266:2270   */\n      0x20\n        /* \"#utility.yul\":2261:2264   */\n      dup3\n        /* \"#utility.yul\":2257:2271   */\n      add\n        /* \"#utility.yul\":2242:2271   */\n      swap1\n      pop\n        /* \"#utility.yul\":2108:2277   */\n      swap3\n      swap2\n      pop\n      pop\n      jump\t// out\n        /* \"#utility.yul\":2283:2506   */\n    tag_71:\n        /* \"#utility.yul\":2423:2457   */\n      0x4f6e6c79207468652072656e7465722063616e2072657475726e207468652061\n        /* \"#utility.yul\":2419:2420   */\n      0x00\n        /* \"#utility.yul\":2411:2417   */\n      dup3\n        /* \"#utility.yul\":2407:2421   */\n      add\n        /* \"#utility.yul\":2400:2458   */\n      mstore\n        /* \"#utility.yul\":2492:2498   */\n      0x7373657400000000000000000000000000000000000000000000000000000000\n        /* \"#utility.yul\":2487:2489   */\n      0x20\n        /* \"#utility.yul\":2479:2485   */\n      dup3\n        /* \"#utility.yul\":2475:2490   */\n      add\n        /* \"#utility.yul\":2468:2499   */\n      mstore\n        /* \"#utility.yul\":2283:2506   */\n      pop\n      jump\t// out\n        /* \"#utility.yul\":2512:2878   */\n    tag_72:\n        /* \"#utility.yul\":2654:2657   */\n      0x00\n        /* \"#utility.yul\":2675:2742   */\n      tag_111\n        /* \"#utility.yul\":2739:2741   */\n      0x24\n        /* \"#utility.yul\":2734:2737   */\n      dup4\n        /* \"#utility.yul\":2675:2742   */\n      tag_70\n      jump\t// in\n    tag_111:\n        /* \"#utility.yul\":2668:2742   */\n      swap2\n      pop\n        /* \"#utility.yul\":2751:2844   */\n      tag_112\n        /* \"#utility.yul\":2840:2843   */\n      dup3\n        /* \"#utility.yul\":2751:2844   */\n      tag_71\n      jump\t// in\n    tag_112:\n        /* \"#utility.yul\":2869:2871   */\n      0x40\n        /* \"#utility.yul\":2864:2867   */\n      dup3\n        /* \"#utility.yul\":2860:2872   */\n      add\n        /* \"#utility.yul\":2853:2872   */\n      swap1\n      pop\n        /* \"#utility.yul\":2512:2878   */\n      swap2\n      swap1\n      pop\n      jump\t// out\n        /* \"#utility.yul\":2884:3303   */\n    tag_42:\n        /* \"#utility.yul\":3050:3054   */\n      0x00\n        /* \"#utility.yul\":3088:3090   */\n      0x20\n        /* \"#utility.yul\":3077:3086   */\n      dup3\n        /* \"#utility.yul\":3073:3091   */\n      add\n        /* \"#utility.yul\":3065:3091   */\n      swap1\n      pop\n        /* \"#utility.yul\":3137:3146   */\n      dup2\n        /* \"#utility.yul\":3131:3135   */\n      dup2\n        /* \"#utility.yul\":3127:3147   */\n      sub\n        /* \"#utility.yul\":3123:3124   */\n      0x00\n        /* \"#utility.yul\":3112:3121   */\n      dup4\n        /* \"#utility.yul\":3108:3125   */\n      add\n        /* \"#utility.yul\":3101:3148   */\n      mstore\n        /* \"#utility.yul\":3165:3296   */\n      tag_114\n        /* \"#utility.yul\":3291:3295   */\n      dup2\n        /* \"#utility.yul\":3165:3296   */\n      tag_72\n      jump\t// in\n    tag_114:\n        /* \"#utility.yul\":3157:3296   */\n      swap1\n      pop\n        /* \"#utility.yul\":2884:3303   */\n      swap2\n      swap1\n      pop\n      jump\t// out\n        /* \"#utility.yul\":3309:3486   */\n    tag_73:\n        /* \"#utility.yul\":3449:3478   */\n      0x52656e74616c20706572696f6420686173206e6f7420656e6465640000000000\n        /* \"#utility.yul\":3445:3446   */\n      0x00\n        /* \"#utility.yul\":3437:3443   */\n      dup3\n        /* \"#utility.yul\":3433:3447   */\n      add\n        /* \"#utility.yul\":3426:3479   */\n      mstore\n        /* \"#utility.yul\":3309:3486   */\n      pop\n      jump\t// out\n        /* \"#utility.yul\":3492:3858   */\n    tag_74:\n        /* \"#utility.yul\":3634:3637   */\n      0x00\n        /* \"#utility.yul\":3655:3722   */\n      tag_117\n        /* \"#utility.yul\":3719:3721   */\n      0x1b\n        /* \"#utility.yul\":3714:3717   */\n      dup4\n        /* \"#utility.yul\":3655:3722   */\n      tag_70\n      jump\t// in\n    tag_117:\n        /* \"#utility.yul\":3648:3722   */\n      swap2\n      pop\n        /* \"#utility.yul\":3731:3824   */\n      tag_118\n        /* \"#utility.yul\":3820:3823   */\n      dup3\n        /* \"#utility.yul\":3731:3824   */\n      tag_73\n      jump\t// in\n    tag_118:\n        /* \"#utility.yul\":3849:3851   */\n      0x20\n        /* \"#utility.yul\":3844:3847   */\n      dup3\n        /* \"#utility.yul\":3840:3852   */\n      add\n        /* \"#utility.yul\":3833:3852   */\n      swap1\n      pop\n        /* \"#utility.yul\":3492:3858   */\n      swap2\n      swap1\n      pop\n      jump\t// out\n        /* \"#utility.yul\":3864:4283   */\n    tag_45:\n        /* \"#utility.yul\":4030:4034   */\n      0x00\n        /* \"#utility.yul\":4068:4070   */\n      0x20\n        /* \"#utility.yul\":4057:4066   */\n      dup3\n        /* \"#utility.yul\":4053:4071   */\n      add\n        /* \"#utility.yul\":4045:4071   */\n      swap1\n      pop\n        /* \"#utility.yul\":4117:4126   */\n      dup2\n        /* \"#utility.yul\":4111:4115   */\n      dup2\n        /* \"#utility.yul\":4107:4127   */\n      sub\n        /* \"#utility.yul\":4103:4104   */\n      0x00\n        /* \"#utility.yul\":4092:4101   */\n      dup4\n        /* \"#utility.yul\":4088:4105   */\n      add\n        /* \"#utility.yul\":4081:4128   */\n      mstore\n        /* \"#utility.yul\":4145:4276   */\n      tag_120\n        /* \"#utility.yul\":4271:4275   */\n      dup2\n        /* \"#utility.yul\":4145:4276   */\n      tag_74\n      jump\t// in\n    tag_120:\n        /* \"#utility.yul\":4137:4276   */\n      swap1\n      pop\n        /* \"#utility.yul\":3864:4283   */\n      swap2\n      swap1\n      pop\n      jump\t// out\n        /* \"#utility.yul\":4289:4509   */\n    tag_75:\n        /* \"#utility.yul\":4429:4463   */\n      0x4f776e65722063616e6e6f742072656e74207468656972206f776e2061737365\n        /* \"#utility.yul\":4425:4426   */\n      0x00\n        /* \"#utility.yul\":4417:4423   */\n      dup3\n        /* \"#utility.yul\":4413:4427   */\n      add\n        /* \"#utility.yul\":4406:4464   */\n      mstore\n        /* \"#utility.yul\":4498:4501   */\n      0x7400000000000000000000000000000000000000000000000000000000000000\n        /* \"#utility.yul\":4493:4495   */\n      0x20\n        /* \"#utility.yul\":4485:4491   */\n      dup3\n        /* \"#utility.yul\":4481:4496   */\n      add\n        /* \"#utility.yul\":4474:4502   */\n      mstore\n        /* \"#utility.yul\":4289:4509   */\n      pop\n      jump\t// out\n        /* \"#utility.yul\":4515:4881   */\n    tag_76:\n        /* \"#utility.yul\":4657:4660   */\n      0x00\n        /* \"#utility.yul\":4678:4745   */\n      tag_123\n        /* \"#utility.yul\":4742:4744   */\n      0x21\n        /* \"#utility.yul\":4737:4740   */\n      dup4\n        /* \"#utility.yul\":4678:4745   */\n      tag_70\n      jump\t// in\n    tag_123:\n        /* \"#utility.yul\":4671:4745   */\n      swap2\n      pop\n        /* \"#utility.yul\":4754:4847   */\n      tag_124\n        /* \"#utility.yul\":4843:4846   */\n      dup3\n        /* \"#utility.yul\":4754:4847   */\n      tag_75\n      jump\t// in\n    tag_124:\n        /* \"#utility.yul\":4872:4874   */\n      0x40\n        /* \"#utility.yul\":4867:4870   */\n      dup3\n        /* \"#utility.yul\":4863:4875   */\n      add\n        /* \"#utility.yul\":4856:4875   */\n      swap1\n      pop\n        /* \"#utility.yul\":4515:4881   */\n      swap2\n      swap1\n      pop\n      jump\t// out\n        /* \"#utility.yul\":4887:5306   */\n    tag_49:\n        /* \"#utility.yul\":5053:5057   */\n      0x00\n        /* \"#utility.yul\":5091:5093   */\n      0x20\n        /* \"#utility.yul\":5080:5089   */\n      dup3\n        /* \"#utility.yul\":5076:5094   */\n      add\n        /* \"#utility.yul\":5068:5094   */\n      swap1\n      pop\n        /* \"#utility.yul\":5140:5149   */\n      dup2\n        /* \"#utility.yul\":5134:5138   */\n      dup2\n        /* \"#utility.yul\":5130:5150   */\n      sub\n        /* \"#utility.yul\":5126:5127   */\n      0x00\n        /* \"#utility.yul\":5115:5124   */\n      dup4\n        /* \"#utility.yul\":5111:5128   */\n      add\n        /* \"#utility.yul\":5104:5151   */\n      mstore\n        /* \"#utility.yul\":5168:5299   */\n      tag_126\n        /* \"#utility.yul\":5294:5298   */\n      dup2\n        /* \"#utility.yul\":5168:5299   */\n      tag_76\n      jump\t// in\n    tag_126:\n        /* \"#utility.yul\":5160:5299   */\n      swap1\n      pop\n        /* \"#utility.yul\":4887:5306   */\n      swap2\n      swap1\n      pop\n      jump\t// out\n        /* \"#utility.yul\":5312:5482   */\n    tag_77:\n        /* \"#utility.yul\":5452:5474   */\n      0x496e636f72726563742072656e74616c20666565000000000000000000000000\n        /* \"#utility.yul\":5448:5449   */\n      0x00\n        /* \"#utility.yul\":5440:5446   */\n      dup3\n        /* \"#utility.yul\":5436:5450   */\n      add\n        /* \"#utility.yul\":5429:5475   */\n      mstore\n        /* \"#utility.yul\":5312:5482   */\n      pop\n      jump\t// out\n        /* \"#utility.yul\":5488:5854   */\n    tag_78:\n        /* \"#utility.yul\":5630:5633   */\n      0x00\n        /* \"#utility.yul\":5651:5718   */\n      tag_129\n        /* \"#utility.yul\":5715:5717   */\n      0x14\n        /* \"#utility.yul\":5710:5713   */\n      dup4\n        /* \"#utility.yul\":5651:5718   */\n      tag_70\n      jump\t// in\n    tag_129:\n        /* \"#utility.yul\":5644:5718   */\n      swap2\n      pop\n        /* \"#utility.yul\":5727:5820   */\n      tag_130\n        /* \"#utility.yul\":5816:5819   */\n      dup3\n        /* \"#utility.yul\":5727:5820   */\n      tag_77\n      jump\t// in\n    tag_130:\n        /* \"#utility.yul\":5845:5847   */\n      0x20\n        /* \"#utility.yul\":5840:5843   */\n      dup3\n        /* \"#utility.yul\":5836:5848   */\n      add\n        /* \"#utility.yul\":5829:5848   */\n      swap1\n      pop\n        /* \"#utility.yul\":5488:5854   */\n      swap2\n      swap1\n      pop\n      jump\t// out\n        /* \"#utility.yul\":5860:6279   */\n    tag_52:\n        /* \"#utility.yul\":6026:6030   */\n      0x00\n        /* \"#utility.yul\":6064:6066   */\n      0x20\n        /* \"#utility.yul\":6053:6062   */\n      dup3\n        /* \"#utility.yul\":6049:6067   */\n      add\n        /* \"#utility.yul\":6041:6067   */\n      swap1\n      pop\n        /* \"#utility.yul\":6113:6122   */\n      dup2\n        /* \"#utility.yul\":6107:6111   */\n      dup2\n        /* \"#utility.yul\":6103:6123   */\n      sub\n        /* \"#utility.yul\":6099:6100   */\n      0x00\n        /* \"#utility.yul\":6088:6097   */\n      dup4\n        /* \"#utility.yul\":6084:6101   */\n      add\n        /* \"#utility.yul\":6077:6124   */\n      mstore\n        /* \"#utility.yul\":6141:6272   */\n      tag_132\n        /* \"#utility.yul\":6267:6271   */\n      dup2\n        /* \"#utility.yul\":6141:6272   */\n      tag_78\n      jump\t// in\n    tag_132:\n        /* \"#utility.yul\":6133:6272   */\n      swap1\n      pop\n        /* \"#utility.yul\":5860:6279   */\n      swap2\n      swap1\n      pop\n      jump\t// out\n        /* \"#utility.yul\":6285:6458   */\n    tag_79:\n        /* \"#utility.yul\":6425:6450   */\n      0x417373657420697320616c72656164792072656e746564000000000000000000\n        /* \"#utility.yul\":6421:6422   */\n      0x00\n        /* \"#utility.yul\":6413:6419   */\n      dup3\n        /* \"#utility.yul\":6409:6423   */\n      add\n        /* \"#utility.yul\":6402:6451   */\n      mstore\n        /* \"#utility.yul\":6285:6458   */\n      pop\n      jump\t// out\n        /* \"#utility.yul\":6464:6830   */\n    tag_80:\n        /* \"#utility.yul\":6606:6609   */\n      0x00\n        /* \"#utility.yul\":6627:6694   */\n      tag_135\n        /* \"#utility.yul\":6691:6693   */\n      0x17\n        /* \"#utility.yul\":6686:6689   */\n      dup4\n        /* \"#utility.yul\":6627:6694   */\n      tag_70\n      jump\t// in\n    tag_135:\n        /* \"#utility.yul\":6620:6694   */\n      swap2\n      pop\n        /* \"#utility.yul\":6703:6796   */\n      tag_136\n        /* \"#utility.yul\":6792:6795   */\n      dup3\n        /* \"#utility.yul\":6703:6796   */\n      tag_79\n      jump\t// in\n    tag_136:\n        /* \"#utility.yul\":6821:6823   */\n      0x20\n        /* \"#utility.yul\":6816:6819   */\n      dup3\n        /* \"#utility.yul\":6812:6824   */\n      add\n        /* \"#utility.yul\":6805:6824   */\n      swap1\n      pop\n        /* \"#utility.yul\":6464:6830   */\n      swap2\n      swap1\n      pop\n      jump\t// out\n        /* \"#utility.yul\":6836:7255   */\n    tag_55:\n        /* \"#utility.yul\":7002:7006   */\n      0x00\n        /* \"#utility.yul\":7040:7042   */\n      0x20\n        /* \"#utility.yul\":7029:7038   */\n      dup3\n        /* \"#utility.yul\":7025:7043   */\n      add\n        /* \"#utility.yul\":7017:7043   */\n      swap1\n      pop\n        /* \"#utility.yul\":7089:7098   */\n      dup2\n        /* \"#utility.yul\":7083:7087   */\n      dup2\n        /* \"#utility.yul\":7079:7099   */\n      sub\n        /* \"#utility.yul\":7075:7076   */\n      0x00\n        /* \"#utility.yul\":7064:7073   */\n      dup4\n        /* \"#utility.yul\":7060:7077   */\n      add\n        /* \"#utility.yul\":7053:7100   */\n      mstore\n        /* \"#utility.yul\":7117:7248   */\n      tag_138\n        /* \"#utility.yul\":7243:7247   */\n      dup2\n        /* \"#utility.yul\":7117:7248   */\n      tag_80\n      jump\t// in\n    tag_138:\n        /* \"#utility.yul\":7109:7248   */\n      swap1\n      pop\n        /* \"#utility.yul\":6836:7255   */\n      swap2\n      swap1\n      pop\n      jump\t// out\n        /* \"#utility.yul\":7261:7441   */\n    tag_81:\n        /* \"#utility.yul\":7309:7386   */\n      0x4e487b7100000000000000000000000000000000000000000000000000000000\n        /* \"#utility.yul\":7306:7307   */\n      0x00\n        /* \"#utility.yul\":7299:7387   */\n      mstore\n        /* \"#utility.yul\":7406:7410   */\n      0x11\n        /* \"#utility.yul\":7403:7404   */\n      0x04\n        /* \"#utility.yul\":7396:7411   */\n      mstore\n        /* \"#utility.yul\":7430:7434   */\n      0x24\n        /* \"#utility.yul\":7427:7428   */\n      0x00\n        /* \"#utility.yul\":7420:7435   */\n      revert\n        /* \"#utility.yul\":7447:7638   */\n    tag_57:\n        /* \"#utility.yul\":7487:7490   */\n      0x00\n        /* \"#utility.yul\":7506:7526   */\n      tag_141\n        /* \"#utility.yul\":7524:7525   */\n      dup3\n        /* \"#utility.yul\":7506:7526   */\n      tag_63\n      jump\t// in\n    tag_141:\n        /* \"#utility.yul\":7501:7526   */\n      swap2\n      pop\n        /* \"#utility.yul\":7540:7560   */\n      tag_142\n        /* \"#utility.yul\":7558:7559   */\n      dup4\n        /* \"#utility.yul\":7540:7560   */\n      tag_63\n      jump\t// in\n    tag_142:\n        /* \"#utility.yul\":7535:7560   */\n      swap3\n      pop\n        /* \"#utility.yul\":7583:7584   */\n      dup3\n        /* \"#utility.yul\":7580:7581   */\n      dup3\n        /* \"#utility.yul\":7576:7585   */\n      add\n        /* \"#utility.yul\":7569:7585   */\n      swap1\n      pop\n        /* \"#utility.yul\":7604:7607   */\n      dup1\n        /* \"#utility.yul\":7601:7602   */\n      dup3\n        /* \"#utility.yul\":7598:7608   */\n      gt\n        /* \"#utility.yul\":7595:7631   */\n      iszero\n      tag_143\n      jumpi\n        /* \"#utility.yul\":7611:7629   */\n      tag_144\n      tag_81\n      jump\t// in\n    tag_144:\n        /* \"#utility.yul\":7595:7631   */\n    tag_143:\n        /* \"#utility.yul\":7447:7638   */\n      swap3\n      swap2\n      pop\n      pop\n      jump\t// out\n        /* \"#utility.yul\":7644:7976   */\n    tag_59:\n        /* \"#utility.yul\":7765:7769   */\n      0x00\n        /* \"#utility.yul\":7803:7805   */\n      0x40\n        /* \"#utility.yul\":7792:7801   */\n      dup3\n        /* \"#utility.yul\":7788:7806   */\n      add\n        /* \"#utility.yul\":7780:7806   */\n      swap1\n      pop\n        /* \"#utility.yul\":7816:7887   */\n      tag_146\n        /* \"#utility.yul\":7884:7885   */\n      0x00\n        /* \"#utility.yul\":7873:7882   */\n      dup4\n        /* \"#utility.yul\":7869:7886   */\n      add\n        /* \"#utility.yul\":7860:7866   */\n      dup6\n        /* \"#utility.yul\":7816:7887   */\n      tag_64\n      jump\t// in\n    tag_146:\n        /* \"#utility.yul\":7897:7969   */\n      tag_147\n        /* \"#utility.yul\":7965:7967   */\n      0x20\n        /* \"#utility.yul\":7954:7963   */\n      dup4\n        /* \"#utility.yul\":7950:7968   */\n      add\n        /* \"#utility.yul\":7941:7947   */\n      dup5\n        /* \"#utility.yul\":7897:7969   */\n      tag_64\n      jump\t// in\n    tag_147:\n        /* \"#utility.yul\":7644:7976   */\n      swap4\n      swap3\n      pop\n      pop\n      pop\n      jump\t// out\n\n    auxdata: 0xa26469706673582212208d09c8b8365a41e096275928948d53e00d3eec8d53b27e443e9a5e985e96d63464736f6c634300081a0033\n}\n",
				"bytecode": {
					"linkReferences": {},
					"object": "6080604052348015600e575f80fd5b50335f806101000a81548173ffffffffffffffffffffffffffffffffffffffff021916908373ffffffffffffffffffffffffffffffffffffffff16021790555061099b8061005b5f395ff3fe60806040526004361061006f575f3560e01c80634876956b1161004d5780634876956b146100dd578063783a112b146101075780638c4b8475146101235780638da5cb5b1461014d5761006f565b80632e88ab0b146100735780633197cbb61461009d57806339deeec1146100c7575b5f80fd5b34801561007e575f80fd5b50610087610177565b60405161009491906105c4565b60405180910390f35b3480156100a8575f80fd5b506100b161019c565b6040516100be91906105f5565b60405180910390f35b3480156100d2575f80fd5b506100db6101a2565b005b3480156100e8575f80fd5b506100f161031a565b6040516100fe91906105f5565b60405180910390f35b610121600480360381019061011c919061063c565b610320565b005b34801561012e575f80fd5b5061013761055c565b60405161014491906105f5565b60405180910390f35b348015610158575f80fd5b50610161610562565b60405161016e91906105c4565b60405180910390f35b60015f9054906101000a900473ffffffffffffffffffffffffffffffffffffffff1681565b60045481565b60015f9054906101000a900473ffffffffffffffffffffffffffffffffffffffff1673ffffffffffffffffffffffffffffffffffffffff163373ffffffffffffffffffffffffffffffffffffffff1614610231576040517f08c379a0000000000000000000000000000000000000000000000000000000008152600401610228906106fa565b60405180910390fd5b600454421015610276576040517f08c379a000000000000000000000000000000000000000000000000000000000815260040161026d90610762565b60405180910390fd5b5f60015f6101000a81548173ffffffffffffffffffffffffffffffffffffffff021916908373ffffffffffffffffffffffffffffffffffffffff1602179055505f8054906101000a900473ffffffffffffffffffffffffffffffffffffffff1673ffffffffffffffffffffffffffffffffffffffff167fc2f36f3206d42f5f29120bcd65a6938678126af4084b284175b304ec7efad5c260405160405180910390a2565b60025481565b5f8054906101000a900473ffffffffffffffffffffffffffffffffffffffff1673ffffffffffffffffffffffffffffffffffffffff163373ffffffffffffffffffffffffffffffffffffffff16036103ad576040517f08c379a00000000000000000000000000000000000000000000000000000000081526004016103a4906107f0565b60405180910390fd5b8134146103ef576040517f08c379a00000000000000000000000000000000000000000000000000000000081526004016103e690610858565b60405180910390fd5b5f73ffffffffffffffffffffffffffffffffffffffff1660015f9054906101000a900473ffffffffffffffffffffffffffffffffffffffff1673ffffffffffffffffffffffffffffffffffffffff161461047e576040517f08c379a0000000000000000000000000000000000000000000000000000000008152600401610475906108c0565b60405180910390fd5b81600281905550806003819055503360015f6101000a81548173ffffffffffffffffffffffffffffffffffffffff021916908373ffffffffffffffffffffffffffffffffffffffff1602179055505f429050600354816104de919061090b565b60048190555060015f9054906101000a900473ffffffffffffffffffffffffffffffffffffffff1673ffffffffffffffffffffffffffffffffffffffff167ffbab064a5021e4e5fe3ea95c55580f8e9d2d5c6bed361e8c2437d8555b7c3f758260045460405161054f92919061093e565b60405180910390a2505050565b60035481565b5f8054906101000a900473ffffffffffffffffffffffffffffffffffffffff1681565b5f73ffffffffffffffffffffffffffffffffffffffff82169050919050565b5f6105ae82610585565b9050919050565b6105be816105a4565b82525050565b5f6020820190506105d75f8301846105b5565b92915050565b5f819050919050565b6105ef816105dd565b82525050565b5f6020820190506106085f8301846105e6565b92915050565b5f80fd5b61061b816105dd565b8114610625575f80fd5b50565b5f8135905061063681610612565b92915050565b5f80604083850312156106525761065161060e565b5b5f61065f85828601610628565b925050602061067085828601610628565b9150509250929050565b5f82825260208201905092915050565b7f4f6e6c79207468652072656e7465722063616e2072657475726e2074686520615f8201527f7373657400000000000000000000000000000000000000000000000000000000602082015250565b5f6106e460248361067a565b91506106ef8261068a565b604082019050919050565b5f6020820190508181035f830152610711816106d8565b9050919050565b7f52656e74616c20706572696f6420686173206e6f7420656e64656400000000005f82015250565b5f61074c601b8361067a565b915061075782610718565b602082019050919050565b5f6020820190508181035f83015261077981610740565b9050919050565b7f4f776e65722063616e6e6f742072656e74207468656972206f776e20617373655f8201527f7400000000000000000000000000000000000000000000000000000000000000602082015250565b5f6107da60218361067a565b91506107e582610780565b604082019050919050565b5f6020820190508181035f830152610807816107ce565b9050919050565b7f496e636f72726563742072656e74616c206665650000000000000000000000005f82015250565b5f61084260148361067a565b915061084d8261080e565b602082019050919050565b5f6020820190508181035f83015261086f81610836565b9050919050565b7f417373657420697320616c72656164792072656e7465640000000000000000005f82015250565b5f6108aa60178361067a565b91506108b582610876565b602082019050919050565b5f6020820190508181035f8301526108d78161089e565b9050919050565b7f4e487b71000000000000000000000000000000000000000000000000000000005f52601160045260245ffd5b5f610915826105dd565b9150610920836105dd565b9250828201905080821115610938576109376108de565b5b92915050565b5f6040820190506109515f8301856105e6565b61095e60208301846105e6565b939250505056fea26469706673582212208d09c8b8365a41e096275928948d53e00d3eec8d53b27e443e9a5e985e96d63464736f6c634300081a0033",
					"opcodes": "PUSH1 0x80 PUSH1 0x40 MSTORE CALLVALUE DUP1 ISZERO PUSH1 0xE JUMPI PUSH0 DUP1 REVERT JUMPDEST POP CALLER PUSH0 DUP1 PUSH2 0x100 EXP DUP2 SLOAD DUP2 PUSH20 0xFFFFFFFFFFFFFFFFFFFFFFFFFFFFFFFFFFFFFFFF MUL NOT AND SWAP1 DUP4 PUSH20 0xFFFFFFFFFFFFFFFFFFFFFFFFFFFFFFFFFFFFFFFF AND MUL OR SWAP1 SSTORE POP PUSH2 0x99B DUP1 PUSH2 0x5B PUSH0 CODECOPY PUSH0 RETURN INVALID PUSH1 0x80 PUSH1 0x40 MSTORE PUSH1 0x4 CALLDATASIZE LT PUSH2 0x6F JUMPI PUSH0 CALLDATALOAD PUSH1 0xE0 SHR DUP1 PUSH4 0x4876956B GT PUSH2 0x4D JUMPI DUP1 PUSH4 0x4876956B EQ PUSH2 0xDD JUMPI DUP1 PUSH4 0x783A112B EQ PUSH2 0x107 JUMPI DUP1 PUSH4 0x8C4B8475 EQ PUSH2 0x123 JUMPI DUP1 PUSH4 0x8DA5CB5B EQ PUSH2 0x14D JUMPI PUSH2 0x6F JUMP JUMPDEST DUP1 PUSH4 0x2E88AB0B EQ PUSH2 0x73 JUMPI DUP1 PUSH4 0x3197CBB6 EQ PUSH2 0x9D JUMPI DUP1 PUSH4 0x39DEEEC1 EQ PUSH2 0xC7 JUMPI JUMPDEST PUSH0 DUP1 REVERT JUMPDEST CALLVALUE DUP1 ISZERO PUSH2 0x7E JUMPI PUSH0 DUP1 REVERT JUMPDEST POP PUSH2 0x87 PUSH2 0x177 JUMP JUMPDEST PUSH1 0x40 MLOAD PUSH2 0x94 SWAP2 SWAP1 PUSH2 0x5C4 JUMP JUMPDEST PUSH1 0x40 MLOAD DUP1 SWAP2 SUB SWAP1 RETURN JUMPDEST CALLVALUE DUP1 ISZERO PUSH2 0xA8 JUMPI PUSH0 DUP1 REVERT JUMPDEST POP PUSH2 0xB1 PUSH2 0x19C JUMP JUMPDEST PUSH1 0x40 MLOAD PUSH2 0xBE SWAP2 SWAP1 PUSH2 0x5F5 JUMP JUMPDEST PUSH1 0x40 MLOAD DUP1 SWAP2 SUB SWAP1 RETURN JUMPDEST CALLVALUE DUP1 ISZERO PUSH2 0xD2 JUMPI PUSH0 DUP1 REVERT JUMPDEST POP PUSH2 0xDB PUSH2 0x1A2 JUMP JUMPDEST STOP JUMPDEST CALLVALUE DUP1 ISZERO PUSH2 0xE8 JUMPI PUSH0 DUP1 REVERT JUMPDEST POP PUSH2 0xF1 PUSH2 0x31A JUMP JUMPDEST PUSH1 0x40 MLOAD PUSH2 0xFE SWAP2 SWAP1 PUSH2 0x5F5 JUMP JUMPDEST PUSH1 0x40 MLOAD DUP1 SWAP2 SUB SWAP1 RETURN JUMPDEST PUSH2 0x121 PUSH1 0x4 DUP1 CALLDATASIZE SUB DUP2 ADD SWAP1 PUSH2 0x11C SWAP2 SWAP1 PUSH2 0x63C JUMP JUMPDEST PUSH2 0x320 JUMP JUMPDEST STOP JUMPDEST CALLVALUE DUP1 ISZERO PUSH2 0x12E JUMPI PUSH0 DUP1 REVERT JUMPDEST POP PUSH2 0x137 PUSH2 0x55C JUMP JUMPDEST PUSH1 0x40 MLOAD PUSH2 0x144 SWAP2 SWAP1 PUSH2 0x5F5 JUMP JUMPDEST PUSH1 0x40 MLOAD DUP1 SWAP2 SUB SWAP1 RETURN JUMPDEST CALLVALUE DUP1 ISZERO PUSH2 0x158 JUMPI PUSH0 DUP1 REVERT JUMPDEST POP PUSH2 0x161 PUSH2 0x562 JUMP JUMPDEST PUSH1 0x40 MLOAD PUSH2 0x16E SWAP2 SWAP1 PUSH2 0x5C4 JUMP JUMPDEST PUSH1 0x40 MLOAD DUP1 SWAP2 SUB SWAP1 RETURN JUMPDEST PUSH1 0x1 PUSH0 SWAP1 SLOAD SWAP1 PUSH2 0x100 EXP SWAP1 DIV PUSH20 0xFFFFFFFFFFFFFFFFFFFFFFFFFFFFFFFFFFFFFFFF AND DUP2 JUMP JUMPDEST PUSH1 0x4 SLOAD DUP2 JUMP JUMPDEST PUSH1 0x1 PUSH0 SWAP1 SLOAD SWAP1 PUSH2 0x100 EXP SWAP1 DIV PUSH20 0xFFFFFFFFFFFFFFFFFFFFFFFFFFFFFFFFFFFFFFFF AND PUSH20 0xFFFFFFFFFFFFFFFFFFFFFFFFFFFFFFFFFFFFFFFF AND CALLER PUSH20 0xFFFFFFFFFFFFFFFFFFFFFFFFFFFFFFFFFFFFFFFF AND EQ PUSH2 0x231 JUMPI PUSH1 0x40 MLOAD PUSH32 0x8C379A000000000000000000000000000000000000000000000000000000000 DUP2 MSTORE PUSH1 0x4 ADD PUSH2 0x228 SWAP1 PUSH2 0x6FA JUMP JUMPDEST PUSH1 0x40 MLOAD DUP1 SWAP2 SUB SWAP1 REVERT JUMPDEST PUSH1 0x4 SLOAD TIMESTAMP LT ISZERO PUSH2 0x276 JUMPI PUSH1 0x40 MLOAD PUSH32 0x8C379A000000000000000000000000000000000000000000000000000000000 DUP2 MSTORE PUSH1 0x4 ADD PUSH2 0x26D SWAP1 PUSH2 0x762 JUMP JUMPDEST PUSH1 0x40 MLOAD DUP1 SWAP2 SUB SWAP1 REVERT JUMPDEST PUSH0 PUSH1 0x1 PUSH0 PUSH2 0x100 EXP DUP2 SLOAD DUP2 PUSH20 0xFFFFFFFFFFFFFFFFFFFFFFFFFFFFFFFFFFFFFFFF MUL NOT AND SWAP1 DUP4 PUSH20 0xFFFFFFFFFFFFFFFFFFFFFFFFFFFFFFFFFFFFFFFF AND MUL OR SWAP1 SSTORE POP PUSH0 DUP1 SLOAD SWAP1 PUSH2 0x100 EXP SWAP1 DIV PUSH20 0xFFFFFFFFFFFFFFFFFFFFFFFFFFFFFFFFFFFFFFFF AND PUSH20 0xFFFFFFFFFFFFFFFFFFFFFFFFFFFFFFFFFFFFFFFF AND PUSH32 0xC2F36F3206D42F5F29120BCD65A6938678126AF4084B284175B304EC7EFAD5C2 PUSH1 0x40 MLOAD PUSH1 0x40 MLOAD DUP1 SWAP2 SUB SWAP1 LOG2 JUMP JUMPDEST PUSH1 0x2 SLOAD DUP2 JUMP JUMPDEST PUSH0 DUP1 SLOAD SWAP1 PUSH2 0x100 EXP SWAP1 DIV PUSH20 0xFFFFFFFFFFFFFFFFFFFFFFFFFFFFFFFFFFFFFFFF AND PUSH20 0xFFFFFFFFFFFFFFFFFFFFFFFFFFFFFFFFFFFFFFFF AND CALLER PUSH20 0xFFFFFFFFFFFFFFFFFFFFFFFFFFFFFFFFFFFFFFFF AND SUB PUSH2 0x3AD JUMPI PUSH1 0x40 MLOAD PUSH32 0x8C379A000000000000000000000000000000000000000000000000000000000 DUP2 MSTORE PUSH1 0x4 ADD PUSH2 0x3A4 SWAP1 PUSH2 0x7F0 JUMP JUMPDEST PUSH1 0x40 MLOAD DUP1 SWAP2 SUB SWAP1 REVERT JUMPDEST DUP2 CALLVALUE EQ PUSH2 0x3EF JUMPI PUSH1 0x40 MLOAD PUSH32 0x8C379A000000000000000000000000000000000000000000000000000000000 DUP2 MSTORE PUSH1 0x4 ADD PUSH2 0x3E6 SWAP1 PUSH2 0x858 JUMP JUMPDEST PUSH1 0x40 MLOAD DUP1 SWAP2 SUB SWAP1 REVERT JUMPDEST PUSH0 PUSH20 0xFFFFFFFFFFFFFFFFFFFFFFFFFFFFFFFFFFFFFFFF AND PUSH1 0x1 PUSH0 SWAP1 SLOAD SWAP1 PUSH2 0x100 EXP SWAP1 DIV PUSH20 0xFFFFFFFFFFFFFFFFFFFFFFFFFFFFFFFFFFFFFFFF AND PUSH20 0xFFFFFFFFFFFFFFFFFFFFFFFFFFFFFFFFFFFFFFFF AND EQ PUSH2 0x47E JUMPI PUSH1 0x40 MLOAD PUSH32 0x8C379A000000000000000000000000000000000000000000000000000000000 DUP2 MSTORE PUSH1 0x4 ADD PUSH2 0x475 SWAP1 PUSH2 0x8C0 JUMP JUMPDEST PUSH1 0x40 MLOAD DUP1 SWAP2 SUB SWAP1 REVERT JUMPDEST DUP2 PUSH1 0x2 DUP2 SWAP1 SSTORE POP DUP1 PUSH1 0x3 DUP2 SWAP1 SSTORE POP CALLER PUSH1 0x1 PUSH0 PUSH2 0x100 EXP DUP2 SLOAD DUP2 PUSH20 0xFFFFFFFFFFFFFFFFFFFFFFFFFFFFFFFFFFFFFFFF MUL NOT AND SWAP1 DUP4 PUSH20 0xFFFFFFFFFFFFFFFFFFFFFFFFFFFFFFFFFFFFFFFF AND MUL OR SWAP1 SSTORE POP PUSH0 TIMESTAMP SWAP1 POP PUSH1 0x3 SLOAD DUP2 PUSH2 0x4DE SWAP2 SWAP1 PUSH2 0x90B JUMP JUMPDEST PUSH1 0x4 DUP2 SWAP1 SSTORE POP PUSH1 0x1 PUSH0 SWAP1 SLOAD SWAP1 PUSH2 0x100 EXP SWAP1 DIV PUSH20 0xFFFFFFFFFFFFFFFFFFFFFFFFFFFFFFFFFFFFFFFF AND PUSH20 0xFFFFFFFFFFFFFFFFFFFFFFFFFFFFFFFFFFFFFFFF AND PUSH32 0xFBAB064A5021E4E5FE3EA95C55580F8E9D2D5C6BED361E8C2437D8555B7C3F75 DUP3 PUSH1 0x4 SLOAD PUSH1 0x40 MLOAD PUSH2 0x54F SWAP3 SWAP2 SWAP1 PUSH2 0x93E JUMP JUMPDEST PUSH1 0x40 MLOAD DUP1 SWAP2 SUB SWAP1 LOG2 POP POP POP JUMP JUMPDEST PUSH1 0x3 SLOAD DUP2 JUMP JUMPDEST PUSH0 DUP1 SLOAD SWAP1 PUSH2 0x100 EXP SWAP1 DIV PUSH20 0xFFFFFFFFFFFFFFFFFFFFFFFFFFFFFFFFFFFFFFFF AND DUP2 JUMP JUMPDEST PUSH0 PUSH20 0xFFFFFFFFFFFFFFFFFFFFFFFFFFFFFFFFFFFFFFFF DUP3 AND SWAP1 POP SWAP2 SWAP1 POP JUMP JUMPDEST PUSH0 PUSH2 0x5AE DUP3 PUSH2 0x585 JUMP JUMPDEST SWAP1 POP SWAP2 SWAP1 POP JUMP JUMPDEST PUSH2 0x5BE DUP2 PUSH2 0x5A4 JUMP JUMPDEST DUP3 MSTORE POP POP JUMP JUMPDEST PUSH0 PUSH1 0x20 DUP3 ADD SWAP1 POP PUSH2 0x5D7 PUSH0 DUP4 ADD DUP5 PUSH2 0x5B5 JUMP JUMPDEST SWAP3 SWAP2 POP POP JUMP JUMPDEST PUSH0 DUP2 SWAP1 POP SWAP2 SWAP1 POP JUMP JUMPDEST PUSH2 0x5EF DUP2 PUSH2 0x5DD JUMP JUMPDEST DUP3 MSTORE POP POP JUMP JUMPDEST PUSH0 PUSH1 0x20 DUP3 ADD SWAP1 POP PUSH2 0x608 PUSH0 DUP4 ADD DUP5 PUSH2 0x5E6 JUMP JUMPDEST SWAP3 SWAP2 POP POP JUMP JUMPDEST PUSH0 DUP1 REVERT JUMPDEST PUSH2 0x61B DUP2 PUSH2 0x5DD JUMP JUMPDEST DUP2 EQ PUSH2 0x625 JUMPI PUSH0 DUP1 REVERT JUMPDEST POP JUMP JUMPDEST PUSH0 DUP2 CALLDATALOAD SWAP1 POP PUSH2 0x636 DUP2 PUSH2 0x612 JUMP JUMPDEST SWAP3 SWAP2 POP POP JUMP JUMPDEST PUSH0 DUP1 PUSH1 0x40 DUP4 DUP6 SUB SLT ISZERO PUSH2 0x652 JUMPI PUSH2 0x651 PUSH2 0x60E JUMP JUMPDEST JUMPDEST PUSH0 PUSH2 0x65F DUP6 DUP3 DUP7 ADD PUSH2 0x628 JUMP JUMPDEST SWAP3 POP POP PUSH1 0x20 PUSH2 0x670 DUP6 DUP3 DUP7 ADD PUSH2 0x628 JUMP JUMPDEST SWAP2 POP POP SWAP3 POP SWAP3 SWAP1 POP JUMP JUMPDEST PUSH0 DUP3 DUP3 MSTORE PUSH1 0x20 DUP3 ADD SWAP1 POP SWAP3 SWAP2 POP POP JUMP JUMPDEST PUSH32 0x4F6E6C79207468652072656E7465722063616E2072657475726E207468652061 PUSH0 DUP3 ADD MSTORE PUSH32 0x7373657400000000000000000000000000000000000000000000000000000000 PUSH1 0x20 DUP3 ADD MSTORE POP JUMP JUMPDEST PUSH0 PUSH2 0x6E4 PUSH1 0x24 DUP4 PUSH2 0x67A JUMP JUMPDEST SWAP2 POP PUSH2 0x6EF DUP3 PUSH2 0x68A JUMP JUMPDEST PUSH1 0x40 DUP3 ADD SWAP1 POP SWAP2 SWAP1 POP JUMP JUMPDEST PUSH0 PUSH1 0x20 DUP3 ADD SWAP1 POP DUP2 DUP2 SUB PUSH0 DUP4 ADD MSTORE PUSH2 0x711 DUP2 PUSH2 0x6D8 JUMP JUMPDEST SWAP1 POP SWAP2 SWAP1 POP JUMP JUMPDEST PUSH32 0x52656E74616C20706572696F6420686173206E6F7420656E6465640000000000 PUSH0 DUP3 ADD MSTORE POP JUMP JUMPDEST PUSH0 PUSH2 0x74C PUSH1 0x1B DUP4 PUSH2 0x67A JUMP JUMPDEST SWAP2 POP PUSH2 0x757 DUP3 PUSH2 0x718 JUMP JUMPDEST PUSH1 0x20 DUP3 ADD SWAP1 POP SWAP2 SWAP1 POP JUMP JUMPDEST PUSH0 PUSH1 0x20 DUP3 ADD SWAP1 POP DUP2 DUP2 SUB PUSH0 DUP4 ADD MSTORE PUSH2 0x779 DUP2 PUSH2 0x740 JUMP JUMPDEST SWAP1 POP SWAP2 SWAP1 POP JUMP JUMPDEST PUSH32 0x4F776E65722063616E6E6F742072656E74207468656972206F776E2061737365 PUSH0 DUP3 ADD MSTORE PUSH32 0x7400000000000000000000000000000000000000000000000000000000000000 PUSH1 0x20 DUP3 ADD MSTORE POP JUMP JUMPDEST PUSH0 PUSH2 0x7DA PUSH1 0x21 DUP4 PUSH2 0x67A JUMP JUMPDEST SWAP2 POP PUSH2 0x7E5 DUP3 PUSH2 0x780 JUMP JUMPDEST PUSH1 0x40 DUP3 ADD SWAP1 POP SWAP2 SWAP1 POP JUMP JUMPDEST PUSH0 PUSH1 0x20 DUP3 ADD SWAP1 POP DUP2 DUP2 SUB PUSH0 DUP4 ADD MSTORE PUSH2 0x807 DUP2 PUSH2 0x7CE JUMP JUMPDEST SWAP1 POP SWAP2 SWAP1 POP JUMP JUMPDEST PUSH32 0x496E636F72726563742072656E74616C20666565000000000000000000000000 PUSH0 DUP3 ADD MSTORE POP JUMP JUMPDEST PUSH0 PUSH2 0x842 PUSH1 0x14 DUP4 PUSH2 0x67A JUMP JUMPDEST SWAP2 POP PUSH2 0x84D DUP3 PUSH2 0x80E JUMP JUMPDEST PUSH1 0x20 DUP3 ADD SWAP1 POP SWAP2 SWAP1 POP JUMP JUMPDEST PUSH0 PUSH1 0x20 DUP3 ADD SWAP1 POP DUP2 DUP2 SUB PUSH0 DUP4 ADD MSTORE PUSH2 0x86F DUP2 PUSH2 0x836 JUMP JUMPDEST SWAP1 POP SWAP2 SWAP1 POP JUMP JUMPDEST PUSH32 0x417373657420697320616C72656164792072656E746564000000000000000000 PUSH0 DUP3 ADD MSTORE POP JUMP JUMPDEST PUSH0 PUSH2 0x8AA PUSH1 0x17 DUP4 PUSH2 0x67A JUMP JUMPDEST SWAP2 POP PUSH2 0x8B5 DUP3 PUSH2 0x876 JUMP JUMPDEST PUSH1 0x20 DUP3 ADD SWAP1 POP SWAP2 SWAP1 POP JUMP JUMPDEST PUSH0 PUSH1 0x20 DUP3 ADD SWAP1 POP DUP2 DUP2 SUB PUSH0 DUP4 ADD MSTORE PUSH2 0x8D7 DUP2 PUSH2 0x89E JUMP JUMPDEST SWAP1 POP SWAP2 SWAP1 POP JUMP JUMPDEST PUSH32 0x4E487B7100000000000000000000000000000000000000000000000000000000 PUSH0 MSTORE PUSH1 0x11 PUSH1 0x4 MSTORE PUSH1 0x24 PUSH0 REVERT JUMPDEST PUSH0 PUSH2 0x915 DUP3 PUSH2 0x5DD JUMP JUMPDEST SWAP2 POP PUSH2 0x920 DUP4 PUSH2 0x5DD JUMP JUMPDEST SWAP3 POP DUP3 DUP3 ADD SWAP1 POP DUP1 DUP3 GT ISZERO PUSH2 0x938 JUMPI PUSH2 0x937 PUSH2 0x8DE JUMP JUMPDEST JUMPDEST SWAP3 SWAP2 POP POP JUMP JUMPDEST PUSH0 PUSH1 0x40 DUP3 ADD SWAP1 POP PUSH2 0x951 PUSH0 DUP4 ADD DUP6 PUSH2 0x5E6 JUMP JUMPDEST PUSH2 0x95E PUSH1 0x20 DUP4 ADD DUP5 PUSH2 0x5E6 JUMP JUMPDEST SWAP4 SWAP3 POP POP POP JUMP INVALID LOG2 PUSH5 0x6970667358 0x22 SLT KECCAK256 DUP14 MULMOD 0xC8 0xB8 CALLDATASIZE GAS COINBASE 0xE0 SWAP7 0x27 MSIZE 0x28 SWAP5 DUP14 MSTORE8 0xE0 0xD RETURNDATACOPY 0xEC DUP14 MSTORE8 0xB2 PUSH31 0x443E9A5E985E96D63464736F6C634300081A00330000000000000000000000 "
				},
				"gasEstimates": {
					"creation": {
						"codeDepositCost": "491800",
						"executionCost": "24787",
						"totalCost": "516587"
					},
					"external": {
						"endTime()": "2448",
						"owner()": "2571",
						"rent(uint256,uint256)": "infinite",
						"rentalFee()": "2425",
						"rentalPeriod()": "2469",
						"renter()": "2509",
						"returnAsset()": "32040"
					}
				},
				"methodIdentifiers": {
					"endTime()": "3197cbb6",
					"owner()": "8da5cb5b",
					"rent(uint256,uint256)": "783a112b",
					"rentalFee()": "4876956b",
					"rentalPeriod()": "8c4b8475",
					"renter()": "2e88ab0b",
					"returnAsset()": "39deeec1"
				}
			},
			"storageLayout": {
				"storage": [
					{
						"astId": 3,
						"contract": "renting and leasing.sol:RentalContract",
						"label": "owner",
						"offset": 0,
						"slot": "0",
						"type": "t_address"
					},
					{
						"astId": 5,
						"contract": "renting and leasing.sol:RentalContract",
						"label": "renter",
						"offset": 0,
						"slot": "1",
						"type": "t_address"
					},
					{
						"astId": 7,
						"contract": "renting and leasing.sol:RentalContract",
						"label": "rentalFee",
						"offset": 0,
						"slot": "2",
						"type": "t_uint256"
					},
					{
						"astId": 9,
						"contract": "renting and leasing.sol:RentalContract",
						"label": "rentalPeriod",
						"offset": 0,
						"slot": "3",
						"type": "t_uint256"
					},
					{
						"astId": 11,
						"contract": "renting and leasing.sol:RentalContract",
						"label": "endTime",
						"offset": 0,
						"slot": "4",
						"type": "t_uint256"
					}
				],
				"types": {
					"t_address": {
						"encoding": "inplace",
						"label": "address",
						"numberOfBytes": "20"
					},
					"t_uint256": {
						"encoding": "inplace",
						"label": "uint256",
						"numberOfBytes": "32"
					}
				}
			},
			"userdoc": {
				"kind": "user",
				"methods": {},
				"version": 1
			}
		}
	}
}