{
	"holiday gift.sol": {
		"HolidayWishes": {
			"abi": [
				{
					"inputs": [
						{
							"internalType": "string",
							"name": "_wish",
							"type": "string"
						}
					],
					"name": "addWish",
					"outputs": [],
					"stateMutability": "nonpayable",
					"type": "function"
				},
				{
					"inputs": [],
					"name": "getWishes",
					"outputs": [
						{
							"internalType": "string[]",
							"name": "",
							"type": "string[]"
						}
					],
					"stateMutability": "view",
					"type": "function"
				},
				{
					"inputs": [
						{
							"internalType": "uint256",
							"name": "",
							"type": "uint256"
						}
					],
					"name": "wishes",
					"outputs": [
						{
							"internalType": "string",
							"name": "",
							"type": "string"
						}
					],
					"stateMutability": "view",
					"type": "function"
				}
			],
			"devdoc": {
				"kind": "dev",
				"methods": {},
				"version": 1
			},
			"evm": {
				"assembly": "    /* \"holiday gift.sol\":60:401  contract HolidayWishes {... */\n  mstore(0x40, 0x80)\n  callvalue\n  dup1\n  iszero\n  tag_1\n  jumpi\n  0x00\n  dup1\n  revert\ntag_1:\n  pop\n  dataSize(sub_0)\n  dup1\n  dataOffset(sub_0)\n  0x00\n  codecopy\n  0x00\n  return\nstop\n\nsub_0: assembly {\n        /* \"holiday gift.sol\":60:401  contract HolidayWishes {... */\n      mstore(0x40, 0x80)\n      callvalue\n      dup1\n      iszero\n      tag_1\n      jumpi\n      0x00\n      dup1\n      revert\n    tag_1:\n      pop\n      jumpi(tag_2, lt(calldatasize, 0x04))\n      shr(0xe0, calldataload(0x00))\n      dup1\n      0x0153b82b\n      eq\n      tag_3\n      jumpi\n      dup1\n      0x15c39a5a\n      eq\n      tag_4\n      jumpi\n      dup1\n      0x8820e466\n      eq\n      tag_5\n      jumpi\n    tag_2:\n      0x00\n      dup1\n      revert\n        /* \"holiday gift.sol\":307:398  function getWishes() public view returns (string[] memory) {... */\n    tag_3:\n      tag_6\n      tag_7\n      jump\t// in\n    tag_6:\n      mload(0x40)\n      tag_8\n      swap2\n      swap1\n      tag_9\n      jump\t// in\n    tag_8:\n      mload(0x40)\n      dup1\n      swap2\n      sub\n      swap1\n      return\n        /* \"holiday gift.sol\":182:264  function addWish(string memory _wish) public {... */\n    tag_4:\n      tag_10\n      0x04\n      dup1\n      calldatasize\n      sub\n      dup2\n      add\n      swap1\n      tag_11\n      swap2\n      swap1\n      tag_12\n      jump\t// in\n    tag_11:\n      tag_13\n      jump\t// in\n    tag_10:\n      stop\n        /* \"holiday gift.sol\":90:112  string[] public wishes */\n    tag_5:\n      tag_14\n      0x04\n      dup1\n      calldatasize\n      sub\n      dup2\n      add\n      swap1\n      tag_15\n      swap2\n      swap1\n      tag_16\n      jump\t// in\n    tag_15:\n      tag_17\n      jump\t// in\n    tag_14:\n      mload(0x40)\n      tag_18\n      swap2\n      swap1\n      tag_19\n      jump\t// in\n    tag_18:\n      mload(0x40)\n      dup1\n      swap2\n      sub\n      swap1\n      return\n        /* \"holiday gift.sol\":307:398  function getWishes() public view returns (string[] memory) {... */\n    tag_7:\n        /* \"holiday gift.sol\":349:364  string[] memory */\n      0x60\n        /* \"holiday gift.sol\":384:390  wishes */\n      0x00\n        /* \"holiday gift.sol\":377:390  return wishes */\n      dup1\n      sload\n      dup1\n      0x20\n      mul\n      0x20\n      add\n      mload(0x40)\n      swap1\n      dup2\n      add\n      0x40\n      mstore\n      dup1\n      swap3\n      swap2\n      swap1\n      dup2\n      dup2\n      mstore\n      0x20\n      add\n      0x00\n      swap1\n    tag_21:\n      dup3\n      dup3\n      lt\n      iszero\n      tag_22\n      jumpi\n      dup4\n      dup3\n      swap1\n      0x00\n      mstore\n      keccak256(0x00, 0x20)\n      add\n      dup1\n      sload\n      tag_24\n      swap1\n      tag_25\n      jump\t// in\n    tag_24:\n      dup1\n      0x1f\n      add\n      0x20\n      dup1\n      swap2\n      div\n      mul\n      0x20\n      add\n      mload(0x40)\n      swap1\n      dup2\n      add\n      0x40\n      mstore\n      dup1\n      swap3\n      swap2\n      swap1\n      dup2\n      dup2\n      mstore\n      0x20\n      add\n      dup3\n      dup1\n      sload\n      tag_26\n      swap1\n      tag_25\n      jump\t// in\n    tag_26:\n      dup1\n      iszero\n      tag_27\n      jumpi\n      dup1\n      0x1f\n      lt\n      tag_28\n      jumpi\n      0x0100\n      dup1\n      dup4\n      sload\n      div\n      mul\n      dup4\n      mstore\n      swap2\n      0x20\n      add\n      swap2\n      jump(tag_27)\n    tag_28:\n      dup3\n      add\n      swap2\n      swap1\n      0x00\n      mstore\n      keccak256(0x00, 0x20)\n      swap1\n    tag_29:\n      dup2\n      sload\n      dup2\n      mstore\n      swap1\n      0x01\n      add\n      swap1\n      0x20\n      add\n      dup1\n      dup4\n      gt\n      tag_29\n      jumpi\n      dup3\n      swap1\n      sub\n      0x1f\n      and\n      dup3\n      add\n      swap2\n    tag_27:\n      pop\n      pop\n      pop\n      pop\n      pop\n      dup2\n      mstore\n      0x20\n      add\n      swap1\n      0x01\n      add\n      swap1\n      jump(tag_21)\n    tag_22:\n      pop\n      pop\n      pop\n      pop\n      swap1\n      pop\n        /* \"holiday gift.sol\":307:398  function getWishes() public view returns (string[] memory) {... */\n      swap1\n      jump\t// out\n        /* \"holiday gift.sol\":182:264  function addWish(string memory _wish) public {... */\n    tag_13:\n        /* \"holiday gift.sol\":238:244  wishes */\n      0x00\n        /* \"holiday gift.sol\":250:255  _wish */\n      dup2\n        /* \"holiday gift.sol\":238:256  wishes.push(_wish) */\n      swap1\n      dup1\n      0x01\n      dup2\n      sload\n      add\n      dup1\n      dup3\n      sstore\n      dup1\n      swap2\n      pop\n      pop\n      0x01\n      swap1\n      sub\n      swap1\n      0x00\n      mstore\n      keccak256(0x00, 0x20)\n      add\n      0x00\n      swap1\n      swap2\n      swap1\n      swap2\n      swap1\n      swap2\n      pop\n      swap1\n      dup2\n      tag_32\n      swap2\n      swap1\n      tag_33\n      jump\t// in\n    tag_32:\n      pop\n        /* \"holiday gift.sol\":182:264  function addWish(string memory _wish) public {... */\n      pop\n      jump\t// out\n        /* \"holiday gift.sol\":90:112  string[] public wishes */\n    tag_17:\n      0x00\n      dup2\n      dup2\n      sload\n      dup2\n      lt\n      tag_34\n      jumpi\n      0x00\n      dup1\n      revert\n    tag_34:\n      swap1\n      0x00\n      mstore\n      keccak256(0x00, 0x20)\n      add\n      0x00\n      swap2\n      pop\n      swap1\n      pop\n      dup1\n      sload\n      tag_36\n      swap1\n      tag_25\n      jump\t// in\n    tag_36:\n      dup1\n      0x1f\n      add\n      0x20\n      dup1\n      swap2\n      div\n      mul\n      0x20\n      add\n      mload(0x40)\n      swap1\n      dup2\n      add\n      0x40\n      mstore\n      dup1\n      swap3\n      swap2\n      swap1\n      dup2\n      dup2\n      mstore\n      0x20\n      add\n      dup3\n      dup1\n      sload\n      tag_37\n      swap1\n      tag_25\n      jump\t// in\n    tag_37:\n      dup1\n      iszero\n      tag_38\n      jumpi\n      dup1\n      0x1f\n      lt\n      tag_39\n      jumpi\n      0x0100\n      dup1\n      dup4\n      sload\n      div\n      mul\n      dup4\n      mstore\n      swap2\n      0x20\n      add\n      swap2\n      jump(tag_38)\n    tag_39:\n      dup3\n      add\n      swap2\n      swap1\n      0x00\n      mstore\n      keccak256(0x00, 0x20)\n      swap1\n    tag_40:\n      dup2\n      sload\n      dup2\n      mstore\n      swap1\n      0x01\n      add\n      swap1\n      0x20\n      add\n      dup1\n      dup4\n      gt\n      tag_40\n      jumpi\n      dup3\n      swap1\n      sub\n      0x1f\n      and\n      dup3\n      add\n      swap2\n    tag_38:\n      pop\n      pop\n      pop\n      pop\n      pop\n      dup2\n      jump\t// out\n        /* \"#utility.yul\":7:131   */\n    tag_41:\n        /* \"#utility.yul\":84:90   */\n      0x00\n        /* \"#utility.yul\":118:123   */\n      dup2\n        /* \"#utility.yul\":112:124   */\n      mload\n        /* \"#utility.yul\":102:124   */\n      swap1\n      pop\n        /* \"#utility.yul\":7:131   */\n      swap2\n      swap1\n      pop\n      jump\t// out\n        /* \"#utility.yul\":137:331   */\n    tag_42:\n        /* \"#utility.yul\":246:257   */\n      0x00\n        /* \"#utility.yul\":280:286   */\n      dup3\n        /* \"#utility.yul\":275:278   */\n      dup3\n        /* \"#utility.yul\":268:287   */\n      mstore\n        /* \"#utility.yul\":320:324   */\n      0x20\n        /* \"#utility.yul\":315:318   */\n      dup3\n        /* \"#utility.yul\":311:325   */\n      add\n        /* \"#utility.yul\":296:325   */\n      swap1\n      pop\n        /* \"#utility.yul\":137:331   */\n      swap3\n      swap2\n      pop\n      pop\n      jump\t// out\n        /* \"#utility.yul\":337:479   */\n    tag_43:\n        /* \"#utility.yul\":414:418   */\n      0x00\n        /* \"#utility.yul\":437:440   */\n      dup2\n        /* \"#utility.yul\":429:440   */\n      swap1\n      pop\n        /* \"#utility.yul\":467:471   */\n      0x20\n        /* \"#utility.yul\":462:465   */\n      dup3\n        /* \"#utility.yul\":458:472   */\n      add\n        /* \"#utility.yul\":450:472   */\n      swap1\n      pop\n        /* \"#utility.yul\":337:479   */\n      swap2\n      swap1\n      pop\n      jump\t// out\n        /* \"#utility.yul\":485:584   */\n    tag_44:\n        /* \"#utility.yul\":537:543   */\n      0x00\n        /* \"#utility.yul\":571:576   */\n      dup2\n        /* \"#utility.yul\":565:577   */\n      mload\n        /* \"#utility.yul\":555:577   */\n      swap1\n      pop\n        /* \"#utility.yul\":485:584   */\n      swap2\n      swap1\n      pop\n      jump\t// out\n        /* \"#utility.yul\":590:749   */\n    tag_45:\n        /* \"#utility.yul\":664:675   */\n      0x00\n        /* \"#utility.yul\":698:704   */\n      dup3\n        /* \"#utility.yul\":693:696   */\n      dup3\n        /* \"#utility.yul\":686:705   */\n      mstore\n        /* \"#utility.yul\":738:742   */\n      0x20\n        /* \"#utility.yul\":733:736   */\n      dup3\n        /* \"#utility.yul\":729:743   */\n      add\n        /* \"#utility.yul\":714:743   */\n      swap1\n      pop\n        /* \"#utility.yul\":590:749   */\n      swap3\n      swap2\n      pop\n      pop\n      jump\t// out\n        /* \"#utility.yul\":755:894   */\n    tag_46:\n        /* \"#utility.yul\":844:850   */\n      dup3\n        /* \"#utility.yul\":839:842   */\n      dup2\n        /* \"#utility.yul\":834:837   */\n      dup4\n        /* \"#utility.yul\":828:851   */\n      mcopy\n        /* \"#utility.yul\":885:886   */\n      0x00\n        /* \"#utility.yul\":876:882   */\n      dup4\n        /* \"#utility.yul\":871:874   */\n      dup4\n        /* \"#utility.yul\":867:883   */\n      add\n        /* \"#utility.yul\":860:887   */\n      mstore\n        /* \"#utility.yul\":755:894   */\n      pop\n      pop\n      pop\n      jump\t// out\n        /* \"#utility.yul\":900:1002   */\n    tag_47:\n        /* \"#utility.yul\":941:947   */\n      0x00\n        /* \"#utility.yul\":992:994   */\n      0x1f\n        /* \"#utility.yul\":988:995   */\n      not\n        /* \"#utility.yul\":983:985   */\n      0x1f\n        /* \"#utility.yul\":976:981   */\n      dup4\n        /* \"#utility.yul\":972:986   */\n      add\n        /* \"#utility.yul\":968:996   */\n      and\n        /* \"#utility.yul\":958:996   */\n      swap1\n      pop\n        /* \"#utility.yul\":900:1002   */\n      swap2\n      swap1\n      pop\n      jump\t// out\n        /* \"#utility.yul\":1008:1365   */\n    tag_48:\n        /* \"#utility.yul\":1086:1089   */\n      0x00\n        /* \"#utility.yul\":1114:1153   */\n      tag_94\n        /* \"#utility.yul\":1147:1152   */\n      dup3\n        /* \"#utility.yul\":1114:1153   */\n      tag_44\n      jump\t// in\n    tag_94:\n        /* \"#utility.yul\":1169:1230   */\n      tag_95\n        /* \"#utility.yul\":1223:1229   */\n      dup2\n        /* \"#utility.yul\":1218:1221   */\n      dup6\n        /* \"#utility.yul\":1169:1230   */\n      tag_45\n      jump\t// in\n    tag_95:\n        /* \"#utility.yul\":1162:1230   */\n      swap4\n      pop\n        /* \"#utility.yul\":1239:1304   */\n      tag_96\n        /* \"#utility.yul\":1297:1303   */\n      dup2\n        /* \"#utility.yul\":1292:1295   */\n      dup6\n        /* \"#utility.yul\":1285:1289   */\n      0x20\n        /* \"#utility.yul\":1278:1283   */\n      dup7\n        /* \"#utility.yul\":1274:1290   */\n      add\n        /* \"#utility.yul\":1239:1304   */\n      tag_46\n      jump\t// in\n    tag_96:\n        /* \"#utility.yul\":1329:1358   */\n      tag_97\n        /* \"#utility.yul\":1351:1357   */\n      dup2\n        /* \"#utility.yul\":1329:1358   */\n      tag_47\n      jump\t// in\n    tag_97:\n        /* \"#utility.yul\":1324:1327   */\n      dup5\n        /* \"#utility.yul\":1320:1359   */\n      add\n        /* \"#utility.yul\":1313:1359   */\n      swap2\n      pop\n        /* \"#utility.yul\":1090:1365   */\n      pop\n        /* \"#utility.yul\":1008:1365   */\n      swap3\n      swap2\n      pop\n      pop\n      jump\t// out\n        /* \"#utility.yul\":1371:1567   */\n    tag_49:\n        /* \"#utility.yul\":1460:1470   */\n      0x00\n        /* \"#utility.yul\":1495:1561   */\n      tag_99\n        /* \"#utility.yul\":1557:1560   */\n      dup4\n        /* \"#utility.yul\":1549:1555   */\n      dup4\n        /* \"#utility.yul\":1495:1561   */\n      tag_48\n      jump\t// in\n    tag_99:\n        /* \"#utility.yul\":1481:1561   */\n      swap1\n      pop\n        /* \"#utility.yul\":1371:1567   */\n      swap3\n      swap2\n      pop\n      pop\n      jump\t// out\n        /* \"#utility.yul\":1573:1696   */\n    tag_50:\n        /* \"#utility.yul\":1653:1657   */\n      0x00\n        /* \"#utility.yul\":1685:1689   */\n      0x20\n        /* \"#utility.yul\":1680:1683   */\n      dup3\n        /* \"#utility.yul\":1676:1690   */\n      add\n        /* \"#utility.yul\":1668:1690   */\n      swap1\n      pop\n        /* \"#utility.yul\":1573:1696   */\n      swap2\n      swap1\n      pop\n      jump\t// out\n        /* \"#utility.yul\":1730:2721   */\n    tag_51:\n        /* \"#utility.yul\":1869:1872   */\n      0x00\n        /* \"#utility.yul\":1898:1962   */\n      tag_102\n        /* \"#utility.yul\":1956:1961   */\n      dup3\n        /* \"#utility.yul\":1898:1962   */\n      tag_41\n      jump\t// in\n    tag_102:\n        /* \"#utility.yul\":1978:2074   */\n      tag_103\n        /* \"#utility.yul\":2067:2073   */\n      dup2\n        /* \"#utility.yul\":2062:2065   */\n      dup6\n        /* \"#utility.yul\":1978:2074   */\n      tag_42\n      jump\t// in\n    tag_103:\n        /* \"#utility.yul\":1971:2074   */\n      swap4\n      pop\n        /* \"#utility.yul\":2100:2103   */\n      dup4\n        /* \"#utility.yul\":2145:2149   */\n      0x20\n        /* \"#utility.yul\":2137:2143   */\n      dup3\n        /* \"#utility.yul\":2133:2150   */\n      mul\n        /* \"#utility.yul\":2128:2131   */\n      dup6\n        /* \"#utility.yul\":2124:2151   */\n      add\n        /* \"#utility.yul\":2175:2241   */\n      tag_104\n        /* \"#utility.yul\":2235:2240   */\n      dup6\n        /* \"#utility.yul\":2175:2241   */\n      tag_43\n      jump\t// in\n    tag_104:\n        /* \"#utility.yul\":2264:2271   */\n      dup1\n        /* \"#utility.yul\":2295:2296   */\n      0x00\n        /* \"#utility.yul\":2280:2676   */\n    tag_105:\n        /* \"#utility.yul\":2305:2311   */\n      dup6\n        /* \"#utility.yul\":2302:2303   */\n      dup2\n        /* \"#utility.yul\":2299:2312   */\n      lt\n        /* \"#utility.yul\":2280:2676   */\n      iszero\n      tag_107\n      jumpi\n        /* \"#utility.yul\":2376:2385   */\n      dup5\n        /* \"#utility.yul\":2370:2374   */\n      dup5\n        /* \"#utility.yul\":2366:2386   */\n      sub\n        /* \"#utility.yul\":2361:2364   */\n      dup10\n        /* \"#utility.yul\":2354:2387   */\n      mstore\n        /* \"#utility.yul\":2427:2433   */\n      dup2\n        /* \"#utility.yul\":2421:2434   */\n      mload\n        /* \"#utility.yul\":2455:2539   */\n      tag_108\n        /* \"#utility.yul\":2534:2538   */\n      dup6\n        /* \"#utility.yul\":2519:2532   */\n      dup3\n        /* \"#utility.yul\":2455:2539   */\n      tag_49\n      jump\t// in\n    tag_108:\n        /* \"#utility.yul\":2447:2539   */\n      swap5\n      pop\n        /* \"#utility.yul\":2562:2632   */\n      tag_109\n        /* \"#utility.yul\":2625:2631   */\n      dup4\n        /* \"#utility.yul\":2562:2632   */\n      tag_50\n      jump\t// in\n    tag_109:\n        /* \"#utility.yul\":2552:2632   */\n      swap3\n      pop\n        /* \"#utility.yul\":2661:2665   */\n      0x20\n        /* \"#utility.yul\":2656:2659   */\n      dup11\n        /* \"#utility.yul\":2652:2666   */\n      add\n        /* \"#utility.yul\":2645:2666   */\n      swap10\n      pop\n        /* \"#utility.yul\":2340:2676   */\n      pop\n        /* \"#utility.yul\":2327:2328   */\n      0x01\n        /* \"#utility.yul\":2324:2325   */\n      dup2\n        /* \"#utility.yul\":2320:2329   */\n      add\n        /* \"#utility.yul\":2315:2329   */\n      swap1\n      pop\n        /* \"#utility.yul\":2280:2676   */\n      jump(tag_105)\n    tag_107:\n        /* \"#utility.yul\":2284:2298   */\n      pop\n        /* \"#utility.yul\":2692:2696   */\n      dup3\n        /* \"#utility.yul\":2685:2696   */\n      swap8\n      pop\n        /* \"#utility.yul\":2712:2715   */\n      dup8\n        /* \"#utility.yul\":2705:2715   */\n      swap6\n      pop\n        /* \"#utility.yul\":1874:2721   */\n      pop\n      pop\n      pop\n      pop\n      pop\n        /* \"#utility.yul\":1730:2721   */\n      swap3\n      swap2\n      pop\n      pop\n      jump\t// out\n        /* \"#utility.yul\":2727:3140   */\n    tag_9:\n        /* \"#utility.yul\":2890:2894   */\n      0x00\n        /* \"#utility.yul\":2928:2930   */\n      0x20\n        /* \"#utility.yul\":2917:2926   */\n      dup3\n        /* \"#utility.yul\":2913:2931   */\n      add\n        /* \"#utility.yul\":2905:2931   */\n      swap1\n      pop\n        /* \"#utility.yul\":2977:2986   */\n      dup2\n        /* \"#utility.yul\":2971:2975   */\n      dup2\n        /* \"#utility.yul\":2967:2987   */\n      sub\n        /* \"#utility.yul\":2963:2964   */\n      0x00\n        /* \"#utility.yul\":2952:2961   */\n      dup4\n        /* \"#utility.yul\":2948:2965   */\n      add\n        /* \"#utility.yul\":2941:2988   */\n      mstore\n        /* \"#utility.yul\":3005:3133   */\n      tag_111\n        /* \"#utility.yul\":3128:3132   */\n      dup2\n        /* \"#utility.yul\":3119:3125   */\n      dup5\n        /* \"#utility.yul\":3005:3133   */\n      tag_51\n      jump\t// in\n    tag_111:\n        /* \"#utility.yul\":2997:3133   */\n      swap1\n      pop\n        /* \"#utility.yul\":2727:3140   */\n      swap3\n      swap2\n      pop\n      pop\n      jump\t// out\n        /* \"#utility.yul\":3146:3221   */\n    tag_52:\n        /* \"#utility.yul\":3179:3185   */\n      0x00\n        /* \"#utility.yul\":3212:3214   */\n      0x40\n        /* \"#utility.yul\":3206:3215   */\n      mload\n        /* \"#utility.yul\":3196:3215   */\n      swap1\n      pop\n        /* \"#utility.yul\":3146:3221   */\n      swap1\n      jump\t// out\n        /* \"#utility.yul\":3227:3344   */\n    tag_53:\n        /* \"#utility.yul\":3336:3337   */\n      0x00\n        /* \"#utility.yul\":3333:3334   */\n      dup1\n        /* \"#utility.yul\":3326:3338   */\n      revert\n        /* \"#utility.yul\":3350:3467   */\n    tag_54:\n        /* \"#utility.yul\":3459:3460   */\n      0x00\n        /* \"#utility.yul\":3456:3457   */\n      dup1\n        /* \"#utility.yul\":3449:3461   */\n      revert\n        /* \"#utility.yul\":3473:3590   */\n    tag_55:\n        /* \"#utility.yul\":3582:3583   */\n      0x00\n        /* \"#utility.yul\":3579:3580   */\n      dup1\n        /* \"#utility.yul\":3572:3584   */\n      revert\n        /* \"#utility.yul\":3596:3713   */\n    tag_56:\n        /* \"#utility.yul\":3705:3706   */\n      0x00\n        /* \"#utility.yul\":3702:3703   */\n      dup1\n        /* \"#utility.yul\":3695:3707   */\n      revert\n        /* \"#utility.yul\":3719:3899   */\n    tag_57:\n        /* \"#utility.yul\":3767:3844   */\n      0x4e487b7100000000000000000000000000000000000000000000000000000000\n        /* \"#utility.yul\":3764:3765   */\n      0x00\n        /* \"#utility.yul\":3757:3845   */\n      mstore\n        /* \"#utility.yul\":3864:3868   */\n      0x41\n        /* \"#utility.yul\":3861:3862   */\n      0x04\n        /* \"#utility.yul\":3854:3869   */\n      mstore\n        /* \"#utility.yul\":3888:3892   */\n      0x24\n        /* \"#utility.yul\":3885:3886   */\n      0x00\n        /* \"#utility.yul\":3878:3893   */\n      revert\n        /* \"#utility.yul\":3905:4186   */\n    tag_58:\n        /* \"#utility.yul\":3988:4015   */\n      tag_119\n        /* \"#utility.yul\":4010:4014   */\n      dup3\n        /* \"#utility.yul\":3988:4015   */\n      tag_47\n      jump\t// in\n    tag_119:\n        /* \"#utility.yul\":3980:3986   */\n      dup2\n        /* \"#utility.yul\":3976:4016   */\n      add\n        /* \"#utility.yul\":4118:4124   */\n      dup2\n        /* \"#utility.yul\":4106:4116   */\n      dup2\n        /* \"#utility.yul\":4103:4125   */\n      lt\n        /* \"#utility.yul\":4082:4100   */\n      0xffffffffffffffff\n        /* \"#utility.yul\":4070:4080   */\n      dup3\n        /* \"#utility.yul\":4067:4101   */\n      gt\n        /* \"#utility.yul\":4064:4126   */\n      or\n        /* \"#utility.yul\":4061:4149   */\n      iszero\n      tag_120\n      jumpi\n        /* \"#utility.yul\":4129:4147   */\n      tag_121\n      tag_57\n      jump\t// in\n    tag_121:\n        /* \"#utility.yul\":4061:4149   */\n    tag_120:\n        /* \"#utility.yul\":4169:4179   */\n      dup1\n        /* \"#utility.yul\":4165:4167   */\n      0x40\n        /* \"#utility.yul\":4158:4180   */\n      mstore\n        /* \"#utility.yul\":3948:4186   */\n      pop\n        /* \"#utility.yul\":3905:4186   */\n      pop\n      pop\n      jump\t// out\n        /* \"#utility.yul\":4192:4321   */\n    tag_59:\n        /* \"#utility.yul\":4226:4232   */\n      0x00\n        /* \"#utility.yul\":4253:4273   */\n      tag_123\n      tag_52\n      jump\t// in\n    tag_123:\n        /* \"#utility.yul\":4243:4273   */\n      swap1\n      pop\n        /* \"#utility.yul\":4282:4315   */\n      tag_124\n        /* \"#utility.yul\":4310:4314   */\n      dup3\n        /* \"#utility.yul\":4302:4308   */\n      dup3\n        /* \"#utility.yul\":4282:4315   */\n      tag_58\n      jump\t// in\n    tag_124:\n        /* \"#utility.yul\":4192:4321   */\n      swap2\n      swap1\n      pop\n      jump\t// out\n        /* \"#utility.yul\":4327:4635   */\n    tag_60:\n        /* \"#utility.yul\":4389:4393   */\n      0x00\n        /* \"#utility.yul\":4479:4497   */\n      0xffffffffffffffff\n        /* \"#utility.yul\":4471:4477   */\n      dup3\n        /* \"#utility.yul\":4468:4498   */\n      gt\n        /* \"#utility.yul\":4465:4521   */\n      iszero\n      tag_126\n      jumpi\n        /* \"#utility.yul\":4501:4519   */\n      tag_127\n      tag_57\n      jump\t// in\n    tag_127:\n        /* \"#utility.yul\":4465:4521   */\n    tag_126:\n        /* \"#utility.yul\":4539:4568   */\n      tag_128\n        /* \"#utility.yul\":4561:4567   */\n      dup3\n        /* \"#utility.yul\":4539:4568   */\n      tag_47\n      jump\t// in\n    tag_128:\n        /* \"#utility.yul\":4531:4568   */\n      swap1\n      pop\n        /* \"#utility.yul\":4623:4627   */\n      0x20\n        /* \"#utility.yul\":4617:4621   */\n      dup2\n        /* \"#utility.yul\":4613:4628   */\n      add\n        /* \"#utility.yul\":4605:4628   */\n      swap1\n      pop\n        /* \"#utility.yul\":4327:4635   */\n      swap2\n      swap1\n      pop\n      jump\t// out\n        /* \"#utility.yul\":4641:4789   */\n    tag_61:\n        /* \"#utility.yul\":4739:4745   */\n      dup3\n        /* \"#utility.yul\":4734:4737   */\n      dup2\n        /* \"#utility.yul\":4729:4732   */\n      dup4\n        /* \"#utility.yul\":4716:4746   */\n      calldatacopy\n        /* \"#utility.yul\":4780:4781   */\n      0x00\n        /* \"#utility.yul\":4771:4777   */\n      dup4\n        /* \"#utility.yul\":4766:4769   */\n      dup4\n        /* \"#utility.yul\":4762:4778   */\n      add\n        /* \"#utility.yul\":4755:4782   */\n      mstore\n        /* \"#utility.yul\":4641:4789   */\n      pop\n      pop\n      pop\n      jump\t// out\n        /* \"#utility.yul\":4795:5220   */\n    tag_62:\n        /* \"#utility.yul\":4873:4878   */\n      0x00\n        /* \"#utility.yul\":4898:4964   */\n      tag_131\n        /* \"#utility.yul\":4914:4963   */\n      tag_132\n        /* \"#utility.yul\":4956:4962   */\n      dup5\n        /* \"#utility.yul\":4914:4963   */\n      tag_60\n      jump\t// in\n    tag_132:\n        /* \"#utility.yul\":4898:4964   */\n      tag_59\n      jump\t// in\n    tag_131:\n        /* \"#utility.yul\":4889:4964   */\n      swap1\n      pop\n        /* \"#utility.yul\":4987:4993   */\n      dup3\n        /* \"#utility.yul\":4980:4985   */\n      dup2\n        /* \"#utility.yul\":4973:4994   */\n      mstore\n        /* \"#utility.yul\":5025:5029   */\n      0x20\n        /* \"#utility.yul\":5018:5023   */\n      dup2\n        /* \"#utility.yul\":5014:5030   */\n      add\n        /* \"#utility.yul\":5063:5066   */\n      dup5\n        /* \"#utility.yul\":5054:5060   */\n      dup5\n        /* \"#utility.yul\":5049:5052   */\n      dup5\n        /* \"#utility.yul\":5045:5061   */\n      add\n        /* \"#utility.yul\":5042:5067   */\n      gt\n        /* \"#utility.yul\":5039:5151   */\n      iszero\n      tag_133\n      jumpi\n        /* \"#utility.yul\":5070:5149   */\n      tag_134\n      tag_56\n      jump\t// in\n    tag_134:\n        /* \"#utility.yul\":5039:5151   */\n    tag_133:\n        /* \"#utility.yul\":5160:5214   */\n      tag_135\n        /* \"#utility.yul\":5207:5213   */\n      dup5\n        /* \"#utility.yul\":5202:5205   */\n      dup3\n        /* \"#utility.yul\":5197:5200   */\n      dup6\n        /* \"#utility.yul\":5160:5214   */\n      tag_61\n      jump\t// in\n    tag_135:\n        /* \"#utility.yul\":4879:5220   */\n      pop\n        /* \"#utility.yul\":4795:5220   */\n      swap4\n      swap3\n      pop\n      pop\n      pop\n      jump\t// out\n        /* \"#utility.yul\":5240:5580   */\n    tag_63:\n        /* \"#utility.yul\":5296:5301   */\n      0x00\n        /* \"#utility.yul\":5345:5348   */\n      dup3\n        /* \"#utility.yul\":5338:5342   */\n      0x1f\n        /* \"#utility.yul\":5330:5336   */\n      dup4\n        /* \"#utility.yul\":5326:5343   */\n      add\n        /* \"#utility.yul\":5322:5349   */\n      slt\n        /* \"#utility.yul\":5312:5434   */\n      tag_137\n      jumpi\n        /* \"#utility.yul\":5353:5432   */\n      tag_138\n      tag_55\n      jump\t// in\n    tag_138:\n        /* \"#utility.yul\":5312:5434   */\n    tag_137:\n        /* \"#utility.yul\":5470:5476   */\n      dup2\n        /* \"#utility.yul\":5457:5477   */\n      calldataload\n        /* \"#utility.yul\":5495:5574   */\n      tag_139\n        /* \"#utility.yul\":5570:5573   */\n      dup5\n        /* \"#utility.yul\":5562:5568   */\n      dup3\n        /* \"#utility.yul\":5555:5559   */\n      0x20\n        /* \"#utility.yul\":5547:5553   */\n      dup7\n        /* \"#utility.yul\":5543:5560   */\n      add\n        /* \"#utility.yul\":5495:5574   */\n      tag_62\n      jump\t// in\n    tag_139:\n        /* \"#utility.yul\":5486:5574   */\n      swap2\n      pop\n        /* \"#utility.yul\":5302:5580   */\n      pop\n        /* \"#utility.yul\":5240:5580   */\n      swap3\n      swap2\n      pop\n      pop\n      jump\t// out\n        /* \"#utility.yul\":5586:6095   */\n    tag_12:\n        /* \"#utility.yul\":5655:5661   */\n      0x00\n        /* \"#utility.yul\":5704:5706   */\n      0x20\n        /* \"#utility.yul\":5692:5701   */\n      dup3\n        /* \"#utility.yul\":5683:5690   */\n      dup5\n        /* \"#utility.yul\":5679:5702   */\n      sub\n        /* \"#utility.yul\":5675:5707   */\n      slt\n        /* \"#utility.yul\":5672:5791   */\n      iszero\n      tag_141\n      jumpi\n        /* \"#utility.yul\":5710:5789   */\n      tag_142\n      tag_53\n      jump\t// in\n    tag_142:\n        /* \"#utility.yul\":5672:5791   */\n    tag_141:\n        /* \"#utility.yul\":5858:5859   */\n      0x00\n        /* \"#utility.yul\":5847:5856   */\n      dup3\n        /* \"#utility.yul\":5843:5860   */\n      add\n        /* \"#utility.yul\":5830:5861   */\n      calldataload\n        /* \"#utility.yul\":5888:5906   */\n      0xffffffffffffffff\n        /* \"#utility.yul\":5880:5886   */\n      dup2\n        /* \"#utility.yul\":5877:5907   */\n      gt\n        /* \"#utility.yul\":5874:5991   */\n      iszero\n      tag_143\n      jumpi\n        /* \"#utility.yul\":5910:5989   */\n      tag_144\n      tag_54\n      jump\t// in\n    tag_144:\n        /* \"#utility.yul\":5874:5991   */\n    tag_143:\n        /* \"#utility.yul\":6015:6078   */\n      tag_145\n        /* \"#utility.yul\":6070:6077   */\n      dup5\n        /* \"#utility.yul\":6061:6067   */\n      dup3\n        /* \"#utility.yul\":6050:6059   */\n      dup6\n        /* \"#utility.yul\":6046:6068   */\n      add\n        /* \"#utility.yul\":6015:6078   */\n      tag_63\n      jump\t// in\n    tag_145:\n        /* \"#utility.yul\":6005:6078   */\n      swap2\n      pop\n        /* \"#utility.yul\":5801:6088   */\n      pop\n        /* \"#utility.yul\":5586:6095   */\n      swap3\n      swap2\n      pop\n      pop\n      jump\t// out\n        /* \"#utility.yul\":6101:6178   */\n    tag_64:\n        /* \"#utility.yul\":6138:6145   */\n      0x00\n        /* \"#utility.yul\":6167:6172   */\n      dup2\n        /* \"#utility.yul\":6156:6172   */\n      swap1\n      pop\n        /* \"#utility.yul\":6101:6178   */\n      swap2\n      swap1\n      pop\n      jump\t// out\n        /* \"#utility.yul\":6184:6306   */\n    tag_65:\n        /* \"#utility.yul\":6257:6281   */\n      tag_148\n        /* \"#utility.yul\":6275:6280   */\n      dup2\n        /* \"#utility.yul\":6257:6281   */\n      tag_64\n      jump\t// in\n    tag_148:\n        /* \"#utility.yul\":6250:6255   */\n      dup2\n        /* \"#utility.yul\":6247:6282   */\n      eq\n        /* \"#utility.yul\":6237:6300   */\n      tag_149\n      jumpi\n        /* \"#utility.yul\":6296:6297   */\n      0x00\n        /* \"#utility.yul\":6293:6294   */\n      dup1\n        /* \"#utility.yul\":6286:6298   */\n      revert\n        /* \"#utility.yul\":6237:6300   */\n    tag_149:\n        /* \"#utility.yul\":6184:6306   */\n      pop\n      jump\t// out\n        /* \"#utility.yul\":6312:6451   */\n    tag_66:\n        /* \"#utility.yul\":6358:6363   */\n      0x00\n        /* \"#utility.yul\":6396:6402   */\n      dup2\n        /* \"#utility.yul\":6383:6403   */\n      calldataload\n        /* \"#utility.yul\":6374:6403   */\n      swap1\n      pop\n        /* \"#utility.yul\":6412:6445   */\n      tag_151\n        /* \"#utility.yul\":6439:6444   */\n      dup2\n        /* \"#utility.yul\":6412:6445   */\n      tag_65\n      jump\t// in\n    tag_151:\n        /* \"#utility.yul\":6312:6451   */\n      swap3\n      swap2\n      pop\n      pop\n      jump\t// out\n        /* \"#utility.yul\":6457:6786   */\n    tag_16:\n        /* \"#utility.yul\":6516:6522   */\n      0x00\n        /* \"#utility.yul\":6565:6567   */\n      0x20\n        /* \"#utility.yul\":6553:6562   */\n      dup3\n        /* \"#utility.yul\":6544:6551   */\n      dup5\n        /* \"#utility.yul\":6540:6563   */\n      sub\n        /* \"#utility.yul\":6536:6568   */\n      slt\n        /* \"#utility.yul\":6533:6652   */\n      iszero\n      tag_153\n      jumpi\n        /* \"#utility.yul\":6571:6650   */\n      tag_154\n      tag_53\n      jump\t// in\n    tag_154:\n        /* \"#utility.yul\":6533:6652   */\n    tag_153:\n        /* \"#utility.yul\":6691:6692   */\n      0x00\n        /* \"#utility.yul\":6716:6769   */\n      tag_155\n        /* \"#utility.yul\":6761:6768   */\n      dup5\n        /* \"#utility.yul\":6752:6758   */\n      dup3\n        /* \"#utility.yul\":6741:6750   */\n      dup6\n        /* \"#utility.yul\":6737:6759   */\n      add\n        /* \"#utility.yul\":6716:6769   */\n      tag_66\n      jump\t// in\n    tag_155:\n        /* \"#utility.yul\":6706:6769   */\n      swap2\n      pop\n        /* \"#utility.yul\":6662:6779   */\n      pop\n        /* \"#utility.yul\":6457:6786   */\n      swap3\n      swap2\n      pop\n      pop\n      jump\t// out\n        /* \"#utility.yul\":6792:6961   */\n    tag_67:\n        /* \"#utility.yul\":6876:6887   */\n      0x00\n        /* \"#utility.yul\":6910:6916   */\n      dup3\n        /* \"#utility.yul\":6905:6908   */\n      dup3\n        /* \"#utility.yul\":6898:6917   */\n      mstore\n        /* \"#utility.yul\":6950:6954   */\n      0x20\n        /* \"#utility.yul\":6945:6948   */\n      dup3\n        /* \"#utility.yul\":6941:6955   */\n      add\n        /* \"#utility.yul\":6926:6955   */\n      swap1\n      pop\n        /* \"#utility.yul\":6792:6961   */\n      swap3\n      swap2\n      pop\n      pop\n      jump\t// out\n        /* \"#utility.yul\":6967:7344   */\n    tag_68:\n        /* \"#utility.yul\":7055:7058   */\n      0x00\n        /* \"#utility.yul\":7083:7122   */\n      tag_158\n        /* \"#utility.yul\":7116:7121   */\n      dup3\n        /* \"#utility.yul\":7083:7122   */\n      tag_44\n      jump\t// in\n    tag_158:\n        /* \"#utility.yul\":7138:7209   */\n      tag_159\n        /* \"#utility.yul\":7202:7208   */\n      dup2\n        /* \"#utility.yul\":7197:7200   */\n      dup6\n        /* \"#utility.yul\":7138:7209   */\n      tag_67\n      jump\t// in\n    tag_159:\n        /* \"#utility.yul\":7131:7209   */\n      swap4\n      pop\n        /* \"#utility.yul\":7218:7283   */\n      tag_160\n        /* \"#utility.yul\":7276:7282   */\n      dup2\n        /* \"#utility.yul\":7271:7274   */\n      dup6\n        /* \"#utility.yul\":7264:7268   */\n      0x20\n        /* \"#utility.yul\":7257:7262   */\n      dup7\n        /* \"#utility.yul\":7253:7269   */\n      add\n        /* \"#utility.yul\":7218:7283   */\n      tag_46\n      jump\t// in\n    tag_160:\n        /* \"#utility.yul\":7308:7337   */\n      tag_161\n        /* \"#utility.yul\":7330:7336   */\n      dup2\n        /* \"#utility.yul\":7308:7337   */\n      tag_47\n      jump\t// in\n    tag_161:\n        /* \"#utility.yul\":7303:7306   */\n      dup5\n        /* \"#utility.yul\":7299:7338   */\n      add\n        /* \"#utility.yul\":7292:7338   */\n      swap2\n      pop\n        /* \"#utility.yul\":7059:7344   */\n      pop\n        /* \"#utility.yul\":6967:7344   */\n      swap3\n      swap2\n      pop\n      pop\n      jump\t// out\n        /* \"#utility.yul\":7350:7663   */\n    tag_19:\n        /* \"#utility.yul\":7463:7467   */\n      0x00\n        /* \"#utility.yul\":7501:7503   */\n      0x20\n        /* \"#utility.yul\":7490:7499   */\n      dup3\n        /* \"#utility.yul\":7486:7504   */\n      add\n        /* \"#utility.yul\":7478:7504   */\n      swap1\n      pop\n        /* \"#utility.yul\":7550:7559   */\n      dup2\n        /* \"#utility.yul\":7544:7548   */\n      dup2\n        /* \"#utility.yul\":7540:7560   */\n      sub\n        /* \"#utility.yul\":7536:7537   */\n      0x00\n        /* \"#utility.yul\":7525:7534   */\n      dup4\n        /* \"#utility.yul\":7521:7538   */\n      add\n        /* \"#utility.yul\":7514:7561   */\n      mstore\n        /* \"#utility.yul\":7578:7656   */\n      tag_163\n        /* \"#utility.yul\":7651:7655   */\n      dup2\n        /* \"#utility.yul\":7642:7648   */\n      dup5\n        /* \"#utility.yul\":7578:7656   */\n      tag_68\n      jump\t// in\n    tag_163:\n        /* \"#utility.yul\":7570:7656   */\n      swap1\n      pop\n        /* \"#utility.yul\":7350:7663   */\n      swap3\n      swap2\n      pop\n      pop\n      jump\t// out\n        /* \"#utility.yul\":7669:7849   */\n    tag_69:\n        /* \"#utility.yul\":7717:7794   */\n      0x4e487b7100000000000000000000000000000000000000000000000000000000\n        /* \"#utility.yul\":7714:7715   */\n      0x00\n        /* \"#utility.yul\":7707:7795   */\n      mstore\n        /* \"#utility.yul\":7814:7818   */\n      0x22\n        /* \"#utility.yul\":7811:7812   */\n      0x04\n        /* \"#utility.yul\":7804:7819   */\n      mstore\n        /* \"#utility.yul\":7838:7842   */\n      0x24\n        /* \"#utility.yul\":7835:7836   */\n      0x00\n        /* \"#utility.yul\":7828:7843   */\n      revert\n        /* \"#utility.yul\":7855:8175   */\n    tag_25:\n        /* \"#utility.yul\":7899:7905   */\n      0x00\n        /* \"#utility.yul\":7936:7937   */\n      0x02\n        /* \"#utility.yul\":7930:7934   */\n      dup3\n        /* \"#utility.yul\":7926:7938   */\n      div\n        /* \"#utility.yul\":7916:7938   */\n      swap1\n      pop\n        /* \"#utility.yul\":7983:7984   */\n      0x01\n        /* \"#utility.yul\":7977:7981   */\n      dup3\n        /* \"#utility.yul\":7973:7985   */\n      and\n        /* \"#utility.yul\":8004:8022   */\n      dup1\n        /* \"#utility.yul\":7994:8075   */\n      tag_166\n      jumpi\n        /* \"#utility.yul\":8060:8064   */\n      0x7f\n        /* \"#utility.yul\":8052:8058   */\n      dup3\n        /* \"#utility.yul\":8048:8065   */\n      and\n        /* \"#utility.yul\":8038:8065   */\n      swap2\n      pop\n        /* \"#utility.yul\":7994:8075   */\n    tag_166:\n        /* \"#utility.yul\":8122:8124   */\n      0x20\n        /* \"#utility.yul\":8114:8120   */\n      dup3\n        /* \"#utility.yul\":8111:8125   */\n      lt\n        /* \"#utility.yul\":8091:8109   */\n      dup2\n        /* \"#utility.yul\":8088:8126   */\n      sub\n        /* \"#utility.yul\":8085:8169   */\n      tag_167\n      jumpi\n        /* \"#utility.yul\":8141:8159   */\n      tag_168\n      tag_69\n      jump\t// in\n    tag_168:\n        /* \"#utility.yul\":8085:8169   */\n    tag_167:\n        /* \"#utility.yul\":7906:8175   */\n      pop\n        /* \"#utility.yul\":7855:8175   */\n      swap2\n      swap1\n      pop\n      jump\t// out\n        /* \"#utility.yul\":8181:8322   */\n    tag_70:\n        /* \"#utility.yul\":8230:8234   */\n      0x00\n        /* \"#utility.yul\":8253:8256   */\n      dup2\n        /* \"#utility.yul\":8245:8256   */\n      swap1\n      pop\n        /* \"#utility.yul\":8276:8279   */\n      dup2\n        /* \"#utility.yul\":8273:8274   */\n      0x00\n        /* \"#utility.yul\":8266:8280   */\n      mstore\n        /* \"#utility.yul\":8310:8314   */\n      0x20\n        /* \"#utility.yul\":8307:8308   */\n      0x00\n        /* \"#utility.yul\":8297:8315   */\n      keccak256\n        /* \"#utility.yul\":8289:8315   */\n      swap1\n      pop\n        /* \"#utility.yul\":8181:8322   */\n      swap2\n      swap1\n      pop\n      jump\t// out\n        /* \"#utility.yul\":8328:8421   */\n    tag_71:\n        /* \"#utility.yul\":8365:8371   */\n      0x00\n        /* \"#utility.yul\":8412:8414   */\n      0x20\n        /* \"#utility.yul\":8407:8409   */\n      0x1f\n        /* \"#utility.yul\":8400:8405   */\n      dup4\n        /* \"#utility.yul\":8396:8410   */\n      add\n        /* \"#utility.yul\":8392:8415   */\n      div\n        /* \"#utility.yul\":8382:8415   */\n      swap1\n      pop\n        /* \"#utility.yul\":8328:8421   */\n      swap2\n      swap1\n      pop\n      jump\t// out\n        /* \"#utility.yul\":8427:8534   */\n    tag_72:\n        /* \"#utility.yul\":8471:8479   */\n      0x00\n        /* \"#utility.yul\":8521:8526   */\n      dup3\n        /* \"#utility.yul\":8515:8519   */\n      dup3\n        /* \"#utility.yul\":8511:8527   */\n      shl\n        /* \"#utility.yul\":8490:8527   */\n      swap1\n      pop\n        /* \"#utility.yul\":8427:8534   */\n      swap3\n      swap2\n      pop\n      pop\n      jump\t// out\n        /* \"#utility.yul\":8540:8933   */\n    tag_73:\n        /* \"#utility.yul\":8609:8615   */\n      0x00\n        /* \"#utility.yul\":8659:8660   */\n      0x08\n        /* \"#utility.yul\":8647:8657   */\n      dup4\n        /* \"#utility.yul\":8643:8661   */\n      mul\n        /* \"#utility.yul\":8682:8779   */\n      tag_173\n        /* \"#utility.yul\":8712:8778   */\n      0xffffffffffffffffffffffffffffffffffffffffffffffffffffffffffffffff\n        /* \"#utility.yul\":8701:8710   */\n      dup3\n        /* \"#utility.yul\":8682:8779   */\n      tag_72\n      jump\t// in\n    tag_173:\n        /* \"#utility.yul\":8800:8839   */\n      tag_174\n        /* \"#utility.yul\":8830:8838   */\n      dup7\n        /* \"#utility.yul\":8819:8828   */\n      dup4\n        /* \"#utility.yul\":8800:8839   */\n      tag_72\n      jump\t// in\n    tag_174:\n        /* \"#utility.yul\":8788:8839   */\n      swap6\n      pop\n        /* \"#utility.yul\":8872:8876   */\n      dup1\n        /* \"#utility.yul\":8868:8877   */\n      not\n        /* \"#utility.yul\":8861:8866   */\n      dup5\n        /* \"#utility.yul\":8857:8878   */\n      and\n        /* \"#utility.yul\":8848:8878   */\n      swap4\n      pop\n        /* \"#utility.yul\":8921:8925   */\n      dup1\n        /* \"#utility.yul\":8911:8919   */\n      dup7\n        /* \"#utility.yul\":8907:8926   */\n      and\n        /* \"#utility.yul\":8900:8905   */\n      dup5\n        /* \"#utility.yul\":8897:8927   */\n      or\n        /* \"#utility.yul\":8887:8927   */\n      swap3\n      pop\n        /* \"#utility.yul\":8616:8933   */\n      pop\n      pop\n        /* \"#utility.yul\":8540:8933   */\n      swap4\n      swap3\n      pop\n      pop\n      pop\n      jump\t// out\n        /* \"#utility.yul\":8939:8999   */\n    tag_74:\n        /* \"#utility.yul\":8967:8970   */\n      0x00\n        /* \"#utility.yul\":8988:8993   */\n      dup2\n        /* \"#utility.yul\":8981:8993   */\n      swap1\n      pop\n        /* \"#utility.yul\":8939:8999   */\n      swap2\n      swap1\n      pop\n      jump\t// out\n        /* \"#utility.yul\":9005:9147   */\n    tag_75:\n        /* \"#utility.yul\":9055:9064   */\n      0x00\n        /* \"#utility.yul\":9088:9141   */\n      tag_177\n        /* \"#utility.yul\":9106:9140   */\n      tag_178\n        /* \"#utility.yul\":9115:9139   */\n      tag_179\n        /* \"#utility.yul\":9133:9138   */\n      dup5\n        /* \"#utility.yul\":9115:9139   */\n      tag_64\n      jump\t// in\n    tag_179:\n        /* \"#utility.yul\":9106:9140   */\n      tag_74\n      jump\t// in\n    tag_178:\n        /* \"#utility.yul\":9088:9141   */\n      tag_64\n      jump\t// in\n    tag_177:\n        /* \"#utility.yul\":9075:9141   */\n      swap1\n      pop\n        /* \"#utility.yul\":9005:9147   */\n      swap2\n      swap1\n      pop\n      jump\t// out\n        /* \"#utility.yul\":9153:9228   */\n    tag_76:\n        /* \"#utility.yul\":9196:9199   */\n      0x00\n        /* \"#utility.yul\":9217:9222   */\n      dup2\n        /* \"#utility.yul\":9210:9222   */\n      swap1\n      pop\n        /* \"#utility.yul\":9153:9228   */\n      swap2\n      swap1\n      pop\n      jump\t// out\n        /* \"#utility.yul\":9234:9503   */\n    tag_77:\n        /* \"#utility.yul\":9344:9383   */\n      tag_182\n        /* \"#utility.yul\":9375:9382   */\n      dup4\n        /* \"#utility.yul\":9344:9383   */\n      tag_75\n      jump\t// in\n    tag_182:\n        /* \"#utility.yul\":9405:9496   */\n      tag_183\n        /* \"#utility.yul\":9454:9495   */\n      tag_184\n        /* \"#utility.yul\":9478:9494   */\n      dup3\n        /* \"#utility.yul\":9454:9495   */\n      tag_76\n      jump\t// in\n    tag_184:\n        /* \"#utility.yul\":9446:9452   */\n      dup5\n        /* \"#utility.yul\":9439:9443   */\n      dup5\n        /* \"#utility.yul\":9433:9444   */\n      sload\n        /* \"#utility.yul\":9405:9496   */\n      tag_73\n      jump\t// in\n    tag_183:\n        /* \"#utility.yul\":9399:9403   */\n      dup3\n        /* \"#utility.yul\":9392:9497   */\n      sstore\n        /* \"#utility.yul\":9310:9503   */\n      pop\n        /* \"#utility.yul\":9234:9503   */\n      pop\n      pop\n      pop\n      jump\t// out\n        /* \"#utility.yul\":9509:9582   */\n    tag_78:\n        /* \"#utility.yul\":9554:9557   */\n      0x00\n        /* \"#utility.yul\":9509:9582   */\n      swap1\n      jump\t// out\n        /* \"#utility.yul\":9588:9777   */\n    tag_79:\n        /* \"#utility.yul\":9665:9697   */\n      tag_187\n      tag_78\n      jump\t// in\n    tag_187:\n        /* \"#utility.yul\":9706:9771   */\n      tag_188\n        /* \"#utility.yul\":9764:9770   */\n      dup2\n        /* \"#utility.yul\":9756:9762   */\n      dup5\n        /* \"#utility.yul\":9750:9754   */\n      dup5\n        /* \"#utility.yul\":9706:9771   */\n      tag_77\n      jump\t// in\n    tag_188:\n        /* \"#utility.yul\":9641:9777   */\n      pop\n        /* \"#utility.yul\":9588:9777   */\n      pop\n      pop\n      jump\t// out\n        /* \"#utility.yul\":9783:9969   */\n    tag_80:\n        /* \"#utility.yul\":9843:9963   */\n    tag_190:\n        /* \"#utility.yul\":9860:9863   */\n      dup2\n        /* \"#utility.yul\":9853:9858   */\n      dup2\n        /* \"#utility.yul\":9850:9864   */\n      lt\n        /* \"#utility.yul\":9843:9963   */\n      iszero\n      tag_192\n      jumpi\n        /* \"#utility.yul\":9914:9953   */\n      tag_193\n        /* \"#utility.yul\":9951:9952   */\n      0x00\n        /* \"#utility.yul\":9944:9949   */\n      dup3\n        /* \"#utility.yul\":9914:9953   */\n      tag_79\n      jump\t// in\n    tag_193:\n        /* \"#utility.yul\":9887:9888   */\n      0x01\n        /* \"#utility.yul\":9880:9885   */\n      dup2\n        /* \"#utility.yul\":9876:9889   */\n      add\n        /* \"#utility.yul\":9867:9889   */\n      swap1\n      pop\n        /* \"#utility.yul\":9843:9963   */\n      jump(tag_190)\n    tag_192:\n        /* \"#utility.yul\":9783:9969   */\n      pop\n      pop\n      jump\t// out\n        /* \"#utility.yul\":9975:10518   */\n    tag_81:\n        /* \"#utility.yul\":10076:10078   */\n      0x1f\n        /* \"#utility.yul\":10071:10074   */\n      dup3\n        /* \"#utility.yul\":10068:10079   */\n      gt\n        /* \"#utility.yul\":10065:10511   */\n      iszero\n      tag_195\n      jumpi\n        /* \"#utility.yul\":10110:10148   */\n      tag_196\n        /* \"#utility.yul\":10142:10147   */\n      dup2\n        /* \"#utility.yul\":10110:10148   */\n      tag_70\n      jump\t// in\n    tag_196:\n        /* \"#utility.yul\":10194:10223   */\n      tag_197\n        /* \"#utility.yul\":10212:10222   */\n      dup5\n        /* \"#utility.yul\":10194:10223   */\n      tag_71\n      jump\t// in\n    tag_197:\n        /* \"#utility.yul\":10184:10192   */\n      dup2\n        /* \"#utility.yul\":10180:10224   */\n      add\n        /* \"#utility.yul\":10377:10379   */\n      0x20\n        /* \"#utility.yul\":10365:10375   */\n      dup6\n        /* \"#utility.yul\":10362:10380   */\n      lt\n        /* \"#utility.yul\":10359:10408   */\n      iszero\n      tag_198\n      jumpi\n        /* \"#utility.yul\":10398:10406   */\n      dup2\n        /* \"#utility.yul\":10383:10406   */\n      swap1\n      pop\n        /* \"#utility.yul\":10359:10408   */\n    tag_198:\n        /* \"#utility.yul\":10421:10501   */\n      tag_199\n        /* \"#utility.yul\":10477:10499   */\n      tag_200\n        /* \"#utility.yul\":10495:10498   */\n      dup6\n        /* \"#utility.yul\":10477:10499   */\n      tag_71\n      jump\t// in\n    tag_200:\n        /* \"#utility.yul\":10467:10475   */\n      dup4\n        /* \"#utility.yul\":10463:10500   */\n      add\n        /* \"#utility.yul\":10450:10461   */\n      dup3\n        /* \"#utility.yul\":10421:10501   */\n      tag_80\n      jump\t// in\n    tag_199:\n        /* \"#utility.yul\":10080:10511   */\n      pop\n      pop\n        /* \"#utility.yul\":10065:10511   */\n    tag_195:\n        /* \"#utility.yul\":9975:10518   */\n      pop\n      pop\n      pop\n      jump\t// out\n        /* \"#utility.yul\":10524:10641   */\n    tag_82:\n        /* \"#utility.yul\":10578:10586   */\n      0x00\n        /* \"#utility.yul\":10628:10633   */\n      dup3\n        /* \"#utility.yul\":10622:10626   */\n      dup3\n        /* \"#utility.yul\":10618:10634   */\n      shr\n        /* \"#utility.yul\":10597:10634   */\n      swap1\n      pop\n        /* \"#utility.yul\":10524:10641   */\n      swap3\n      swap2\n      pop\n      pop\n      jump\t// out\n        /* \"#utility.yul\":10647:10816   */\n    tag_83:\n        /* \"#utility.yul\":10691:10697   */\n      0x00\n        /* \"#utility.yul\":10724:10775   */\n      tag_203\n        /* \"#utility.yul\":10772:10773   */\n      0x00\n        /* \"#utility.yul\":10768:10774   */\n      not\n        /* \"#utility.yul\":10760:10765   */\n      dup5\n        /* \"#utility.yul\":10757:10758   */\n      0x08\n        /* \"#utility.yul\":10753:10766   */\n      mul\n        /* \"#utility.yul\":10724:10775   */\n      tag_82\n      jump\t// in\n    tag_203:\n        /* \"#utility.yul\":10720:10776   */\n      not\n        /* \"#utility.yul\":10805:10809   */\n      dup1\n        /* \"#utility.yul\":10799:10803   */\n      dup4\n        /* \"#utility.yul\":10795:10810   */\n      and\n        /* \"#utility.yul\":10785:10810   */\n      swap2\n      pop\n        /* \"#utility.yul\":10698:10816   */\n      pop\n        /* \"#utility.yul\":10647:10816   */\n      swap3\n      swap2\n      pop\n      pop\n      jump\t// out\n        /* \"#utility.yul\":10821:11116   */\n    tag_84:\n        /* \"#utility.yul\":10897:10901   */\n      0x00\n        /* \"#utility.yul\":11043:11072   */\n      tag_205\n        /* \"#utility.yul\":11068:11071   */\n      dup4\n        /* \"#utility.yul\":11062:11066   */\n      dup4\n        /* \"#utility.yul\":11043:11072   */\n      tag_83\n      jump\t// in\n    tag_205:\n        /* \"#utility.yul\":11035:11072   */\n      swap2\n      pop\n        /* \"#utility.yul\":11105:11108   */\n      dup3\n        /* \"#utility.yul\":11102:11103   */\n      0x02\n        /* \"#utility.yul\":11098:11109   */\n      mul\n        /* \"#utility.yul\":11092:11096   */\n      dup3\n        /* \"#utility.yul\":11089:11110   */\n      or\n        /* \"#utility.yul\":11081:11110   */\n      swap1\n      pop\n        /* \"#utility.yul\":10821:11116   */\n      swap3\n      swap2\n      pop\n      pop\n      jump\t// out\n        /* \"#utility.yul\":11121:12516   */\n    tag_33:\n        /* \"#utility.yul\":11238:11275   */\n      tag_207\n        /* \"#utility.yul\":11271:11274   */\n      dup3\n        /* \"#utility.yul\":11238:11275   */\n      tag_44\n      jump\t// in\n    tag_207:\n        /* \"#utility.yul\":11340:11358   */\n      0xffffffffffffffff\n        /* \"#utility.yul\":11332:11338   */\n      dup2\n        /* \"#utility.yul\":11329:11359   */\n      gt\n        /* \"#utility.yul\":11326:11382   */\n      iszero\n      tag_208\n      jumpi\n        /* \"#utility.yul\":11362:11380   */\n      tag_209\n      tag_57\n      jump\t// in\n    tag_209:\n        /* \"#utility.yul\":11326:11382   */\n    tag_208:\n        /* \"#utility.yul\":11406:11444   */\n      tag_210\n        /* \"#utility.yul\":11438:11442   */\n      dup3\n        /* \"#utility.yul\":11432:11443   */\n      sload\n        /* \"#utility.yul\":11406:11444   */\n      tag_25\n      jump\t// in\n    tag_210:\n        /* \"#utility.yul\":11491:11558   */\n      tag_211\n        /* \"#utility.yul\":11551:11557   */\n      dup3\n        /* \"#utility.yul\":11543:11549   */\n      dup3\n        /* \"#utility.yul\":11537:11541   */\n      dup6\n        /* \"#utility.yul\":11491:11558   */\n      tag_81\n      jump\t// in\n    tag_211:\n        /* \"#utility.yul\":11585:11586   */\n      0x00\n        /* \"#utility.yul\":11609:11613   */\n      0x20\n        /* \"#utility.yul\":11596:11613   */\n      swap1\n      pop\n        /* \"#utility.yul\":11641:11643   */\n      0x1f\n        /* \"#utility.yul\":11633:11639   */\n      dup4\n        /* \"#utility.yul\":11630:11644   */\n      gt\n        /* \"#utility.yul\":11658:11659   */\n      0x01\n        /* \"#utility.yul\":11653:12271   */\n      dup2\n      eq\n      tag_213\n      jumpi\n        /* \"#utility.yul\":12315:12316   */\n      0x00\n        /* \"#utility.yul\":12332:12338   */\n      dup5\n        /* \"#utility.yul\":12329:12406   */\n      iszero\n      tag_214\n      jumpi\n        /* \"#utility.yul\":12381:12390   */\n      dup3\n        /* \"#utility.yul\":12376:12379   */\n      dup8\n        /* \"#utility.yul\":12372:12391   */\n      add\n        /* \"#utility.yul\":12366:12392   */\n      mload\n        /* \"#utility.yul\":12357:12392   */\n      swap1\n      pop\n        /* \"#utility.yul\":12329:12406   */\n    tag_214:\n        /* \"#utility.yul\":12432:12499   */\n      tag_215\n        /* \"#utility.yul\":12492:12498   */\n      dup6\n        /* \"#utility.yul\":12485:12490   */\n      dup3\n        /* \"#utility.yul\":12432:12499   */\n      tag_84\n      jump\t// in\n    tag_215:\n        /* \"#utility.yul\":12426:12430   */\n      dup7\n        /* \"#utility.yul\":12419:12500   */\n      sstore\n        /* \"#utility.yul\":12288:12510   */\n      pop\n        /* \"#utility.yul\":11623:12510   */\n      jump(tag_212)\n        /* \"#utility.yul\":11653:12271   */\n    tag_213:\n        /* \"#utility.yul\":11705:11709   */\n      0x1f\n        /* \"#utility.yul\":11701:11710   */\n      not\n        /* \"#utility.yul\":11693:11699   */\n      dup5\n        /* \"#utility.yul\":11689:11711   */\n      and\n        /* \"#utility.yul\":11739:11776   */\n      tag_216\n        /* \"#utility.yul\":11771:11775   */\n      dup7\n        /* \"#utility.yul\":11739:11776   */\n      tag_70\n      jump\t// in\n    tag_216:\n        /* \"#utility.yul\":11798:11799   */\n      0x00\n        /* \"#utility.yul\":11812:12020   */\n    tag_217:\n        /* \"#utility.yul\":11826:11833   */\n      dup3\n        /* \"#utility.yul\":11823:11824   */\n      dup2\n        /* \"#utility.yul\":11820:11834   */\n      lt\n        /* \"#utility.yul\":11812:12020   */\n      iszero\n      tag_219\n      jumpi\n        /* \"#utility.yul\":11905:11914   */\n      dup5\n        /* \"#utility.yul\":11900:11903   */\n      dup10\n        /* \"#utility.yul\":11896:11915   */\n      add\n        /* \"#utility.yul\":11890:11916   */\n      mload\n        /* \"#utility.yul\":11882:11888   */\n      dup3\n        /* \"#utility.yul\":11875:11917   */\n      sstore\n        /* \"#utility.yul\":11956:11957   */\n      0x01\n        /* \"#utility.yul\":11948:11954   */\n      dup3\n        /* \"#utility.yul\":11944:11958   */\n      add\n        /* \"#utility.yul\":11934:11958   */\n      swap2\n      pop\n        /* \"#utility.yul\":12003:12005   */\n      0x20\n        /* \"#utility.yul\":11992:12001   */\n      dup6\n        /* \"#utility.yul\":11988:12006   */\n      add\n        /* \"#utility.yul\":11975:12006   */\n      swap5\n      pop\n        /* \"#utility.yul\":11849:11853   */\n      0x20\n        /* \"#utility.yul\":11846:11847   */\n      dup2\n        /* \"#utility.yul\":11842:11854   */\n      add\n        /* \"#utility.yul\":11837:11854   */\n      swap1\n      pop\n        /* \"#utility.yul\":11812:12020   */\n      jump(tag_217)\n    tag_219:\n        /* \"#utility.yul\":12048:12054   */\n      dup7\n        /* \"#utility.yul\":12039:12046   */\n      dup4\n        /* \"#utility.yul\":12036:12055   */\n      lt\n        /* \"#utility.yul\":12033:12212   */\n      iszero\n      tag_220\n      jumpi\n        /* \"#utility.yul\":12106:12115   */\n      dup5\n        /* \"#utility.yul\":12101:12104   */\n      dup10\n        /* \"#utility.yul\":12097:12116   */\n      add\n        /* \"#utility.yul\":12091:12117   */\n      mload\n        /* \"#utility.yul\":12149:12197   */\n      tag_221\n        /* \"#utility.yul\":12191:12195   */\n      0x1f\n        /* \"#utility.yul\":12183:12189   */\n      dup10\n        /* \"#utility.yul\":12179:12196   */\n      and\n        /* \"#utility.yul\":12168:12177   */\n      dup3\n        /* \"#utility.yul\":12149:12197   */\n      tag_83\n      jump\t// in\n    tag_221:\n        /* \"#utility.yul\":12141:12147   */\n      dup4\n        /* \"#utility.yul\":12134:12198   */\n      sstore\n        /* \"#utility.yul\":12056:12212   */\n      pop\n        /* \"#utility.yul\":12033:12212   */\n    tag_220:\n        /* \"#utility.yul\":12258:12259   */\n      0x01\n        /* \"#utility.yul\":12254:12255   */\n      0x02\n        /* \"#utility.yul\":12246:12252   */\n      dup9\n        /* \"#utility.yul\":12242:12256   */\n      mul\n        /* \"#utility.yul\":12238:12260   */\n      add\n        /* \"#utility.yul\":12232:12236   */\n      dup9\n        /* \"#utility.yul\":12225:12261   */\n      sstore\n        /* \"#utility.yul\":11660:12271   */\n      pop\n      pop\n      pop\n        /* \"#utility.yul\":11623:12510   */\n    tag_212:\n      pop\n        /* \"#utility.yul\":11213:12516   */\n      pop\n      pop\n      pop\n        /* \"#utility.yul\":11121:12516   */\n      pop\n      pop\n      jump\t// out\n\n    auxdata: 0xa2646970667358221220581a90edc91be80b956353c0f0dd5f3ab690f755ceeecdc31b68588ab852a33564736f6c634300081a0033\n}\n",
				"bytecode": {
					"linkReferences": {},
					"object": "6080604052348015600e575f80fd5b506108ed8061001c5f395ff3fe608060405234801561000f575f80fd5b506004361061003f575f3560e01c80630153b82b1461004357806315c39a5a146100615780638820e4661461007d575b5f80fd5b61004b6100ad565b6040516100589190610384565b60405180910390f35b61007b600480360381019061007691906104e1565b610180565b005b6100976004803603810190610092919061055b565b6101b4565b6040516100a491906105ce565b60405180910390f35b60605f805480602002602001604051908101604052809291908181526020015f905b82821015610177578382905f5260205f200180546100ec9061061b565b80601f01602080910402602001604051908101604052809291908181526020018280546101189061061b565b80156101635780601f1061013a57610100808354040283529160200191610163565b820191905f5260205f20905b81548152906001019060200180831161014657829003601f168201915b5050505050815260200190600101906100cf565b50505050905090565b5f81908060018154018082558091505060019003905f5260205f20015f9091909190915090816101b091906107e8565b5050565b5f81815481106101c2575f80fd5b905f5260205f20015f9150905080546101da9061061b565b80601f01602080910402602001604051908101604052809291908181526020018280546102069061061b565b80156102515780601f1061022857610100808354040283529160200191610251565b820191905f5260205f20905b81548152906001019060200180831161023457829003601f168201915b505050505081565b5f81519050919050565b5f82825260208201905092915050565b5f819050602082019050919050565b5f81519050919050565b5f82825260208201905092915050565b8281835e5f83830152505050565b5f601f19601f8301169050919050565b5f6102c482610282565b6102ce818561028c565b93506102de81856020860161029c565b6102e7816102aa565b840191505092915050565b5f6102fd83836102ba565b905092915050565b5f602082019050919050565b5f61031b82610259565b6103258185610263565b93508360208202850161033785610273565b805f5b85811015610372578484038952815161035385826102f2565b945061035e83610305565b925060208a0199505060018101905061033a565b50829750879550505050505092915050565b5f6020820190508181035f83015261039c8184610311565b905092915050565b5f604051905090565b5f80fd5b5f80fd5b5f80fd5b5f80fd5b7f4e487b71000000000000000000000000000000000000000000000000000000005f52604160045260245ffd5b6103f3826102aa565b810181811067ffffffffffffffff82111715610412576104116103bd565b5b80604052505050565b5f6104246103a4565b905061043082826103ea565b919050565b5f67ffffffffffffffff82111561044f5761044e6103bd565b5b610458826102aa565b9050602081019050919050565b828183375f83830152505050565b5f61048561048084610435565b61041b565b9050828152602081018484840111156104a1576104a06103b9565b5b6104ac848285610465565b509392505050565b5f82601f8301126104c8576104c76103b5565b5b81356104d8848260208601610473565b91505092915050565b5f602082840312156104f6576104f56103ad565b5b5f82013567ffffffffffffffff811115610513576105126103b1565b5b61051f848285016104b4565b91505092915050565b5f819050919050565b61053a81610528565b8114610544575f80fd5b50565b5f8135905061055581610531565b92915050565b5f602082840312156105705761056f6103ad565b5b5f61057d84828501610547565b91505092915050565b5f82825260208201905092915050565b5f6105a082610282565b6105aa8185610586565b93506105ba81856020860161029c565b6105c3816102aa565b840191505092915050565b5f6020820190508181035f8301526105e68184610596565b905092915050565b7f4e487b71000000000000000000000000000000000000000000000000000000005f52602260045260245ffd5b5f600282049050600182168061063257607f821691505b602082108103610645576106446105ee565b5b50919050565b5f819050815f5260205f209050919050565b5f6020601f8301049050919050565b5f82821b905092915050565b5f600883026106a77fffffffffffffffffffffffffffffffffffffffffffffffffffffffffffffffff8261066c565b6106b1868361066c565b95508019841693508086168417925050509392505050565b5f819050919050565b5f6106ec6106e76106e284610528565b6106c9565b610528565b9050919050565b5f819050919050565b610705836106d2565b610719610711826106f3565b848454610678565b825550505050565b5f90565b61072d610721565b6107388184846106fc565b505050565b5b8181101561075b576107505f82610725565b60018101905061073e565b5050565b601f8211156107a0576107718161064b565b61077a8461065d565b81016020851015610789578190505b61079d6107958561065d565b83018261073d565b50505b505050565b5f82821c905092915050565b5f6107c05f19846008026107a5565b1980831691505092915050565b5f6107d883836107b1565b9150826002028217905092915050565b6107f182610282565b67ffffffffffffffff81111561080a576108096103bd565b5b610814825461061b565b61081f82828561075f565b5f60209050601f831160018114610850575f841561083e578287015190505b61084885826107cd565b8655506108af565b601f19841661085e8661064b565b5f5b8281101561088557848901518255600182019150602085019450602081019050610860565b868310156108a2578489015161089e601f8916826107b1565b8355505b6001600288020188555050505b50505050505056fea2646970667358221220581a90edc91be80b956353c0f0dd5f3ab690f755ceeecdc31b68588ab852a33564736f6c634300081a0033",
					"opcodes": "PUSH1 0x80 PUSH1 0x40 MSTORE CALLVALUE DUP1 ISZERO PUSH1 0xE JUMPI PUSH0 DUP1 REVERT JUMPDEST POP PUSH2 0x8ED DUP1 PUSH2 0x1C PUSH0 CODECOPY PUSH0 RETURN INVALID PUSH1 0x80 PUSH1 0x40 MSTORE CALLVALUE DUP1 ISZERO PUSH2 0xF JUMPI PUSH0 DUP1 REVERT JUMPDEST POP PUSH1 0x4 CALLDATASIZE LT PUSH2 0x3F JUMPI PUSH0 CALLDATALOAD PUSH1 0xE0 SHR DUP1 PUSH4 0x153B82B EQ PUSH2 0x43 JUMPI DUP1 PUSH4 0x15C39A5A EQ PUSH2 0x61 JUMPI DUP1 PUSH4 0x8820E466 EQ PUSH2 0x7D JUMPI JUMPDEST PUSH0 DUP1 REVERT JUMPDEST PUSH2 0x4B PUSH2 0xAD JUMP JUMPDEST PUSH1 0x40 MLOAD PUSH2 0x58 SWAP2 SWAP1 PUSH2 0x384 JUMP JUMPDEST PUSH1 0x40 MLOAD DUP1 SWAP2 SUB SWAP1 RETURN JUMPDEST PUSH2 0x7B PUSH1 0x4 DUP1 CALLDATASIZE SUB DUP2 ADD SWAP1 PUSH2 0x76 SWAP2 SWAP1 PUSH2 0x4E1 JUMP JUMPDEST PUSH2 0x180 JUMP JUMPDEST STOP JUMPDEST PUSH2 0x97 PUSH1 0x4 DUP1 CALLDATASIZE SUB DUP2 ADD SWAP1 PUSH2 0x92 SWAP2 SWAP1 PUSH2 0x55B JUMP JUMPDEST PUSH2 0x1B4 JUMP JUMPDEST PUSH1 0x40 MLOAD PUSH2 0xA4 SWAP2 SWAP1 PUSH2 0x5CE JUMP JUMPDEST PUSH1 0x40 MLOAD DUP1 SWAP2 SUB SWAP1 RETURN JUMPDEST PUSH1 0x60 PUSH0 DUP1 SLOAD DUP1 PUSH1 0x20 MUL PUSH1 0x20 ADD PUSH1 0x40 MLOAD SWAP1 DUP2 ADD PUSH1 0x40 MSTORE DUP1 SWAP3 SWAP2 SWAP1 DUP2 DUP2 MSTORE PUSH1 0x20 ADD PUSH0 SWAP1 JUMPDEST DUP3 DUP3 LT ISZERO PUSH2 0x177 JUMPI DUP4 DUP3 SWAP1 PUSH0 MSTORE PUSH1 0x20 PUSH0 KECCAK256 ADD DUP1 SLOAD PUSH2 0xEC SWAP1 PUSH2 0x61B JUMP JUMPDEST DUP1 PUSH1 0x1F ADD PUSH1 0x20 DUP1 SWAP2 DIV MUL PUSH1 0x20 ADD PUSH1 0x40 MLOAD SWAP1 DUP2 ADD PUSH1 0x40 MSTORE DUP1 SWAP3 SWAP2 SWAP1 DUP2 DUP2 MSTORE PUSH1 0x20 ADD DUP3 DUP1 SLOAD PUSH2 0x118 SWAP1 PUSH2 0x61B JUMP JUMPDEST DUP1 ISZERO PUSH2 0x163 JUMPI DUP1 PUSH1 0x1F LT PUSH2 0x13A JUMPI PUSH2 0x100 DUP1 DUP4 SLOAD DIV MUL DUP4 MSTORE SWAP2 PUSH1 0x20 ADD SWAP2 PUSH2 0x163 JUMP JUMPDEST DUP3 ADD SWAP2 SWAP1 PUSH0 MSTORE PUSH1 0x20 PUSH0 KECCAK256 SWAP1 JUMPDEST DUP2 SLOAD DUP2 MSTORE SWAP1 PUSH1 0x1 ADD SWAP1 PUSH1 0x20 ADD DUP1 DUP4 GT PUSH2 0x146 JUMPI DUP3 SWAP1 SUB PUSH1 0x1F AND DUP3 ADD SWAP2 JUMPDEST POP POP POP POP POP DUP2 MSTORE PUSH1 0x20 ADD SWAP1 PUSH1 0x1 ADD SWAP1 PUSH2 0xCF JUMP JUMPDEST POP POP POP POP SWAP1 POP SWAP1 JUMP JUMPDEST PUSH0 DUP2 SWAP1 DUP1 PUSH1 0x1 DUP2 SLOAD ADD DUP1 DUP3 SSTORE DUP1 SWAP2 POP POP PUSH1 0x1 SWAP1 SUB SWAP1 PUSH0 MSTORE PUSH1 0x20 PUSH0 KECCAK256 ADD PUSH0 SWAP1 SWAP2 SWAP1 SWAP2 SWAP1 SWAP2 POP SWAP1 DUP2 PUSH2 0x1B0 SWAP2 SWAP1 PUSH2 0x7E8 JUMP JUMPDEST POP POP JUMP JUMPDEST PUSH0 DUP2 DUP2 SLOAD DUP2 LT PUSH2 0x1C2 JUMPI PUSH0 DUP1 REVERT JUMPDEST SWAP1 PUSH0 MSTORE PUSH1 0x20 PUSH0 KECCAK256 ADD PUSH0 SWAP2 POP SWAP1 POP DUP1 SLOAD PUSH2 0x1DA SWAP1 PUSH2 0x61B JUMP JUMPDEST DUP1 PUSH1 0x1F ADD PUSH1 0x20 DUP1 SWAP2 DIV MUL PUSH1 0x20 ADD PUSH1 0x40 MLOAD SWAP1 DUP2 ADD PUSH1 0x40 MSTORE DUP1 SWAP3 SWAP2 SWAP1 DUP2 DUP2 MSTORE PUSH1 0x20 ADD DUP3 DUP1 SLOAD PUSH2 0x206 SWAP1 PUSH2 0x61B JUMP JUMPDEST DUP1 ISZERO PUSH2 0x251 JUMPI DUP1 PUSH1 0x1F LT PUSH2 0x228 JUMPI PUSH2 0x100 DUP1 DUP4 SLOAD DIV MUL DUP4 MSTORE SWAP2 PUSH1 0x20 ADD SWAP2 PUSH2 0x251 JUMP JUMPDEST DUP3 ADD SWAP2 SWAP1 PUSH0 MSTORE PUSH1 0x20 PUSH0 KECCAK256 SWAP1 JUMPDEST DUP2 SLOAD DUP2 MSTORE SWAP1 PUSH1 0x1 ADD SWAP1 PUSH1 0x20 ADD DUP1 DUP4 GT PUSH2 0x234 JUMPI DUP3 SWAP1 SUB PUSH1 0x1F AND DUP3 ADD SWAP2 JUMPDEST POP POP POP POP POP DUP2 JUMP JUMPDEST PUSH0 DUP2 MLOAD SWAP1 POP SWAP2 SWAP1 POP JUMP JUMPDEST PUSH0 DUP3 DUP3 MSTORE PUSH1 0x20 DUP3 ADD SWAP1 POP SWAP3 SWAP2 POP POP JUMP JUMPDEST PUSH0 DUP2 SWAP1 POP PUSH1 0x20 DUP3 ADD SWAP1 POP SWAP2 SWAP1 POP JUMP JUMPDEST PUSH0 DUP2 MLOAD SWAP1 POP SWAP2 SWAP1 POP JUMP JUMPDEST PUSH0 DUP3 DUP3 MSTORE PUSH1 0x20 DUP3 ADD SWAP1 POP SWAP3 SWAP2 POP POP JUMP JUMPDEST DUP3 DUP2 DUP4 MCOPY PUSH0 DUP4 DUP4 ADD MSTORE POP POP POP JUMP JUMPDEST PUSH0 PUSH1 0x1F NOT PUSH1 0x1F DUP4 ADD AND SWAP1 POP SWAP2 SWAP1 POP JUMP JUMPDEST PUSH0 PUSH2 0x2C4 DUP3 PUSH2 0x282 JUMP JUMPDEST PUSH2 0x2CE DUP2 DUP6 PUSH2 0x28C JUMP JUMPDEST SWAP4 POP PUSH2 0x2DE DUP2 DUP6 PUSH1 0x20 DUP7 ADD PUSH2 0x29C JUMP JUMPDEST PUSH2 0x2E7 DUP2 PUSH2 0x2AA JUMP JUMPDEST DUP5 ADD SWAP2 POP POP SWAP3 SWAP2 POP POP JUMP JUMPDEST PUSH0 PUSH2 0x2FD DUP4 DUP4 PUSH2 0x2BA JUMP JUMPDEST SWAP1 POP SWAP3 SWAP2 POP POP JUMP JUMPDEST PUSH0 PUSH1 0x20 DUP3 ADD SWAP1 POP SWAP2 SWAP1 POP JUMP JUMPDEST PUSH0 PUSH2 0x31B DUP3 PUSH2 0x259 JUMP JUMPDEST PUSH2 0x325 DUP2 DUP6 PUSH2 0x263 JUMP JUMPDEST SWAP4 POP DUP4 PUSH1 0x20 DUP3 MUL DUP6 ADD PUSH2 0x337 DUP6 PUSH2 0x273 JUMP JUMPDEST DUP1 PUSH0 JUMPDEST DUP6 DUP2 LT ISZERO PUSH2 0x372 JUMPI DUP5 DUP5 SUB DUP10 MSTORE DUP2 MLOAD PUSH2 0x353 DUP6 DUP3 PUSH2 0x2F2 JUMP JUMPDEST SWAP5 POP PUSH2 0x35E DUP4 PUSH2 0x305 JUMP JUMPDEST SWAP3 POP PUSH1 0x20 DUP11 ADD SWAP10 POP POP PUSH1 0x1 DUP2 ADD SWAP1 POP PUSH2 0x33A JUMP JUMPDEST POP DUP3 SWAP8 POP DUP8 SWAP6 POP POP POP POP POP POP SWAP3 SWAP2 POP POP JUMP JUMPDEST PUSH0 PUSH1 0x20 DUP3 ADD SWAP1 POP DUP2 DUP2 SUB PUSH0 DUP4 ADD MSTORE PUSH2 0x39C DUP2 DUP5 PUSH2 0x311 JUMP JUMPDEST SWAP1 POP SWAP3 SWAP2 POP POP JUMP JUMPDEST PUSH0 PUSH1 0x40 MLOAD SWAP1 POP SWAP1 JUMP JUMPDEST PUSH0 DUP1 REVERT JUMPDEST PUSH0 DUP1 REVERT JUMPDEST PUSH0 DUP1 REVERT JUMPDEST PUSH0 DUP1 REVERT JUMPDEST PUSH32 0x4E487B7100000000000000000000000000000000000000000000000000000000 PUSH0 MSTORE PUSH1 0x41 PUSH1 0x4 MSTORE PUSH1 0x24 PUSH0 REVERT JUMPDEST PUSH2 0x3F3 DUP3 PUSH2 0x2AA JUMP JUMPDEST DUP2 ADD DUP2 DUP2 LT PUSH8 0xFFFFFFFFFFFFFFFF DUP3 GT OR ISZERO PUSH2 0x412 JUMPI PUSH2 0x411 PUSH2 0x3BD JUMP JUMPDEST JUMPDEST DUP1 PUSH1 0x40 MSTORE POP POP POP JUMP JUMPDEST PUSH0 PUSH2 0x424 PUSH2 0x3A4 JUMP JUMPDEST SWAP1 POP PUSH2 0x430 DUP3 DUP3 PUSH2 0x3EA JUMP JUMPDEST SWAP2 SWAP1 POP JUMP JUMPDEST PUSH0 PUSH8 0xFFFFFFFFFFFFFFFF DUP3 GT ISZERO PUSH2 0x44F JUMPI PUSH2 0x44E PUSH2 0x3BD JUMP JUMPDEST JUMPDEST PUSH2 0x458 DUP3 PUSH2 0x2AA JUMP JUMPDEST SWAP1 POP PUSH1 0x20 DUP2 ADD SWAP1 POP SWAP2 SWAP1 POP JUMP JUMPDEST DUP3 DUP2 DUP4 CALLDATACOPY PUSH0 DUP4 DUP4 ADD MSTORE POP POP POP JUMP JUMPDEST PUSH0 PUSH2 0x485 PUSH2 0x480 DUP5 PUSH2 0x435 JUMP JUMPDEST PUSH2 0x41B JUMP JUMPDEST SWAP1 POP DUP3 DUP2 MSTORE PUSH1 0x20 DUP2 ADD DUP5 DUP5 DUP5 ADD GT ISZERO PUSH2 0x4A1 JUMPI PUSH2 0x4A0 PUSH2 0x3B9 JUMP JUMPDEST JUMPDEST PUSH2 0x4AC DUP5 DUP3 DUP6 PUSH2 0x465 JUMP JUMPDEST POP SWAP4 SWAP3 POP POP POP JUMP JUMPDEST PUSH0 DUP3 PUSH1 0x1F DUP4 ADD SLT PUSH2 0x4C8 JUMPI PUSH2 0x4C7 PUSH2 0x3B5 JUMP JUMPDEST JUMPDEST DUP2 CALLDATALOAD PUSH2 0x4D8 DUP5 DUP3 PUSH1 0x20 DUP7 ADD PUSH2 0x473 JUMP JUMPDEST SWAP2 POP POP SWAP3 SWAP2 POP POP JUMP JUMPDEST PUSH0 PUSH1 0x20 DUP3 DUP5 SUB SLT ISZERO PUSH2 0x4F6 JUMPI PUSH2 0x4F5 PUSH2 0x3AD JUMP JUMPDEST JUMPDEST PUSH0 DUP3 ADD CALLDATALOAD PUSH8 0xFFFFFFFFFFFFFFFF DUP2 GT ISZERO PUSH2 0x513 JUMPI PUSH2 0x512 PUSH2 0x3B1 JUMP JUMPDEST JUMPDEST PUSH2 0x51F DUP5 DUP3 DUP6 ADD PUSH2 0x4B4 JUMP JUMPDEST SWAP2 POP POP SWAP3 SWAP2 POP POP JUMP JUMPDEST PUSH0 DUP2 SWAP1 POP SWAP2 SWAP1 POP JUMP JUMPDEST PUSH2 0x53A DUP2 PUSH2 0x528 JUMP JUMPDEST DUP2 EQ PUSH2 0x544 JUMPI PUSH0 DUP1 REVERT JUMPDEST POP JUMP JUMPDEST PUSH0 DUP2 CALLDATALOAD SWAP1 POP PUSH2 0x555 DUP2 PUSH2 0x531 JUMP JUMPDEST SWAP3 SWAP2 POP POP JUMP JUMPDEST PUSH0 PUSH1 0x20 DUP3 DUP5 SUB SLT ISZERO PUSH2 0x570 JUMPI PUSH2 0x56F PUSH2 0x3AD JUMP JUMPDEST JUMPDEST PUSH0 PUSH2 0x57D DUP5 DUP3 DUP6 ADD PUSH2 0x547 JUMP JUMPDEST SWAP2 POP POP SWAP3 SWAP2 POP POP JUMP JUMPDEST PUSH0 DUP3 DUP3 MSTORE PUSH1 0x20 DUP3 ADD SWAP1 POP SWAP3 SWAP2 POP POP JUMP JUMPDEST PUSH0 PUSH2 0x5A0 DUP3 PUSH2 0x282 JUMP JUMPDEST PUSH2 0x5AA DUP2 DUP6 PUSH2 0x586 JUMP JUMPDEST SWAP4 POP PUSH2 0x5BA DUP2 DUP6 PUSH1 0x20 DUP7 ADD PUSH2 0x29C JUMP JUMPDEST PUSH2 0x5C3 DUP2 PUSH2 0x2AA JUMP JUMPDEST DUP5 ADD SWAP2 POP POP SWAP3 SWAP2 POP POP JUMP JUMPDEST PUSH0 PUSH1 0x20 DUP3 ADD SWAP1 POP DUP2 DUP2 SUB PUSH0 DUP4 ADD MSTORE PUSH2 0x5E6 DUP2 DUP5 PUSH2 0x596 JUMP JUMPDEST SWAP1 POP SWAP3 SWAP2 POP POP JUMP JUMPDEST PUSH32 0x4E487B7100000000000000000000000000000000000000000000000000000000 PUSH0 MSTORE PUSH1 0x22 PUSH1 0x4 MSTORE PUSH1 0x24 PUSH0 REVERT JUMPDEST PUSH0 PUSH1 0x2 DUP3 DIV SWAP1 POP PUSH1 0x1 DUP3 AND DUP1 PUSH2 0x632 JUMPI PUSH1 0x7F DUP3 AND SWAP2 POP JUMPDEST PUSH1 0x20 DUP3 LT DUP2 SUB PUSH2 0x645 JUMPI PUSH2 0x644 PUSH2 0x5EE JUMP JUMPDEST JUMPDEST POP SWAP2 SWAP1 POP JUMP JUMPDEST PUSH0 DUP2 SWAP1 POP DUP2 PUSH0 MSTORE PUSH1 0x20 PUSH0 KECCAK256 SWAP1 POP SWAP2 SWAP1 POP JUMP JUMPDEST PUSH0 PUSH1 0x20 PUSH1 0x1F DUP4 ADD DIV SWAP1 POP SWAP2 SWAP1 POP JUMP JUMPDEST PUSH0 DUP3 DUP3 SHL SWAP1 POP SWAP3 SWAP2 POP POP JUMP JUMPDEST PUSH0 PUSH1 0x8 DUP4 MUL PUSH2 0x6A7 PUSH32 0xFFFFFFFFFFFFFFFFFFFFFFFFFFFFFFFFFFFFFFFFFFFFFFFFFFFFFFFFFFFFFFFF DUP3 PUSH2 0x66C JUMP JUMPDEST PUSH2 0x6B1 DUP7 DUP4 PUSH2 0x66C JUMP JUMPDEST SWAP6 POP DUP1 NOT DUP5 AND SWAP4 POP DUP1 DUP7 AND DUP5 OR SWAP3 POP POP POP SWAP4 SWAP3 POP POP POP JUMP JUMPDEST PUSH0 DUP2 SWAP1 POP SWAP2 SWAP1 POP JUMP JUMPDEST PUSH0 PUSH2 0x6EC PUSH2 0x6E7 PUSH2 0x6E2 DUP5 PUSH2 0x528 JUMP JUMPDEST PUSH2 0x6C9 JUMP JUMPDEST PUSH2 0x528 JUMP JUMPDEST SWAP1 POP SWAP2 SWAP1 POP JUMP JUMPDEST PUSH0 DUP2 SWAP1 POP SWAP2 SWAP1 POP JUMP JUMPDEST PUSH2 0x705 DUP4 PUSH2 0x6D2 JUMP JUMPDEST PUSH2 0x719 PUSH2 0x711 DUP3 PUSH2 0x6F3 JUMP JUMPDEST DUP5 DUP5 SLOAD PUSH2 0x678 JUMP JUMPDEST DUP3 SSTORE POP POP POP POP JUMP JUMPDEST PUSH0 SWAP1 JUMP JUMPDEST PUSH2 0x72D PUSH2 0x721 JUMP JUMPDEST PUSH2 0x738 DUP2 DUP5 DUP5 PUSH2 0x6FC JUMP JUMPDEST POP POP POP JUMP JUMPDEST JUMPDEST DUP2 DUP2 LT ISZERO PUSH2 0x75B JUMPI PUSH2 0x750 PUSH0 DUP3 PUSH2 0x725 JUMP JUMPDEST PUSH1 0x1 DUP2 ADD SWAP1 POP PUSH2 0x73E JUMP JUMPDEST POP POP JUMP JUMPDEST PUSH1 0x1F DUP3 GT ISZERO PUSH2 0x7A0 JUMPI PUSH2 0x771 DUP2 PUSH2 0x64B JUMP JUMPDEST PUSH2 0x77A DUP5 PUSH2 0x65D JUMP JUMPDEST DUP2 ADD PUSH1 0x20 DUP6 LT ISZERO PUSH2 0x789 JUMPI DUP2 SWAP1 POP JUMPDEST PUSH2 0x79D PUSH2 0x795 DUP6 PUSH2 0x65D JUMP JUMPDEST DUP4 ADD DUP3 PUSH2 0x73D JUMP JUMPDEST POP POP JUMPDEST POP POP POP JUMP JUMPDEST PUSH0 DUP3 DUP3 SHR SWAP1 POP SWAP3 SWAP2 POP POP JUMP JUMPDEST PUSH0 PUSH2 0x7C0 PUSH0 NOT DUP5 PUSH1 0x8 MUL PUSH2 0x7A5 JUMP JUMPDEST NOT DUP1 DUP4 AND SWAP2 POP POP SWAP3 SWAP2 POP POP JUMP JUMPDEST PUSH0 PUSH2 0x7D8 DUP4 DUP4 PUSH2 0x7B1 JUMP JUMPDEST SWAP2 POP DUP3 PUSH1 0x2 MUL DUP3 OR SWAP1 POP SWAP3 SWAP2 POP POP JUMP JUMPDEST PUSH2 0x7F1 DUP3 PUSH2 0x282 JUMP JUMPDEST PUSH8 0xFFFFFFFFFFFFFFFF DUP2 GT ISZERO PUSH2 0x80A JUMPI PUSH2 0x809 PUSH2 0x3BD JUMP JUMPDEST JUMPDEST PUSH2 0x814 DUP3 SLOAD PUSH2 0x61B JUMP JUMPDEST PUSH2 0x81F DUP3 DUP3 DUP6 PUSH2 0x75F JUMP JUMPDEST PUSH0 PUSH1 0x20 SWAP1 POP PUSH1 0x1F DUP4 GT PUSH1 0x1 DUP2 EQ PUSH2 0x850 JUMPI PUSH0 DUP5 ISZERO PUSH2 0x83E JUMPI DUP3 DUP8 ADD MLOAD SWAP1 POP JUMPDEST PUSH2 0x848 DUP6 DUP3 PUSH2 0x7CD JUMP JUMPDEST DUP7 SSTORE POP PUSH2 0x8AF JUMP JUMPDEST PUSH1 0x1F NOT DUP5 AND PUSH2 0x85E DUP7 PUSH2 0x64B JUMP JUMPDEST PUSH0 JUMPDEST DUP3 DUP2 LT ISZERO PUSH2 0x885 JUMPI DUP5 DUP10 ADD MLOAD DUP3 SSTORE PUSH1 0x1 DUP3 ADD SWAP2 POP PUSH1 0x20 DUP6 ADD SWAP5 POP PUSH1 0x20 DUP2 ADD SWAP1 POP PUSH2 0x860 JUMP JUMPDEST DUP7 DUP4 LT ISZERO PUSH2 0x8A2 JUMPI DUP5 DUP10 ADD MLOAD PUSH2 0x89E PUSH1 0x1F DUP10 AND DUP3 PUSH2 0x7B1 JUMP JUMPDEST DUP4 SSTORE POP JUMPDEST PUSH1 0x1 PUSH1 0x2 DUP9 MUL ADD DUP9 SSTORE POP POP POP JUMPDEST POP POP POP POP POP POP JUMP INVALID LOG2 PUSH5 0x6970667358 0x22 SLT KECCAK256 PC BYTE SWAP1 0xED 0xC9 SHL 0xE8 SIGNEXTEND SWAP6 PUSH4 0x53C0F0DD PUSH0 GASPRICE 0xB6 SWAP1 0xF7 SSTORE 0xCE 0xEE 0xCD 0xC3 SHL PUSH9 0x588AB852A33564736F PUSH13 0x634300081A0033000000000000 "
				},
				"gasEstimates": {
					"creation": {
						"codeDepositCost": "457000",
						"executionCost": "491",
						"totalCost": "457491"
					},
					"external": {
						"addWish(string)": "infinite",
						"getWishes()": "infinite",
						"wishes(uint256)": "infinite"
					}
				},
				"methodIdentifiers": {
					"addWish(string)": "15c39a5a",
					"getWishes()": "0153b82b",
					"wishes(uint256)": "8820e466"
				}
			},
			"storageLayout": {
				"storage": [
					{
						"astId": 4,
						"contract": "holiday gift.sol:HolidayWishes",
						"label": "wishes",
						"offset": 0,
						"slot": "0",
						"type": "t_array(t_string_storage)dyn_storage"
					}
				],
				"types": {
					"t_array(t_string_storage)dyn_storage": {
						"base": "t_string_storage",
						"encoding": "dynamic_array",
						"label": "string[]",
						"numberOfBytes": "32"
					},
					"t_string_storage": {
						"encoding": "bytes",
						"label": "string",
						"numberOfBytes": "32"
					}
				}
			},
			"userdoc": {
				"kind": "user",
				"methods": {},
				"version": 1
			}
		}
	}
}