{
	"palindrome number.sol": {
		"PalindromeChecker": {
			"abi": [
				{
					"inputs": [
						{
							"internalType": "uint256",
							"name": "number",
							"type": "uint256"
						}
					],
					"name": "isPalindrome",
					"outputs": [
						{
							"internalType": "bool",
							"name": "",
							"type": "bool"
						}
					],
					"stateMutability": "pure",
					"type": "function"
				}
			],
			"devdoc": {
				"kind": "dev",
				"methods": {},
				"version": 1
			},
			"evm": {
				"assembly": "    /* \"palindrome number.sol\":60:473  contract PalindromeChecker {... */\n  mstore(0x40, 0x80)\n  callvalue\n  dup1\n  iszero\n  tag_1\n  jumpi\n  0x00\n  dup1\n  revert\ntag_1:\n  pop\n  dataSize(sub_0)\n  dup1\n  dataOffset(sub_0)\n  0x00\n  codecopy\n  0x00\n  return\nstop\n\nsub_0: assembly {\n        /* \"palindrome number.sol\":60:473  contract PalindromeChecker {... */\n      mstore(0x40, 0x80)\n      callvalue\n      dup1\n      iszero\n      tag_1\n      jumpi\n      0x00\n      dup1\n      revert\n    tag_1:\n      pop\n      jumpi(tag_2, lt(calldatasize, 0x04))\n      shr(0xe0, calldataload(0x00))\n      dup1\n      0x041a4e56\n      eq\n      tag_3\n      jumpi\n    tag_2:\n      0x00\n      dup1\n      revert\n        /* \"palindrome number.sol\":94:470  function isPalindrome(uint256 number) public pure returns (bool) {... */\n    tag_3:\n      tag_4\n      0x04\n      dup1\n      calldatasize\n      sub\n      dup2\n      add\n      swap1\n      tag_5\n      swap2\n      swap1\n      tag_6\n      jump\t// in\n    tag_5:\n      tag_7\n      jump\t// in\n    tag_4:\n      mload(0x40)\n      tag_8\n      swap2\n      swap1\n      tag_9\n      jump\t// in\n    tag_8:\n      mload(0x40)\n      dup1\n      swap2\n      sub\n      swap1\n      return\n    tag_7:\n        /* \"palindrome number.sol\":153:157  bool */\n      0x00\n        /* \"palindrome number.sol\":170:192  uint256 reversedNumber */\n      dup1\n        /* \"palindrome number.sol\":195:196  0 */\n      0x00\n        /* \"palindrome number.sol\":170:196  uint256 reversedNumber = 0 */\n      swap1\n      pop\n        /* \"palindrome number.sol\":207:229  uint256 originalNumber */\n      0x00\n        /* \"palindrome number.sol\":232:238  number */\n      dup4\n        /* \"palindrome number.sol\":207:238  uint256 originalNumber = number */\n      swap1\n      pop\n        /* \"palindrome number.sol\":251:411  while (number != 0) {... */\n    tag_11:\n        /* \"palindrome number.sol\":268:269  0 */\n      0x00\n        /* \"palindrome number.sol\":258:264  number */\n      dup5\n        /* \"palindrome number.sol\":258:269  number != 0 */\n      eq\n        /* \"palindrome number.sol\":251:411  while (number != 0) {... */\n      tag_12\n      jumpi\n        /* \"palindrome number.sol\":286:299  uint256 digit */\n      0x00\n        /* \"palindrome number.sol\":311:313  10 */\n      0x0a\n        /* \"palindrome number.sol\":302:308  number */\n      dup6\n        /* \"palindrome number.sol\":302:313  number % 10 */\n      tag_13\n      swap2\n      swap1\n      tag_14\n      jump\t// in\n    tag_13:\n        /* \"palindrome number.sol\":286:313  uint256 digit = number % 10 */\n      swap1\n      pop\n        /* \"palindrome number.sol\":367:372  digit */\n      dup1\n        /* \"palindrome number.sol\":362:364  10 */\n      0x0a\n        /* \"palindrome number.sol\":345:359  reversedNumber */\n      dup5\n        /* \"palindrome number.sol\":345:364  reversedNumber * 10 */\n      tag_15\n      swap2\n      swap1\n      tag_16\n      jump\t// in\n    tag_15:\n        /* \"palindrome number.sol\":345:372  reversedNumber * 10 + digit */\n      tag_17\n      swap2\n      swap1\n      tag_18\n      jump\t// in\n    tag_17:\n        /* \"palindrome number.sol\":328:372  reversedNumber = reversedNumber * 10 + digit */\n      swap3\n      pop\n        /* \"palindrome number.sol\":397:399  10 */\n      0x0a\n        /* \"palindrome number.sol\":387:399  number /= 10 */\n      dup6\n      tag_19\n      swap2\n      swap1\n      tag_20\n      jump\t// in\n    tag_19:\n      swap5\n      pop\n        /* \"palindrome number.sol\":271:411  {... */\n      pop\n        /* \"palindrome number.sol\":251:411  while (number != 0) {... */\n      jump(tag_11)\n    tag_12:\n        /* \"palindrome number.sol\":448:462  reversedNumber */\n      dup2\n        /* \"palindrome number.sol\":430:444  originalNumber */\n      dup2\n        /* \"palindrome number.sol\":430:462  originalNumber == reversedNumber */\n      eq\n        /* \"palindrome number.sol\":423:462  return originalNumber == reversedNumber */\n      swap3\n      pop\n      pop\n      pop\n        /* \"palindrome number.sol\":94:470  function isPalindrome(uint256 number) public pure returns (bool) {... */\n      swap2\n      swap1\n      pop\n      jump\t// out\n        /* \"#utility.yul\":88:205   */\n    tag_22:\n        /* \"#utility.yul\":197:198   */\n      0x00\n        /* \"#utility.yul\":194:195   */\n      dup1\n        /* \"#utility.yul\":187:199   */\n      revert\n        /* \"#utility.yul\":334:411   */\n    tag_24:\n        /* \"#utility.yul\":371:378   */\n      0x00\n        /* \"#utility.yul\":400:405   */\n      dup2\n        /* \"#utility.yul\":389:405   */\n      swap1\n      pop\n        /* \"#utility.yul\":334:411   */\n      swap2\n      swap1\n      pop\n      jump\t// out\n        /* \"#utility.yul\":417:539   */\n    tag_25:\n        /* \"#utility.yul\":490:514   */\n      tag_37\n        /* \"#utility.yul\":508:513   */\n      dup2\n        /* \"#utility.yul\":490:514   */\n      tag_24\n      jump\t// in\n    tag_37:\n        /* \"#utility.yul\":483:488   */\n      dup2\n        /* \"#utility.yul\":480:515   */\n      eq\n        /* \"#utility.yul\":470:533   */\n      tag_38\n      jumpi\n        /* \"#utility.yul\":529:530   */\n      0x00\n        /* \"#utility.yul\":526:527   */\n      dup1\n        /* \"#utility.yul\":519:531   */\n      revert\n        /* \"#utility.yul\":470:533   */\n    tag_38:\n        /* \"#utility.yul\":417:539   */\n      pop\n      jump\t// out\n        /* \"#utility.yul\":545:684   */\n    tag_26:\n        /* \"#utility.yul\":591:596   */\n      0x00\n        /* \"#utility.yul\":629:635   */\n      dup2\n        /* \"#utility.yul\":616:636   */\n      calldataload\n        /* \"#utility.yul\":607:636   */\n      swap1\n      pop\n        /* \"#utility.yul\":645:678   */\n      tag_40\n        /* \"#utility.yul\":672:677   */\n      dup2\n        /* \"#utility.yul\":645:678   */\n      tag_25\n      jump\t// in\n    tag_40:\n        /* \"#utility.yul\":545:684   */\n      swap3\n      swap2\n      pop\n      pop\n      jump\t// out\n        /* \"#utility.yul\":690:1019   */\n    tag_6:\n        /* \"#utility.yul\":749:755   */\n      0x00\n        /* \"#utility.yul\":798:800   */\n      0x20\n        /* \"#utility.yul\":786:795   */\n      dup3\n        /* \"#utility.yul\":777:784   */\n      dup5\n        /* \"#utility.yul\":773:796   */\n      sub\n        /* \"#utility.yul\":769:801   */\n      slt\n        /* \"#utility.yul\":766:885   */\n      iszero\n      tag_42\n      jumpi\n        /* \"#utility.yul\":804:883   */\n      tag_43\n      tag_22\n      jump\t// in\n    tag_43:\n        /* \"#utility.yul\":766:885   */\n    tag_42:\n        /* \"#utility.yul\":924:925   */\n      0x00\n        /* \"#utility.yul\":949:1002   */\n      tag_44\n        /* \"#utility.yul\":994:1001   */\n      dup5\n        /* \"#utility.yul\":985:991   */\n      dup3\n        /* \"#utility.yul\":974:983   */\n      dup6\n        /* \"#utility.yul\":970:992   */\n      add\n        /* \"#utility.yul\":949:1002   */\n      tag_26\n      jump\t// in\n    tag_44:\n        /* \"#utility.yul\":939:1002   */\n      swap2\n      pop\n        /* \"#utility.yul\":895:1012   */\n      pop\n        /* \"#utility.yul\":690:1019   */\n      swap3\n      swap2\n      pop\n      pop\n      jump\t// out\n        /* \"#utility.yul\":1025:1115   */\n    tag_27:\n        /* \"#utility.yul\":1059:1066   */\n      0x00\n        /* \"#utility.yul\":1102:1107   */\n      dup2\n        /* \"#utility.yul\":1095:1108   */\n      iszero\n        /* \"#utility.yul\":1088:1109   */\n      iszero\n        /* \"#utility.yul\":1077:1109   */\n      swap1\n      pop\n        /* \"#utility.yul\":1025:1115   */\n      swap2\n      swap1\n      pop\n      jump\t// out\n        /* \"#utility.yul\":1121:1230   */\n    tag_28:\n        /* \"#utility.yul\":1202:1223   */\n      tag_47\n        /* \"#utility.yul\":1217:1222   */\n      dup2\n        /* \"#utility.yul\":1202:1223   */\n      tag_27\n      jump\t// in\n    tag_47:\n        /* \"#utility.yul\":1197:1200   */\n      dup3\n        /* \"#utility.yul\":1190:1224   */\n      mstore\n        /* \"#utility.yul\":1121:1230   */\n      pop\n      pop\n      jump\t// out\n        /* \"#utility.yul\":1236:1446   */\n    tag_9:\n        /* \"#utility.yul\":1323:1327   */\n      0x00\n        /* \"#utility.yul\":1361:1363   */\n      0x20\n        /* \"#utility.yul\":1350:1359   */\n      dup3\n        /* \"#utility.yul\":1346:1364   */\n      add\n        /* \"#utility.yul\":1338:1364   */\n      swap1\n      pop\n        /* \"#utility.yul\":1374:1439   */\n      tag_49\n        /* \"#utility.yul\":1436:1437   */\n      0x00\n        /* \"#utility.yul\":1425:1434   */\n      dup4\n        /* \"#utility.yul\":1421:1438   */\n      add\n        /* \"#utility.yul\":1412:1418   */\n      dup5\n        /* \"#utility.yul\":1374:1439   */\n      tag_28\n      jump\t// in\n    tag_49:\n        /* \"#utility.yul\":1236:1446   */\n      swap3\n      swap2\n      pop\n      pop\n      jump\t// out\n        /* \"#utility.yul\":1452:1632   */\n    tag_29:\n        /* \"#utility.yul\":1500:1577   */\n      0x4e487b7100000000000000000000000000000000000000000000000000000000\n        /* \"#utility.yul\":1497:1498   */\n      0x00\n        /* \"#utility.yul\":1490:1578   */\n      mstore\n        /* \"#utility.yul\":1597:1601   */\n      0x12\n        /* \"#utility.yul\":1594:1595   */\n      0x04\n        /* \"#utility.yul\":1587:1602   */\n      mstore\n        /* \"#utility.yul\":1621:1625   */\n      0x24\n        /* \"#utility.yul\":1618:1619   */\n      0x00\n        /* \"#utility.yul\":1611:1626   */\n      revert\n        /* \"#utility.yul\":1638:1814   */\n    tag_14:\n        /* \"#utility.yul\":1670:1671   */\n      0x00\n        /* \"#utility.yul\":1687:1707   */\n      tag_52\n        /* \"#utility.yul\":1705:1706   */\n      dup3\n        /* \"#utility.yul\":1687:1707   */\n      tag_24\n      jump\t// in\n    tag_52:\n        /* \"#utility.yul\":1682:1707   */\n      swap2\n      pop\n        /* \"#utility.yul\":1721:1741   */\n      tag_53\n        /* \"#utility.yul\":1739:1740   */\n      dup4\n        /* \"#utility.yul\":1721:1741   */\n      tag_24\n      jump\t// in\n    tag_53:\n        /* \"#utility.yul\":1716:1741   */\n      swap3\n      pop\n        /* \"#utility.yul\":1760:1761   */\n      dup3\n        /* \"#utility.yul\":1750:1785   */\n      tag_54\n      jumpi\n        /* \"#utility.yul\":1765:1783   */\n      tag_55\n      tag_29\n      jump\t// in\n    tag_55:\n        /* \"#utility.yul\":1750:1785   */\n    tag_54:\n        /* \"#utility.yul\":1806:1807   */\n      dup3\n        /* \"#utility.yul\":1803:1804   */\n      dup3\n        /* \"#utility.yul\":1799:1808   */\n      mod\n        /* \"#utility.yul\":1794:1808   */\n      swap1\n      pop\n        /* \"#utility.yul\":1638:1814   */\n      swap3\n      swap2\n      pop\n      pop\n      jump\t// out\n        /* \"#utility.yul\":1820:2000   */\n    tag_30:\n        /* \"#utility.yul\":1868:1945   */\n      0x4e487b7100000000000000000000000000000000000000000000000000000000\n        /* \"#utility.yul\":1865:1866   */\n      0x00\n        /* \"#utility.yul\":1858:1946   */\n      mstore\n        /* \"#utility.yul\":1965:1969   */\n      0x11\n        /* \"#utility.yul\":1962:1963   */\n      0x04\n        /* \"#utility.yul\":1955:1970   */\n      mstore\n        /* \"#utility.yul\":1989:1993   */\n      0x24\n        /* \"#utility.yul\":1986:1987   */\n      0x00\n        /* \"#utility.yul\":1979:1994   */\n      revert\n        /* \"#utility.yul\":2006:2416   */\n    tag_16:\n        /* \"#utility.yul\":2046:2053   */\n      0x00\n        /* \"#utility.yul\":2069:2089   */\n      tag_58\n        /* \"#utility.yul\":2087:2088   */\n      dup3\n        /* \"#utility.yul\":2069:2089   */\n      tag_24\n      jump\t// in\n    tag_58:\n        /* \"#utility.yul\":2064:2089   */\n      swap2\n      pop\n        /* \"#utility.yul\":2103:2123   */\n      tag_59\n        /* \"#utility.yul\":2121:2122   */\n      dup4\n        /* \"#utility.yul\":2103:2123   */\n      tag_24\n      jump\t// in\n    tag_59:\n        /* \"#utility.yul\":2098:2123   */\n      swap3\n      pop\n        /* \"#utility.yul\":2158:2159   */\n      dup3\n        /* \"#utility.yul\":2155:2156   */\n      dup3\n        /* \"#utility.yul\":2151:2160   */\n      mul\n        /* \"#utility.yul\":2180:2210   */\n      tag_60\n        /* \"#utility.yul\":2198:2209   */\n      dup2\n        /* \"#utility.yul\":2180:2210   */\n      tag_24\n      jump\t// in\n    tag_60:\n        /* \"#utility.yul\":2169:2210   */\n      swap2\n      pop\n        /* \"#utility.yul\":2359:2360   */\n      dup3\n        /* \"#utility.yul\":2350:2357   */\n      dup3\n        /* \"#utility.yul\":2346:2361   */\n      div\n        /* \"#utility.yul\":2343:2344   */\n      dup5\n        /* \"#utility.yul\":2340:2362   */\n      eq\n        /* \"#utility.yul\":2320:2321   */\n      dup4\n        /* \"#utility.yul\":2313:2322   */\n      iszero\n        /* \"#utility.yul\":2293:2376   */\n      or\n        /* \"#utility.yul\":2270:2409   */\n      tag_61\n      jumpi\n        /* \"#utility.yul\":2389:2407   */\n      tag_62\n      tag_30\n      jump\t// in\n    tag_62:\n        /* \"#utility.yul\":2270:2409   */\n    tag_61:\n        /* \"#utility.yul\":2054:2416   */\n      pop\n        /* \"#utility.yul\":2006:2416   */\n      swap3\n      swap2\n      pop\n      pop\n      jump\t// out\n        /* \"#utility.yul\":2422:2613   */\n    tag_18:\n        /* \"#utility.yul\":2462:2465   */\n      0x00\n        /* \"#utility.yul\":2481:2501   */\n      tag_64\n        /* \"#utility.yul\":2499:2500   */\n      dup3\n        /* \"#utility.yul\":2481:2501   */\n      tag_24\n      jump\t// in\n    tag_64:\n        /* \"#utility.yul\":2476:2501   */\n      swap2\n      pop\n        /* \"#utility.yul\":2515:2535   */\n      tag_65\n        /* \"#utility.yul\":2533:2534   */\n      dup4\n        /* \"#utility.yul\":2515:2535   */\n      tag_24\n      jump\t// in\n    tag_65:\n        /* \"#utility.yul\":2510:2535   */\n      swap3\n      pop\n        /* \"#utility.yul\":2558:2559   */\n      dup3\n        /* \"#utility.yul\":2555:2556   */\n      dup3\n        /* \"#utility.yul\":2551:2560   */\n      add\n        /* \"#utility.yul\":2544:2560   */\n      swap1\n      pop\n        /* \"#utility.yul\":2579:2582   */\n      dup1\n        /* \"#utility.yul\":2576:2577   */\n      dup3\n        /* \"#utility.yul\":2573:2583   */\n      gt\n        /* \"#utility.yul\":2570:2606   */\n      iszero\n      tag_66\n      jumpi\n        /* \"#utility.yul\":2586:2604   */\n      tag_67\n      tag_30\n      jump\t// in\n    tag_67:\n        /* \"#utility.yul\":2570:2606   */\n    tag_66:\n        /* \"#utility.yul\":2422:2613   */\n      swap3\n      swap2\n      pop\n      pop\n      jump\t// out\n        /* \"#utility.yul\":2619:2804   */\n    tag_20:\n        /* \"#utility.yul\":2659:2660   */\n      0x00\n        /* \"#utility.yul\":2676:2696   */\n      tag_69\n        /* \"#utility.yul\":2694:2695   */\n      dup3\n        /* \"#utility.yul\":2676:2696   */\n      tag_24\n      jump\t// in\n    tag_69:\n        /* \"#utility.yul\":2671:2696   */\n      swap2\n      pop\n        /* \"#utility.yul\":2710:2730   */\n      tag_70\n        /* \"#utility.yul\":2728:2729   */\n      dup4\n        /* \"#utility.yul\":2710:2730   */\n      tag_24\n      jump\t// in\n    tag_70:\n        /* \"#utility.yul\":2705:2730   */\n      swap3\n      pop\n        /* \"#utility.yul\":2749:2750   */\n      dup3\n        /* \"#utility.yul\":2739:2774   */\n      tag_71\n      jumpi\n        /* \"#utility.yul\":2754:2772   */\n      tag_72\n      tag_29\n      jump\t// in\n    tag_72:\n        /* \"#utility.yul\":2739:2774   */\n    tag_71:\n        /* \"#utility.yul\":2796:2797   */\n      dup3\n        /* \"#utility.yul\":2793:2794   */\n      dup3\n        /* \"#utility.yul\":2789:2798   */\n      div\n        /* \"#utility.yul\":2784:2798   */\n      swap1\n      pop\n        /* \"#utility.yul\":2619:2804   */\n      swap3\n      swap2\n      pop\n      pop\n      jump\t// out\n\n    auxdata: 0xa2646970667358221220ad5b7255d9719f8f0daf63bebcc7fa6b8e0916c7994714a0c24b43aca003e8a564736f6c634300081a0033\n}\n",
				"bytecode": {
					"linkReferences": {},
					"object": "6080604052348015600e575f80fd5b506102b28061001c5f395ff3fe608060405234801561000f575f80fd5b5060043610610029575f3560e01c8063041a4e561461002d575b5f80fd5b610047600480360381019061004291906100f0565b61005d565b6040516100549190610135565b60405180910390f35b5f805f90505f8390505b5f84146100ad575f600a8561007c919061017b565b905080600a8461008c91906101d8565b6100969190610219565b9250600a856100a5919061024c565b945050610067565b81811492505050919050565b5f80fd5b5f819050919050565b6100cf816100bd565b81146100d9575f80fd5b50565b5f813590506100ea816100c6565b92915050565b5f60208284031215610105576101046100b9565b5b5f610112848285016100dc565b91505092915050565b5f8115159050919050565b61012f8161011b565b82525050565b5f6020820190506101485f830184610126565b92915050565b7f4e487b71000000000000000000000000000000000000000000000000000000005f52601260045260245ffd5b5f610185826100bd565b9150610190836100bd565b9250826101a05761019f61014e565b5b828206905092915050565b7f4e487b71000000000000000000000000000000000000000000000000000000005f52601160045260245ffd5b5f6101e2826100bd565b91506101ed836100bd565b92508282026101fb816100bd565b91508282048414831517610212576102116101ab565b5b5092915050565b5f610223826100bd565b915061022e836100bd565b9250828201905080821115610246576102456101ab565b5b92915050565b5f610256826100bd565b9150610261836100bd565b9250826102715761027061014e565b5b82820490509291505056fea2646970667358221220ad5b7255d9719f8f0daf63bebcc7fa6b8e0916c7994714a0c24b43aca003e8a564736f6c634300081a0033",
					"opcodes": "PUSH1 0x80 PUSH1 0x40 MSTORE CALLVALUE DUP1 ISZERO PUSH1 0xE JUMPI PUSH0 DUP1 REVERT JUMPDEST POP PUSH2 0x2B2 DUP1 PUSH2 0x1C PUSH0 CODECOPY PUSH0 RETURN INVALID PUSH1 0x80 PUSH1 0x40 MSTORE CALLVALUE DUP1 ISZERO PUSH2 0xF JUMPI PUSH0 DUP1 REVERT JUMPDEST POP PUSH1 0x4 CALLDATASIZE LT PUSH2 0x29 JUMPI PUSH0 CALLDATALOAD PUSH1 0xE0 SHR DUP1 PUSH4 0x41A4E56 EQ PUSH2 0x2D JUMPI JUMPDEST PUSH0 DUP1 REVERT JUMPDEST PUSH2 0x47 PUSH1 0x4 DUP1 CALLDATASIZE SUB DUP2 ADD SWAP1 PUSH2 0x42 SWAP2 SWAP1 PUSH2 0xF0 JUMP JUMPDEST PUSH2 0x5D JUMP JUMPDEST PUSH1 0x40 MLOAD PUSH2 0x54 SWAP2 SWAP1 PUSH2 0x135 JUMP JUMPDEST PUSH1 0x40 MLOAD DUP1 SWAP2 SUB SWAP1 RETURN JUMPDEST PUSH0 DUP1 PUSH0 SWAP1 POP PUSH0 DUP4 SWAP1 POP JUMPDEST PUSH0 DUP5 EQ PUSH2 0xAD JUMPI PUSH0 PUSH1 0xA DUP6 PUSH2 0x7C SWAP2 SWAP1 PUSH2 0x17B JUMP JUMPDEST SWAP1 POP DUP1 PUSH1 0xA DUP5 PUSH2 0x8C SWAP2 SWAP1 PUSH2 0x1D8 JUMP JUMPDEST PUSH2 0x96 SWAP2 SWAP1 PUSH2 0x219 JUMP JUMPDEST SWAP3 POP PUSH1 0xA DUP6 PUSH2 0xA5 SWAP2 SWAP1 PUSH2 0x24C JUMP JUMPDEST SWAP5 POP POP PUSH2 0x67 JUMP JUMPDEST DUP2 DUP2 EQ SWAP3 POP POP POP SWAP2 SWAP1 POP JUMP JUMPDEST PUSH0 DUP1 REVERT JUMPDEST PUSH0 DUP2 SWAP1 POP SWAP2 SWAP1 POP JUMP JUMPDEST PUSH2 0xCF DUP2 PUSH2 0xBD JUMP JUMPDEST DUP2 EQ PUSH2 0xD9 JUMPI PUSH0 DUP1 REVERT JUMPDEST POP JUMP JUMPDEST PUSH0 DUP2 CALLDATALOAD SWAP1 POP PUSH2 0xEA DUP2 PUSH2 0xC6 JUMP JUMPDEST SWAP3 SWAP2 POP POP JUMP JUMPDEST PUSH0 PUSH1 0x20 DUP3 DUP5 SUB SLT ISZERO PUSH2 0x105 JUMPI PUSH2 0x104 PUSH2 0xB9 JUMP JUMPDEST JUMPDEST PUSH0 PUSH2 0x112 DUP5 DUP3 DUP6 ADD PUSH2 0xDC JUMP JUMPDEST SWAP2 POP POP SWAP3 SWAP2 POP POP JUMP JUMPDEST PUSH0 DUP2 ISZERO ISZERO SWAP1 POP SWAP2 SWAP1 POP JUMP JUMPDEST PUSH2 0x12F DUP2 PUSH2 0x11B JUMP JUMPDEST DUP3 MSTORE POP POP JUMP JUMPDEST PUSH0 PUSH1 0x20 DUP3 ADD SWAP1 POP PUSH2 0x148 PUSH0 DUP4 ADD DUP5 PUSH2 0x126 JUMP JUMPDEST SWAP3 SWAP2 POP POP JUMP JUMPDEST PUSH32 0x4E487B7100000000000000000000000000000000000000000000000000000000 PUSH0 MSTORE PUSH1 0x12 PUSH1 0x4 MSTORE PUSH1 0x24 PUSH0 REVERT JUMPDEST PUSH0 PUSH2 0x185 DUP3 PUSH2 0xBD JUMP JUMPDEST SWAP2 POP PUSH2 0x190 DUP4 PUSH2 0xBD JUMP JUMPDEST SWAP3 POP DUP3 PUSH2 0x1A0 JUMPI PUSH2 0x19F PUSH2 0x14E JUMP JUMPDEST JUMPDEST DUP3 DUP3 MOD SWAP1 POP SWAP3 SWAP2 POP POP JUMP JUMPDEST PUSH32 0x4E487B7100000000000000000000000000000000000000000000000000000000 PUSH0 MSTORE PUSH1 0x11 PUSH1 0x4 MSTORE PUSH1 0x24 PUSH0 REVERT JUMPDEST PUSH0 PUSH2 0x1E2 DUP3 PUSH2 0xBD JUMP JUMPDEST SWAP2 POP PUSH2 0x1ED DUP4 PUSH2 0xBD JUMP JUMPDEST SWAP3 POP DUP3 DUP3 MUL PUSH2 0x1FB DUP2 PUSH2 0xBD JUMP JUMPDEST SWAP2 POP DUP3 DUP3 DIV DUP5 EQ DUP4 ISZERO OR PUSH2 0x212 JUMPI PUSH2 0x211 PUSH2 0x1AB JUMP JUMPDEST JUMPDEST POP SWAP3 SWAP2 POP POP JUMP JUMPDEST PUSH0 PUSH2 0x223 DUP3 PUSH2 0xBD JUMP JUMPDEST SWAP2 POP PUSH2 0x22E DUP4 PUSH2 0xBD JUMP JUMPDEST SWAP3 POP DUP3 DUP3 ADD SWAP1 POP DUP1 DUP3 GT ISZERO PUSH2 0x246 JUMPI PUSH2 0x245 PUSH2 0x1AB JUMP JUMPDEST JUMPDEST SWAP3 SWAP2 POP POP JUMP JUMPDEST PUSH0 PUSH2 0x256 DUP3 PUSH2 0xBD JUMP JUMPDEST SWAP2 POP PUSH2 0x261 DUP4 PUSH2 0xBD JUMP JUMPDEST SWAP3 POP DUP3 PUSH2 0x271 JUMPI PUSH2 0x270 PUSH2 0x14E JUMP JUMPDEST JUMPDEST DUP3 DUP3 DIV SWAP1 POP SWAP3 SWAP2 POP POP JUMP INVALID LOG2 PUSH5 0x6970667358 0x22 SLT KECCAK256 0xAD JUMPDEST PUSH19 0x55D9719F8F0DAF63BEBCC7FA6B8E0916C79947 EQ LOG0 0xC2 0x4B NUMBER 0xAC LOG0 SUB 0xE8 0xA5 PUSH5 0x736F6C6343 STOP ADDMOD BYTE STOP CALLER "
				},
				"gasEstimates": {
					"creation": {
						"codeDepositCost": "138000",
						"executionCost": "181",
						"totalCost": "138181"
					},
					"external": {
						"isPalindrome(uint256)": "infinite"
					}
				},
				"methodIdentifiers": {
					"isPalindrome(uint256)": "041a4e56"
				}
			},
			"storageLayout": {
				"storage": [],
				"types": null
			},
			"userdoc": {
				"kind": "user",
				"methods": {},
				"version": 1
			}
		}
	}
}