{
	"data": {
		"bytecode": {
			"linkReferences": {},
			"object": "6080604052348015600e575f80fd5b5061029c8061001c5f395ff3fe608060405234801561000f575f80fd5b5060043610610029575f3560e01c8063427034941461002d575b5f80fd5b610047600480360381019061004291906100f6565b61005d565b604051610054919061013b565b60405180910390f35b5f6001821161006e575f90506100ba565b5f600290505b8281826100819190610181565b116100b4575f818461009391906101ef565b036100a1575f9150506100ba565b80806100ac9061021f565b915050610074565b50600190505b919050565b5f80fd5b5f819050919050565b6100d5816100c3565b81146100df575f80fd5b50565b5f813590506100f0816100cc565b92915050565b5f6020828403121561010b5761010a6100bf565b5b5f610118848285016100e2565b91505092915050565b5f8115159050919050565b61013581610121565b82525050565b5f60208201905061014e5f83018461012c565b92915050565b7f4e487b71000000000000000000000000000000000000000000000000000000005f52601160045260245ffd5b5f61018b826100c3565b9150610196836100c3565b92508282026101a4816100c3565b915082820484148315176101bb576101ba610154565b5b5092915050565b7f4e487b71000000000000000000000000000000000000000000000000000000005f52601260045260245ffd5b5f6101f9826100c3565b9150610204836100c3565b925082610214576102136101c2565b5b828206905092915050565b5f610229826100c3565b91507fffffffffffffffffffffffffffffffffffffffffffffffffffffffffffffffff820361025b5761025a610154565b5b60018201905091905056fea2646970667358221220e7e56fd67449a63dacf8949a1a9b57f7806482c350467f12b35524bb510bbe9a64736f6c634300081a0033",
			"opcodes": "PUSH1 0x80 PUSH1 0x40 MSTORE CALLVALUE DUP1 ISZERO PUSH1 0xE JUMPI PUSH0 DUP1 REVERT JUMPDEST POP PUSH2 0x29C DUP1 PUSH2 0x1C PUSH0 CODECOPY PUSH0 RETURN INVALID PUSH1 0x80 PUSH1 0x40 MSTORE CALLVALUE DUP1 ISZERO PUSH2 0xF JUMPI PUSH0 DUP1 REVERT JUMPDEST POP PUSH1 0x4 CALLDATASIZE LT PUSH2 0x29 JUMPI PUSH0 CALLDATALOAD PUSH1 0xE0 SHR DUP1 PUSH4 0x42703494 EQ PUSH2 0x2D JUMPI JUMPDEST PUSH0 DUP1 REVERT JUMPDEST PUSH2 0x47 PUSH1 0x4 DUP1 CALLDATASIZE SUB DUP2 ADD SWAP1 PUSH2 0x42 SWAP2 SWAP1 PUSH2 0xF6 JUMP JUMPDEST PUSH2 0x5D JUMP JUMPDEST PUSH1 0x40 MLOAD PUSH2 0x54 SWAP2 SWAP1 PUSH2 0x13B JUMP JUMPDEST PUSH1 0x40 MLOAD DUP1 SWAP2 SUB SWAP1 RETURN JUMPDEST PUSH0 PUSH1 0x1 DUP3 GT PUSH2 0x6E JUMPI PUSH0 SWAP1 POP PUSH2 0xBA JUMP JUMPDEST PUSH0 PUSH1 0x2 SWAP1 POP JUMPDEST DUP3 DUP2 DUP3 PUSH2 0x81 SWAP2 SWAP1 PUSH2 0x181 JUMP JUMPDEST GT PUSH2 0xB4 JUMPI PUSH0 DUP2 DUP5 PUSH2 0x93 SWAP2 SWAP1 PUSH2 0x1EF JUMP JUMPDEST SUB PUSH2 0xA1 JUMPI PUSH0 SWAP2 POP POP PUSH2 0xBA JUMP JUMPDEST DUP1 DUP1 PUSH2 0xAC SWAP1 PUSH2 0x21F JUMP JUMPDEST SWAP2 POP POP PUSH2 0x74 JUMP JUMPDEST POP PUSH1 0x1 SWAP1 POP JUMPDEST SWAP2 SWAP1 POP JUMP JUMPDEST PUSH0 DUP1 REVERT JUMPDEST PUSH0 DUP2 SWAP1 POP SWAP2 SWAP1 POP JUMP JUMPDEST PUSH2 0xD5 DUP2 PUSH2 0xC3 JUMP JUMPDEST DUP2 EQ PUSH2 0xDF JUMPI PUSH0 DUP1 REVERT JUMPDEST POP JUMP JUMPDEST PUSH0 DUP2 CALLDATALOAD SWAP1 POP PUSH2 0xF0 DUP2 PUSH2 0xCC JUMP JUMPDEST SWAP3 SWAP2 POP POP JUMP JUMPDEST PUSH0 PUSH1 0x20 DUP3 DUP5 SUB SLT ISZERO PUSH2 0x10B JUMPI PUSH2 0x10A PUSH2 0xBF JUMP JUMPDEST JUMPDEST PUSH0 PUSH2 0x118 DUP5 DUP3 DUP6 ADD PUSH2 0xE2 JUMP JUMPDEST SWAP2 POP POP SWAP3 SWAP2 POP POP JUMP JUMPDEST PUSH0 DUP2 ISZERO ISZERO SWAP1 POP SWAP2 SWAP1 POP JUMP JUMPDEST PUSH2 0x135 DUP2 PUSH2 0x121 JUMP JUMPDEST DUP3 MSTORE POP POP JUMP JUMPDEST PUSH0 PUSH1 0x20 DUP3 ADD SWAP1 POP PUSH2 0x14E PUSH0 DUP4 ADD DUP5 PUSH2 0x12C JUMP JUMPDEST SWAP3 SWAP2 POP POP JUMP JUMPDEST PUSH32 0x4E487B7100000000000000000000000000000000000000000000000000000000 PUSH0 MSTORE PUSH1 0x11 PUSH1 0x4 MSTORE PUSH1 0x24 PUSH0 REVERT JUMPDEST PUSH0 PUSH2 0x18B DUP3 PUSH2 0xC3 JUMP JUMPDEST SWAP2 POP PUSH2 0x196 DUP4 PUSH2 0xC3 JUMP JUMPDEST SWAP3 POP DUP3 DUP3 MUL PUSH2 0x1A4 DUP2 PUSH2 0xC3 JUMP JUMPDEST SWAP2 POP DUP3 DUP3 DIV DUP5 EQ DUP4 ISZERO OR PUSH2 0x1BB JUMPI PUSH2 0x1BA PUSH2 0x154 JUMP JUMPDEST JUMPDEST POP SWAP3 SWAP2 POP POP JUMP JUMPDEST PUSH32 0x4E487B7100000000000000000000000000000000000000000000000000000000 PUSH0 MSTORE PUSH1 0x12 PUSH1 0x4 MSTORE PUSH1 0x24 PUSH0 REVERT JUMPDEST PUSH0 PUSH2 0x1F9 DUP3 PUSH2 0xC3 JUMP JUMPDEST SWAP2 POP PUSH2 0x204 DUP4 PUSH2 0xC3 JUMP JUMPDEST SWAP3 POP DUP3 PUSH2 0x214 JUMPI PUSH2 0x213 PUSH2 0x1C2 JUMP JUMPDEST JUMPDEST DUP3 DUP3 MOD SWAP1 POP SWAP3 SWAP2 POP POP JUMP JUMPDEST PUSH0 PUSH2 0x229 DUP3 PUSH2 0xC3 JUMP JUMPDEST SWAP2 POP PUSH32 0xFFFFFFFFFFFFFFFFFFFFFFFFFFFFFFFFFFFFFFFFFFFFFFFFFFFFFFFFFFFFFFFF DUP3 SUB PUSH2 0x25B JUMPI PUSH2 0x25A PUSH2 0x154 JUMP JUMPDEST JUMPDEST PUSH1 0x1 DUP3 ADD SWAP1 POP SWAP2 SWAP1 POP JUMP INVALID LOG2 PUSH5 0x6970667358 0x22 SLT KECCAK256 0xE7 0xE5 PUSH16 0xD67449A63DACF8949A1A9B57F7806482 0xC3 POP CHAINID PUSH32 0x12B35524BB510BBE9A64736F6C634300081A0033000000000000000000000000 "
		},
		"gasEstimates": {
			"creation": {
				"codeDepositCost": "133600",
				"executionCost": "175",
				"totalCost": "133775"
			},
			"external": {
				"isPrime(uint256)": "infinite"
			}
		},
		"methodIdentifiers": {
			"isPrime(uint256)": "42703494"
		}
	},
	"abi": [
		{
			"inputs": [
				{
					"internalType": "uint256",
					"name": "_number",
					"type": "uint256"
				}
			],
			"name": "isPrime",
			"outputs": [
				{
					"internalType": "bool",
					"name": "",
					"type": "bool"
				}
			],
			"stateMutability": "pure",
			"type": "function"
		}
	]
}